{
  "contractName": "CryptoBoys",
  "abi": [
    {
      "inputs": [
        {
          "internalType": "string",
          "name": "_name",
          "type": "string"
        },
        {
          "internalType": "string",
          "name": "_symbol",
          "type": "string"
        }
      ],
      "stateMutability": "nonpayable",
      "type": "constructor"
    },
    {
      "anonymous": false,
      "inputs": [
        {
          "indexed": true,
          "internalType": "address",
          "name": "owner",
          "type": "address"
        },
        {
          "indexed": true,
          "internalType": "address",
          "name": "approved",
          "type": "address"
        },
        {
          "indexed": true,
          "internalType": "uint256",
          "name": "tokenId",
          "type": "uint256"
        }
      ],
      "name": "Approval",
      "type": "event"
    },
    {
      "anonymous": false,
      "inputs": [
        {
          "indexed": true,
          "internalType": "address",
          "name": "owner",
          "type": "address"
        },
        {
          "indexed": true,
          "internalType": "address",
          "name": "operator",
          "type": "address"
        },
        {
          "indexed": false,
          "internalType": "bool",
          "name": "approved",
          "type": "bool"
        }
      ],
      "name": "ApprovalForAll",
      "type": "event"
    },
    {
      "anonymous": false,
      "inputs": [
        {
          "indexed": true,
          "internalType": "address",
          "name": "from",
          "type": "address"
        },
        {
          "indexed": true,
          "internalType": "address",
          "name": "to",
          "type": "address"
        },
        {
          "indexed": true,
          "internalType": "uint256",
          "name": "tokenId",
          "type": "uint256"
        }
      ],
      "name": "Transfer",
      "type": "event"
    },
    {
      "anonymous": false,
      "inputs": [
        {
          "indexed": false,
          "internalType": "string",
          "name": "_name",
          "type": "string"
        }
      ],
      "name": "collectoinNameEvent",
      "type": "event"
    },
    {
      "inputs": [
        {
          "internalType": "uint256",
          "name": "",
          "type": "uint256"
        }
      ],
      "name": "allCryptoBoys",
      "outputs": [
        {
          "internalType": "uint256",
          "name": "tokenId",
          "type": "uint256"
        },
        {
          "internalType": "string",
          "name": "tokenName",
          "type": "string"
        },
        {
          "internalType": "string",
          "name": "tokenURI",
          "type": "string"
        },
        {
          "internalType": "address payable",
          "name": "mintedBy",
          "type": "address"
        },
        {
          "internalType": "address payable",
          "name": "currentOwner",
          "type": "address"
        },
        {
          "internalType": "address payable",
          "name": "previousOwner",
          "type": "address"
        },
        {
          "internalType": "uint256",
          "name": "price",
          "type": "uint256"
        },
        {
          "internalType": "uint256",
          "name": "numberOfTransfers",
          "type": "uint256"
        },
        {
          "internalType": "bool",
          "name": "forSale",
          "type": "bool"
        }
      ],
      "stateMutability": "view",
      "type": "function",
      "constant": true
    },
    {
      "inputs": [
        {
          "internalType": "address",
          "name": "to",
          "type": "address"
        },
        {
          "internalType": "uint256",
          "name": "tokenId",
          "type": "uint256"
        }
      ],
      "name": "approve",
      "outputs": [],
      "stateMutability": "nonpayable",
      "type": "function"
    },
    {
      "inputs": [
        {
          "internalType": "address",
          "name": "owner",
          "type": "address"
        }
      ],
      "name": "balanceOf",
      "outputs": [
        {
          "internalType": "uint256",
          "name": "",
          "type": "uint256"
        }
      ],
      "stateMutability": "view",
      "type": "function",
      "constant": true
    },
    {
      "inputs": [],
      "name": "collectionName",
      "outputs": [
        {
          "internalType": "string",
          "name": "",
          "type": "string"
        }
      ],
      "stateMutability": "view",
      "type": "function",
      "constant": true
    },
    {
      "inputs": [],
      "name": "collectionNameSymbol",
      "outputs": [
        {
          "internalType": "string",
          "name": "",
          "type": "string"
        }
      ],
      "stateMutability": "view",
      "type": "function",
      "constant": true
    },
    {
      "inputs": [
        {
          "internalType": "string",
          "name": "",
          "type": "string"
        }
      ],
      "name": "colorExists",
      "outputs": [
        {
          "internalType": "bool",
          "name": "",
          "type": "bool"
        }
      ],
      "stateMutability": "view",
      "type": "function",
      "constant": true
    },
    {
      "inputs": [],
      "name": "cryptoBoyCounter",
      "outputs": [
        {
          "internalType": "uint256",
          "name": "",
          "type": "uint256"
        }
      ],
      "stateMutability": "view",
      "type": "function",
      "constant": true
    },
    {
      "inputs": [
        {
          "internalType": "uint256",
          "name": "tokenId",
          "type": "uint256"
        }
      ],
      "name": "getApproved",
      "outputs": [
        {
          "internalType": "address",
          "name": "",
          "type": "address"
        }
      ],
      "stateMutability": "view",
      "type": "function",
      "constant": true
    },
    {
      "inputs": [
        {
          "internalType": "address",
          "name": "owner",
          "type": "address"
        },
        {
          "internalType": "address",
          "name": "operator",
          "type": "address"
        }
      ],
      "name": "isApprovedForAll",
      "outputs": [
        {
          "internalType": "bool",
          "name": "",
          "type": "bool"
        }
      ],
      "stateMutability": "view",
      "type": "function",
      "constant": true
    },
    {
      "inputs": [],
      "name": "name",
      "outputs": [
        {
          "internalType": "string",
          "name": "",
          "type": "string"
        }
      ],
      "stateMutability": "view",
      "type": "function",
      "constant": true
    },
    {
      "inputs": [
        {
          "internalType": "uint256",
          "name": "tokenId",
          "type": "uint256"
        }
      ],
      "name": "ownerOf",
      "outputs": [
        {
          "internalType": "address",
          "name": "",
          "type": "address"
        }
      ],
      "stateMutability": "view",
      "type": "function",
      "constant": true
    },
    {
      "inputs": [
        {
          "internalType": "address",
          "name": "from",
          "type": "address"
        },
        {
          "internalType": "address",
          "name": "to",
          "type": "address"
        },
        {
          "internalType": "uint256",
          "name": "tokenId",
          "type": "uint256"
        }
      ],
      "name": "safeTransferFrom",
      "outputs": [],
      "stateMutability": "nonpayable",
      "type": "function"
    },
    {
      "inputs": [
        {
          "internalType": "address",
          "name": "from",
          "type": "address"
        },
        {
          "internalType": "address",
          "name": "to",
          "type": "address"
        },
        {
          "internalType": "uint256",
          "name": "tokenId",
          "type": "uint256"
        },
        {
          "internalType": "bytes",
          "name": "_data",
          "type": "bytes"
        }
      ],
      "name": "safeTransferFrom",
      "outputs": [],
      "stateMutability": "nonpayable",
      "type": "function"
    },
    {
      "inputs": [
        {
          "internalType": "address",
          "name": "operator",
          "type": "address"
        },
        {
          "internalType": "bool",
          "name": "approved",
          "type": "bool"
        }
      ],
      "name": "setApprovalForAll",
      "outputs": [],
      "stateMutability": "nonpayable",
      "type": "function"
    },
    {
      "inputs": [
        {
          "internalType": "bytes4",
          "name": "interfaceId",
          "type": "bytes4"
        }
      ],
      "name": "supportsInterface",
      "outputs": [
        {
          "internalType": "bool",
          "name": "",
          "type": "bool"
        }
      ],
      "stateMutability": "view",
      "type": "function",
      "constant": true
    },
    {
      "inputs": [],
      "name": "symbol",
      "outputs": [
        {
          "internalType": "string",
          "name": "",
          "type": "string"
        }
      ],
      "stateMutability": "view",
      "type": "function",
      "constant": true
    },
    {
      "inputs": [
        {
          "internalType": "string",
          "name": "",
          "type": "string"
        }
      ],
      "name": "tokenNameExists",
      "outputs": [
        {
          "internalType": "bool",
          "name": "",
          "type": "bool"
        }
      ],
      "stateMutability": "view",
      "type": "function",
      "constant": true
    },
    {
      "inputs": [
        {
          "internalType": "uint256",
          "name": "tokenId",
          "type": "uint256"
        }
      ],
      "name": "tokenURI",
      "outputs": [
        {
          "internalType": "string",
          "name": "",
          "type": "string"
        }
      ],
      "stateMutability": "view",
      "type": "function",
      "constant": true
    },
    {
      "inputs": [
        {
          "internalType": "string",
          "name": "",
          "type": "string"
        }
      ],
      "name": "tokenURIExists",
      "outputs": [
        {
          "internalType": "bool",
          "name": "",
          "type": "bool"
        }
      ],
      "stateMutability": "view",
      "type": "function",
      "constant": true
    },
    {
      "inputs": [
        {
          "internalType": "address",
          "name": "from",
          "type": "address"
        },
        {
          "internalType": "address",
          "name": "to",
          "type": "address"
        },
        {
          "internalType": "uint256",
          "name": "tokenId",
          "type": "uint256"
        }
      ],
      "name": "transferFrom",
      "outputs": [],
      "stateMutability": "nonpayable",
      "type": "function"
    },
    {
      "inputs": [],
      "name": "getName",
      "outputs": [
        {
          "internalType": "string",
          "name": "",
          "type": "string"
        }
      ],
      "stateMutability": "view",
      "type": "function",
      "constant": true
    },
    {
      "inputs": [
        {
          "internalType": "string",
          "name": "_name",
          "type": "string"
        },
        {
          "internalType": "string",
          "name": "_tokenURI",
          "type": "string"
        },
        {
          "internalType": "uint256",
          "name": "_price",
          "type": "uint256"
        },
        {
          "internalType": "string[]",
          "name": "_colors",
          "type": "string[]"
        }
      ],
      "name": "mintCryptoBoy",
      "outputs": [],
      "stateMutability": "nonpayable",
      "type": "function"
    },
    {
      "inputs": [
        {
          "internalType": "uint256",
          "name": "_tokenId",
          "type": "uint256"
        }
      ],
      "name": "getTokenOwner",
      "outputs": [
        {
          "internalType": "address",
          "name": "",
          "type": "address"
        }
      ],
      "stateMutability": "view",
      "type": "function",
      "constant": true
    },
    {
      "inputs": [
        {
          "internalType": "uint256",
          "name": "_tokenId",
          "type": "uint256"
        }
      ],
      "name": "getTokenMetaData",
      "outputs": [
        {
          "internalType": "string",
          "name": "",
          "type": "string"
        }
      ],
      "stateMutability": "view",
      "type": "function",
      "constant": true
    },
    {
      "inputs": [],
      "name": "getNumberOfTokensMinted",
      "outputs": [
        {
          "internalType": "uint256",
          "name": "",
          "type": "uint256"
        }
      ],
      "stateMutability": "view",
      "type": "function",
      "constant": true
    },
    {
      "inputs": [
        {
          "internalType": "address",
          "name": "_owner",
          "type": "address"
        }
      ],
      "name": "getTotalNumberOfTokensOwnedByAnAddress",
      "outputs": [
        {
          "internalType": "uint256",
          "name": "",
          "type": "uint256"
        }
      ],
      "stateMutability": "view",
      "type": "function",
      "constant": true
    },
    {
      "inputs": [
        {
          "internalType": "uint256",
          "name": "_tokenId",
          "type": "uint256"
        }
      ],
      "name": "getTokenExists",
      "outputs": [
        {
          "internalType": "bool",
          "name": "",
          "type": "bool"
        }
      ],
      "stateMutability": "view",
      "type": "function",
      "constant": true
    },
    {
      "inputs": [
        {
          "internalType": "uint256",
          "name": "_tokenId",
          "type": "uint256"
        }
      ],
      "name": "buyToken",
      "outputs": [],
      "stateMutability": "payable",
      "type": "function",
      "payable": true
    },
    {
      "inputs": [
        {
          "internalType": "uint256",
          "name": "_tokenId",
          "type": "uint256"
        },
        {
          "internalType": "uint256",
          "name": "_newPrice",
          "type": "uint256"
        }
      ],
      "name": "changeTokenPrice",
      "outputs": [],
      "stateMutability": "nonpayable",
      "type": "function"
    },
    {
      "inputs": [
        {
          "internalType": "uint256",
          "name": "_tokenId",
          "type": "uint256"
        }
      ],
      "name": "toggleForSale",
      "outputs": [],
      "stateMutability": "nonpayable",
      "type": "function"
    }
  ],
  "bytecode": "0x60806040523480156200001157600080fd5b5060405162004ea438038062004ea483398181016040528101906200003791906200035e565b6040518060400160405280601681526020017f43727970746f20426f797320436f6c6c656374696f6e000000000000000000008152506040518060400160405280600281526020017f43420000000000000000000000000000000000000000000000000000000000008152508160009080519060200190620000bb92919062000111565b508060019080519060200190620000d492919062000111565b5050508160079080519060200190620000ef92919062000111565b5080600890805190602001906200010892919062000111565b50505062000448565b8280546200011f9062000412565b90600052602060002090601f0160209004810192826200014357600085556200018f565b82601f106200015e57805160ff19168380011785556200018f565b828001600101855582156200018f579182015b828111156200018e57825182559160200191906001019062000171565b5b5090506200019e9190620001a2565b5090565b5b80821115620001bd576000816000905550600101620001a3565b5090565b6000604051905090565b600080fd5b600080fd5b600080fd5b600080fd5b6000601f19601f8301169050919050565b7f4e487b7100000000000000000000000000000000000000000000000000000000600052604160045260246000fd5b6200022a82620001df565b810181811067ffffffffffffffff821117156200024c576200024b620001f0565b5b80604052505050565b600062000261620001c1565b90506200026f82826200021f565b919050565b600067ffffffffffffffff821115620002925762000291620001f0565b5b6200029d82620001df565b9050602081019050919050565b60005b83811015620002ca578082015181840152602081019050620002ad565b83811115620002da576000848401525b50505050565b6000620002f7620002f18462000274565b62000255565b905082815260208101848484011115620003165762000315620001da565b5b62000323848285620002aa565b509392505050565b600082601f830112620003435762000342620001d5565b5b815162000355848260208601620002e0565b91505092915050565b60008060408385031215620003785762000377620001cb565b5b600083015167ffffffffffffffff811115620003995762000398620001d0565b5b620003a7858286016200032b565b925050602083015167ffffffffffffffff811115620003cb57620003ca620001d0565b5b620003d9858286016200032b565b9150509250929050565b7f4e487b7100000000000000000000000000000000000000000000000000000000600052602260045260246000fd5b600060028204905060018216806200042b57607f821691505b60208210811415620004425762000441620003e3565b5b50919050565b614a4c80620004586000396000f3fe6080604052600436106101cd5760003560e01c80636f9507f9116100f7578063a46b1fac11610095578063c87b56dd11610064578063c87b56dd146106f1578063cc151f3a1461072e578063e5326ab114610759578063e985e9c514610784576101cd565b8063a46b1fac14610623578063a5cd761f14610660578063b88d4fde1461069d578063bffec202146106c6576101cd565b806395d89b41116100d157806395d89b411461057d5780639bfc5a59146105a8578063a22cb465146105d1578063a32018b9146105fa576101cd565b80636f9507f9146104d857806370a08231146105035780638d44807c14610540576101cd565b80632d296bf11161016f57806344c0d7eb1161013e57806344c0d7eb146103f057806362e8e8ac146104355780636352211e1461045e57806367c623cf1461049b576101cd565b80632d296bf11461033157806342842e0e1461034d578063439028501461037657806343d32ae7146103b3576101cd565b8063095ea7b3116101ab578063095ea7b314610277578063142687f3146102a057806317d7de7c146102dd57806323b872dd14610308576101cd565b806301ffc9a7146101d257806306fdde031461020f578063081812fc1461023a575b600080fd5b3480156101de57600080fd5b506101f960048036038101906101f491906134de565b6107c1565b6040516102069190613526565b60405180910390f35b34801561021b57600080fd5b506102246108a3565b60405161023191906135da565b60405180910390f35b34801561024657600080fd5b50610261600480360381019061025c9190613632565b610935565b60405161026e91906136a0565b60405180910390f35b34801561028357600080fd5b5061029e600480360381019061029991906136e7565b6109ba565b005b3480156102ac57600080fd5b506102c760048036038101906102c29190613632565b610ad2565b6040516102d49190613526565b60405180910390f35b3480156102e957600080fd5b506102f2610ae9565b6040516102ff91906135da565b60405180910390f35b34801561031457600080fd5b5061032f600480360381019061032a9190613727565b610b26565b005b61034b60048036038101906103469190613632565b610b86565b005b34801561035957600080fd5b50610374600480360381019061036f9190613727565b611148565b005b34801561038257600080fd5b5061039d6004803603810190610398919061377a565b611168565b6040516103aa91906137b6565b60405180910390f35b3480156103bf57600080fd5b506103da60048036038101906103d59190613906565b61117f565b6040516103e79190613526565b60405180910390f35b3480156103fc57600080fd5b5061041760048036038101906104129190613632565b6111b5565b60405161042c99989796959493929190613970565b60405180910390f35b34801561044157600080fd5b5061045c60048036038101906104579190613a0b565b611380565b005b34801561046a57600080fd5b5061048560048036038101906104809190613632565b611808565b60405161049291906136a0565b60405180910390f35b3480156104a757600080fd5b506104c260048036038101906104bd9190613632565b6118ba565b6040516104cf91906135da565b60405180910390f35b3480156104e457600080fd5b506104ed6118d2565b6040516104fa91906135da565b60405180910390f35b34801561050f57600080fd5b5061052a6004803603810190610525919061377a565b611960565b60405161053791906137b6565b60405180910390f35b34801561054c57600080fd5b5061056760048036038101906105629190613906565b611a18565b6040516105749190613526565b60405180910390f35b34801561058957600080fd5b50610592611a4e565b60405161059f91906135da565b60405180910390f35b3480156105b457600080fd5b506105cf60048036038101906105ca9190613aab565b611ae0565b005b3480156105dd57600080fd5b506105f860048036038101906105f39190613b97565b611f37565b005b34801561060657600080fd5b50610621600480360381019061061c9190613632565b6120b8565b005b34801561062f57600080fd5b5061064a60048036038101906106459190613906565b61256a565b6040516106579190613526565b60405180910390f35b34801561066c57600080fd5b5061068760048036038101906106829190613632565b6125a0565b60405161069491906136a0565b60405180910390f35b3480156106a957600080fd5b506106c460048036038101906106bf9190613c78565b6125b7565b005b3480156106d257600080fd5b506106db612619565b6040516106e891906137b6565b60405180910390f35b3480156106fd57600080fd5b5061071860048036038101906107139190613632565b61261f565b60405161072591906135da565b60405180910390f35b34801561073a57600080fd5b50610743612771565b60405161075091906137b6565b60405180910390f35b34801561076557600080fd5b5061076e61277f565b60405161077b91906135da565b60405180910390f35b34801561079057600080fd5b506107ab60048036038101906107a69190613cfb565b61280d565b6040516107b89190613526565b60405180910390f35b60007f80ac58cd000000000000000000000000000000000000000000000000000000007bffffffffffffffffffffffffffffffffffffffffffffffffffffffff1916827bffffffffffffffffffffffffffffffffffffffffffffffffffffffff1916148061088c57507f5b5e139f000000000000000000000000000000000000000000000000000000007bffffffffffffffffffffffffffffffffffffffffffffffffffffffff1916827bffffffffffffffffffffffffffffffffffffffffffffffffffffffff1916145b8061089c575061089b826128a1565b5b9050919050565b6060600080546108b290613d6a565b80601f01602080910402602001604051908101604052809291908181526020018280546108de90613d6a565b801561092b5780601f106109005761010080835404028352916020019161092b565b820191906000526020600020905b81548152906001019060200180831161090e57829003601f168201915b5050505050905090565b60006109408261290b565b61097f576040517f08c379a000000000000000000000000000000000000000000000000000000000815260040161097690613e0e565b60405180910390fd5b6004600083815260200190815260200160002060009054906101000a900473ffffffffffffffffffffffffffffffffffffffff169050919050565b60006109c582611808565b90508073ffffffffffffffffffffffffffffffffffffffff168373ffffffffffffffffffffffffffffffffffffffff161415610a36576040517f08c379a0000000000000000000000000000000000000000000000000000000008152600401610a2d90613ea0565b60405180910390fd5b8073ffffffffffffffffffffffffffffffffffffffff16610a55612977565b73ffffffffffffffffffffffffffffffffffffffff161480610a845750610a8381610a7e612977565b61280d565b5b610ac3576040517f08c379a0000000000000000000000000000000000000000000000000000000008152600401610aba90613f32565b60405180910390fd5b610acd838361297f565b505050565b600080610ade8361290b565b905080915050919050565b60606040518060400160405280601681526020017f43727970746f20426f797320436f6c6c656374696f6e00000000000000000000815250905090565b610b37610b31612977565b82612a38565b610b76576040517f08c379a0000000000000000000000000000000000000000000000000000000008152600401610b6d90613fc4565b60405180910390fd5b610b81838383612b16565b505050565b600073ffffffffffffffffffffffffffffffffffffffff163373ffffffffffffffffffffffffffffffffffffffff161415610bc057600080fd5b610bc98161290b565b610bd257600080fd5b6000610bdd82611808565b9050600073ffffffffffffffffffffffffffffffffffffffff168173ffffffffffffffffffffffffffffffffffffffff161415610c1957600080fd5b3373ffffffffffffffffffffffffffffffffffffffff168173ffffffffffffffffffffffffffffffffffffffff161415610c5257600080fd5b6000600c60008481526020019081526020016000206040518061012001604052908160008201548152602001600182018054610c8d90613d6a565b80601f0160208091040260200160405190810160405280929190818152602001828054610cb990613d6a565b8015610d065780601f10610cdb57610100808354040283529160200191610d06565b820191906000526020600020905b815481529060010190602001808311610ce957829003601f168201915b50505050508152602001600282018054610d1f90613d6a565b80601f0160208091040260200160405190810160405280929190818152602001828054610d4b90613d6a565b8015610d985780601f10610d6d57610100808354040283529160200191610d98565b820191906000526020600020905b815481529060010190602001808311610d7b57829003601f168201915b505050505081526020016003820160009054906101000a900473ffffffffffffffffffffffffffffffffffffffff1673ffffffffffffffffffffffffffffffffffffffff1673ffffffffffffffffffffffffffffffffffffffff1681526020016004820160009054906101000a900473ffffffffffffffffffffffffffffffffffffffff1673ffffffffffffffffffffffffffffffffffffffff1673ffffffffffffffffffffffffffffffffffffffff1681526020016005820160009054906101000a900473ffffffffffffffffffffffffffffffffffffffff1673ffffffffffffffffffffffffffffffffffffffff1673ffffffffffffffffffffffffffffffffffffffff16815260200160068201548152602001600782015481526020016008820160009054906101000a900460ff16151515158152505090508060c00151341015610ee557600080fd5b806101000151610ef457600080fd5b610eff823385612b16565b6000816080015190508073ffffffffffffffffffffffffffffffffffffffff166108fc349081150290604051600060405180830381858888f19350505050158015610f4e573d6000803e3d6000fd5b5081608001518260a0019073ffffffffffffffffffffffffffffffffffffffff16908173ffffffffffffffffffffffffffffffffffffffff168152505033826080019073ffffffffffffffffffffffffffffffffffffffff16908173ffffffffffffffffffffffffffffffffffffffff168152505060018260e001818151610fd69190614013565b9150818152505081600c60008681526020019081526020016000206000820151816000015560208201518160010190805190602001906110179291906133cf565b5060408201518160020190805190602001906110349291906133cf565b5060608201518160030160006101000a81548173ffffffffffffffffffffffffffffffffffffffff021916908373ffffffffffffffffffffffffffffffffffffffff16021790555060808201518160040160006101000a81548173ffffffffffffffffffffffffffffffffffffffff021916908373ffffffffffffffffffffffffffffffffffffffff16021790555060a08201518160050160006101000a81548173ffffffffffffffffffffffffffffffffffffffff021916908373ffffffffffffffffffffffffffffffffffffffff16021790555060c0820151816006015560e082015181600701556101008201518160080160006101000a81548160ff02191690831515021790555090505050505050565b611163838383604051806020016040528060008152506125b7565b505050565b60008061117483611960565b905080915050919050565b600f818051602081018201805184825260208301602085012081835280955050505050506000915054906101000a900460ff1681565b600c6020528060005260406000206000915090508060000154908060010180546111de90613d6a565b80601f016020809104026020016040519081016040528092919081815260200182805461120a90613d6a565b80156112575780601f1061122c57610100808354040283529160200191611257565b820191906000526020600020905b81548152906001019060200180831161123a57829003601f168201915b50505050509080600201805461126c90613d6a565b80601f016020809104026020016040519081016040528092919081815260200182805461129890613d6a565b80156112e55780601f106112ba576101008083540402835291602001916112e5565b820191906000526020600020905b8154815290600101906020018083116112c857829003601f168201915b5050505050908060030160009054906101000a900473ffffffffffffffffffffffffffffffffffffffff16908060040160009054906101000a900473ffffffffffffffffffffffffffffffffffffffff16908060050160009054906101000a900473ffffffffffffffffffffffffffffffffffffffff16908060060154908060070154908060080160009054906101000a900460ff16905089565b600073ffffffffffffffffffffffffffffffffffffffff163373ffffffffffffffffffffffffffffffffffffffff1614156113ba57600080fd5b6113c38261290b565b6113cc57600080fd5b60006113d783611808565b90503373ffffffffffffffffffffffffffffffffffffffff168173ffffffffffffffffffffffffffffffffffffffff161461141157600080fd5b6000600c6000858152602001908152602001600020604051806101200160405290816000820154815260200160018201805461144c90613d6a565b80601f016020809104026020016040519081016040528092919081815260200182805461147890613d6a565b80156114c55780601f1061149a576101008083540402835291602001916114c5565b820191906000526020600020905b8154815290600101906020018083116114a857829003601f168201915b505050505081526020016002820180546114de90613d6a565b80601f016020809104026020016040519081016040528092919081815260200182805461150a90613d6a565b80156115575780601f1061152c57610100808354040283529160200191611557565b820191906000526020600020905b81548152906001019060200180831161153a57829003601f168201915b505050505081526020016003820160009054906101000a900473ffffffffffffffffffffffffffffffffffffffff1673ffffffffffffffffffffffffffffffffffffffff1673ffffffffffffffffffffffffffffffffffffffff1681526020016004820160009054906101000a900473ffffffffffffffffffffffffffffffffffffffff1673ffffffffffffffffffffffffffffffffffffffff1673ffffffffffffffffffffffffffffffffffffffff1681526020016005820160009054906101000a900473ffffffffffffffffffffffffffffffffffffffff1673ffffffffffffffffffffffffffffffffffffffff1673ffffffffffffffffffffffffffffffffffffffff16815260200160068201548152602001600782015481526020016008820160009054906101000a900460ff1615151515815250509050828160c001818152505080600c60008681526020019081526020016000206000820151816000015560208201518160010190805190602001906116d79291906133cf565b5060408201518160020190805190602001906116f49291906133cf565b5060608201518160030160006101000a81548173ffffffffffffffffffffffffffffffffffffffff021916908373ffffffffffffffffffffffffffffffffffffffff16021790555060808201518160040160006101000a81548173ffffffffffffffffffffffffffffffffffffffff021916908373ffffffffffffffffffffffffffffffffffffffff16021790555060a08201518160050160006101000a81548173ffffffffffffffffffffffffffffffffffffffff021916908373ffffffffffffffffffffffffffffffffffffffff16021790555060c0820151816006015560e082015181600701556101008201518160080160006101000a81548160ff02191690831515021790555090505050505050565b6000806002600084815260200190815260200160002060009054906101000a900473ffffffffffffffffffffffffffffffffffffffff169050600073ffffffffffffffffffffffffffffffffffffffff168173ffffffffffffffffffffffffffffffffffffffff1614156118b1576040517f08c379a00000000000000000000000000000000000000000000000000000000081526004016118a8906140db565b60405180910390fd5b80915050919050565b606060006118c78361261f565b905080915050919050565b600880546118df90613d6a565b80601f016020809104026020016040519081016040528092919081815260200182805461190b90613d6a565b80156119585780601f1061192d57610100808354040283529160200191611958565b820191906000526020600020905b81548152906001019060200180831161193b57829003601f168201915b505050505081565b60008073ffffffffffffffffffffffffffffffffffffffff168273ffffffffffffffffffffffffffffffffffffffff1614156119d1576040517f08c379a00000000000000000000000000000000000000000000000000000000081526004016119c89061416d565b60405180910390fd5b600360008373ffffffffffffffffffffffffffffffffffffffff1673ffffffffffffffffffffffffffffffffffffffff168152602001908152602001600020549050919050565b600e818051602081018201805184825260208301602085012081835280955050505050506000915054906101000a900460ff1681565b606060018054611a5d90613d6a565b80601f0160208091040260200160405190810160405280929190818152602001828054611a8990613d6a565b8015611ad65780601f10611aab57610100808354040283529160200191611ad6565b820191906000526020600020905b815481529060010190602001808311611ab957829003601f168201915b5050505050905090565b600073ffffffffffffffffffffffffffffffffffffffff163373ffffffffffffffffffffffffffffffffffffffff161415611b1a57600080fd5b60096000815480929190611b2d9061418d565b9190505550611b3d60095461290b565b15611b4757600080fd5b60005b82829050811015611bc357600e838383818110611b6a57611b696141d6565b5b9050602002810190611b7c9190614214565b604051611b8a9291906142a7565b908152602001604051809103902060009054906101000a900460ff1615611bb057600080fd5b8080611bbb9061418d565b915050611b4a565b50600f84604051611bd491906142f1565b908152602001604051809103902060009054906101000a900460ff1615611bfa57600080fd5b600d85604051611c0a91906142f1565b908152602001604051809103902060009054906101000a900460ff1615611c3057600080fd5b611c3c33600954612d72565b611c4860095485612f40565b60005b82829050811015611cc5576001600e848484818110611c6d57611c6c6141d6565b5b9050602002810190611c7f9190614214565b604051611c8d9291906142a7565b908152602001604051809103902060006101000a81548160ff0219169083151502179055508080611cbd9061418d565b915050611c4b565b506001600f85604051611cd891906142f1565b908152602001604051809103902060006101000a81548160ff0219169083151502179055506001600d86604051611d0f91906142f1565b908152602001604051809103902060006101000a81548160ff021916908315150217905550600080339050600060405180610120016040528060095481526020018981526020018881526020018373ffffffffffffffffffffffffffffffffffffffff1681526020018373ffffffffffffffffffffffffffffffffffffffff1681526020018473ffffffffffffffffffffffffffffffffffffffff1681526020018781526020016000815260200160011515815250905080600c60006009548152602001908152602001600020600082015181600001556020820151816001019080519060200190611e029291906133cf565b506040820151816002019080519060200190611e1f9291906133cf565b5060608201518160030160006101000a81548173ffffffffffffffffffffffffffffffffffffffff021916908373ffffffffffffffffffffffffffffffffffffffff16021790555060808201518160040160006101000a81548173ffffffffffffffffffffffffffffffffffffffff021916908373ffffffffffffffffffffffffffffffffffffffff16021790555060a08201518160050160006101000a81548173ffffffffffffffffffffffffffffffffffffffff021916908373ffffffffffffffffffffffffffffffffffffffff16021790555060c0820151816006015560e082015181600701556101008201518160080160006101000a81548160ff0219169083151502179055509050505050505050505050565b611f3f612977565b73ffffffffffffffffffffffffffffffffffffffff168273ffffffffffffffffffffffffffffffffffffffff161415611fad576040517f08c379a0000000000000000000000000000000000000000000000000000000008152600401611fa490614354565b60405180910390fd5b8060056000611fba612977565b73ffffffffffffffffffffffffffffffffffffffff1673ffffffffffffffffffffffffffffffffffffffff16815260200190815260200160002060008473ffffffffffffffffffffffffffffffffffffffff1673ffffffffffffffffffffffffffffffffffffffff16815260200190815260200160002060006101000a81548160ff0219169083151502179055508173ffffffffffffffffffffffffffffffffffffffff16612067612977565b73ffffffffffffffffffffffffffffffffffffffff167f17307eab39ab6107e8899845ad3d59bd9653f200f220920489ca2b5937696c31836040516120ac9190613526565b60405180910390a35050565b600073ffffffffffffffffffffffffffffffffffffffff163373ffffffffffffffffffffffffffffffffffffffff1614156120f257600080fd5b6120fb8161290b565b61210457600080fd5b600061210f82611808565b90503373ffffffffffffffffffffffffffffffffffffffff168173ffffffffffffffffffffffffffffffffffffffff161461214957600080fd5b6000600c6000848152602001908152602001600020604051806101200160405290816000820154815260200160018201805461218490613d6a565b80601f01602080910402602001604051908101604052809291908181526020018280546121b090613d6a565b80156121fd5780601f106121d2576101008083540402835291602001916121fd565b820191906000526020600020905b8154815290600101906020018083116121e057829003601f168201915b5050505050815260200160028201805461221690613d6a565b80601f016020809104026020016040519081016040528092919081815260200182805461224290613d6a565b801561228f5780601f106122645761010080835404028352916020019161228f565b820191906000526020600020905b81548152906001019060200180831161227257829003601f168201915b505050505081526020016003820160009054906101000a900473ffffffffffffffffffffffffffffffffffffffff1673ffffffffffffffffffffffffffffffffffffffff1673ffffffffffffffffffffffffffffffffffffffff1681526020016004820160009054906101000a900473ffffffffffffffffffffffffffffffffffffffff1673ffffffffffffffffffffffffffffffffffffffff1673ffffffffffffffffffffffffffffffffffffffff1681526020016005820160009054906101000a900473ffffffffffffffffffffffffffffffffffffffff1673ffffffffffffffffffffffffffffffffffffffff1673ffffffffffffffffffffffffffffffffffffffff16815260200160068201548152602001600782015481526020016008820160009054906101000a900460ff1615151515815250509050806101000151156123ed57600081610100019015159081151581525050612400565b6001816101000190151590811515815250505b80600c600085815260200190815260200160002060008201518160000155602082015181600101908051906020019061243a9291906133cf565b5060408201518160020190805190602001906124579291906133cf565b5060608201518160030160006101000a81548173ffffffffffffffffffffffffffffffffffffffff021916908373ffffffffffffffffffffffffffffffffffffffff16021790555060808201518160040160006101000a81548173ffffffffffffffffffffffffffffffffffffffff021916908373ffffffffffffffffffffffffffffffffffffffff16021790555060a08201518160050160006101000a81548173ffffffffffffffffffffffffffffffffffffffff021916908373ffffffffffffffffffffffffffffffffffffffff16021790555060c0820151816006015560e082015181600701556101008201518160080160006101000a81548160ff021916908315150217905550905050505050565b600d818051602081018201805184825260208301602085012081835280955050505050506000915054906101000a900460ff1681565b6000806125ac83611808565b905080915050919050565b6125c86125c2612977565b83612a38565b612607576040517f08c379a00000000000000000000000000000000000000000000000000000000081526004016125fe90613fc4565b60405180910390fd5b61261384848484612fb4565b50505050565b60095481565b606061262a8261290b565b612669576040517f08c379a0000000000000000000000000000000000000000000000000000000008152600401612660906143e6565b60405180910390fd5b600060066000848152602001908152602001600020805461268990613d6a565b80601f01602080910402602001604051908101604052809291908181526020018280546126b590613d6a565b80156127025780601f106126d757610100808354040283529160200191612702565b820191906000526020600020905b8154815290600101906020018083116126e557829003601f168201915b505050505090506000612713613010565b905060008151141561272957819250505061276c565b60008251111561275e578082604051602001612746929190614406565b6040516020818303038152906040529250505061276c565b61276784613027565b925050505b919050565b600080600090508091505090565b6007805461278c90613d6a565b80601f01602080910402602001604051908101604052809291908181526020018280546127b890613d6a565b80156128055780601f106127da57610100808354040283529160200191612805565b820191906000526020600020905b8154815290600101906020018083116127e857829003601f168201915b505050505081565b6000600560008473ffffffffffffffffffffffffffffffffffffffff1673ffffffffffffffffffffffffffffffffffffffff16815260200190815260200160002060008373ffffffffffffffffffffffffffffffffffffffff1673ffffffffffffffffffffffffffffffffffffffff16815260200190815260200160002060009054906101000a900460ff16905092915050565b60007f01ffc9a7000000000000000000000000000000000000000000000000000000007bffffffffffffffffffffffffffffffffffffffffffffffffffffffff1916827bffffffffffffffffffffffffffffffffffffffffffffffffffffffff1916149050919050565b60008073ffffffffffffffffffffffffffffffffffffffff166002600084815260200190815260200160002060009054906101000a900473ffffffffffffffffffffffffffffffffffffffff1673ffffffffffffffffffffffffffffffffffffffff1614159050919050565b600033905090565b816004600083815260200190815260200160002060006101000a81548173ffffffffffffffffffffffffffffffffffffffff021916908373ffffffffffffffffffffffffffffffffffffffff160217905550808273ffffffffffffffffffffffffffffffffffffffff166129f283611808565b73ffffffffffffffffffffffffffffffffffffffff167f8c5be1e5ebec7d5bd14f71427d1e84f3dd0314c0f7b2291e5b200ac8c7c3b92560405160405180910390a45050565b6000612a438261290b565b612a82576040517f08c379a0000000000000000000000000000000000000000000000000000000008152600401612a799061449c565b60405180910390fd5b6000612a8d83611808565b90508073ffffffffffffffffffffffffffffffffffffffff168473ffffffffffffffffffffffffffffffffffffffff161480612afc57508373ffffffffffffffffffffffffffffffffffffffff16612ae484610935565b73ffffffffffffffffffffffffffffffffffffffff16145b80612b0d5750612b0c818561280d565b5b91505092915050565b8273ffffffffffffffffffffffffffffffffffffffff16612b3682611808565b73ffffffffffffffffffffffffffffffffffffffff1614612b8c576040517f08c379a0000000000000000000000000000000000000000000000000000000008152600401612b839061452e565b60405180910390fd5b600073ffffffffffffffffffffffffffffffffffffffff168273ffffffffffffffffffffffffffffffffffffffff161415612bfc576040517f08c379a0000000000000000000000000000000000000000000000000000000008152600401612bf3906145c0565b60405180910390fd5b612c078383836130ce565b612c1260008261297f565b6001600360008573ffffffffffffffffffffffffffffffffffffffff1673ffffffffffffffffffffffffffffffffffffffff1681526020019081526020016000206000828254612c6291906145e0565b925050819055506001600360008473ffffffffffffffffffffffffffffffffffffffff1673ffffffffffffffffffffffffffffffffffffffff1681526020019081526020016000206000828254612cb99190614013565b92505081905550816002600083815260200190815260200160002060006101000a81548173ffffffffffffffffffffffffffffffffffffffff021916908373ffffffffffffffffffffffffffffffffffffffff160217905550808273ffffffffffffffffffffffffffffffffffffffff168473ffffffffffffffffffffffffffffffffffffffff167fddf252ad1be2c89b69c2b068fc378daa952ba7f163c4a11628f55a4df523b3ef60405160405180910390a4505050565b600073ffffffffffffffffffffffffffffffffffffffff168273ffffffffffffffffffffffffffffffffffffffff161415612de2576040517f08c379a0000000000000000000000000000000000000000000000000000000008152600401612dd990614660565b60405180910390fd5b612deb8161290b565b15612e2b576040517f08c379a0000000000000000000000000000000000000000000000000000000008152600401612e22906146cc565b60405180910390fd5b612e37600083836130ce565b6001600360008473ffffffffffffffffffffffffffffffffffffffff1673ffffffffffffffffffffffffffffffffffffffff1681526020019081526020016000206000828254612e879190614013565b92505081905550816002600083815260200190815260200160002060006101000a81548173ffffffffffffffffffffffffffffffffffffffff021916908373ffffffffffffffffffffffffffffffffffffffff160217905550808273ffffffffffffffffffffffffffffffffffffffff16600073ffffffffffffffffffffffffffffffffffffffff167fddf252ad1be2c89b69c2b068fc378daa952ba7f163c4a11628f55a4df523b3ef60405160405180910390a45050565b612f498261290b565b612f88576040517f08c379a0000000000000000000000000000000000000000000000000000000008152600401612f7f9061475e565b60405180910390fd5b80600660008481526020019081526020016000209080519060200190612faf9291906133cf565b505050565b612fbf848484612b16565b612fcb848484846130d3565b61300a576040517f08c379a0000000000000000000000000000000000000000000000000000000008152600401613001906147f0565b60405180910390fd5b50505050565b606060405180602001604052806000815250905090565b60606130328261290b565b613071576040517f08c379a000000000000000000000000000000000000000000000000000000000815260040161306890614882565b60405180910390fd5b600061307b613010565b9050600081511161309b57604051806020016040528060008152506130c6565b806130a58461325b565b6040516020016130b6929190614406565b6040516020818303038152906040525b915050919050565b505050565b60006130f48473ffffffffffffffffffffffffffffffffffffffff166133bc565b1561324e578373ffffffffffffffffffffffffffffffffffffffff1663150b7a0261311d612977565b8786866040518563ffffffff1660e01b815260040161313f94939291906148f7565b6020604051808303816000875af192505050801561317b57506040513d601f19601f820116820180604052508101906131789190614958565b60015b6131fe573d80600081146131ab576040519150601f19603f3d011682016040523d82523d6000602084013e6131b0565b606091505b506000815114156131f6576040517f08c379a00000000000000000000000000000000000000000000000000000000081526004016131ed906147f0565b60405180910390fd5b805181602001fd5b63150b7a0260e01b7bffffffffffffffffffffffffffffffffffffffffffffffffffffffff1916817bffffffffffffffffffffffffffffffffffffffffffffffffffffffff191614915050613253565b600190505b949350505050565b606060008214156132a3576040518060400160405280600181526020017f300000000000000000000000000000000000000000000000000000000000000081525090506133b7565b600082905060005b600082146132d55780806132be9061418d565b915050600a826132ce91906149b4565b91506132ab565b60008167ffffffffffffffff8111156132f1576132f06137db565b5b6040519080825280601f01601f1916602001820160405280156133235781602001600182028036833780820191505090505b5090505b600085146133b05760018261333c91906145e0565b9150600a8561334b91906149e5565b60306133579190614013565b60f81b81838151811061336d5761336c6141d6565b5b60200101907effffffffffffffffffffffffffffffffffffffffffffffffffffffffffffff1916908160001a905350600a856133a991906149b4565b9450613327565b8093505050505b919050565b600080823b905060008111915050919050565b8280546133db90613d6a565b90600052602060002090601f0160209004810192826133fd5760008555613444565b82601f1061341657805160ff1916838001178555613444565b82800160010185558215613444579182015b82811115613443578251825591602001919060010190613428565b5b5090506134519190613455565b5090565b5b8082111561346e576000816000905550600101613456565b5090565b6000604051905090565b600080fd5b600080fd5b60007fffffffff0000000000000000000000000000000000000000000000000000000082169050919050565b6134bb81613486565b81146134c657600080fd5b50565b6000813590506134d8816134b2565b92915050565b6000602082840312156134f4576134f361347c565b5b6000613502848285016134c9565b91505092915050565b60008115159050919050565b6135208161350b565b82525050565b600060208201905061353b6000830184613517565b92915050565b600081519050919050565b600082825260208201905092915050565b60005b8381101561357b578082015181840152602081019050613560565b8381111561358a576000848401525b50505050565b6000601f19601f8301169050919050565b60006135ac82613541565b6135b6818561354c565b93506135c681856020860161355d565b6135cf81613590565b840191505092915050565b600060208201905081810360008301526135f481846135a1565b905092915050565b6000819050919050565b61360f816135fc565b811461361a57600080fd5b50565b60008135905061362c81613606565b92915050565b6000602082840312156136485761364761347c565b5b60006136568482850161361d565b91505092915050565b600073ffffffffffffffffffffffffffffffffffffffff82169050919050565b600061368a8261365f565b9050919050565b61369a8161367f565b82525050565b60006020820190506136b56000830184613691565b92915050565b6136c48161367f565b81146136cf57600080fd5b50565b6000813590506136e1816136bb565b92915050565b600080604083850312156136fe576136fd61347c565b5b600061370c858286016136d2565b925050602061371d8582860161361d565b9150509250929050565b6000806000606084860312156137405761373f61347c565b5b600061374e868287016136d2565b935050602061375f868287016136d2565b92505060406137708682870161361d565b9150509250925092565b6000602082840312156137905761378f61347c565b5b600061379e848285016136d2565b91505092915050565b6137b0816135fc565b82525050565b60006020820190506137cb60008301846137a7565b92915050565b600080fd5b600080fd5b7f4e487b7100000000000000000000000000000000000000000000000000000000600052604160045260246000fd5b61381382613590565b810181811067ffffffffffffffff82111715613832576138316137db565b5b80604052505050565b6000613845613472565b9050613851828261380a565b919050565b600067ffffffffffffffff821115613871576138706137db565b5b61387a82613590565b9050602081019050919050565b82818337600083830152505050565b60006138a96138a484613856565b61383b565b9050828152602081018484840111156138c5576138c46137d6565b5b6138d0848285613887565b509392505050565b600082601f8301126138ed576138ec6137d1565b5b81356138fd848260208601613896565b91505092915050565b60006020828403121561391c5761391b61347c565b5b600082013567ffffffffffffffff81111561393a57613939613481565b5b613946848285016138d8565b91505092915050565b600061395a8261365f565b9050919050565b61396a8161394f565b82525050565b600061012082019050613986600083018c6137a7565b8181036020830152613998818b6135a1565b905081810360408301526139ac818a6135a1565b90506139bb6060830189613961565b6139c86080830188613961565b6139d560a0830187613961565b6139e260c08301866137a7565b6139ef60e08301856137a7565b6139fd610100830184613517565b9a9950505050505050505050565b60008060408385031215613a2257613a2161347c565b5b6000613a308582860161361d565b9250506020613a418582860161361d565b9150509250929050565b600080fd5b600080fd5b60008083601f840112613a6b57613a6a6137d1565b5b8235905067ffffffffffffffff811115613a8857613a87613a4b565b5b602083019150836020820283011115613aa457613aa3613a50565b5b9250929050565b600080600080600060808688031215613ac757613ac661347c565b5b600086013567ffffffffffffffff811115613ae557613ae4613481565b5b613af1888289016138d8565b955050602086013567ffffffffffffffff811115613b1257613b11613481565b5b613b1e888289016138d8565b9450506040613b2f8882890161361d565b935050606086013567ffffffffffffffff811115613b5057613b4f613481565b5b613b5c88828901613a55565b92509250509295509295909350565b613b748161350b565b8114613b7f57600080fd5b50565b600081359050613b9181613b6b565b92915050565b60008060408385031215613bae57613bad61347c565b5b6000613bbc858286016136d2565b9250506020613bcd85828601613b82565b9150509250929050565b600067ffffffffffffffff821115613bf257613bf16137db565b5b613bfb82613590565b9050602081019050919050565b6000613c1b613c1684613bd7565b61383b565b905082815260208101848484011115613c3757613c366137d6565b5b613c42848285613887565b509392505050565b600082601f830112613c5f57613c5e6137d1565b5b8135613c6f848260208601613c08565b91505092915050565b60008060008060808587031215613c9257613c9161347c565b5b6000613ca0878288016136d2565b9450506020613cb1878288016136d2565b9350506040613cc28782880161361d565b925050606085013567ffffffffffffffff811115613ce357613ce2613481565b5b613cef87828801613c4a565b91505092959194509250565b60008060408385031215613d1257613d1161347c565b5b6000613d20858286016136d2565b9250506020613d31858286016136d2565b9150509250929050565b7f4e487b7100000000000000000000000000000000000000000000000000000000600052602260045260246000fd5b60006002820490506001821680613d8257607f821691505b60208210811415613d9657613d95613d3b565b5b50919050565b7f4552433732313a20617070726f76656420717565727920666f72206e6f6e657860008201527f697374656e7420746f6b656e0000000000000000000000000000000000000000602082015250565b6000613df8602c8361354c565b9150613e0382613d9c565b604082019050919050565b60006020820190508181036000830152613e2781613deb565b9050919050565b7f4552433732313a20617070726f76616c20746f2063757272656e74206f776e6560008201527f7200000000000000000000000000000000000000000000000000000000000000602082015250565b6000613e8a60218361354c565b9150613e9582613e2e565b604082019050919050565b60006020820190508181036000830152613eb981613e7d565b9050919050565b7f4552433732313a20617070726f76652063616c6c6572206973206e6f74206f7760008201527f6e6572206e6f7220617070726f76656420666f7220616c6c0000000000000000602082015250565b6000613f1c60388361354c565b9150613f2782613ec0565b604082019050919050565b60006020820190508181036000830152613f4b81613f0f565b9050919050565b7f4552433732313a207472616e736665722063616c6c6572206973206e6f74206f60008201527f776e6572206e6f7220617070726f766564000000000000000000000000000000602082015250565b6000613fae60318361354c565b9150613fb982613f52565b604082019050919050565b60006020820190508181036000830152613fdd81613fa1565b9050919050565b7f4e487b7100000000000000000000000000000000000000000000000000000000600052601160045260246000fd5b600061401e826135fc565b9150614029836135fc565b9250827fffffffffffffffffffffffffffffffffffffffffffffffffffffffffffffffff0382111561405e5761405d613fe4565b5b828201905092915050565b7f4552433732313a206f776e657220717565727920666f72206e6f6e657869737460008201527f656e7420746f6b656e0000000000000000000000000000000000000000000000602082015250565b60006140c560298361354c565b91506140d082614069565b604082019050919050565b600060208201905081810360008301526140f4816140b8565b9050919050565b7f4552433732313a2062616c616e636520717565727920666f7220746865207a6560008201527f726f206164647265737300000000000000000000000000000000000000000000602082015250565b6000614157602a8361354c565b9150614162826140fb565b604082019050919050565b600060208201905081810360008301526141868161414a565b9050919050565b6000614198826135fc565b91507fffffffffffffffffffffffffffffffffffffffffffffffffffffffffffffffff8214156141cb576141ca613fe4565b5b600182019050919050565b7f4e487b7100000000000000000000000000000000000000000000000000000000600052603260045260246000fd5b600080fd5b600080fd5b600080fd5b6000808335600160200384360303811261423157614230614205565b5b80840192508235915067ffffffffffffffff8211156142535761425261420a565b5b60208301925060018202360383131561426f5761426e61420f565b5b509250929050565b600081905092915050565b600061428e8385614277565b935061429b838584613887565b82840190509392505050565b60006142b4828486614282565b91508190509392505050565b60006142cb82613541565b6142d58185614277565b93506142e581856020860161355d565b80840191505092915050565b60006142fd82846142c0565b915081905092915050565b7f4552433732313a20617070726f766520746f2063616c6c657200000000000000600082015250565b600061433e60198361354c565b915061434982614308565b602082019050919050565b6000602082019050818103600083015261436d81614331565b9050919050565b7f45524337323155524953746f726167653a2055524920717565727920666f722060008201527f6e6f6e6578697374656e7420746f6b656e000000000000000000000000000000602082015250565b60006143d060318361354c565b91506143db82614374565b604082019050919050565b600060208201905081810360008301526143ff816143c3565b9050919050565b600061441282856142c0565b915061441e82846142c0565b91508190509392505050565b7f4552433732313a206f70657261746f7220717565727920666f72206e6f6e657860008201527f697374656e7420746f6b656e0000000000000000000000000000000000000000602082015250565b6000614486602c8361354c565b91506144918261442a565b604082019050919050565b600060208201905081810360008301526144b581614479565b9050919050565b7f4552433732313a207472616e73666572206f6620746f6b656e2074686174206960008201527f73206e6f74206f776e0000000000000000000000000000000000000000000000602082015250565b600061451860298361354c565b9150614523826144bc565b604082019050919050565b600060208201905081810360008301526145478161450b565b9050919050565b7f4552433732313a207472616e7366657220746f20746865207a65726f2061646460008201527f7265737300000000000000000000000000000000000000000000000000000000602082015250565b60006145aa60248361354c565b91506145b58261454e565b604082019050919050565b600060208201905081810360008301526145d98161459d565b9050919050565b60006145eb826135fc565b91506145f6836135fc565b92508282101561460957614608613fe4565b5b828203905092915050565b7f4552433732313a206d696e7420746f20746865207a65726f2061646472657373600082015250565b600061464a60208361354c565b915061465582614614565b602082019050919050565b600060208201905081810360008301526146798161463d565b9050919050565b7f4552433732313a20746f6b656e20616c7265616479206d696e74656400000000600082015250565b60006146b6601c8361354c565b91506146c182614680565b602082019050919050565b600060208201905081810360008301526146e5816146a9565b9050919050565b7f45524337323155524953746f726167653a2055524920736574206f66206e6f6e60008201527f6578697374656e7420746f6b656e000000000000000000000000000000000000602082015250565b6000614748602e8361354c565b9150614753826146ec565b604082019050919050565b600060208201905081810360008301526147778161473b565b9050919050565b7f4552433732313a207472616e7366657220746f206e6f6e20455243373231526560008201527f63656976657220696d706c656d656e7465720000000000000000000000000000602082015250565b60006147da60328361354c565b91506147e58261477e565b604082019050919050565b60006020820190508181036000830152614809816147cd565b9050919050565b7f4552433732314d657461646174613a2055524920717565727920666f72206e6f60008201527f6e6578697374656e7420746f6b656e0000000000000000000000000000000000602082015250565b600061486c602f8361354c565b915061487782614810565b604082019050919050565b6000602082019050818103600083015261489b8161485f565b9050919050565b600081519050919050565b600082825260208201905092915050565b60006148c9826148a2565b6148d381856148ad565b93506148e381856020860161355d565b6148ec81613590565b840191505092915050565b600060808201905061490c6000830187613691565b6149196020830186613691565b61492660408301856137a7565b818103606083015261493881846148be565b905095945050505050565b600081519050614952816134b2565b92915050565b60006020828403121561496e5761496d61347c565b5b600061497c84828501614943565b91505092915050565b7f4e487b7100000000000000000000000000000000000000000000000000000000600052601260045260246000fd5b60006149bf826135fc565b91506149ca836135fc565b9250826149da576149d9614985565b5b828204905092915050565b60006149f0826135fc565b91506149fb836135fc565b925082614a0b57614a0a614985565b5b82820690509291505056fea264697066735822122044ed6188fa2363dcf1464f568fa039414c2368ce95ca17c4c95ac94b8386de3164736f6c634300080a0033",
  "immutableReferences": {},
  "source": "// SPDX-License-Identifier: MIT\npragma solidity ^0.8.0;\n//pragma abicoder v2;\n\n// import ERC721 iterface\nimport \"@openzeppelin/contracts/utils/Counters.sol\";\nimport \"@openzeppelin/contracts/token/ERC721/extensions/ERC721URIStorage.sol\";\nimport \"@openzeppelin/contracts/token/ERC721/ERC721.sol\";\nimport \"@openzeppelin/contracts/token/ERC721/IERC721.sol\";\n//import  \"@openzeppelin-solidity/contracts/token/ERC721/ERC721Full.sol\";\nimport \"@openzeppelin/contracts/token/ERC721/IERC721Receiver.sol\";\nimport \"@openzeppelin/contracts/token/ERC721/extensions/IERC721Metadata.sol\";\nimport \"@openzeppelin/contracts/utils/Address.sol\";\nimport \"@openzeppelin/contracts/utils/Context.sol\";\nimport \"@openzeppelin/contracts/utils/Strings.sol\";\nimport \"@openzeppelin/contracts/utils/introspection/ERC165.sol\";\n\n// CryptoBoys smart contract inherits ERC721 interface\ncontract CryptoBoys is ERC721URIStorage  {\n\n  // this contract's token collection name\n  string public  collectionName;\n  // this contract's token symbol\n  string public  collectionNameSymbol;\n  // total number of crypto boys minted\n  uint256 public cryptoBoyCounter;\n\n   // Token name\n   string private _name;\n\n   // Token symbol\n   string private _symbol;\n\n\n  event collectoinNameEvent(string _name);\n\n  // define crypto boy struct\n   struct CryptoBoy {\n    uint256 tokenId;\n    string tokenName;\n    string tokenURI;\n    address payable mintedBy;\n    address payable currentOwner;\n    address payable previousOwner;\n    uint256 price;\n    uint256 numberOfTransfers;\n    bool forSale;\n  }\n\n\n  // map cryptoboy's token id to crypto boy\n  mapping(uint256 => CryptoBoy) public allCryptoBoys;\n  // check if token name exists\n  mapping(string => bool) public tokenNameExists;\n  // check if color exists\n  mapping(string => bool) public colorExists;\n  // check if token URI exists\n  mapping(string => bool) public tokenURIExists;\n\n  // initialize contract while deployment with contract's collection name and token\n  //constructor() ERC721(\"Crypto Boys Collection\", \"CB\")\n  constructor(string memory _name, string memory _symbol) ERC721(\"Crypto Boys Collection\", \"CB\")\n  {\n    collectionName = _name;\n    //emit collectoinNameEvent(name_);\n    //collectionName = \"Crypto Boys Collection\";\n    collectionNameSymbol = _symbol; \n  } \n /*   constructor() ERC721(\"Crypto Boys Collection\", \"CB\") {\n    collectionName = name;\n    collectionNameSymbol = symbol();\n  }  */\n\n  // get name\n\n  function getName() public view returns (string memory){\n    return \"Crypto Boys Collection\";\n  }\n\n\n  // mint a new crypto boy\n  function mintCryptoBoy(string memory _name, string memory _tokenURI, uint256 _price, string[] calldata _colors) external {\n    // check if thic fucntion caller is not an zero address account\n    require(msg.sender != address(0));\n    // increment counter\n    cryptoBoyCounter ++;\n    // check if a token exists with the above token id => incremented counter\n    require(!_exists(cryptoBoyCounter));\n\n    // loop through the colors passed and check if each colors already exists or not\n    for(uint i=0; i<_colors.length; i++) {\n      require(!colorExists[_colors[i]]);\n    }\n    // check if the token URI already exists or not\n    require(!tokenURIExists[_tokenURI]);\n    // check if the token name already exists or not\n    require(!tokenNameExists[_name]);\n\n    // mint the token\n    _mint(msg.sender, cryptoBoyCounter);\n    // set token URI (bind token id with the passed in token URI)\n    _setTokenURI(cryptoBoyCounter, _tokenURI);\n\n    // loop through the colors passed and make each of the colors as exists since the token is already minted\n    for (uint i=0; i<_colors.length; i++) {\n      colorExists[_colors[i]] = true;\n    }\n    // make passed token URI as exists\n    tokenURIExists[_tokenURI] = true;\n    // make token name passed as exists\n    tokenNameExists[_name] = true;\n\n    // creat a new crypto boy (struct) and pass in new values\n    address payable zero  = payable (address(0));\n    address payable sender  = payable (msg.sender);\n    CryptoBoy memory newCryptoBoy = CryptoBoy(\n    cryptoBoyCounter,\n    _name,\n    _tokenURI,\n    sender,\n    sender,\n    zero,\n    _price,\n    0,\n    true);\n    // add the token id and it's crypto boy to all crypto boys mapping\n    allCryptoBoys[cryptoBoyCounter] = newCryptoBoy;\n  }\n\n  // get owner of the token\n  function getTokenOwner(uint256 _tokenId) public view returns(address) {\n    address _tokenOwner = ownerOf(_tokenId);\n    return _tokenOwner;\n  }\n\n  // get metadata of the token\n  function getTokenMetaData(uint _tokenId) public view returns(string memory) {\n    string memory tokenMetaData = tokenURI(_tokenId);\n    return tokenMetaData;\n  }\n\n  // get total number of tokens minted so far\n  function getNumberOfTokensMinted() public view returns(uint256) {\n    //uint256 totalNumberOfTokensMinted = totalSupply();\n    uint256 totalNumberOfTokensMinted = 0;\n    return totalNumberOfTokensMinted;\n  }\n\n  // get total number of tokens owned by an address\n  function getTotalNumberOfTokensOwnedByAnAddress(address _owner) public view returns(uint256) {\n    uint256 totalNumberOfTokensOwned = balanceOf(_owner);\n    return totalNumberOfTokensOwned;\n  }\n\n  // check if the token already exists\n  function getTokenExists(uint256 _tokenId) public view returns(bool) {\n    bool tokenExists = _exists(_tokenId);\n    return tokenExists;\n  }\n\n  // by a token by passing in the token's id\n  function buyToken(uint256 _tokenId) public payable {\n    // check if the function caller is not an zero account address\n    require(msg.sender != address(0));\n    // check if the token id of the token being bought exists or not\n    require(_exists(_tokenId));\n    // get the token's owner\n    address tokenOwner = ownerOf(_tokenId);\n    // token's owner should not be an zero address account\n    require(tokenOwner != address(0));\n    // the one who wants to buy the token should not be the token's owner\n    require(tokenOwner != msg.sender);\n    // get that token from all crypto boys mapping and create a memory of it defined as (struct => CryptoBoy)\n    CryptoBoy memory cryptoboy = allCryptoBoys[_tokenId];\n    // price sent in to buy should be equal to or more than the token's price\n    require(msg.value >= cryptoboy.price);\n    // token should be for sale\n    require(cryptoboy.forSale);\n    // transfer the token from owner to the caller of the function (buyer)\n    _transfer(tokenOwner, msg.sender, _tokenId);\n    // get owner of the token\n    address payable sendTo = cryptoboy.currentOwner;\n    // send token's worth of ethers to the owner\n    sendTo.transfer(msg.value);\n    // update the token's previous owner\n    cryptoboy.previousOwner = cryptoboy.currentOwner;\n    // update the token's current owner\n    cryptoboy.currentOwner = payable (msg.sender);\n    // update the how many times this token was transfered\n    cryptoboy.numberOfTransfers += 1;\n    // set and update that token in the mapping\n    allCryptoBoys[_tokenId] = cryptoboy;\n  }\n\n  function changeTokenPrice(uint256 _tokenId, uint256 _newPrice) public {\n    // require caller of the function is not an empty address\n    require(msg.sender != address(0));\n    // require that token should exist\n    require(_exists(_tokenId));\n    // get the token's owner\n    address tokenOwner = ownerOf(_tokenId);\n    // check that token's owner should be equal to the caller of the function\n    require(tokenOwner == msg.sender);\n    // get that token from all crypto boys mapping and create a memory of it defined as (struct => CryptoBoy)\n    CryptoBoy memory cryptoboy = allCryptoBoys[_tokenId];\n    // update token's price with new price\n    cryptoboy.price = _newPrice;\n    // set and update that token in the mapping\n    allCryptoBoys[_tokenId] = cryptoboy;\n  }\n\n  // switch between set for sale and set not for sale\n  function toggleForSale(uint256 _tokenId) public {\n    // require caller of the function is not an empty address\n    require(msg.sender != address(0));\n    // require that token should exist\n    require(_exists(_tokenId));\n    // get the token's owner\n    address tokenOwner = ownerOf(_tokenId);\n    // check that token's owner should be equal to the caller of the function\n    require(tokenOwner == msg.sender);\n    // get that token from all crypto boys mapping and create a memory of it defined as (struct => CryptoBoy)\n    CryptoBoy memory cryptoboy = allCryptoBoys[_tokenId];\n    // if token's forSale is false make it true and vice versa\n    if(cryptoboy.forSale) {\n      cryptoboy.forSale = false;\n    } else {\n      cryptoboy.forSale = true;\n    }\n    // set and update that token in the mapping\n    allCryptoBoys[_tokenId] = cryptoboy;\n  }\n}\n\n",
  "sourcePath": "/home/ubuntu/Consensys/blockchain-developer-bootcamp-final-project/contracts/CryptoBoys.sol",
  "compiler": {
    "name": "solc",
    "version": "0.8.10+commit.fc410830.Emscripten.clang"
  },
  "schemaVersion": "3.4.3",
  "updatedAt": "2021-11-30T18:03:31.894Z",
  "networkType": "ethereum",
  "devdoc": {
    "kind": "dev",
    "methods": {
      "approve(address,uint256)": {
        "details": "See {IERC721-approve}."
      },
      "balanceOf(address)": {
        "details": "See {IERC721-balanceOf}."
      },
      "getApproved(uint256)": {
        "details": "See {IERC721-getApproved}."
      },
      "isApprovedForAll(address,address)": {
        "details": "See {IERC721-isApprovedForAll}."
      },
      "name()": {
        "details": "See {IERC721Metadata-name}."
      },
      "ownerOf(uint256)": {
        "details": "See {IERC721-ownerOf}."
      },
      "safeTransferFrom(address,address,uint256)": {
        "details": "See {IERC721-safeTransferFrom}."
      },
      "safeTransferFrom(address,address,uint256,bytes)": {
        "details": "See {IERC721-safeTransferFrom}."
      },
      "setApprovalForAll(address,bool)": {
        "details": "See {IERC721-setApprovalForAll}."
      },
      "supportsInterface(bytes4)": {
        "details": "See {IERC165-supportsInterface}."
      },
      "symbol()": {
        "details": "See {IERC721Metadata-symbol}."
      },
      "tokenURI(uint256)": {
        "details": "See {IERC721Metadata-tokenURI}."
      },
      "transferFrom(address,address,uint256)": {
        "details": "See {IERC721-transferFrom}."
      }
    },
    "version": 1
  },
  "userdoc": {
    "kind": "user",
    "methods": {},
    "version": 1
  }
}