{
  "contractName": "NFTStaking",
  "abi": [
    {
      "inputs": [
        {
          "internalType": "string",
          "name": "_name",
          "type": "string"
        },
        {
          "internalType": "string",
          "name": "_symbol",
          "type": "string"
        }
      ],
      "stateMutability": "nonpayable",
      "type": "constructor"
    },
    {
      "anonymous": false,
      "inputs": [
        {
          "indexed": true,
          "internalType": "address",
          "name": "owner",
          "type": "address"
        },
        {
          "indexed": true,
          "internalType": "address",
          "name": "approved",
          "type": "address"
        },
        {
          "indexed": true,
          "internalType": "uint256",
          "name": "tokenId",
          "type": "uint256"
        }
      ],
      "name": "Approval",
      "type": "event"
    },
    {
      "anonymous": false,
      "inputs": [
        {
          "indexed": true,
          "internalType": "address",
          "name": "owner",
          "type": "address"
        },
        {
          "indexed": true,
          "internalType": "address",
          "name": "operator",
          "type": "address"
        },
        {
          "indexed": false,
          "internalType": "bool",
          "name": "approved",
          "type": "bool"
        }
      ],
      "name": "ApprovalForAll",
      "type": "event"
    },
    {
      "anonymous": false,
      "inputs": [
        {
          "indexed": true,
          "internalType": "address",
          "name": "from",
          "type": "address"
        },
        {
          "indexed": true,
          "internalType": "address",
          "name": "to",
          "type": "address"
        },
        {
          "indexed": true,
          "internalType": "uint256",
          "name": "tokenId",
          "type": "uint256"
        }
      ],
      "name": "Transfer",
      "type": "event"
    },
    {
      "anonymous": false,
      "inputs": [
        {
          "indexed": false,
          "internalType": "string",
          "name": "_name",
          "type": "string"
        }
      ],
      "name": "collectoinNameEvent",
      "type": "event"
    },
    {
      "inputs": [
        {
          "internalType": "uint256",
          "name": "",
          "type": "uint256"
        }
      ],
      "name": "allNFTStaking",
      "outputs": [
        {
          "internalType": "uint256",
          "name": "tokenId",
          "type": "uint256"
        },
        {
          "internalType": "string",
          "name": "tokenName",
          "type": "string"
        },
        {
          "internalType": "string",
          "name": "tokenURI",
          "type": "string"
        },
        {
          "internalType": "address payable",
          "name": "mintedBy",
          "type": "address"
        },
        {
          "internalType": "address payable",
          "name": "currentOwner",
          "type": "address"
        },
        {
          "internalType": "address payable",
          "name": "previousOwner",
          "type": "address"
        },
        {
          "internalType": "uint256",
          "name": "price",
          "type": "uint256"
        },
        {
          "internalType": "uint256",
          "name": "numberOfTransfers",
          "type": "uint256"
        },
        {
          "internalType": "bool",
          "name": "forSale",
          "type": "bool"
        }
      ],
      "stateMutability": "view",
      "type": "function"
    },
    {
      "inputs": [
        {
          "internalType": "address",
          "name": "to",
          "type": "address"
        },
        {
          "internalType": "uint256",
          "name": "tokenId",
          "type": "uint256"
        }
      ],
      "name": "approve",
      "outputs": [],
      "stateMutability": "nonpayable",
      "type": "function"
    },
    {
      "inputs": [
        {
          "internalType": "address",
          "name": "owner",
          "type": "address"
        }
      ],
      "name": "balanceOf",
      "outputs": [
        {
          "internalType": "uint256",
          "name": "",
          "type": "uint256"
        }
      ],
      "stateMutability": "view",
      "type": "function"
    },
    {
      "inputs": [],
      "name": "collectionName",
      "outputs": [
        {
          "internalType": "string",
          "name": "",
          "type": "string"
        }
      ],
      "stateMutability": "view",
      "type": "function"
    },
    {
      "inputs": [],
      "name": "collectionNameSymbol",
      "outputs": [
        {
          "internalType": "string",
          "name": "",
          "type": "string"
        }
      ],
      "stateMutability": "view",
      "type": "function"
    },
    {
      "inputs": [
        {
          "internalType": "string",
          "name": "",
          "type": "string"
        }
      ],
      "name": "colorExists",
      "outputs": [
        {
          "internalType": "bool",
          "name": "",
          "type": "bool"
        }
      ],
      "stateMutability": "view",
      "type": "function"
    },
    {
      "inputs": [
        {
          "internalType": "uint256",
          "name": "tokenId",
          "type": "uint256"
        }
      ],
      "name": "getApproved",
      "outputs": [
        {
          "internalType": "address",
          "name": "",
          "type": "address"
        }
      ],
      "stateMutability": "view",
      "type": "function"
    },
    {
      "inputs": [
        {
          "internalType": "address",
          "name": "owner",
          "type": "address"
        },
        {
          "internalType": "address",
          "name": "operator",
          "type": "address"
        }
      ],
      "name": "isApprovedForAll",
      "outputs": [
        {
          "internalType": "bool",
          "name": "",
          "type": "bool"
        }
      ],
      "stateMutability": "view",
      "type": "function"
    },
    {
      "inputs": [],
      "name": "name",
      "outputs": [
        {
          "internalType": "string",
          "name": "",
          "type": "string"
        }
      ],
      "stateMutability": "view",
      "type": "function"
    },
    {
      "inputs": [],
      "name": "nftStakingCounter",
      "outputs": [
        {
          "internalType": "uint256",
          "name": "",
          "type": "uint256"
        }
      ],
      "stateMutability": "view",
      "type": "function"
    },
    {
      "inputs": [
        {
          "internalType": "uint256",
          "name": "tokenId",
          "type": "uint256"
        }
      ],
      "name": "ownerOf",
      "outputs": [
        {
          "internalType": "address",
          "name": "",
          "type": "address"
        }
      ],
      "stateMutability": "view",
      "type": "function"
    },
    {
      "inputs": [
        {
          "internalType": "address",
          "name": "from",
          "type": "address"
        },
        {
          "internalType": "address",
          "name": "to",
          "type": "address"
        },
        {
          "internalType": "uint256",
          "name": "tokenId",
          "type": "uint256"
        }
      ],
      "name": "safeTransferFrom",
      "outputs": [],
      "stateMutability": "nonpayable",
      "type": "function"
    },
    {
      "inputs": [
        {
          "internalType": "address",
          "name": "from",
          "type": "address"
        },
        {
          "internalType": "address",
          "name": "to",
          "type": "address"
        },
        {
          "internalType": "uint256",
          "name": "tokenId",
          "type": "uint256"
        },
        {
          "internalType": "bytes",
          "name": "_data",
          "type": "bytes"
        }
      ],
      "name": "safeTransferFrom",
      "outputs": [],
      "stateMutability": "nonpayable",
      "type": "function"
    },
    {
      "inputs": [
        {
          "internalType": "address",
          "name": "operator",
          "type": "address"
        },
        {
          "internalType": "bool",
          "name": "approved",
          "type": "bool"
        }
      ],
      "name": "setApprovalForAll",
      "outputs": [],
      "stateMutability": "nonpayable",
      "type": "function"
    },
    {
      "inputs": [
        {
          "internalType": "bytes4",
          "name": "interfaceId",
          "type": "bytes4"
        }
      ],
      "name": "supportsInterface",
      "outputs": [
        {
          "internalType": "bool",
          "name": "",
          "type": "bool"
        }
      ],
      "stateMutability": "view",
      "type": "function"
    },
    {
      "inputs": [],
      "name": "symbol",
      "outputs": [
        {
          "internalType": "string",
          "name": "",
          "type": "string"
        }
      ],
      "stateMutability": "view",
      "type": "function"
    },
    {
      "inputs": [
        {
          "internalType": "string",
          "name": "",
          "type": "string"
        }
      ],
      "name": "tokenNameExists",
      "outputs": [
        {
          "internalType": "bool",
          "name": "",
          "type": "bool"
        }
      ],
      "stateMutability": "view",
      "type": "function"
    },
    {
      "inputs": [
        {
          "internalType": "uint256",
          "name": "tokenId",
          "type": "uint256"
        }
      ],
      "name": "tokenURI",
      "outputs": [
        {
          "internalType": "string",
          "name": "",
          "type": "string"
        }
      ],
      "stateMutability": "view",
      "type": "function"
    },
    {
      "inputs": [
        {
          "internalType": "string",
          "name": "",
          "type": "string"
        }
      ],
      "name": "tokenURIExists",
      "outputs": [
        {
          "internalType": "bool",
          "name": "",
          "type": "bool"
        }
      ],
      "stateMutability": "view",
      "type": "function"
    },
    {
      "inputs": [
        {
          "internalType": "address",
          "name": "from",
          "type": "address"
        },
        {
          "internalType": "address",
          "name": "to",
          "type": "address"
        },
        {
          "internalType": "uint256",
          "name": "tokenId",
          "type": "uint256"
        }
      ],
      "name": "transferFrom",
      "outputs": [],
      "stateMutability": "nonpayable",
      "type": "function"
    },
    {
      "inputs": [
        {
          "internalType": "string",
          "name": "_name",
          "type": "string"
        },
        {
          "internalType": "string",
          "name": "_tokenURI",
          "type": "string"
        },
        {
          "internalType": "uint256",
          "name": "_price",
          "type": "uint256"
        },
        {
          "internalType": "string[]",
          "name": "_colors",
          "type": "string[]"
        }
      ],
      "name": "mintStaking",
      "outputs": [],
      "stateMutability": "nonpayable",
      "type": "function"
    },
    {
      "inputs": [
        {
          "internalType": "uint256",
          "name": "_tokenId",
          "type": "uint256"
        }
      ],
      "name": "getTokenOwner",
      "outputs": [
        {
          "internalType": "address",
          "name": "",
          "type": "address"
        }
      ],
      "stateMutability": "view",
      "type": "function"
    },
    {
      "inputs": [
        {
          "internalType": "uint256",
          "name": "_tokenId",
          "type": "uint256"
        }
      ],
      "name": "getTokenMetaData",
      "outputs": [
        {
          "internalType": "string",
          "name": "",
          "type": "string"
        }
      ],
      "stateMutability": "view",
      "type": "function"
    },
    {
      "inputs": [],
      "name": "getNumberOfTokensMinted",
      "outputs": [
        {
          "internalType": "uint256",
          "name": "",
          "type": "uint256"
        }
      ],
      "stateMutability": "view",
      "type": "function"
    },
    {
      "inputs": [
        {
          "internalType": "address",
          "name": "_owner",
          "type": "address"
        }
      ],
      "name": "getTotalNumberOfTokensOwnedByAnAddress",
      "outputs": [
        {
          "internalType": "uint256",
          "name": "",
          "type": "uint256"
        }
      ],
      "stateMutability": "view",
      "type": "function"
    },
    {
      "inputs": [
        {
          "internalType": "uint256",
          "name": "_tokenId",
          "type": "uint256"
        }
      ],
      "name": "getTokenExists",
      "outputs": [
        {
          "internalType": "bool",
          "name": "",
          "type": "bool"
        }
      ],
      "stateMutability": "view",
      "type": "function"
    },
    {
      "inputs": [
        {
          "internalType": "uint256",
          "name": "_tokenId",
          "type": "uint256"
        }
      ],
      "name": "buyToken",
      "outputs": [],
      "stateMutability": "payable",
      "type": "function"
    },
    {
      "inputs": [
        {
          "internalType": "uint256",
          "name": "_tokenId",
          "type": "uint256"
        },
        {
          "internalType": "uint256",
          "name": "_newPrice",
          "type": "uint256"
        }
      ],
      "name": "changeTokenPrice",
      "outputs": [],
      "stateMutability": "nonpayable",
      "type": "function"
    },
    {
      "inputs": [
        {
          "internalType": "uint256",
          "name": "_tokenId",
          "type": "uint256"
        }
      ],
      "name": "toggleForSale",
      "outputs": [],
      "stateMutability": "nonpayable",
      "type": "function"
    },
    {
      "inputs": [
        {
          "internalType": "uint256",
          "name": "_tokenId",
          "type": "uint256"
        }
      ],
      "name": "createStake",
      "outputs": [],
      "stateMutability": "nonpayable",
      "type": "function"
    },
    {
      "inputs": [
        {
          "internalType": "address",
          "name": "_stakeholder",
          "type": "address"
        }
      ],
      "name": "addStakeholder",
      "outputs": [],
      "stateMutability": "nonpayable",
      "type": "function"
    },
    {
      "inputs": [
        {
          "internalType": "address",
          "name": "_address",
          "type": "address"
        }
      ],
      "name": "isStakeholder",
      "outputs": [
        {
          "internalType": "bool",
          "name": "",
          "type": "bool"
        },
        {
          "internalType": "uint256",
          "name": "",
          "type": "uint256"
        }
      ],
      "stateMutability": "view",
      "type": "function"
    }
  ],
  "bytecode": "0x60806040523480156200001157600080fd5b50604051620053da380380620053da83398181016040528101906200003791906200035e565b6040518060400160405280601681526020017f5374616b696e67204e465420436f6c6c656374696f6e000000000000000000008152506040518060400160405280600781526020017f5374616b696e67000000000000000000000000000000000000000000000000008152508160009080519060200190620000bb92919062000111565b508060019080519060200190620000d492919062000111565b5050508160079080519060200190620000ef92919062000111565b5080600890805190602001906200010892919062000111565b50505062000448565b8280546200011f9062000412565b90600052602060002090601f0160209004810192826200014357600085556200018f565b82601f106200015e57805160ff19168380011785556200018f565b828001600101855582156200018f579182015b828111156200018e57825182559160200191906001019062000171565b5b5090506200019e9190620001a2565b5090565b5b80821115620001bd576000816000905550600101620001a3565b5090565b6000604051905090565b600080fd5b600080fd5b600080fd5b600080fd5b6000601f19601f8301169050919050565b7f4e487b7100000000000000000000000000000000000000000000000000000000600052604160045260246000fd5b6200022a82620001df565b810181811067ffffffffffffffff821117156200024c576200024b620001f0565b5b80604052505050565b600062000261620001c1565b90506200026f82826200021f565b919050565b600067ffffffffffffffff821115620002925762000291620001f0565b5b6200029d82620001df565b9050602081019050919050565b60005b83811015620002ca578082015181840152602081019050620002ad565b83811115620002da576000848401525b50505050565b6000620002f7620002f18462000274565b62000255565b905082815260208101848484011115620003165762000315620001da565b5b62000323848285620002aa565b509392505050565b600082601f830112620003435762000342620001d5565b5b815162000355848260208601620002e0565b91505092915050565b60008060408385031215620003785762000377620001cb565b5b600083015167ffffffffffffffff811115620003995762000398620001d0565b5b620003a7858286016200032b565b925050602083015167ffffffffffffffff811115620003cb57620003ca620001d0565b5b620003d9858286016200032b565b9150509250929050565b7f4e487b7100000000000000000000000000000000000000000000000000000000600052602260045260246000fd5b600060028204905060018216806200042b57607f821691505b60208210811415620004425762000441620003e3565b5b50919050565b614f8280620004586000396000f3fe6080604052600436106101e35760003560e01c806379d56e5811610102578063b3ec722111610095578063e5326ab111610064578063e5326ab11461076d578063e5c42fd114610798578063e985e9c5146107c1578063ef037b90146107fe576101e3565b8063b3ec7221146106b3578063b88d4fde146106dc578063c87b56dd14610705578063cc151f3a14610742576101e3565b8063a22cb465116100d1578063a22cb465146105e7578063a32018b914610610578063a46b1fac14610639578063a5cd761f14610676576101e3565b806379d56e581461050f5780638d44807c1461055457806395d89b41146105915780639c859bfb146105bc576101e3565b806342842e0e1161017a5780636352211e116101495780636352211e1461042d57806367c623cf1461046a5780636f9507f9146104a757806370a08231146104d2576101e3565b806342842e0e14610361578063439028501461038a57806343d32ae7146103c757806362e8e8ac14610404576101e3565b8063142687f3116101b6578063142687f3146102b65780631bf6ddae146102f357806323b872dd1461031c5780632d296bf114610345576101e3565b806301ffc9a7146101e857806306fdde0314610225578063081812fc14610250578063095ea7b31461028d575b600080fd5b3480156101f457600080fd5b5061020f600480360381019061020a919061397f565b61083c565b60405161021c91906139c7565b60405180910390f35b34801561023157600080fd5b5061023a61091e565b6040516102479190613a7b565b60405180910390f35b34801561025c57600080fd5b5061027760048036038101906102729190613ad3565b6109b0565b6040516102849190613b41565b60405180910390f35b34801561029957600080fd5b506102b460048036038101906102af9190613b88565b610a35565b005b3480156102c257600080fd5b506102dd60048036038101906102d89190613ad3565b610b4d565b6040516102ea91906139c7565b60405180910390f35b3480156102ff57600080fd5b5061031a60048036038101906103159190613ad3565b610b64565b005b34801561032857600080fd5b50610343600480360381019061033e9190613bc8565b610cbd565b005b61035f600480360381019061035a9190613ad3565b610d1d565b005b34801561036d57600080fd5b5061038860048036038101906103839190613bc8565b6112df565b005b34801561039657600080fd5b506103b160048036038101906103ac9190613c1b565b6112ff565b6040516103be9190613c57565b60405180910390f35b3480156103d357600080fd5b506103ee60048036038101906103e99190613da7565b611316565b6040516103fb91906139c7565b60405180910390f35b34801561041057600080fd5b5061042b60048036038101906104269190613df0565b61134c565b005b34801561043957600080fd5b50610454600480360381019061044f9190613ad3565b6117d4565b6040516104619190613b41565b60405180910390f35b34801561047657600080fd5b50610491600480360381019061048c9190613ad3565b611886565b60405161049e9190613a7b565b60405180910390f35b3480156104b357600080fd5b506104bc61189e565b6040516104c99190613a7b565b60405180910390f35b3480156104de57600080fd5b506104f960048036038101906104f49190613c1b565b61192c565b6040516105069190613c57565b60405180910390f35b34801561051b57600080fd5b5061053660048036038101906105319190613ad3565b6119e4565b60405161054b99989796959493929190613e51565b60405180910390f35b34801561056057600080fd5b5061057b60048036038101906105769190613da7565b611baf565b60405161058891906139c7565b60405180910390f35b34801561059d57600080fd5b506105a6611be5565b6040516105b39190613a7b565b60405180910390f35b3480156105c857600080fd5b506105d1611c77565b6040516105de9190613c57565b60405180910390f35b3480156105f357600080fd5b5061060e60048036038101906106099190613f18565b611c7d565b005b34801561061c57600080fd5b5061063760048036038101906106329190613ad3565b611dfe565b005b34801561064557600080fd5b50610660600480360381019061065b9190613da7565b6122b0565b60405161066d91906139c7565b60405180910390f35b34801561068257600080fd5b5061069d60048036038101906106989190613ad3565b6122e6565b6040516106aa9190613b41565b60405180910390f35b3480156106bf57600080fd5b506106da60048036038101906106d59190613fb8565b6122fd565b005b3480156106e857600080fd5b5061070360048036038101906106fe9190614119565b61278a565b005b34801561071157600080fd5b5061072c60048036038101906107279190613ad3565b6127ec565b6040516107399190613a7b565b60405180910390f35b34801561074e57600080fd5b5061075761293e565b6040516107649190613c57565b60405180910390f35b34801561077957600080fd5b5061078261294d565b60405161078f9190613a7b565b60405180910390f35b3480156107a457600080fd5b506107bf60048036038101906107ba9190613c1b565b6129db565b005b3480156107cd57600080fd5b506107e860048036038101906107e3919061419c565b612a56565b6040516107f591906139c7565b60405180910390f35b34801561080a57600080fd5b5061082560048036038101906108209190613c1b565b612aea565b6040516108339291906141dc565b60405180910390f35b60007f80ac58cd000000000000000000000000000000000000000000000000000000007bffffffffffffffffffffffffffffffffffffffffffffffffffffffff1916827bffffffffffffffffffffffffffffffffffffffffffffffffffffffff1916148061090757507f5b5e139f000000000000000000000000000000000000000000000000000000007bffffffffffffffffffffffffffffffffffffffffffffffffffffffff1916827bffffffffffffffffffffffffffffffffffffffffffffffffffffffff1916145b80610917575061091682612b9e565b5b9050919050565b60606000805461092d90614234565b80601f016020809104026020016040519081016040528092919081815260200182805461095990614234565b80156109a65780601f1061097b576101008083540402835291602001916109a6565b820191906000526020600020905b81548152906001019060200180831161098957829003601f168201915b5050505050905090565b60006109bb82612c08565b6109fa576040517f08c379a00000000000000000000000000000000000000000000000000000000081526004016109f1906142d8565b60405180910390fd5b6004600083815260200190815260200160002060009054906101000a900473ffffffffffffffffffffffffffffffffffffffff169050919050565b6000610a40826117d4565b90508073ffffffffffffffffffffffffffffffffffffffff168373ffffffffffffffffffffffffffffffffffffffff161415610ab1576040517f08c379a0000000000000000000000000000000000000000000000000000000008152600401610aa89061436a565b60405180910390fd5b8073ffffffffffffffffffffffffffffffffffffffff16610ad0612c74565b73ffffffffffffffffffffffffffffffffffffffff161480610aff5750610afe81610af9612c74565b612a56565b5b610b3e576040517f08c379a0000000000000000000000000000000000000000000000000000000008152600401610b35906143fc565b60405180910390fd5b610b488383612c7c565b505050565b600080610b5983612c08565b905080915050919050565b600073ffffffffffffffffffffffffffffffffffffffff163373ffffffffffffffffffffffffffffffffffffffff161415610b9e57600080fd5b610ba781612c08565b610bb057600080fd5b6000610bbb826117d4565b90503373ffffffffffffffffffffffffffffffffffffffff168173ffffffffffffffffffffffffffffffffffffffff1614610bf557600080fd5b610bfe82612d35565b6000600b60003373ffffffffffffffffffffffffffffffffffffffff1673ffffffffffffffffffffffffffffffffffffffff168152602001908152602001600020805490501415610c5357610c52336129db565b5b600b60003373ffffffffffffffffffffffffffffffffffffffff1673ffffffffffffffffffffffffffffffffffffffff1681526020019081526020016000208290806001815401808255809150506001900390600052602060002001600090919091909150555050565b610cce610cc8612c74565b82612d88565b610d0d576040517f08c379a0000000000000000000000000000000000000000000000000000000008152600401610d049061448e565b60405180910390fd5b610d18838383612e66565b505050565b600073ffffffffffffffffffffffffffffffffffffffff163373ffffffffffffffffffffffffffffffffffffffff161415610d5757600080fd5b610d6081612c08565b610d6957600080fd5b6000610d74826117d4565b9050600073ffffffffffffffffffffffffffffffffffffffff168173ffffffffffffffffffffffffffffffffffffffff161415610db057600080fd5b3373ffffffffffffffffffffffffffffffffffffffff168173ffffffffffffffffffffffffffffffffffffffff161415610de957600080fd5b6000600e60008481526020019081526020016000206040518061012001604052908160008201548152602001600182018054610e2490614234565b80601f0160208091040260200160405190810160405280929190818152602001828054610e5090614234565b8015610e9d5780601f10610e7257610100808354040283529160200191610e9d565b820191906000526020600020905b815481529060010190602001808311610e8057829003601f168201915b50505050508152602001600282018054610eb690614234565b80601f0160208091040260200160405190810160405280929190818152602001828054610ee290614234565b8015610f2f5780601f10610f0457610100808354040283529160200191610f2f565b820191906000526020600020905b815481529060010190602001808311610f1257829003601f168201915b505050505081526020016003820160009054906101000a900473ffffffffffffffffffffffffffffffffffffffff1673ffffffffffffffffffffffffffffffffffffffff1673ffffffffffffffffffffffffffffffffffffffff1681526020016004820160009054906101000a900473ffffffffffffffffffffffffffffffffffffffff1673ffffffffffffffffffffffffffffffffffffffff1673ffffffffffffffffffffffffffffffffffffffff1681526020016005820160009054906101000a900473ffffffffffffffffffffffffffffffffffffffff1673ffffffffffffffffffffffffffffffffffffffff1673ffffffffffffffffffffffffffffffffffffffff16815260200160068201548152602001600782015481526020016008820160009054906101000a900460ff16151515158152505090508060c0015134101561107c57600080fd5b80610100015161108b57600080fd5b611096823385612e66565b6000816080015190508073ffffffffffffffffffffffffffffffffffffffff166108fc349081150290604051600060405180830381858888f193505050501580156110e5573d6000803e3d6000fd5b5081608001518260a0019073ffffffffffffffffffffffffffffffffffffffff16908173ffffffffffffffffffffffffffffffffffffffff168152505033826080019073ffffffffffffffffffffffffffffffffffffffff16908173ffffffffffffffffffffffffffffffffffffffff168152505060018260e00181815161116d91906144dd565b9150818152505081600e60008681526020019081526020016000206000820151816000015560208201518160010190805190602001906111ae929190613830565b5060408201518160020190805190602001906111cb929190613830565b5060608201518160030160006101000a81548173ffffffffffffffffffffffffffffffffffffffff021916908373ffffffffffffffffffffffffffffffffffffffff16021790555060808201518160040160006101000a81548173ffffffffffffffffffffffffffffffffffffffff021916908373ffffffffffffffffffffffffffffffffffffffff16021790555060a08201518160050160006101000a81548173ffffffffffffffffffffffffffffffffffffffff021916908373ffffffffffffffffffffffffffffffffffffffff16021790555060c0820151816006015560e082015181600701556101008201518160080160006101000a81548160ff02191690831515021790555090505050505050565b6112fa8383836040518060200160405280600081525061278a565b505050565b60008061130b8361192c565b905080915050919050565b6011818051602081018201805184825260208301602085012081835280955050505050506000915054906101000a900460ff1681565b600073ffffffffffffffffffffffffffffffffffffffff163373ffffffffffffffffffffffffffffffffffffffff16141561138657600080fd5b61138f82612c08565b61139857600080fd5b60006113a3836117d4565b90503373ffffffffffffffffffffffffffffffffffffffff168173ffffffffffffffffffffffffffffffffffffffff16146113dd57600080fd5b6000600e6000858152602001908152602001600020604051806101200160405290816000820154815260200160018201805461141890614234565b80601f016020809104026020016040519081016040528092919081815260200182805461144490614234565b80156114915780601f1061146657610100808354040283529160200191611491565b820191906000526020600020905b81548152906001019060200180831161147457829003601f168201915b505050505081526020016002820180546114aa90614234565b80601f01602080910402602001604051908101604052809291908181526020018280546114d690614234565b80156115235780601f106114f857610100808354040283529160200191611523565b820191906000526020600020905b81548152906001019060200180831161150657829003601f168201915b505050505081526020016003820160009054906101000a900473ffffffffffffffffffffffffffffffffffffffff1673ffffffffffffffffffffffffffffffffffffffff1673ffffffffffffffffffffffffffffffffffffffff1681526020016004820160009054906101000a900473ffffffffffffffffffffffffffffffffffffffff1673ffffffffffffffffffffffffffffffffffffffff1673ffffffffffffffffffffffffffffffffffffffff1681526020016005820160009054906101000a900473ffffffffffffffffffffffffffffffffffffffff1673ffffffffffffffffffffffffffffffffffffffff1673ffffffffffffffffffffffffffffffffffffffff16815260200160068201548152602001600782015481526020016008820160009054906101000a900460ff1615151515815250509050828160c001818152505080600e60008681526020019081526020016000206000820151816000015560208201518160010190805190602001906116a3929190613830565b5060408201518160020190805190602001906116c0929190613830565b5060608201518160030160006101000a81548173ffffffffffffffffffffffffffffffffffffffff021916908373ffffffffffffffffffffffffffffffffffffffff16021790555060808201518160040160006101000a81548173ffffffffffffffffffffffffffffffffffffffff021916908373ffffffffffffffffffffffffffffffffffffffff16021790555060a08201518160050160006101000a81548173ffffffffffffffffffffffffffffffffffffffff021916908373ffffffffffffffffffffffffffffffffffffffff16021790555060c0820151816006015560e082015181600701556101008201518160080160006101000a81548160ff02191690831515021790555090505050505050565b6000806002600084815260200190815260200160002060009054906101000a900473ffffffffffffffffffffffffffffffffffffffff169050600073ffffffffffffffffffffffffffffffffffffffff168173ffffffffffffffffffffffffffffffffffffffff16141561187d576040517f08c379a0000000000000000000000000000000000000000000000000000000008152600401611874906145a5565b60405180910390fd5b80915050919050565b60606000611893836127ec565b905080915050919050565b600880546118ab90614234565b80601f01602080910402602001604051908101604052809291908181526020018280546118d790614234565b80156119245780601f106118f957610100808354040283529160200191611924565b820191906000526020600020905b81548152906001019060200180831161190757829003601f168201915b505050505081565b60008073ffffffffffffffffffffffffffffffffffffffff168273ffffffffffffffffffffffffffffffffffffffff16141561199d576040517f08c379a000000000000000000000000000000000000000000000000000000000815260040161199490614637565b60405180910390fd5b600360008373ffffffffffffffffffffffffffffffffffffffff1673ffffffffffffffffffffffffffffffffffffffff168152602001908152602001600020549050919050565b600e602052806000526040600020600091509050806000015490806001018054611a0d90614234565b80601f0160208091040260200160405190810160405280929190818152602001828054611a3990614234565b8015611a865780601f10611a5b57610100808354040283529160200191611a86565b820191906000526020600020905b815481529060010190602001808311611a6957829003601f168201915b505050505090806002018054611a9b90614234565b80601f0160208091040260200160405190810160405280929190818152602001828054611ac790614234565b8015611b145780601f10611ae957610100808354040283529160200191611b14565b820191906000526020600020905b815481529060010190602001808311611af757829003601f168201915b5050505050908060030160009054906101000a900473ffffffffffffffffffffffffffffffffffffffff16908060040160009054906101000a900473ffffffffffffffffffffffffffffffffffffffff16908060050160009054906101000a900473ffffffffffffffffffffffffffffffffffffffff16908060060154908060070154908060080160009054906101000a900460ff16905089565b6010818051602081018201805184825260208301602085012081835280955050505050506000915054906101000a900460ff1681565b606060018054611bf490614234565b80601f0160208091040260200160405190810160405280929190818152602001828054611c2090614234565b8015611c6d5780601f10611c4257610100808354040283529160200191611c6d565b820191906000526020600020905b815481529060010190602001808311611c5057829003601f168201915b5050505050905090565b60095481565b611c85612c74565b73ffffffffffffffffffffffffffffffffffffffff168273ffffffffffffffffffffffffffffffffffffffff161415611cf3576040517f08c379a0000000000000000000000000000000000000000000000000000000008152600401611cea906146a3565b60405180910390fd5b8060056000611d00612c74565b73ffffffffffffffffffffffffffffffffffffffff1673ffffffffffffffffffffffffffffffffffffffff16815260200190815260200160002060008473ffffffffffffffffffffffffffffffffffffffff1673ffffffffffffffffffffffffffffffffffffffff16815260200190815260200160002060006101000a81548160ff0219169083151502179055508173ffffffffffffffffffffffffffffffffffffffff16611dad612c74565b73ffffffffffffffffffffffffffffffffffffffff167f17307eab39ab6107e8899845ad3d59bd9653f200f220920489ca2b5937696c3183604051611df291906139c7565b60405180910390a35050565b600073ffffffffffffffffffffffffffffffffffffffff163373ffffffffffffffffffffffffffffffffffffffff161415611e3857600080fd5b611e4181612c08565b611e4a57600080fd5b6000611e55826117d4565b90503373ffffffffffffffffffffffffffffffffffffffff168173ffffffffffffffffffffffffffffffffffffffff1614611e8f57600080fd5b6000600e60008481526020019081526020016000206040518061012001604052908160008201548152602001600182018054611eca90614234565b80601f0160208091040260200160405190810160405280929190818152602001828054611ef690614234565b8015611f435780601f10611f1857610100808354040283529160200191611f43565b820191906000526020600020905b815481529060010190602001808311611f2657829003601f168201915b50505050508152602001600282018054611f5c90614234565b80601f0160208091040260200160405190810160405280929190818152602001828054611f8890614234565b8015611fd55780601f10611faa57610100808354040283529160200191611fd5565b820191906000526020600020905b815481529060010190602001808311611fb857829003601f168201915b505050505081526020016003820160009054906101000a900473ffffffffffffffffffffffffffffffffffffffff1673ffffffffffffffffffffffffffffffffffffffff1673ffffffffffffffffffffffffffffffffffffffff1681526020016004820160009054906101000a900473ffffffffffffffffffffffffffffffffffffffff1673ffffffffffffffffffffffffffffffffffffffff1673ffffffffffffffffffffffffffffffffffffffff1681526020016005820160009054906101000a900473ffffffffffffffffffffffffffffffffffffffff1673ffffffffffffffffffffffffffffffffffffffff1673ffffffffffffffffffffffffffffffffffffffff16815260200160068201548152602001600782015481526020016008820160009054906101000a900460ff16151515158152505090508061010001511561213357600081610100019015159081151581525050612146565b6001816101000190151590811515815250505b80600e6000858152602001908152602001600020600082015181600001556020820151816001019080519060200190612180929190613830565b50604082015181600201908051906020019061219d929190613830565b5060608201518160030160006101000a81548173ffffffffffffffffffffffffffffffffffffffff021916908373ffffffffffffffffffffffffffffffffffffffff16021790555060808201518160040160006101000a81548173ffffffffffffffffffffffffffffffffffffffff021916908373ffffffffffffffffffffffffffffffffffffffff16021790555060a08201518160050160006101000a81548173ffffffffffffffffffffffffffffffffffffffff021916908373ffffffffffffffffffffffffffffffffffffffff16021790555060c0820151816006015560e082015181600701556101008201518160080160006101000a81548160ff021916908315150217905550905050505050565b600f818051602081018201805184825260208301602085012081835280955050505050506000915054906101000a900460ff1681565b6000806122f2836117d4565b905080915050919050565b600073ffffffffffffffffffffffffffffffffffffffff163373ffffffffffffffffffffffffffffffffffffffff16141561233757600080fd5b6009600081548092919061234a906146c3565b919050555061235a600954612c08565b1561236457600080fd5b60005b828290508110156123e05760108383838181106123875761238661470c565b5b9050602002810190612399919061474a565b6040516123a79291906147dd565b908152602001604051809103902060009054906101000a900460ff16156123cd57600080fd5b80806123d8906146c3565b915050612367565b506011846040516123f19190614827565b908152602001604051809103902060009054906101000a900460ff161561244d576040517f08c379a00000000000000000000000000000000000000000000000000000000081526004016124449061488a565b60405180910390fd5b600f8560405161245d9190614827565b908152602001604051809103902060009054906101000a900460ff161561248357600080fd5b61248f336009546130c2565b61249b60095485613290565b60005b8282905081101561251857600160108484848181106124c0576124bf61470c565b5b90506020028101906124d2919061474a565b6040516124e09291906147dd565b908152602001604051809103902060006101000a81548160ff0219169083151502179055508080612510906146c3565b91505061249e565b50600160118560405161252b9190614827565b908152602001604051809103902060006101000a81548160ff0219169083151502179055506001600f866040516125629190614827565b908152602001604051809103902060006101000a81548160ff021916908315150217905550600080339050600060405180610120016040528060095481526020018981526020018881526020018373ffffffffffffffffffffffffffffffffffffffff1681526020018373ffffffffffffffffffffffffffffffffffffffff1681526020018473ffffffffffffffffffffffffffffffffffffffff1681526020018781526020016000815260200160011515815250905080600e60006009548152602001908152602001600020600082015181600001556020820151816001019080519060200190612655929190613830565b506040820151816002019080519060200190612672929190613830565b5060608201518160030160006101000a81548173ffffffffffffffffffffffffffffffffffffffff021916908373ffffffffffffffffffffffffffffffffffffffff16021790555060808201518160040160006101000a81548173ffffffffffffffffffffffffffffffffffffffff021916908373ffffffffffffffffffffffffffffffffffffffff16021790555060a08201518160050160006101000a81548173ffffffffffffffffffffffffffffffffffffffff021916908373ffffffffffffffffffffffffffffffffffffffff16021790555060c0820151816006015560e082015181600701556101008201518160080160006101000a81548160ff0219169083151502179055509050505050505050505050565b61279b612795612c74565b83612d88565b6127da576040517f08c379a00000000000000000000000000000000000000000000000000000000081526004016127d19061448e565b60405180910390fd5b6127e684848484613304565b50505050565b60606127f782612c08565b612836576040517f08c379a000000000000000000000000000000000000000000000000000000000815260040161282d9061491c565b60405180910390fd5b600060066000848152602001908152602001600020805461285690614234565b80601f016020809104026020016040519081016040528092919081815260200182805461288290614234565b80156128cf5780601f106128a4576101008083540402835291602001916128cf565b820191906000526020600020905b8154815290600101906020018083116128b257829003601f168201915b5050505050905060006128e0613360565b90506000815114156128f6578192505050612939565b60008251111561292b57808260405160200161291392919061493c565b60405160208183030381529060405292505050612939565b61293484613377565b925050505b919050565b60008060095490508091505090565b6007805461295a90614234565b80601f016020809104026020016040519081016040528092919081815260200182805461298690614234565b80156129d35780601f106129a8576101008083540402835291602001916129d3565b820191906000526020600020905b8154815290600101906020018083116129b657829003601f168201915b505050505081565b60006129e682612aea565b50905080612a5257600a829080600181540180825580915050600190039060005260206000200160009091909190916101000a81548173ffffffffffffffffffffffffffffffffffffffff021916908373ffffffffffffffffffffffffffffffffffffffff1602179055505b5050565b6000600560008473ffffffffffffffffffffffffffffffffffffffff1673ffffffffffffffffffffffffffffffffffffffff16815260200190815260200160002060008373ffffffffffffffffffffffffffffffffffffffff1673ffffffffffffffffffffffffffffffffffffffff16815260200190815260200160002060009054906101000a900460ff16905092915050565b60008060005b600a80549050811015612b9057600a8181548110612b1157612b1061470c565b5b9060005260206000200160009054906101000a900473ffffffffffffffffffffffffffffffffffffffff1673ffffffffffffffffffffffffffffffffffffffff168473ffffffffffffffffffffffffffffffffffffffff161415612b7c576001819250925050612b99565b600181612b8991906144dd565b9050612af0565b50600080915091505b915091565b60007f01ffc9a7000000000000000000000000000000000000000000000000000000007bffffffffffffffffffffffffffffffffffffffffffffffffffffffff1916827bffffffffffffffffffffffffffffffffffffffffffffffffffffffff1916149050919050565b60008073ffffffffffffffffffffffffffffffffffffffff166002600084815260200190815260200160002060009054906101000a900473ffffffffffffffffffffffffffffffffffffffff1673ffffffffffffffffffffffffffffffffffffffff1614159050919050565b600033905090565b816004600083815260200190815260200160002060006101000a81548173ffffffffffffffffffffffffffffffffffffffff021916908373ffffffffffffffffffffffffffffffffffffffff160217905550808273ffffffffffffffffffffffffffffffffffffffff16612cef836117d4565b73ffffffffffffffffffffffffffffffffffffffff167f8c5be1e5ebec7d5bd14f71427d1e84f3dd0314c0f7b2291e5b200ac8c7c3b92560405160405180910390a45050565b612d3e8161341e565b6000600660008381526020019081526020016000208054612d5e90614234565b905014612d8557600660008281526020019081526020016000206000612d8491906138b6565b5b50565b6000612d9382612c08565b612dd2576040517f08c379a0000000000000000000000000000000000000000000000000000000008152600401612dc9906149d2565b60405180910390fd5b6000612ddd836117d4565b90508073ffffffffffffffffffffffffffffffffffffffff168473ffffffffffffffffffffffffffffffffffffffff161480612e4c57508373ffffffffffffffffffffffffffffffffffffffff16612e34846109b0565b73ffffffffffffffffffffffffffffffffffffffff16145b80612e5d5750612e5c8185612a56565b5b91505092915050565b8273ffffffffffffffffffffffffffffffffffffffff16612e86826117d4565b73ffffffffffffffffffffffffffffffffffffffff1614612edc576040517f08c379a0000000000000000000000000000000000000000000000000000000008152600401612ed390614a64565b60405180910390fd5b600073ffffffffffffffffffffffffffffffffffffffff168273ffffffffffffffffffffffffffffffffffffffff161415612f4c576040517f08c379a0000000000000000000000000000000000000000000000000000000008152600401612f4390614af6565b60405180910390fd5b612f5783838361352f565b612f62600082612c7c565b6001600360008573ffffffffffffffffffffffffffffffffffffffff1673ffffffffffffffffffffffffffffffffffffffff1681526020019081526020016000206000828254612fb29190614b16565b925050819055506001600360008473ffffffffffffffffffffffffffffffffffffffff1673ffffffffffffffffffffffffffffffffffffffff168152602001908152602001600020600082825461300991906144dd565b92505081905550816002600083815260200190815260200160002060006101000a81548173ffffffffffffffffffffffffffffffffffffffff021916908373ffffffffffffffffffffffffffffffffffffffff160217905550808273ffffffffffffffffffffffffffffffffffffffff168473ffffffffffffffffffffffffffffffffffffffff167fddf252ad1be2c89b69c2b068fc378daa952ba7f163c4a11628f55a4df523b3ef60405160405180910390a4505050565b600073ffffffffffffffffffffffffffffffffffffffff168273ffffffffffffffffffffffffffffffffffffffff161415613132576040517f08c379a000000000000000000000000000000000000000000000000000000000815260040161312990614b96565b60405180910390fd5b61313b81612c08565b1561317b576040517f08c379a000000000000000000000000000000000000000000000000000000000815260040161317290614c02565b60405180910390fd5b6131876000838361352f565b6001600360008473ffffffffffffffffffffffffffffffffffffffff1673ffffffffffffffffffffffffffffffffffffffff16815260200190815260200160002060008282546131d791906144dd565b92505081905550816002600083815260200190815260200160002060006101000a81548173ffffffffffffffffffffffffffffffffffffffff021916908373ffffffffffffffffffffffffffffffffffffffff160217905550808273ffffffffffffffffffffffffffffffffffffffff16600073ffffffffffffffffffffffffffffffffffffffff167fddf252ad1be2c89b69c2b068fc378daa952ba7f163c4a11628f55a4df523b3ef60405160405180910390a45050565b61329982612c08565b6132d8576040517f08c379a00000000000000000000000000000000000000000000000000000000081526004016132cf90614c94565b60405180910390fd5b806006600084815260200190815260200160002090805190602001906132ff929190613830565b505050565b61330f848484612e66565b61331b84848484613534565b61335a576040517f08c379a000000000000000000000000000000000000000000000000000000000815260040161335190614d26565b60405180910390fd5b50505050565b606060405180602001604052806000815250905090565b606061338282612c08565b6133c1576040517f08c379a00000000000000000000000000000000000000000000000000000000081526004016133b890614db8565b60405180910390fd5b60006133cb613360565b905060008151116133eb5760405180602001604052806000815250613416565b806133f5846136bc565b60405160200161340692919061493c565b6040516020818303038152906040525b915050919050565b6000613429826117d4565b90506134378160008461352f565b613442600083612c7c565b6001600360008373ffffffffffffffffffffffffffffffffffffffff1673ffffffffffffffffffffffffffffffffffffffff16815260200190815260200160002060008282546134929190614b16565b925050819055506002600083815260200190815260200160002060006101000a81549073ffffffffffffffffffffffffffffffffffffffff021916905581600073ffffffffffffffffffffffffffffffffffffffff168273ffffffffffffffffffffffffffffffffffffffff167fddf252ad1be2c89b69c2b068fc378daa952ba7f163c4a11628f55a4df523b3ef60405160405180910390a45050565b505050565b60006135558473ffffffffffffffffffffffffffffffffffffffff1661381d565b156136af578373ffffffffffffffffffffffffffffffffffffffff1663150b7a0261357e612c74565b8786866040518563ffffffff1660e01b81526004016135a09493929190614e2d565b6020604051808303816000875af19250505080156135dc57506040513d601f19601f820116820180604052508101906135d99190614e8e565b60015b61365f573d806000811461360c576040519150601f19603f3d011682016040523d82523d6000602084013e613611565b606091505b50600081511415613657576040517f08c379a000000000000000000000000000000000000000000000000000000000815260040161364e90614d26565b60405180910390fd5b805181602001fd5b63150b7a0260e01b7bffffffffffffffffffffffffffffffffffffffffffffffffffffffff1916817bffffffffffffffffffffffffffffffffffffffffffffffffffffffff1916149150506136b4565b600190505b949350505050565b60606000821415613704576040518060400160405280600181526020017f30000000000000000000000000000000000000000000000000000000000000008152509050613818565b600082905060005b6000821461373657808061371f906146c3565b915050600a8261372f9190614eea565b915061370c565b60008167ffffffffffffffff81111561375257613751613c7c565b5b6040519080825280601f01601f1916602001820160405280156137845781602001600182028036833780820191505090505b5090505b600085146138115760018261379d9190614b16565b9150600a856137ac9190614f1b565b60306137b891906144dd565b60f81b8183815181106137ce576137cd61470c565b5b60200101907effffffffffffffffffffffffffffffffffffffffffffffffffffffffffffff1916908160001a905350600a8561380a9190614eea565b9450613788565b8093505050505b919050565b600080823b905060008111915050919050565b82805461383c90614234565b90600052602060002090601f01602090048101928261385e57600085556138a5565b82601f1061387757805160ff19168380011785556138a5565b828001600101855582156138a5579182015b828111156138a4578251825591602001919060010190613889565b5b5090506138b291906138f6565b5090565b5080546138c290614234565b6000825580601f106138d457506138f3565b601f0160209004906000526020600020908101906138f291906138f6565b5b50565b5b8082111561390f5760008160009055506001016138f7565b5090565b6000604051905090565b600080fd5b600080fd5b60007fffffffff0000000000000000000000000000000000000000000000000000000082169050919050565b61395c81613927565b811461396757600080fd5b50565b60008135905061397981613953565b92915050565b6000602082840312156139955761399461391d565b5b60006139a38482850161396a565b91505092915050565b60008115159050919050565b6139c1816139ac565b82525050565b60006020820190506139dc60008301846139b8565b92915050565b600081519050919050565b600082825260208201905092915050565b60005b83811015613a1c578082015181840152602081019050613a01565b83811115613a2b576000848401525b50505050565b6000601f19601f8301169050919050565b6000613a4d826139e2565b613a5781856139ed565b9350613a678185602086016139fe565b613a7081613a31565b840191505092915050565b60006020820190508181036000830152613a958184613a42565b905092915050565b6000819050919050565b613ab081613a9d565b8114613abb57600080fd5b50565b600081359050613acd81613aa7565b92915050565b600060208284031215613ae957613ae861391d565b5b6000613af784828501613abe565b91505092915050565b600073ffffffffffffffffffffffffffffffffffffffff82169050919050565b6000613b2b82613b00565b9050919050565b613b3b81613b20565b82525050565b6000602082019050613b566000830184613b32565b92915050565b613b6581613b20565b8114613b7057600080fd5b50565b600081359050613b8281613b5c565b92915050565b60008060408385031215613b9f57613b9e61391d565b5b6000613bad85828601613b73565b9250506020613bbe85828601613abe565b9150509250929050565b600080600060608486031215613be157613be061391d565b5b6000613bef86828701613b73565b9350506020613c0086828701613b73565b9250506040613c1186828701613abe565b9150509250925092565b600060208284031215613c3157613c3061391d565b5b6000613c3f84828501613b73565b91505092915050565b613c5181613a9d565b82525050565b6000602082019050613c6c6000830184613c48565b92915050565b600080fd5b600080fd5b7f4e487b7100000000000000000000000000000000000000000000000000000000600052604160045260246000fd5b613cb482613a31565b810181811067ffffffffffffffff82111715613cd357613cd2613c7c565b5b80604052505050565b6000613ce6613913565b9050613cf28282613cab565b919050565b600067ffffffffffffffff821115613d1257613d11613c7c565b5b613d1b82613a31565b9050602081019050919050565b82818337600083830152505050565b6000613d4a613d4584613cf7565b613cdc565b905082815260208101848484011115613d6657613d65613c77565b5b613d71848285613d28565b509392505050565b600082601f830112613d8e57613d8d613c72565b5b8135613d9e848260208601613d37565b91505092915050565b600060208284031215613dbd57613dbc61391d565b5b600082013567ffffffffffffffff811115613ddb57613dda613922565b5b613de784828501613d79565b91505092915050565b60008060408385031215613e0757613e0661391d565b5b6000613e1585828601613abe565b9250506020613e2685828601613abe565b9150509250929050565b6000613e3b82613b00565b9050919050565b613e4b81613e30565b82525050565b600061012082019050613e67600083018c613c48565b8181036020830152613e79818b613a42565b90508181036040830152613e8d818a613a42565b9050613e9c6060830189613e42565b613ea96080830188613e42565b613eb660a0830187613e42565b613ec360c0830186613c48565b613ed060e0830185613c48565b613ede6101008301846139b8565b9a9950505050505050505050565b613ef5816139ac565b8114613f0057600080fd5b50565b600081359050613f1281613eec565b92915050565b60008060408385031215613f2f57613f2e61391d565b5b6000613f3d85828601613b73565b9250506020613f4e85828601613f03565b9150509250929050565b600080fd5b600080fd5b60008083601f840112613f7857613f77613c72565b5b8235905067ffffffffffffffff811115613f9557613f94613f58565b5b602083019150836020820283011115613fb157613fb0613f5d565b5b9250929050565b600080600080600060808688031215613fd457613fd361391d565b5b600086013567ffffffffffffffff811115613ff257613ff1613922565b5b613ffe88828901613d79565b955050602086013567ffffffffffffffff81111561401f5761401e613922565b5b61402b88828901613d79565b945050604061403c88828901613abe565b935050606086013567ffffffffffffffff81111561405d5761405c613922565b5b61406988828901613f62565b92509250509295509295909350565b600067ffffffffffffffff82111561409357614092613c7c565b5b61409c82613a31565b9050602081019050919050565b60006140bc6140b784614078565b613cdc565b9050828152602081018484840111156140d8576140d7613c77565b5b6140e3848285613d28565b509392505050565b600082601f830112614100576140ff613c72565b5b81356141108482602086016140a9565b91505092915050565b600080600080608085870312156141335761413261391d565b5b600061414187828801613b73565b945050602061415287828801613b73565b935050604061416387828801613abe565b925050606085013567ffffffffffffffff81111561418457614183613922565b5b614190878288016140eb565b91505092959194509250565b600080604083850312156141b3576141b261391d565b5b60006141c185828601613b73565b92505060206141d285828601613b73565b9150509250929050565b60006040820190506141f160008301856139b8565b6141fe6020830184613c48565b9392505050565b7f4e487b7100000000000000000000000000000000000000000000000000000000600052602260045260246000fd5b6000600282049050600182168061424c57607f821691505b602082108114156142605761425f614205565b5b50919050565b7f4552433732313a20617070726f76656420717565727920666f72206e6f6e657860008201527f697374656e7420746f6b656e0000000000000000000000000000000000000000602082015250565b60006142c2602c836139ed565b91506142cd82614266565b604082019050919050565b600060208201905081810360008301526142f1816142b5565b9050919050565b7f4552433732313a20617070726f76616c20746f2063757272656e74206f776e6560008201527f7200000000000000000000000000000000000000000000000000000000000000602082015250565b60006143546021836139ed565b915061435f826142f8565b604082019050919050565b6000602082019050818103600083015261438381614347565b9050919050565b7f4552433732313a20617070726f76652063616c6c6572206973206e6f74206f7760008201527f6e6572206e6f7220617070726f76656420666f7220616c6c0000000000000000602082015250565b60006143e66038836139ed565b91506143f18261438a565b604082019050919050565b60006020820190508181036000830152614415816143d9565b9050919050565b7f4552433732313a207472616e736665722063616c6c6572206973206e6f74206f60008201527f776e6572206e6f7220617070726f766564000000000000000000000000000000602082015250565b60006144786031836139ed565b91506144838261441c565b604082019050919050565b600060208201905081810360008301526144a78161446b565b9050919050565b7f4e487b7100000000000000000000000000000000000000000000000000000000600052601160045260246000fd5b60006144e882613a9d565b91506144f383613a9d565b9250827fffffffffffffffffffffffffffffffffffffffffffffffffffffffffffffffff03821115614528576145276144ae565b5b828201905092915050565b7f4552433732313a206f776e657220717565727920666f72206e6f6e657869737460008201527f656e7420746f6b656e0000000000000000000000000000000000000000000000602082015250565b600061458f6029836139ed565b915061459a82614533565b604082019050919050565b600060208201905081810360008301526145be81614582565b9050919050565b7f4552433732313a2062616c616e636520717565727920666f7220746865207a6560008201527f726f206164647265737300000000000000000000000000000000000000000000602082015250565b6000614621602a836139ed565b915061462c826145c5565b604082019050919050565b6000602082019050818103600083015261465081614614565b9050919050565b7f4552433732313a20617070726f766520746f2063616c6c657200000000000000600082015250565b600061468d6019836139ed565b915061469882614657565b602082019050919050565b600060208201905081810360008301526146bc81614680565b9050919050565b60006146ce82613a9d565b91507fffffffffffffffffffffffffffffffffffffffffffffffffffffffffffffffff821415614701576147006144ae565b5b600182019050919050565b7f4e487b7100000000000000000000000000000000000000000000000000000000600052603260045260246000fd5b600080fd5b600080fd5b600080fd5b600080833560016020038436030381126147675761476661473b565b5b80840192508235915067ffffffffffffffff82111561478957614788614740565b5b6020830192506001820236038313156147a5576147a4614745565b5b509250929050565b600081905092915050565b60006147c483856147ad565b93506147d1838584613d28565b82840190509392505050565b60006147ea8284866147b8565b91508190509392505050565b6000614801826139e2565b61480b81856147ad565b935061481b8185602086016139fe565b80840191505092915050565b600061483382846147f6565b915081905092915050565b7f746f6b656e2055524920616c7265616479206578697374000000000000000000600082015250565b60006148746017836139ed565b915061487f8261483e565b602082019050919050565b600060208201905081810360008301526148a381614867565b9050919050565b7f45524337323155524953746f726167653a2055524920717565727920666f722060008201527f6e6f6e6578697374656e7420746f6b656e000000000000000000000000000000602082015250565b60006149066031836139ed565b9150614911826148aa565b604082019050919050565b60006020820190508181036000830152614935816148f9565b9050919050565b600061494882856147f6565b915061495482846147f6565b91508190509392505050565b7f4552433732313a206f70657261746f7220717565727920666f72206e6f6e657860008201527f697374656e7420746f6b656e0000000000000000000000000000000000000000602082015250565b60006149bc602c836139ed565b91506149c782614960565b604082019050919050565b600060208201905081810360008301526149eb816149af565b9050919050565b7f4552433732313a207472616e73666572206f6620746f6b656e2074686174206960008201527f73206e6f74206f776e0000000000000000000000000000000000000000000000602082015250565b6000614a4e6029836139ed565b9150614a59826149f2565b604082019050919050565b60006020820190508181036000830152614a7d81614a41565b9050919050565b7f4552433732313a207472616e7366657220746f20746865207a65726f2061646460008201527f7265737300000000000000000000000000000000000000000000000000000000602082015250565b6000614ae06024836139ed565b9150614aeb82614a84565b604082019050919050565b60006020820190508181036000830152614b0f81614ad3565b9050919050565b6000614b2182613a9d565b9150614b2c83613a9d565b925082821015614b3f57614b3e6144ae565b5b828203905092915050565b7f4552433732313a206d696e7420746f20746865207a65726f2061646472657373600082015250565b6000614b806020836139ed565b9150614b8b82614b4a565b602082019050919050565b60006020820190508181036000830152614baf81614b73565b9050919050565b7f4552433732313a20746f6b656e20616c7265616479206d696e74656400000000600082015250565b6000614bec601c836139ed565b9150614bf782614bb6565b602082019050919050565b60006020820190508181036000830152614c1b81614bdf565b9050919050565b7f45524337323155524953746f726167653a2055524920736574206f66206e6f6e60008201527f6578697374656e7420746f6b656e000000000000000000000000000000000000602082015250565b6000614c7e602e836139ed565b9150614c8982614c22565b604082019050919050565b60006020820190508181036000830152614cad81614c71565b9050919050565b7f4552433732313a207472616e7366657220746f206e6f6e20455243373231526560008201527f63656976657220696d706c656d656e7465720000000000000000000000000000602082015250565b6000614d106032836139ed565b9150614d1b82614cb4565b604082019050919050565b60006020820190508181036000830152614d3f81614d03565b9050919050565b7f4552433732314d657461646174613a2055524920717565727920666f72206e6f60008201527f6e6578697374656e7420746f6b656e0000000000000000000000000000000000602082015250565b6000614da2602f836139ed565b9150614dad82614d46565b604082019050919050565b60006020820190508181036000830152614dd181614d95565b9050919050565b600081519050919050565b600082825260208201905092915050565b6000614dff82614dd8565b614e098185614de3565b9350614e198185602086016139fe565b614e2281613a31565b840191505092915050565b6000608082019050614e426000830187613b32565b614e4f6020830186613b32565b614e5c6040830185613c48565b8181036060830152614e6e8184614df4565b905095945050505050565b600081519050614e8881613953565b92915050565b600060208284031215614ea457614ea361391d565b5b6000614eb284828501614e79565b91505092915050565b7f4e487b7100000000000000000000000000000000000000000000000000000000600052601260045260246000fd5b6000614ef582613a9d565b9150614f0083613a9d565b925082614f1057614f0f614ebb565b5b828204905092915050565b6000614f2682613a9d565b9150614f3183613a9d565b925082614f4157614f40614ebb565b5b82820690509291505056fea26469706673582212203dd55b9aa5aa311a0778ee9bf495115c49b19062363cd8aa09d1ae0609208e5564736f6c634300080a0033",
  "immutableReferences": {},
  "source": "// SPDX-License-Identifier: MIT\npragma solidity ^0.8.0;\n//pragma abicoder v2;\n\n// import ERC721 iterface\nimport \"@openzeppelin/contracts/utils/Counters.sol\";\nimport \"@openzeppelin/contracts/token/ERC721/extensions/ERC721URIStorage.sol\";\nimport \"@openzeppelin/contracts/token/ERC721/ERC721.sol\";\nimport \"@openzeppelin/contracts/token/ERC721/IERC721.sol\";\n//import  \"@openzeppelin-solidity/contracts/token/ERC721/ERC721Full.sol\";\nimport \"@openzeppelin/contracts/token/ERC721/IERC721Receiver.sol\";\nimport \"@openzeppelin/contracts/token/ERC721/extensions/IERC721Metadata.sol\";\nimport \"@openzeppelin/contracts/utils/Address.sol\";\nimport \"@openzeppelin/contracts/utils/Context.sol\";\nimport \"@openzeppelin/contracts/utils/Strings.sol\";\nimport \"@openzeppelin/contracts/utils/introspection/ERC165.sol\";\n//import \"@openzeppelin/contracts/token/ERC721/extensions/IERC721Enumerable.sol\";\n\n// NFTStaking smart contract inherits ERC721 interface\ncontract NFTStaking is ERC721URIStorage  {\n\n  // this contract's token collection name\n  string public  collectionName;\n  // this contract's token symbol\n  string public  collectionNameSymbol;\n  // total number of crypto boys minted\n  uint256 public nftStakingCounter;\n  /**\n  * @notice We usually require to know who are all the stakeholders.\n  */\n  address[] internal stakeholders;\n  /**\n  * @notice The stakes for each stakeholder.\n  */\n  mapping(address => uint256[]) internal stakes;\n \n   /**\n   * @notice The accumulated rewards for each stakeholder.\n   */\n     mapping(address => uint256) internal rewards;\n\n     uint256[] internal nft;\n\n \n\n\n  event collectoinNameEvent(string _name);\n\n  // define crypto boy struct\n   struct Staking {\n    uint256 tokenId;\n    string tokenName;\n    string tokenURI;\n    address payable mintedBy;\n    address payable currentOwner;\n    address payable previousOwner;\n    uint256 price;\n    uint256 numberOfTransfers;\n    bool forSale;\n  }\n\n\n  // map staking's token id to crypto boy\n  mapping(uint256 => Staking) public allNFTStaking;\n  // check if token name exists\n  mapping(string => bool) public tokenNameExists;\n  // check if color exists\n  mapping(string => bool) public colorExists;\n  // check if token URI exists\n  mapping(string => bool) public tokenURIExists;\n\n  // initialize contract while deployment with contract's collection name and token\n  //constructor() ERC721(\"Crypto Boys Collection\", \"CB\")\n  constructor(string memory _name, string memory _symbol) ERC721(\"Staking NFT Collection\", \"Staking\")\n  {\n    collectionName = _name;\n   \n    collectionNameSymbol = _symbol; \n  } \n\n/*   function registerUser(address _user) {\n\n    // registers user\n  \n  } */\n\n  // mint a new crypto boy\n  function mintStaking(string memory _name, string memory _tokenURI, uint256 _price, string[] calldata _colors) external {\n    // check if thic fucntion caller is not an zero address account\n    require(msg.sender != address(0));\n    // increment counter\n    nftStakingCounter ++;\n    // check if a token exists with the above token id => incremented counter\n    require(!_exists(nftStakingCounter));\n\n    // loop through the colors passed and check if each colors already exists or not\n    for(uint i=0; i<_colors.length; i++) {\n      require(!colorExists[_colors[i]]);\n    }\n    // check if the token URI already exists or not\n    require(!tokenURIExists[_tokenURI],\"token URI already exist\");\n    // check if the token name already exists or not\n    require(!tokenNameExists[_name]);\n\n    // mint the token\n    _mint(msg.sender, nftStakingCounter);\n    // set token URI (bind token id with the passed in token URI)\n    _setTokenURI(nftStakingCounter, _tokenURI);\n\n    // loop through the colors passed and make each of the colors as exists since the token is already minted\n    for (uint i=0; i<_colors.length; i++) {\n      colorExists[_colors[i]] = true;\n    }\n    // make passed token URI as exists\n    tokenURIExists[_tokenURI] = true;\n    // make token name passed as exists\n    tokenNameExists[_name] = true;\n\n    // creat a new crypto boy (struct) and pass in new values\n    address payable zero  = payable (address(0));\n    address payable sender  = payable (msg.sender);\n    Staking memory newStaking = Staking(\n    nftStakingCounter,\n    _name,\n    _tokenURI,\n    sender,\n    sender,\n    zero,\n    _price,\n    0,\n    true);\n    // add the token id and it's crypto boy to all crypto boys mapping\n    allNFTStaking[nftStakingCounter] = newStaking;\n  }\n\n  // get owner of the token\n  function getTokenOwner(uint256 _tokenId) public view returns(address) {\n    address _tokenOwner = ownerOf(_tokenId);\n    return _tokenOwner;\n  }\n\n  // get metadata of the token\n  function getTokenMetaData(uint _tokenId) public view returns(string memory) {\n    string memory tokenMetaData = tokenURI(_tokenId);\n    return tokenMetaData;\n  }\n\n  // get total number of tokens minted so far\n  function getNumberOfTokensMinted() public view returns(uint256) {\n    uint256 totalNumberOfTokensMinted = nftStakingCounter;\n    return totalNumberOfTokensMinted;\n  }\n\n  // get total number of tokens owned by an address\n  function getTotalNumberOfTokensOwnedByAnAddress(address _owner) public view returns(uint256) {\n    uint256 totalNumberOfTokensOwned = balanceOf(_owner);\n    return totalNumberOfTokensOwned;\n  }\n\n  // check if the token already exists\n  function getTokenExists(uint256 _tokenId) public view returns(bool) {\n    bool tokenExists = _exists(_tokenId);\n    return tokenExists;\n  }\n\n  // by a token by passing in the token's id\n  function buyToken(uint256 _tokenId) public payable {\n    // check if the function caller is not an zero account address\n    require(msg.sender != address(0));\n    // check if the token id of the token being bought exists or not\n    require(_exists(_tokenId));\n    // get the token's owner\n    address tokenOwner = ownerOf(_tokenId);\n    // token's owner should not be an zero address account\n    require(tokenOwner != address(0));\n    // the one who wants to buy the token should not be the token's owner\n    require(tokenOwner != msg.sender);\n    // get that token from all crypto boys mapping and create a memory of it defined as (struct => Staking)\n    Staking memory staking = allNFTStaking[_tokenId];\n    // price sent in to buy should be equal to or more than the token's price\n    require(msg.value >= staking.price);\n    // token should be for sale\n    require(staking.forSale);\n    // transfer the token from owner to the caller of the function (buyer)\n    _transfer(tokenOwner, msg.sender, _tokenId);\n    // get owner of the token\n    address payable sendTo = staking.currentOwner;\n    // send token's worth of ethers to the owner\n    sendTo.transfer(msg.value);\n    // update the token's previous owner\n    staking.previousOwner = staking.currentOwner;\n    // update the token's current owner\n    staking.currentOwner = payable (msg.sender);\n    // update the how many times this token was transfered\n    staking.numberOfTransfers += 1;\n    // set and update that token in the mapping\n    allNFTStaking[_tokenId] = staking;\n  }\n\n  function changeTokenPrice(uint256 _tokenId, uint256 _newPrice) public {\n    // require caller of the function is not an empty address\n    require(msg.sender != address(0));\n    // require that token should exist\n    require(_exists(_tokenId));\n    // get the token's owner\n    address tokenOwner = ownerOf(_tokenId);\n    // check that token's owner should be equal to the caller of the function\n    require(tokenOwner == msg.sender);\n    // get that token from all crypto nft mapping and create a memory of it defined as (struct => Staking)\n    Staking memory staking = allNFTStaking[_tokenId];\n    // update token's price with new price\n    staking.price = _newPrice;\n    // set and update that token in the mapping\n    allNFTStaking[_tokenId] = staking;\n  }\n\n  // switch between set for sale and set not for sale\n  function toggleForSale(uint256 _tokenId) public {\n    // require caller of the function is not an empty address\n    require(msg.sender != address(0));\n    // require that token should exist\n    require(_exists(_tokenId));\n    // get the token's owner\n    address tokenOwner = ownerOf(_tokenId);\n    // check that token's owner should be equal to the caller of the function\n    require(tokenOwner == msg.sender);\n    // get that token from all crypto nft mapping and create a memory of it defined as (struct => Staking)\n    Staking memory staking = allNFTStaking[_tokenId];\n    // if token's forSale is false make it true and vice versa\n    if(staking.forSale) {\n      staking.forSale = false;\n    } else {\n      staking.forSale = true;\n    }\n    // set and update that token in the mapping\n    allNFTStaking[_tokenId] = staking;\n  }\n\n  \n    // ---------- STAKES ----------\n\n    /* \n     * @notice A method for a stakeholder to create a NFT stake. The ideia of stake a NFT should be different \n     * stake a ERC20 token. The idea here is a transfer the onwership to the contract adn not  burn the NFT\n     * @param _stake The size of the stake to be created.\n     */\n     function createStake(uint256 _tokenId)\n     public\n    {\n      // require caller of the function is not an empty address\n      require(msg.sender != address(0));\n      // require that token should exist\n      require(_exists(_tokenId));\n      // get the token's owner\n      address tokenOwner = ownerOf(_tokenId);\n      // check that token's owner should be equal to the caller of the function\n      require(tokenOwner == msg.sender);\n\n      _burn(_tokenId); // burn the NFT\n      // stake mapping == true\n\t    // transfer the ownership to the contrac\n      // pay the NFT owner with the DAO token or with the rent money\n      if(stakes[msg.sender].length == 0) addStakeholder(msg.sender);\n      stakes[msg.sender].push(_tokenId); // makes to senses add a tokenId [change]\n    }\n\n    function addStakeholder(address _stakeholder)\n        public\n    {\n        (bool _isStakeholder, ) = isStakeholder(_stakeholder);\n        if(!_isStakeholder) stakeholders.push(_stakeholder);\n    }\n\n\n    // ---------- STAKEHOLDERS ----------\n\n    /**\n     * @notice A method to check if an address is a stakeholder.\n     * @param _address The address to verify.\n     * @return bool, uint256 Whether the address is a stakeholder, \n     * and if so its position in the stakeholders array.\n     */\n     function isStakeholder(address _address) public view returns(bool, uint256)\n    {\n      for (uint256 s = 0; s < stakeholders.length; s += 1){\n          if (_address == stakeholders[s]) return (true, s);\n      }\n      return (false, 0);\n     }\n}\n\n",
  "sourcePath": "/home/ubuntu/Consensys/blockchain-developer-bootcamp-final-project/contracts/NFTStaking.sol",
  "compiler": {
    "name": "solc",
    "version": "0.8.10+commit.fc410830.Emscripten.clang"
  },
  "schemaVersion": "3.4.3",
  "updatedAt": "2021-12-03T01:32:38.702Z",
  "devdoc": {
    "kind": "dev",
    "methods": {
      "approve(address,uint256)": {
        "details": "See {IERC721-approve}."
      },
      "balanceOf(address)": {
        "details": "See {IERC721-balanceOf}."
      },
      "getApproved(uint256)": {
        "details": "See {IERC721-getApproved}."
      },
      "isApprovedForAll(address,address)": {
        "details": "See {IERC721-isApprovedForAll}."
      },
      "isStakeholder(address)": {
        "params": {
          "_address": "The address to verify."
        },
        "returns": {
          "_0": "bool, uint256 Whether the address is a stakeholder,  and if so its position in the stakeholders array."
        }
      },
      "name()": {
        "details": "See {IERC721Metadata-name}."
      },
      "ownerOf(uint256)": {
        "details": "See {IERC721-ownerOf}."
      },
      "safeTransferFrom(address,address,uint256)": {
        "details": "See {IERC721-safeTransferFrom}."
      },
      "safeTransferFrom(address,address,uint256,bytes)": {
        "details": "See {IERC721-safeTransferFrom}."
      },
      "setApprovalForAll(address,bool)": {
        "details": "See {IERC721-setApprovalForAll}."
      },
      "supportsInterface(bytes4)": {
        "details": "See {IERC165-supportsInterface}."
      },
      "symbol()": {
        "details": "See {IERC721Metadata-symbol}."
      },
      "tokenURI(uint256)": {
        "details": "See {IERC721Metadata-tokenURI}."
      },
      "transferFrom(address,address,uint256)": {
        "details": "See {IERC721-transferFrom}."
      }
    },
    "version": 1
  },
  "userdoc": {
    "kind": "user",
    "methods": {
      "isStakeholder(address)": {
        "notice": "A method to check if an address is a stakeholder."
      }
    },
    "version": 1
  }
}