{
  "contractName": "NFTStaking",
  "abi": [
    {
      "inputs": [
        {
          "internalType": "string",
          "name": "_name",
          "type": "string"
        },
        {
          "internalType": "string",
          "name": "_symbol",
          "type": "string"
        }
      ],
      "stateMutability": "nonpayable",
      "type": "constructor"
    },
    {
      "anonymous": false,
      "inputs": [
        {
          "indexed": true,
          "internalType": "address",
          "name": "owner",
          "type": "address"
        },
        {
          "indexed": true,
          "internalType": "address",
          "name": "approved",
          "type": "address"
        },
        {
          "indexed": true,
          "internalType": "uint256",
          "name": "tokenId",
          "type": "uint256"
        }
      ],
      "name": "Approval",
      "type": "event"
    },
    {
      "anonymous": false,
      "inputs": [
        {
          "indexed": true,
          "internalType": "address",
          "name": "owner",
          "type": "address"
        },
        {
          "indexed": true,
          "internalType": "address",
          "name": "operator",
          "type": "address"
        },
        {
          "indexed": false,
          "internalType": "bool",
          "name": "approved",
          "type": "bool"
        }
      ],
      "name": "ApprovalForAll",
      "type": "event"
    },
    {
      "anonymous": false,
      "inputs": [
        {
          "indexed": true,
          "internalType": "address",
          "name": "from",
          "type": "address"
        },
        {
          "indexed": true,
          "internalType": "address",
          "name": "to",
          "type": "address"
        },
        {
          "indexed": true,
          "internalType": "uint256",
          "name": "tokenId",
          "type": "uint256"
        }
      ],
      "name": "Transfer",
      "type": "event"
    },
    {
      "anonymous": false,
      "inputs": [
        {
          "indexed": false,
          "internalType": "string",
          "name": "_name",
          "type": "string"
        }
      ],
      "name": "collectoinNameEvent",
      "type": "event"
    },
    {
      "inputs": [
        {
          "internalType": "uint256",
          "name": "",
          "type": "uint256"
        }
      ],
      "name": "allNFTStaking",
      "outputs": [
        {
          "internalType": "uint256",
          "name": "tokenId",
          "type": "uint256"
        },
        {
          "internalType": "string",
          "name": "tokenName",
          "type": "string"
        },
        {
          "internalType": "string",
          "name": "tokenURI",
          "type": "string"
        },
        {
          "internalType": "address payable",
          "name": "mintedBy",
          "type": "address"
        },
        {
          "internalType": "address payable",
          "name": "currentOwner",
          "type": "address"
        },
        {
          "internalType": "address payable",
          "name": "previousOwner",
          "type": "address"
        },
        {
          "internalType": "bool",
          "name": "staked",
          "type": "bool"
        },
        {
          "internalType": "uint256",
          "name": "price",
          "type": "uint256"
        },
        {
          "internalType": "uint256",
          "name": "numberOfTransfers",
          "type": "uint256"
        },
        {
          "internalType": "bool",
          "name": "forSale",
          "type": "bool"
        }
      ],
      "stateMutability": "view",
      "type": "function"
    },
    {
      "inputs": [
        {
          "internalType": "address",
          "name": "to",
          "type": "address"
        },
        {
          "internalType": "uint256",
          "name": "tokenId",
          "type": "uint256"
        }
      ],
      "name": "approve",
      "outputs": [],
      "stateMutability": "nonpayable",
      "type": "function"
    },
    {
      "inputs": [
        {
          "internalType": "address",
          "name": "owner",
          "type": "address"
        }
      ],
      "name": "balanceOf",
      "outputs": [
        {
          "internalType": "uint256",
          "name": "",
          "type": "uint256"
        }
      ],
      "stateMutability": "view",
      "type": "function"
    },
    {
      "inputs": [],
      "name": "collectionName",
      "outputs": [
        {
          "internalType": "string",
          "name": "",
          "type": "string"
        }
      ],
      "stateMutability": "view",
      "type": "function"
    },
    {
      "inputs": [],
      "name": "collectionNameSymbol",
      "outputs": [
        {
          "internalType": "string",
          "name": "",
          "type": "string"
        }
      ],
      "stateMutability": "view",
      "type": "function"
    },
    {
      "inputs": [
        {
          "internalType": "string",
          "name": "",
          "type": "string"
        }
      ],
      "name": "colorExists",
      "outputs": [
        {
          "internalType": "bool",
          "name": "",
          "type": "bool"
        }
      ],
      "stateMutability": "view",
      "type": "function"
    },
    {
      "inputs": [
        {
          "internalType": "uint256",
          "name": "tokenId",
          "type": "uint256"
        }
      ],
      "name": "getApproved",
      "outputs": [
        {
          "internalType": "address",
          "name": "",
          "type": "address"
        }
      ],
      "stateMutability": "view",
      "type": "function"
    },
    {
      "inputs": [
        {
          "internalType": "address",
          "name": "owner",
          "type": "address"
        },
        {
          "internalType": "address",
          "name": "operator",
          "type": "address"
        }
      ],
      "name": "isApprovedForAll",
      "outputs": [
        {
          "internalType": "bool",
          "name": "",
          "type": "bool"
        }
      ],
      "stateMutability": "view",
      "type": "function"
    },
    {
      "inputs": [],
      "name": "name",
      "outputs": [
        {
          "internalType": "string",
          "name": "",
          "type": "string"
        }
      ],
      "stateMutability": "view",
      "type": "function"
    },
    {
      "inputs": [],
      "name": "nftStakingCounter",
      "outputs": [
        {
          "internalType": "uint256",
          "name": "",
          "type": "uint256"
        }
      ],
      "stateMutability": "view",
      "type": "function"
    },
    {
      "inputs": [
        {
          "internalType": "uint256",
          "name": "tokenId",
          "type": "uint256"
        }
      ],
      "name": "ownerOf",
      "outputs": [
        {
          "internalType": "address",
          "name": "",
          "type": "address"
        }
      ],
      "stateMutability": "view",
      "type": "function"
    },
    {
      "inputs": [
        {
          "internalType": "address",
          "name": "from",
          "type": "address"
        },
        {
          "internalType": "address",
          "name": "to",
          "type": "address"
        },
        {
          "internalType": "uint256",
          "name": "tokenId",
          "type": "uint256"
        }
      ],
      "name": "safeTransferFrom",
      "outputs": [],
      "stateMutability": "nonpayable",
      "type": "function"
    },
    {
      "inputs": [
        {
          "internalType": "address",
          "name": "from",
          "type": "address"
        },
        {
          "internalType": "address",
          "name": "to",
          "type": "address"
        },
        {
          "internalType": "uint256",
          "name": "tokenId",
          "type": "uint256"
        },
        {
          "internalType": "bytes",
          "name": "_data",
          "type": "bytes"
        }
      ],
      "name": "safeTransferFrom",
      "outputs": [],
      "stateMutability": "nonpayable",
      "type": "function"
    },
    {
      "inputs": [
        {
          "internalType": "address",
          "name": "operator",
          "type": "address"
        },
        {
          "internalType": "bool",
          "name": "approved",
          "type": "bool"
        }
      ],
      "name": "setApprovalForAll",
      "outputs": [],
      "stateMutability": "nonpayable",
      "type": "function"
    },
    {
      "inputs": [
        {
          "internalType": "bytes4",
          "name": "interfaceId",
          "type": "bytes4"
        }
      ],
      "name": "supportsInterface",
      "outputs": [
        {
          "internalType": "bool",
          "name": "",
          "type": "bool"
        }
      ],
      "stateMutability": "view",
      "type": "function"
    },
    {
      "inputs": [],
      "name": "symbol",
      "outputs": [
        {
          "internalType": "string",
          "name": "",
          "type": "string"
        }
      ],
      "stateMutability": "view",
      "type": "function"
    },
    {
      "inputs": [
        {
          "internalType": "string",
          "name": "",
          "type": "string"
        }
      ],
      "name": "tokenNameExists",
      "outputs": [
        {
          "internalType": "bool",
          "name": "",
          "type": "bool"
        }
      ],
      "stateMutability": "view",
      "type": "function"
    },
    {
      "inputs": [
        {
          "internalType": "uint256",
          "name": "tokenId",
          "type": "uint256"
        }
      ],
      "name": "tokenURI",
      "outputs": [
        {
          "internalType": "string",
          "name": "",
          "type": "string"
        }
      ],
      "stateMutability": "view",
      "type": "function"
    },
    {
      "inputs": [
        {
          "internalType": "string",
          "name": "",
          "type": "string"
        }
      ],
      "name": "tokenURIExists",
      "outputs": [
        {
          "internalType": "bool",
          "name": "",
          "type": "bool"
        }
      ],
      "stateMutability": "view",
      "type": "function"
    },
    {
      "inputs": [
        {
          "internalType": "address",
          "name": "from",
          "type": "address"
        },
        {
          "internalType": "address",
          "name": "to",
          "type": "address"
        },
        {
          "internalType": "uint256",
          "name": "tokenId",
          "type": "uint256"
        }
      ],
      "name": "transferFrom",
      "outputs": [],
      "stateMutability": "nonpayable",
      "type": "function"
    },
    {
      "inputs": [
        {
          "internalType": "string",
          "name": "_name",
          "type": "string"
        },
        {
          "internalType": "string",
          "name": "_tokenURI",
          "type": "string"
        },
        {
          "internalType": "uint256",
          "name": "_price",
          "type": "uint256"
        },
        {
          "internalType": "string[]",
          "name": "_colors",
          "type": "string[]"
        }
      ],
      "name": "mintStaking",
      "outputs": [],
      "stateMutability": "nonpayable",
      "type": "function"
    },
    {
      "inputs": [
        {
          "internalType": "uint256",
          "name": "_tokenId",
          "type": "uint256"
        }
      ],
      "name": "getTokenOwner",
      "outputs": [
        {
          "internalType": "address",
          "name": "",
          "type": "address"
        }
      ],
      "stateMutability": "view",
      "type": "function"
    },
    {
      "inputs": [
        {
          "internalType": "uint256",
          "name": "_tokenId",
          "type": "uint256"
        }
      ],
      "name": "getTokenMetaData",
      "outputs": [
        {
          "internalType": "string",
          "name": "",
          "type": "string"
        }
      ],
      "stateMutability": "view",
      "type": "function"
    },
    {
      "inputs": [],
      "name": "getNumberOfTokensMinted",
      "outputs": [
        {
          "internalType": "uint256",
          "name": "",
          "type": "uint256"
        }
      ],
      "stateMutability": "view",
      "type": "function"
    },
    {
      "inputs": [
        {
          "internalType": "address",
          "name": "_owner",
          "type": "address"
        }
      ],
      "name": "getTotalNumberOfTokensOwnedByAnAddress",
      "outputs": [
        {
          "internalType": "uint256",
          "name": "",
          "type": "uint256"
        }
      ],
      "stateMutability": "view",
      "type": "function"
    },
    {
      "inputs": [
        {
          "internalType": "uint256",
          "name": "_tokenId",
          "type": "uint256"
        }
      ],
      "name": "getTokenExists",
      "outputs": [
        {
          "internalType": "bool",
          "name": "",
          "type": "bool"
        }
      ],
      "stateMutability": "view",
      "type": "function"
    },
    {
      "inputs": [
        {
          "internalType": "uint256",
          "name": "_tokenId",
          "type": "uint256"
        }
      ],
      "name": "buyToken",
      "outputs": [],
      "stateMutability": "payable",
      "type": "function"
    },
    {
      "inputs": [
        {
          "internalType": "uint256",
          "name": "_tokenId",
          "type": "uint256"
        },
        {
          "internalType": "uint256",
          "name": "_newPrice",
          "type": "uint256"
        }
      ],
      "name": "changeTokenPrice",
      "outputs": [],
      "stateMutability": "nonpayable",
      "type": "function"
    },
    {
      "inputs": [
        {
          "internalType": "uint256",
          "name": "_tokenId",
          "type": "uint256"
        }
      ],
      "name": "toggleForSale",
      "outputs": [],
      "stateMutability": "nonpayable",
      "type": "function"
    },
    {
      "inputs": [
        {
          "internalType": "uint256",
          "name": "_tokenId",
          "type": "uint256"
        }
      ],
      "name": "createStake",
      "outputs": [],
      "stateMutability": "nonpayable",
      "type": "function"
    },
    {
      "inputs": [
        {
          "internalType": "uint256",
          "name": "_tokenId",
          "type": "uint256"
        }
      ],
      "name": "removeStake",
      "outputs": [],
      "stateMutability": "nonpayable",
      "type": "function"
    },
    {
      "inputs": [
        {
          "internalType": "address",
          "name": "_stakeholder",
          "type": "address"
        }
      ],
      "name": "addStakeholder",
      "outputs": [],
      "stateMutability": "nonpayable",
      "type": "function"
    },
    {
      "inputs": [
        {
          "internalType": "address",
          "name": "_address",
          "type": "address"
        }
      ],
      "name": "isStakeholder",
      "outputs": [
        {
          "internalType": "bool",
          "name": "",
          "type": "bool"
        },
        {
          "internalType": "uint256",
          "name": "",
          "type": "uint256"
        }
      ],
      "stateMutability": "view",
      "type": "function"
    },
    {
      "inputs": [
        {
          "internalType": "address",
          "name": "_stakeholder",
          "type": "address"
        }
      ],
      "name": "removeStakeholder",
      "outputs": [],
      "stateMutability": "nonpayable",
      "type": "function"
    }
  ],
  "bytecode": "0x60806040523480156200001157600080fd5b5060405162005bdc38038062005bdc83398181016040528101906200003791906200035e565b6040518060400160405280601681526020017f5374616b696e67204e465420436f6c6c656374696f6e000000000000000000008152506040518060400160405280600781526020017f5374616b696e67000000000000000000000000000000000000000000000000008152508160009080519060200190620000bb92919062000111565b508060019080519060200190620000d492919062000111565b5050508160079080519060200190620000ef92919062000111565b5080600890805190602001906200010892919062000111565b50505062000448565b8280546200011f9062000412565b90600052602060002090601f0160209004810192826200014357600085556200018f565b82601f106200015e57805160ff19168380011785556200018f565b828001600101855582156200018f579182015b828111156200018e57825182559160200191906001019062000171565b5b5090506200019e9190620001a2565b5090565b5b80821115620001bd576000816000905550600101620001a3565b5090565b6000604051905090565b600080fd5b600080fd5b600080fd5b600080fd5b6000601f19601f8301169050919050565b7f4e487b7100000000000000000000000000000000000000000000000000000000600052604160045260246000fd5b6200022a82620001df565b810181811067ffffffffffffffff821117156200024c576200024b620001f0565b5b80604052505050565b600062000261620001c1565b90506200026f82826200021f565b919050565b600067ffffffffffffffff821115620002925762000291620001f0565b5b6200029d82620001df565b9050602081019050919050565b60005b83811015620002ca578082015181840152602081019050620002ad565b83811115620002da576000848401525b50505050565b6000620002f7620002f18462000274565b62000255565b905082815260208101848484011115620003165762000315620001da565b5b62000323848285620002aa565b509392505050565b600082601f830112620003435762000342620001d5565b5b815162000355848260208601620002e0565b91505092915050565b60008060408385031215620003785762000377620001cb565b5b600083015167ffffffffffffffff811115620003995762000398620001d0565b5b620003a7858286016200032b565b925050602083015167ffffffffffffffff811115620003cb57620003ca620001d0565b5b620003d9858286016200032b565b9150509250929050565b7f4e487b7100000000000000000000000000000000000000000000000000000000600052602260045260246000fd5b600060028204905060018216806200042b57607f821691505b60208210811415620004425762000441620003e3565b5b50919050565b61578480620004586000396000f3fe6080604052600436106101f95760003560e01c80638d44807c1161010d578063b3ec7221116100a0578063cc151f3a1161006f578063cc151f3a146107ab578063e5326ab1146107d6578063e5c42fd114610801578063e985e9c51461082a578063ef037b9014610867576101f9565b8063b3ec7221146106f3578063b88d4fde1461071c578063bcb0c2d714610745578063c87b56dd1461076e576101f9565b8063a22cb465116100dc578063a22cb46514610627578063a32018b914610650578063a46b1fac14610679578063a5cd761f146106b6576101f9565b80638d44807c1461056b578063939624ab146105a857806395d89b41146105d15780639c859bfb146105fc576101f9565b806342842e0e116101905780636352211e1161015f5780636352211e1461044357806367c623cf146104805780636f9507f9146104bd57806370a08231146104e857806379d56e5814610525576101f9565b806342842e0e1461037757806343902850146103a057806343d32ae7146103dd57806362e8e8ac1461041a576101f9565b8063142687f3116101cc578063142687f3146102cc5780631bf6ddae1461030957806323b872dd146103325780632d296bf11461035b576101f9565b806301ffc9a7146101fe57806306fdde031461023b578063081812fc14610266578063095ea7b3146102a3575b600080fd5b34801561020a57600080fd5b5061022560048036038101906102209190614143565b6108a5565b604051610232919061418b565b60405180910390f35b34801561024757600080fd5b50610250610987565b60405161025d919061423f565b60405180910390f35b34801561027257600080fd5b5061028d60048036038101906102889190614297565b610a19565b60405161029a9190614305565b60405180910390f35b3480156102af57600080fd5b506102ca60048036038101906102c5919061434c565b610a9e565b005b3480156102d857600080fd5b506102f360048036038101906102ee9190614297565b610bb6565b604051610300919061418b565b60405180910390f35b34801561031557600080fd5b50610330600480360381019061032b9190614297565b610bcd565b005b34801561033e57600080fd5b506103596004803603810190610354919061438c565b6110b1565b005b61037560048036038101906103709190614297565b611111565b005b34801561038357600080fd5b5061039e6004803603810190610399919061438c565b611710565b005b3480156103ac57600080fd5b506103c760048036038101906103c291906143df565b611730565b6040516103d4919061441b565b60405180910390f35b3480156103e957600080fd5b5061040460048036038101906103ff919061456b565b611747565b604051610411919061418b565b60405180910390f35b34801561042657600080fd5b50610441600480360381019061043c91906145b4565b61177d565b005b34801561044f57600080fd5b5061046a60048036038101906104659190614297565b611c41565b6040516104779190614305565b60405180910390f35b34801561048c57600080fd5b506104a760048036038101906104a29190614297565b611cf3565b6040516104b4919061423f565b60405180910390f35b3480156104c957600080fd5b506104d2611d0b565b6040516104df919061423f565b60405180910390f35b3480156104f457600080fd5b5061050f600480360381019061050a91906143df565b611d99565b60405161051c919061441b565b60405180910390f35b34801561053157600080fd5b5061054c60048036038101906105479190614297565b611e51565b6040516105629a99989796959493929190614615565b60405180910390f35b34801561057757600080fd5b50610592600480360381019061058d919061456b565b61202f565b60405161059f919061418b565b60405180910390f35b3480156105b457600080fd5b506105cf60048036038101906105ca9190614297565b612065565b005b3480156105dd57600080fd5b506105e66123c3565b6040516105f3919061423f565b60405180910390f35b34801561060857600080fd5b50610611612455565b60405161061e919061441b565b60405180910390f35b34801561063357600080fd5b5061064e600480360381019061064991906146eb565b61245b565b005b34801561065c57600080fd5b5061067760048036038101906106729190614297565b6125dc565b005b34801561068557600080fd5b506106a0600480360381019061069b919061456b565b612adf565b6040516106ad919061418b565b60405180910390f35b3480156106c257600080fd5b506106dd60048036038101906106d89190614297565b612b15565b6040516106ea9190614305565b60405180910390f35b3480156106ff57600080fd5b5061071a6004803603810190610715919061478b565b612b2c565b005b34801561072857600080fd5b50610743600480360381019061073e91906148ec565b612fe3565b005b34801561075157600080fd5b5061076c600480360381019061076791906143df565b613045565b005b34801561077a57600080fd5b5061079560048036038101906107909190614297565b613154565b6040516107a2919061423f565b60405180910390f35b3480156107b757600080fd5b506107c06132a6565b6040516107cd919061441b565b60405180910390f35b3480156107e257600080fd5b506107eb6132b5565b6040516107f8919061423f565b60405180910390f35b34801561080d57600080fd5b50610828600480360381019061082391906143df565b613343565b005b34801561083657600080fd5b50610851600480360381019061084c919061496f565b6133be565b60405161085e919061418b565b60405180910390f35b34801561087357600080fd5b5061088e600480360381019061088991906143df565b613452565b60405161089c9291906149af565b60405180910390f35b60007f80ac58cd000000000000000000000000000000000000000000000000000000007bffffffffffffffffffffffffffffffffffffffffffffffffffffffff1916827bffffffffffffffffffffffffffffffffffffffffffffffffffffffff1916148061097057507f5b5e139f000000000000000000000000000000000000000000000000000000007bffffffffffffffffffffffffffffffffffffffffffffffffffffffff1916827bffffffffffffffffffffffffffffffffffffffffffffffffffffffff1916145b80610980575061097f82613506565b5b9050919050565b60606000805461099690614a07565b80601f01602080910402602001604051908101604052809291908181526020018280546109c290614a07565b8015610a0f5780601f106109e457610100808354040283529160200191610a0f565b820191906000526020600020905b8154815290600101906020018083116109f257829003601f168201915b5050505050905090565b6000610a2482613570565b610a63576040517f08c379a0000000000000000000000000000000000000000000000000000000008152600401610a5a90614aab565b60405180910390fd5b6004600083815260200190815260200160002060009054906101000a900473ffffffffffffffffffffffffffffffffffffffff169050919050565b6000610aa982611c41565b90508073ffffffffffffffffffffffffffffffffffffffff168373ffffffffffffffffffffffffffffffffffffffff161415610b1a576040517f08c379a0000000000000000000000000000000000000000000000000000000008152600401610b1190614b3d565b60405180910390fd5b8073ffffffffffffffffffffffffffffffffffffffff16610b396135dc565b73ffffffffffffffffffffffffffffffffffffffff161480610b685750610b6781610b626135dc565b6133be565b5b610ba7576040517f08c379a0000000000000000000000000000000000000000000000000000000008152600401610b9e90614bcf565b60405180910390fd5b610bb183836135e4565b505050565b600080610bc283613570565b905080915050919050565b600073ffffffffffffffffffffffffffffffffffffffff163373ffffffffffffffffffffffffffffffffffffffff161415610c0757600080fd5b610c1081613570565b610c1957600080fd5b6000610c2482611c41565b90503373ffffffffffffffffffffffffffffffffffffffff168173ffffffffffffffffffffffffffffffffffffffff1614610c5e57600080fd5b6000600e60008481526020019081526020016000206040518061014001604052908160008201548152602001600182018054610c9990614a07565b80601f0160208091040260200160405190810160405280929190818152602001828054610cc590614a07565b8015610d125780601f10610ce757610100808354040283529160200191610d12565b820191906000526020600020905b815481529060010190602001808311610cf557829003601f168201915b50505050508152602001600282018054610d2b90614a07565b80601f0160208091040260200160405190810160405280929190818152602001828054610d5790614a07565b8015610da45780601f10610d7957610100808354040283529160200191610da4565b820191906000526020600020905b815481529060010190602001808311610d8757829003601f168201915b505050505081526020016003820160009054906101000a900473ffffffffffffffffffffffffffffffffffffffff1673ffffffffffffffffffffffffffffffffffffffff1673ffffffffffffffffffffffffffffffffffffffff1681526020016004820160009054906101000a900473ffffffffffffffffffffffffffffffffffffffff1673ffffffffffffffffffffffffffffffffffffffff1673ffffffffffffffffffffffffffffffffffffffff1681526020016005820160009054906101000a900473ffffffffffffffffffffffffffffffffffffffff1673ffffffffffffffffffffffffffffffffffffffff1673ffffffffffffffffffffffffffffffffffffffff1681526020016005820160149054906101000a900460ff1615151515815260200160068201548152602001600782015481526020016008820160009054906101000a900460ff1615151515815250509050600015158160c00151151514610f1057600080fd5b610f1b82308561369d565b600115158160c00151505080600e6000858152602001908152602001600020600082015181600001556020820151816001019080519060200190610f60929190614034565b506040820151816002019080519060200190610f7d929190614034565b5060608201518160030160006101000a81548173ffffffffffffffffffffffffffffffffffffffff021916908373ffffffffffffffffffffffffffffffffffffffff16021790555060808201518160040160006101000a81548173ffffffffffffffffffffffffffffffffffffffff021916908373ffffffffffffffffffffffffffffffffffffffff16021790555060a08201518160050160006101000a81548173ffffffffffffffffffffffffffffffffffffffff021916908373ffffffffffffffffffffffffffffffffffffffff16021790555060c08201518160050160146101000a81548160ff02191690831515021790555060e0820151816006015561010082015181600701556101208201518160080160006101000a81548160ff021916908315150217905550905050505050565b6110c26110bc6135dc565b826138f9565b611101576040517f08c379a00000000000000000000000000000000000000000000000000000000081526004016110f890614c61565b60405180910390fd5b61110c83838361369d565b505050565b600073ffffffffffffffffffffffffffffffffffffffff163373ffffffffffffffffffffffffffffffffffffffff16141561114b57600080fd5b61115481613570565b61115d57600080fd5b600061116882611c41565b9050600073ffffffffffffffffffffffffffffffffffffffff168173ffffffffffffffffffffffffffffffffffffffff1614156111a457600080fd5b3373ffffffffffffffffffffffffffffffffffffffff168173ffffffffffffffffffffffffffffffffffffffff1614156111dd57600080fd5b6000600e6000848152602001908152602001600020604051806101400160405290816000820154815260200160018201805461121890614a07565b80601f016020809104026020016040519081016040528092919081815260200182805461124490614a07565b80156112915780601f1061126657610100808354040283529160200191611291565b820191906000526020600020905b81548152906001019060200180831161127457829003601f168201915b505050505081526020016002820180546112aa90614a07565b80601f01602080910402602001604051908101604052809291908181526020018280546112d690614a07565b80156113235780601f106112f857610100808354040283529160200191611323565b820191906000526020600020905b81548152906001019060200180831161130657829003601f168201915b505050505081526020016003820160009054906101000a900473ffffffffffffffffffffffffffffffffffffffff1673ffffffffffffffffffffffffffffffffffffffff1673ffffffffffffffffffffffffffffffffffffffff1681526020016004820160009054906101000a900473ffffffffffffffffffffffffffffffffffffffff1673ffffffffffffffffffffffffffffffffffffffff1673ffffffffffffffffffffffffffffffffffffffff1681526020016005820160009054906101000a900473ffffffffffffffffffffffffffffffffffffffff1673ffffffffffffffffffffffffffffffffffffffff1673ffffffffffffffffffffffffffffffffffffffff1681526020016005820160149054906101000a900460ff1615151515815260200160068201548152602001600782015481526020016008820160009054906101000a900460ff16151515158152505090508060e0015134101561148b57600080fd5b80610120015161149a57600080fd5b6114a582338561369d565b6000816080015190508073ffffffffffffffffffffffffffffffffffffffff166108fc349081150290604051600060405180830381858888f193505050501580156114f4573d6000803e3d6000fd5b5081608001518260a0019073ffffffffffffffffffffffffffffffffffffffff16908173ffffffffffffffffffffffffffffffffffffffff168152505033826080019073ffffffffffffffffffffffffffffffffffffffff16908173ffffffffffffffffffffffffffffffffffffffff16815250506001826101000181815161157d9190614cb0565b9150818152505081600e60008681526020019081526020016000206000820151816000015560208201518160010190805190602001906115be929190614034565b5060408201518160020190805190602001906115db929190614034565b5060608201518160030160006101000a81548173ffffffffffffffffffffffffffffffffffffffff021916908373ffffffffffffffffffffffffffffffffffffffff16021790555060808201518160040160006101000a81548173ffffffffffffffffffffffffffffffffffffffff021916908373ffffffffffffffffffffffffffffffffffffffff16021790555060a08201518160050160006101000a81548173ffffffffffffffffffffffffffffffffffffffff021916908373ffffffffffffffffffffffffffffffffffffffff16021790555060c08201518160050160146101000a81548160ff02191690831515021790555060e0820151816006015561010082015181600701556101208201518160080160006101000a81548160ff02191690831515021790555090505050505050565b61172b83838360405180602001604052806000815250612fe3565b505050565b60008061173c83611d99565b905080915050919050565b6011818051602081018201805184825260208301602085012081835280955050505050506000915054906101000a900460ff1681565b600073ffffffffffffffffffffffffffffffffffffffff163373ffffffffffffffffffffffffffffffffffffffff1614156117b757600080fd5b6117c082613570565b6117c957600080fd5b60006117d483611c41565b90503373ffffffffffffffffffffffffffffffffffffffff168173ffffffffffffffffffffffffffffffffffffffff161461180e57600080fd5b6000600e6000858152602001908152602001600020604051806101400160405290816000820154815260200160018201805461184990614a07565b80601f016020809104026020016040519081016040528092919081815260200182805461187590614a07565b80156118c25780601f10611897576101008083540402835291602001916118c2565b820191906000526020600020905b8154815290600101906020018083116118a557829003601f168201915b505050505081526020016002820180546118db90614a07565b80601f016020809104026020016040519081016040528092919081815260200182805461190790614a07565b80156119545780601f1061192957610100808354040283529160200191611954565b820191906000526020600020905b81548152906001019060200180831161193757829003601f168201915b505050505081526020016003820160009054906101000a900473ffffffffffffffffffffffffffffffffffffffff1673ffffffffffffffffffffffffffffffffffffffff1673ffffffffffffffffffffffffffffffffffffffff1681526020016004820160009054906101000a900473ffffffffffffffffffffffffffffffffffffffff1673ffffffffffffffffffffffffffffffffffffffff1673ffffffffffffffffffffffffffffffffffffffff1681526020016005820160009054906101000a900473ffffffffffffffffffffffffffffffffffffffff1673ffffffffffffffffffffffffffffffffffffffff1673ffffffffffffffffffffffffffffffffffffffff1681526020016005820160149054906101000a900460ff1615151515815260200160068201548152602001600782015481526020016008820160009054906101000a900460ff1615151515815250509050828160e001818152505080600e6000868152602001908152602001600020600082015181600001556020820151816001019080519060200190611aef929190614034565b506040820151816002019080519060200190611b0c929190614034565b5060608201518160030160006101000a81548173ffffffffffffffffffffffffffffffffffffffff021916908373ffffffffffffffffffffffffffffffffffffffff16021790555060808201518160040160006101000a81548173ffffffffffffffffffffffffffffffffffffffff021916908373ffffffffffffffffffffffffffffffffffffffff16021790555060a08201518160050160006101000a81548173ffffffffffffffffffffffffffffffffffffffff021916908373ffffffffffffffffffffffffffffffffffffffff16021790555060c08201518160050160146101000a81548160ff02191690831515021790555060e0820151816006015561010082015181600701556101208201518160080160006101000a81548160ff02191690831515021790555090505050505050565b6000806002600084815260200190815260200160002060009054906101000a900473ffffffffffffffffffffffffffffffffffffffff169050600073ffffffffffffffffffffffffffffffffffffffff168173ffffffffffffffffffffffffffffffffffffffff161415611cea576040517f08c379a0000000000000000000000000000000000000000000000000000000008152600401611ce190614d78565b60405180910390fd5b80915050919050565b60606000611d0083613154565b905080915050919050565b60088054611d1890614a07565b80601f0160208091040260200160405190810160405280929190818152602001828054611d4490614a07565b8015611d915780601f10611d6657610100808354040283529160200191611d91565b820191906000526020600020905b815481529060010190602001808311611d7457829003601f168201915b505050505081565b60008073ffffffffffffffffffffffffffffffffffffffff168273ffffffffffffffffffffffffffffffffffffffff161415611e0a576040517f08c379a0000000000000000000000000000000000000000000000000000000008152600401611e0190614e0a565b60405180910390fd5b600360008373ffffffffffffffffffffffffffffffffffffffff1673ffffffffffffffffffffffffffffffffffffffff168152602001908152602001600020549050919050565b600e602052806000526040600020600091509050806000015490806001018054611e7a90614a07565b80601f0160208091040260200160405190810160405280929190818152602001828054611ea690614a07565b8015611ef35780601f10611ec857610100808354040283529160200191611ef3565b820191906000526020600020905b815481529060010190602001808311611ed657829003601f168201915b505050505090806002018054611f0890614a07565b80601f0160208091040260200160405190810160405280929190818152602001828054611f3490614a07565b8015611f815780601f10611f5657610100808354040283529160200191611f81565b820191906000526020600020905b815481529060010190602001808311611f6457829003601f168201915b5050505050908060030160009054906101000a900473ffffffffffffffffffffffffffffffffffffffff16908060040160009054906101000a900473ffffffffffffffffffffffffffffffffffffffff16908060050160009054906101000a900473ffffffffffffffffffffffffffffffffffffffff16908060050160149054906101000a900460ff16908060060154908060070154908060080160009054906101000a900460ff1690508a565b6010818051602081018201805184825260208301602085012081835280955050505050506000915054906101000a900460ff1681565b600073ffffffffffffffffffffffffffffffffffffffff163373ffffffffffffffffffffffffffffffffffffffff16141561209f57600080fd5b6120a881613570565b6120b157600080fd5b60006120bc82611c41565b90503373ffffffffffffffffffffffffffffffffffffffff168173ffffffffffffffffffffffffffffffffffffffff16146120f657600080fd5b6000600e6000848152602001908152602001600020604051806101400160405290816000820154815260200160018201805461213190614a07565b80601f016020809104026020016040519081016040528092919081815260200182805461215d90614a07565b80156121aa5780601f1061217f576101008083540402835291602001916121aa565b820191906000526020600020905b81548152906001019060200180831161218d57829003601f168201915b505050505081526020016002820180546121c390614a07565b80601f01602080910402602001604051908101604052809291908181526020018280546121ef90614a07565b801561223c5780601f106122115761010080835404028352916020019161223c565b820191906000526020600020905b81548152906001019060200180831161221f57829003601f168201915b505050505081526020016003820160009054906101000a900473ffffffffffffffffffffffffffffffffffffffff1673ffffffffffffffffffffffffffffffffffffffff1673ffffffffffffffffffffffffffffffffffffffff1681526020016004820160009054906101000a900473ffffffffffffffffffffffffffffffffffffffff1673ffffffffffffffffffffffffffffffffffffffff1673ffffffffffffffffffffffffffffffffffffffff1681526020016005820160009054906101000a900473ffffffffffffffffffffffffffffffffffffffff1673ffffffffffffffffffffffffffffffffffffffff1673ffffffffffffffffffffffffffffffffffffffff1681526020016005820160149054906101000a900460ff1615151515815260200160068201548152602001600782015481526020016008820160009054906101000a900460ff1615151515815250509050600115158160c001511515146123a857600080fd5b6123b330338561369d565b600015158160c001515050505050565b6060600180546123d290614a07565b80601f01602080910402602001604051908101604052809291908181526020018280546123fe90614a07565b801561244b5780601f106124205761010080835404028352916020019161244b565b820191906000526020600020905b81548152906001019060200180831161242e57829003601f168201915b5050505050905090565b60095481565b6124636135dc565b73ffffffffffffffffffffffffffffffffffffffff168273ffffffffffffffffffffffffffffffffffffffff1614156124d1576040517f08c379a00000000000000000000000000000000000000000000000000000000081526004016124c890614e76565b60405180910390fd5b80600560006124de6135dc565b73ffffffffffffffffffffffffffffffffffffffff1673ffffffffffffffffffffffffffffffffffffffff16815260200190815260200160002060008473ffffffffffffffffffffffffffffffffffffffff1673ffffffffffffffffffffffffffffffffffffffff16815260200190815260200160002060006101000a81548160ff0219169083151502179055508173ffffffffffffffffffffffffffffffffffffffff1661258b6135dc565b73ffffffffffffffffffffffffffffffffffffffff167f17307eab39ab6107e8899845ad3d59bd9653f200f220920489ca2b5937696c31836040516125d0919061418b565b60405180910390a35050565b600073ffffffffffffffffffffffffffffffffffffffff163373ffffffffffffffffffffffffffffffffffffffff16141561261657600080fd5b61261f81613570565b61262857600080fd5b600061263382611c41565b90503373ffffffffffffffffffffffffffffffffffffffff168173ffffffffffffffffffffffffffffffffffffffff161461266d57600080fd5b6000600e600084815260200190815260200160002060405180610140016040529081600082015481526020016001820180546126a890614a07565b80601f01602080910402602001604051908101604052809291908181526020018280546126d490614a07565b80156127215780601f106126f657610100808354040283529160200191612721565b820191906000526020600020905b81548152906001019060200180831161270457829003601f168201915b5050505050815260200160028201805461273a90614a07565b80601f016020809104026020016040519081016040528092919081815260200182805461276690614a07565b80156127b35780601f10612788576101008083540402835291602001916127b3565b820191906000526020600020905b81548152906001019060200180831161279657829003601f168201915b505050505081526020016003820160009054906101000a900473ffffffffffffffffffffffffffffffffffffffff1673ffffffffffffffffffffffffffffffffffffffff1673ffffffffffffffffffffffffffffffffffffffff1681526020016004820160009054906101000a900473ffffffffffffffffffffffffffffffffffffffff1673ffffffffffffffffffffffffffffffffffffffff1673ffffffffffffffffffffffffffffffffffffffff1681526020016005820160009054906101000a900473ffffffffffffffffffffffffffffffffffffffff1673ffffffffffffffffffffffffffffffffffffffff1673ffffffffffffffffffffffffffffffffffffffff1681526020016005820160149054906101000a900460ff1615151515815260200160068201548152602001600782015481526020016008820160009054906101000a900460ff1615151515815250509050600015158160c0015115151461291f57600080fd5b8061012001511561294157600081610120019015159081151581525050612954565b6001816101200190151590811515815250505b80600e600085815260200190815260200160002060008201518160000155602082015181600101908051906020019061298e929190614034565b5060408201518160020190805190602001906129ab929190614034565b5060608201518160030160006101000a81548173ffffffffffffffffffffffffffffffffffffffff021916908373ffffffffffffffffffffffffffffffffffffffff16021790555060808201518160040160006101000a81548173ffffffffffffffffffffffffffffffffffffffff021916908373ffffffffffffffffffffffffffffffffffffffff16021790555060a08201518160050160006101000a81548173ffffffffffffffffffffffffffffffffffffffff021916908373ffffffffffffffffffffffffffffffffffffffff16021790555060c08201518160050160146101000a81548160ff02191690831515021790555060e0820151816006015561010082015181600701556101208201518160080160006101000a81548160ff021916908315150217905550905050505050565b600f818051602081018201805184825260208301602085012081835280955050505050506000915054906101000a900460ff1681565b600080612b2183611c41565b905080915050919050565b600073ffffffffffffffffffffffffffffffffffffffff163373ffffffffffffffffffffffffffffffffffffffff161415612b6657600080fd5b60096000815480929190612b7990614e96565b9190505550612b89600954613570565b15612b9357600080fd5b60005b82829050811015612c0f576010838383818110612bb657612bb5614edf565b5b9050602002810190612bc89190614f1d565b604051612bd6929190614fb0565b908152602001604051809103902060009054906101000a900460ff1615612bfc57600080fd5b8080612c0790614e96565b915050612b96565b50601184604051612c209190614ffa565b908152602001604051809103902060009054906101000a900460ff1615612c7c576040517f08c379a0000000000000000000000000000000000000000000000000000000008152600401612c739061505d565b60405180910390fd5b600f85604051612c8c9190614ffa565b908152602001604051809103902060009054906101000a900460ff1615612cb257600080fd5b612cbe336009546139d7565b612cca60095485613ba5565b60005b82829050811015612d475760016010848484818110612cef57612cee614edf565b5b9050602002810190612d019190614f1d565b604051612d0f929190614fb0565b908152602001604051809103902060006101000a81548160ff0219169083151502179055508080612d3f90614e96565b915050612ccd565b506001601185604051612d5a9190614ffa565b908152602001604051809103902060006101000a81548160ff0219169083151502179055506001600f86604051612d919190614ffa565b908152602001604051809103902060006101000a81548160ff021916908315150217905550600080339050600060405180610140016040528060095481526020018981526020018881526020018373ffffffffffffffffffffffffffffffffffffffff1681526020018373ffffffffffffffffffffffffffffffffffffffff1681526020018473ffffffffffffffffffffffffffffffffffffffff1681526020016000151581526020018781526020016000815260200160011515815250905080600e60006009548152602001908152602001600020600082015181600001556020820151816001019080519060200190612e8d929190614034565b506040820151816002019080519060200190612eaa929190614034565b5060608201518160030160006101000a81548173ffffffffffffffffffffffffffffffffffffffff021916908373ffffffffffffffffffffffffffffffffffffffff16021790555060808201518160040160006101000a81548173ffffffffffffffffffffffffffffffffffffffff021916908373ffffffffffffffffffffffffffffffffffffffff16021790555060a08201518160050160006101000a81548173ffffffffffffffffffffffffffffffffffffffff021916908373ffffffffffffffffffffffffffffffffffffffff16021790555060c08201518160050160146101000a81548160ff02191690831515021790555060e0820151816006015561010082015181600701556101208201518160080160006101000a81548160ff0219169083151502179055509050505050505050505050565b612ff4612fee6135dc565b836138f9565b613033576040517f08c379a000000000000000000000000000000000000000000000000000000000815260040161302a90614c61565b60405180910390fd5b61303f84848484613c19565b50505050565b60008061305183613452565b91509150811561314f57600a6001600a8054905061306f919061507d565b815481106130805761307f614edf565b5b9060005260206000200160009054906101000a900473ffffffffffffffffffffffffffffffffffffffff16600a82815481106130bf576130be614edf565b5b9060005260206000200160006101000a81548173ffffffffffffffffffffffffffffffffffffffff021916908373ffffffffffffffffffffffffffffffffffffffff160217905550600a805480613119576131186150b1565b5b6001900381819060005260206000200160006101000a81549073ffffffffffffffffffffffffffffffffffffffff021916905590555b505050565b606061315f82613570565b61319e576040517f08c379a000000000000000000000000000000000000000000000000000000000815260040161319590615152565b60405180910390fd5b60006006600084815260200190815260200160002080546131be90614a07565b80601f01602080910402602001604051908101604052809291908181526020018280546131ea90614a07565b80156132375780601f1061320c57610100808354040283529160200191613237565b820191906000526020600020905b81548152906001019060200180831161321a57829003601f168201915b505050505090506000613248613c75565b905060008151141561325e5781925050506132a1565b60008251111561329357808260405160200161327b929190615172565b604051602081830303815290604052925050506132a1565b61329c84613c8c565b925050505b919050565b60008060095490508091505090565b600780546132c290614a07565b80601f01602080910402602001604051908101604052809291908181526020018280546132ee90614a07565b801561333b5780601f106133105761010080835404028352916020019161333b565b820191906000526020600020905b81548152906001019060200180831161331e57829003601f168201915b505050505081565b600061334e82613452565b509050806133ba57600a829080600181540180825580915050600190039060005260206000200160009091909190916101000a81548173ffffffffffffffffffffffffffffffffffffffff021916908373ffffffffffffffffffffffffffffffffffffffff1602179055505b5050565b6000600560008473ffffffffffffffffffffffffffffffffffffffff1673ffffffffffffffffffffffffffffffffffffffff16815260200190815260200160002060008373ffffffffffffffffffffffffffffffffffffffff1673ffffffffffffffffffffffffffffffffffffffff16815260200190815260200160002060009054906101000a900460ff16905092915050565b60008060005b600a805490508110156134f857600a818154811061347957613478614edf565b5b9060005260206000200160009054906101000a900473ffffffffffffffffffffffffffffffffffffffff1673ffffffffffffffffffffffffffffffffffffffff168473ffffffffffffffffffffffffffffffffffffffff1614156134e4576001819250925050613501565b6001816134f19190614cb0565b9050613458565b50600080915091505b915091565b60007f01ffc9a7000000000000000000000000000000000000000000000000000000007bffffffffffffffffffffffffffffffffffffffffffffffffffffffff1916827bffffffffffffffffffffffffffffffffffffffffffffffffffffffff1916149050919050565b60008073ffffffffffffffffffffffffffffffffffffffff166002600084815260200190815260200160002060009054906101000a900473ffffffffffffffffffffffffffffffffffffffff1673ffffffffffffffffffffffffffffffffffffffff1614159050919050565b600033905090565b816004600083815260200190815260200160002060006101000a81548173ffffffffffffffffffffffffffffffffffffffff021916908373ffffffffffffffffffffffffffffffffffffffff160217905550808273ffffffffffffffffffffffffffffffffffffffff1661365783611c41565b73ffffffffffffffffffffffffffffffffffffffff167f8c5be1e5ebec7d5bd14f71427d1e84f3dd0314c0f7b2291e5b200ac8c7c3b92560405160405180910390a45050565b8273ffffffffffffffffffffffffffffffffffffffff166136bd82611c41565b73ffffffffffffffffffffffffffffffffffffffff1614613713576040517f08c379a000000000000000000000000000000000000000000000000000000000815260040161370a90615208565b60405180910390fd5b600073ffffffffffffffffffffffffffffffffffffffff168273ffffffffffffffffffffffffffffffffffffffff161415613783576040517f08c379a000000000000000000000000000000000000000000000000000000000815260040161377a9061529a565b60405180910390fd5b61378e838383613d33565b6137996000826135e4565b6001600360008573ffffffffffffffffffffffffffffffffffffffff1673ffffffffffffffffffffffffffffffffffffffff16815260200190815260200160002060008282546137e9919061507d565b925050819055506001600360008473ffffffffffffffffffffffffffffffffffffffff1673ffffffffffffffffffffffffffffffffffffffff16815260200190815260200160002060008282546138409190614cb0565b92505081905550816002600083815260200190815260200160002060006101000a81548173ffffffffffffffffffffffffffffffffffffffff021916908373ffffffffffffffffffffffffffffffffffffffff160217905550808273ffffffffffffffffffffffffffffffffffffffff168473ffffffffffffffffffffffffffffffffffffffff167fddf252ad1be2c89b69c2b068fc378daa952ba7f163c4a11628f55a4df523b3ef60405160405180910390a4505050565b600061390482613570565b613943576040517f08c379a000000000000000000000000000000000000000000000000000000000815260040161393a9061532c565b60405180910390fd5b600061394e83611c41565b90508073ffffffffffffffffffffffffffffffffffffffff168473ffffffffffffffffffffffffffffffffffffffff1614806139bd57508373ffffffffffffffffffffffffffffffffffffffff166139a584610a19565b73ffffffffffffffffffffffffffffffffffffffff16145b806139ce57506139cd81856133be565b5b91505092915050565b600073ffffffffffffffffffffffffffffffffffffffff168273ffffffffffffffffffffffffffffffffffffffff161415613a47576040517f08c379a0000000000000000000000000000000000000000000000000000000008152600401613a3e90615398565b60405180910390fd5b613a5081613570565b15613a90576040517f08c379a0000000000000000000000000000000000000000000000000000000008152600401613a8790615404565b60405180910390fd5b613a9c60008383613d33565b6001600360008473ffffffffffffffffffffffffffffffffffffffff1673ffffffffffffffffffffffffffffffffffffffff1681526020019081526020016000206000828254613aec9190614cb0565b92505081905550816002600083815260200190815260200160002060006101000a81548173ffffffffffffffffffffffffffffffffffffffff021916908373ffffffffffffffffffffffffffffffffffffffff160217905550808273ffffffffffffffffffffffffffffffffffffffff16600073ffffffffffffffffffffffffffffffffffffffff167fddf252ad1be2c89b69c2b068fc378daa952ba7f163c4a11628f55a4df523b3ef60405160405180910390a45050565b613bae82613570565b613bed576040517f08c379a0000000000000000000000000000000000000000000000000000000008152600401613be490615496565b60405180910390fd5b80600660008481526020019081526020016000209080519060200190613c14929190614034565b505050565b613c2484848461369d565b613c3084848484613d38565b613c6f576040517f08c379a0000000000000000000000000000000000000000000000000000000008152600401613c6690615528565b60405180910390fd5b50505050565b606060405180602001604052806000815250905090565b6060613c9782613570565b613cd6576040517f08c379a0000000000000000000000000000000000000000000000000000000008152600401613ccd906155ba565b60405180910390fd5b6000613ce0613c75565b90506000815111613d005760405180602001604052806000815250613d2b565b80613d0a84613ec0565b604051602001613d1b929190615172565b6040516020818303038152906040525b915050919050565b505050565b6000613d598473ffffffffffffffffffffffffffffffffffffffff16614021565b15613eb3578373ffffffffffffffffffffffffffffffffffffffff1663150b7a02613d826135dc565b8786866040518563ffffffff1660e01b8152600401613da4949392919061562f565b6020604051808303816000875af1925050508015613de057506040513d601f19601f82011682018060405250810190613ddd9190615690565b60015b613e63573d8060008114613e10576040519150601f19603f3d011682016040523d82523d6000602084013e613e15565b606091505b50600081511415613e5b576040517f08c379a0000000000000000000000000000000000000000000000000000000008152600401613e5290615528565b60405180910390fd5b805181602001fd5b63150b7a0260e01b7bffffffffffffffffffffffffffffffffffffffffffffffffffffffff1916817bffffffffffffffffffffffffffffffffffffffffffffffffffffffff191614915050613eb8565b600190505b949350505050565b60606000821415613f08576040518060400160405280600181526020017f3000000000000000000000000000000000000000000000000000000000000000815250905061401c565b600082905060005b60008214613f3a578080613f2390614e96565b915050600a82613f3391906156ec565b9150613f10565b60008167ffffffffffffffff811115613f5657613f55614440565b5b6040519080825280601f01601f191660200182016040528015613f885781602001600182028036833780820191505090505b5090505b6000851461401557600182613fa1919061507d565b9150600a85613fb0919061571d565b6030613fbc9190614cb0565b60f81b818381518110613fd257613fd1614edf565b5b60200101907effffffffffffffffffffffffffffffffffffffffffffffffffffffffffffff1916908160001a905350600a8561400e91906156ec565b9450613f8c565b8093505050505b919050565b600080823b905060008111915050919050565b82805461404090614a07565b90600052602060002090601f01602090048101928261406257600085556140a9565b82601f1061407b57805160ff19168380011785556140a9565b828001600101855582156140a9579182015b828111156140a857825182559160200191906001019061408d565b5b5090506140b691906140ba565b5090565b5b808211156140d35760008160009055506001016140bb565b5090565b6000604051905090565b600080fd5b600080fd5b60007fffffffff0000000000000000000000000000000000000000000000000000000082169050919050565b614120816140eb565b811461412b57600080fd5b50565b60008135905061413d81614117565b92915050565b600060208284031215614159576141586140e1565b5b60006141678482850161412e565b91505092915050565b60008115159050919050565b61418581614170565b82525050565b60006020820190506141a0600083018461417c565b92915050565b600081519050919050565b600082825260208201905092915050565b60005b838110156141e05780820151818401526020810190506141c5565b838111156141ef576000848401525b50505050565b6000601f19601f8301169050919050565b6000614211826141a6565b61421b81856141b1565b935061422b8185602086016141c2565b614234816141f5565b840191505092915050565b600060208201905081810360008301526142598184614206565b905092915050565b6000819050919050565b61427481614261565b811461427f57600080fd5b50565b6000813590506142918161426b565b92915050565b6000602082840312156142ad576142ac6140e1565b5b60006142bb84828501614282565b91505092915050565b600073ffffffffffffffffffffffffffffffffffffffff82169050919050565b60006142ef826142c4565b9050919050565b6142ff816142e4565b82525050565b600060208201905061431a60008301846142f6565b92915050565b614329816142e4565b811461433457600080fd5b50565b60008135905061434681614320565b92915050565b60008060408385031215614363576143626140e1565b5b600061437185828601614337565b925050602061438285828601614282565b9150509250929050565b6000806000606084860312156143a5576143a46140e1565b5b60006143b386828701614337565b93505060206143c486828701614337565b92505060406143d586828701614282565b9150509250925092565b6000602082840312156143f5576143f46140e1565b5b600061440384828501614337565b91505092915050565b61441581614261565b82525050565b6000602082019050614430600083018461440c565b92915050565b600080fd5b600080fd5b7f4e487b7100000000000000000000000000000000000000000000000000000000600052604160045260246000fd5b614478826141f5565b810181811067ffffffffffffffff8211171561449757614496614440565b5b80604052505050565b60006144aa6140d7565b90506144b6828261446f565b919050565b600067ffffffffffffffff8211156144d6576144d5614440565b5b6144df826141f5565b9050602081019050919050565b82818337600083830152505050565b600061450e614509846144bb565b6144a0565b90508281526020810184848401111561452a5761452961443b565b5b6145358482856144ec565b509392505050565b600082601f83011261455257614551614436565b5b81356145628482602086016144fb565b91505092915050565b600060208284031215614581576145806140e1565b5b600082013567ffffffffffffffff81111561459f5761459e6140e6565b5b6145ab8482850161453d565b91505092915050565b600080604083850312156145cb576145ca6140e1565b5b60006145d985828601614282565b92505060206145ea85828601614282565b9150509250929050565b60006145ff826142c4565b9050919050565b61460f816145f4565b82525050565b60006101408201905061462b600083018d61440c565b818103602083015261463d818c614206565b90508181036040830152614651818b614206565b9050614660606083018a614606565b61466d6080830189614606565b61467a60a0830188614606565b61468760c083018761417c565b61469460e083018661440c565b6146a261010083018561440c565b6146b061012083018461417c565b9b9a5050505050505050505050565b6146c881614170565b81146146d357600080fd5b50565b6000813590506146e5816146bf565b92915050565b60008060408385031215614702576147016140e1565b5b600061471085828601614337565b9250506020614721858286016146d6565b9150509250929050565b600080fd5b600080fd5b60008083601f84011261474b5761474a614436565b5b8235905067ffffffffffffffff8111156147685761476761472b565b5b60208301915083602082028301111561478457614783614730565b5b9250929050565b6000806000806000608086880312156147a7576147a66140e1565b5b600086013567ffffffffffffffff8111156147c5576147c46140e6565b5b6147d18882890161453d565b955050602086013567ffffffffffffffff8111156147f2576147f16140e6565b5b6147fe8882890161453d565b945050604061480f88828901614282565b935050606086013567ffffffffffffffff8111156148305761482f6140e6565b5b61483c88828901614735565b92509250509295509295909350565b600067ffffffffffffffff82111561486657614865614440565b5b61486f826141f5565b9050602081019050919050565b600061488f61488a8461484b565b6144a0565b9050828152602081018484840111156148ab576148aa61443b565b5b6148b68482856144ec565b509392505050565b600082601f8301126148d3576148d2614436565b5b81356148e384826020860161487c565b91505092915050565b60008060008060808587031215614906576149056140e1565b5b600061491487828801614337565b945050602061492587828801614337565b935050604061493687828801614282565b925050606085013567ffffffffffffffff811115614957576149566140e6565b5b614963878288016148be565b91505092959194509250565b60008060408385031215614986576149856140e1565b5b600061499485828601614337565b92505060206149a585828601614337565b9150509250929050565b60006040820190506149c4600083018561417c565b6149d1602083018461440c565b9392505050565b7f4e487b7100000000000000000000000000000000000000000000000000000000600052602260045260246000fd5b60006002820490506001821680614a1f57607f821691505b60208210811415614a3357614a326149d8565b5b50919050565b7f4552433732313a20617070726f76656420717565727920666f72206e6f6e657860008201527f697374656e7420746f6b656e0000000000000000000000000000000000000000602082015250565b6000614a95602c836141b1565b9150614aa082614a39565b604082019050919050565b60006020820190508181036000830152614ac481614a88565b9050919050565b7f4552433732313a20617070726f76616c20746f2063757272656e74206f776e6560008201527f7200000000000000000000000000000000000000000000000000000000000000602082015250565b6000614b276021836141b1565b9150614b3282614acb565b604082019050919050565b60006020820190508181036000830152614b5681614b1a565b9050919050565b7f4552433732313a20617070726f76652063616c6c6572206973206e6f74206f7760008201527f6e6572206e6f7220617070726f76656420666f7220616c6c0000000000000000602082015250565b6000614bb96038836141b1565b9150614bc482614b5d565b604082019050919050565b60006020820190508181036000830152614be881614bac565b9050919050565b7f4552433732313a207472616e736665722063616c6c6572206973206e6f74206f60008201527f776e6572206e6f7220617070726f766564000000000000000000000000000000602082015250565b6000614c4b6031836141b1565b9150614c5682614bef565b604082019050919050565b60006020820190508181036000830152614c7a81614c3e565b9050919050565b7f4e487b7100000000000000000000000000000000000000000000000000000000600052601160045260246000fd5b6000614cbb82614261565b9150614cc683614261565b9250827fffffffffffffffffffffffffffffffffffffffffffffffffffffffffffffffff03821115614cfb57614cfa614c81565b5b828201905092915050565b7f4552433732313a206f776e657220717565727920666f72206e6f6e657869737460008201527f656e7420746f6b656e0000000000000000000000000000000000000000000000602082015250565b6000614d626029836141b1565b9150614d6d82614d06565b604082019050919050565b60006020820190508181036000830152614d9181614d55565b9050919050565b7f4552433732313a2062616c616e636520717565727920666f7220746865207a6560008201527f726f206164647265737300000000000000000000000000000000000000000000602082015250565b6000614df4602a836141b1565b9150614dff82614d98565b604082019050919050565b60006020820190508181036000830152614e2381614de7565b9050919050565b7f4552433732313a20617070726f766520746f2063616c6c657200000000000000600082015250565b6000614e606019836141b1565b9150614e6b82614e2a565b602082019050919050565b60006020820190508181036000830152614e8f81614e53565b9050919050565b6000614ea182614261565b91507fffffffffffffffffffffffffffffffffffffffffffffffffffffffffffffffff821415614ed457614ed3614c81565b5b600182019050919050565b7f4e487b7100000000000000000000000000000000000000000000000000000000600052603260045260246000fd5b600080fd5b600080fd5b600080fd5b60008083356001602003843603038112614f3a57614f39614f0e565b5b80840192508235915067ffffffffffffffff821115614f5c57614f5b614f13565b5b602083019250600182023603831315614f7857614f77614f18565b5b509250929050565b600081905092915050565b6000614f978385614f80565b9350614fa48385846144ec565b82840190509392505050565b6000614fbd828486614f8b565b91508190509392505050565b6000614fd4826141a6565b614fde8185614f80565b9350614fee8185602086016141c2565b80840191505092915050565b60006150068284614fc9565b915081905092915050565b7f746f6b656e2055524920616c7265616479206578697374000000000000000000600082015250565b60006150476017836141b1565b915061505282615011565b602082019050919050565b600060208201905081810360008301526150768161503a565b9050919050565b600061508882614261565b915061509383614261565b9250828210156150a6576150a5614c81565b5b828203905092915050565b7f4e487b7100000000000000000000000000000000000000000000000000000000600052603160045260246000fd5b7f45524337323155524953746f726167653a2055524920717565727920666f722060008201527f6e6f6e6578697374656e7420746f6b656e000000000000000000000000000000602082015250565b600061513c6031836141b1565b9150615147826150e0565b604082019050919050565b6000602082019050818103600083015261516b8161512f565b9050919050565b600061517e8285614fc9565b915061518a8284614fc9565b91508190509392505050565b7f4552433732313a207472616e73666572206f6620746f6b656e2074686174206960008201527f73206e6f74206f776e0000000000000000000000000000000000000000000000602082015250565b60006151f26029836141b1565b91506151fd82615196565b604082019050919050565b60006020820190508181036000830152615221816151e5565b9050919050565b7f4552433732313a207472616e7366657220746f20746865207a65726f2061646460008201527f7265737300000000000000000000000000000000000000000000000000000000602082015250565b60006152846024836141b1565b915061528f82615228565b604082019050919050565b600060208201905081810360008301526152b381615277565b9050919050565b7f4552433732313a206f70657261746f7220717565727920666f72206e6f6e657860008201527f697374656e7420746f6b656e0000000000000000000000000000000000000000602082015250565b6000615316602c836141b1565b9150615321826152ba565b604082019050919050565b6000602082019050818103600083015261534581615309565b9050919050565b7f4552433732313a206d696e7420746f20746865207a65726f2061646472657373600082015250565b60006153826020836141b1565b915061538d8261534c565b602082019050919050565b600060208201905081810360008301526153b181615375565b9050919050565b7f4552433732313a20746f6b656e20616c7265616479206d696e74656400000000600082015250565b60006153ee601c836141b1565b91506153f9826153b8565b602082019050919050565b6000602082019050818103600083015261541d816153e1565b9050919050565b7f45524337323155524953746f726167653a2055524920736574206f66206e6f6e60008201527f6578697374656e7420746f6b656e000000000000000000000000000000000000602082015250565b6000615480602e836141b1565b915061548b82615424565b604082019050919050565b600060208201905081810360008301526154af81615473565b9050919050565b7f4552433732313a207472616e7366657220746f206e6f6e20455243373231526560008201527f63656976657220696d706c656d656e7465720000000000000000000000000000602082015250565b60006155126032836141b1565b915061551d826154b6565b604082019050919050565b6000602082019050818103600083015261554181615505565b9050919050565b7f4552433732314d657461646174613a2055524920717565727920666f72206e6f60008201527f6e6578697374656e7420746f6b656e0000000000000000000000000000000000602082015250565b60006155a4602f836141b1565b91506155af82615548565b604082019050919050565b600060208201905081810360008301526155d381615597565b9050919050565b600081519050919050565b600082825260208201905092915050565b6000615601826155da565b61560b81856155e5565b935061561b8185602086016141c2565b615624816141f5565b840191505092915050565b600060808201905061564460008301876142f6565b61565160208301866142f6565b61565e604083018561440c565b818103606083015261567081846155f6565b905095945050505050565b60008151905061568a81614117565b92915050565b6000602082840312156156a6576156a56140e1565b5b60006156b48482850161567b565b91505092915050565b7f4e487b7100000000000000000000000000000000000000000000000000000000600052601260045260246000fd5b60006156f782614261565b915061570283614261565b925082615712576157116156bd565b5b828204905092915050565b600061572882614261565b915061573383614261565b925082615743576157426156bd565b5b82820690509291505056fea2646970667358221220d354888159e1bca8e0619b050ab96ba8a17dfdefbabf4558521f6e2eb1c3120a64736f6c634300080a0033",
  "immutableReferences": {},
  "source": "// SPDX-License-Identifier: MIT\npragma solidity ^0.8.0;\n//pragma abicoder v2;\n\n// import ERC721 iterface\nimport \"@openzeppelin/contracts/utils/Counters.sol\";\nimport \"@openzeppelin/contracts/token/ERC721/extensions/ERC721URIStorage.sol\";\nimport \"@openzeppelin/contracts/token/ERC721/ERC721.sol\";\nimport \"@openzeppelin/contracts/token/ERC721/IERC721.sol\";\n//import  \"@openzeppelin-solidity/contracts/token/ERC721/ERC721Full.sol\";\nimport \"@openzeppelin/contracts/token/ERC721/IERC721Receiver.sol\";\nimport \"@openzeppelin/contracts/token/ERC721/extensions/IERC721Metadata.sol\";\nimport \"@openzeppelin/contracts/utils/Address.sol\";\nimport \"@openzeppelin/contracts/utils/Context.sol\";\nimport \"@openzeppelin/contracts/utils/Strings.sol\";\nimport \"@openzeppelin/contracts/utils/introspection/ERC165.sol\";\n//import \"@openzeppelin/contracts/token/ERC721/extensions/IERC721Enumerable.sol\";\n\n// NFTStaking smart contract inherits ERC721 interface\ncontract NFTStaking is ERC721URIStorage  {\n\n  // this contract's token collection name\n  string public  collectionName;\n  // this contract's token symbol\n  string public  collectionNameSymbol;\n  // total number of crypto boys minted\n  uint256 public nftStakingCounter;\n  /**\n  * @notice We usually require to know who are all the stakeholders.\n  */\n  address[] internal stakeholders;\n  /**\n  * @notice The stakes for each stakeholder.\n  */\n  mapping(address => uint256[]) internal stakes;\n \n   /**\n   * @notice The accumulated rewards for each stakeholder.\n   */\n     mapping(address => uint256) internal rewards;\n\n     uint256[] internal nft;\n\n \n\n\n  event collectoinNameEvent(string _name);\n\n  // define crypto boy struct\n   struct Staking {\n    uint256 tokenId;\n    string tokenName;\n    string tokenURI;\n    address payable mintedBy;\n    address payable currentOwner;\n    address payable previousOwner;\n    bool staked;\n    uint256 price;\n    uint256 numberOfTransfers;\n    bool forSale;\n  }\n\n\n  // map staking's token id to crypto boy\n  mapping(uint256 => Staking) public allNFTStaking;\n  // check if token name exists\n  mapping(string => bool) public tokenNameExists;\n  // check if color exists\n  mapping(string => bool) public colorExists;\n  // check if token URI exists\n  mapping(string => bool) public tokenURIExists;\n\n  // initialize contract while deployment with contract's collection name and token\n  //constructor() ERC721(\"Crypto Boys Collection\", \"CB\")\n  constructor(string memory _name, string memory _symbol) ERC721(\"Staking NFT Collection\", \"Staking\")\n  {\n    collectionName = _name;\n   \n    collectionNameSymbol = _symbol; \n  } \n\n/*   function registerUser(address _user) {\n\n    // registers user\n  \n  } */\n\n  // mint a new crypto boy\n  function mintStaking(string memory _name, string memory _tokenURI, uint256 _price, string[] calldata _colors) external {\n    // check if thic fucntion caller is not an zero address account\n    require(msg.sender != address(0));\n    // increment counter\n    nftStakingCounter ++;\n    // check if a token exists with the above token id => incremented counter\n    require(!_exists(nftStakingCounter));\n\n    // loop through the colors passed and check if each colors already exists or not\n    for(uint i=0; i<_colors.length; i++) {\n      require(!colorExists[_colors[i]]);\n    }\n    // check if the token URI already exists or not\n    require(!tokenURIExists[_tokenURI],\"token URI already exist\");\n    // check if the token name already exists or not\n    require(!tokenNameExists[_name]);\n\n    // mint the token\n    _mint(msg.sender, nftStakingCounter);\n    // set token URI (bind token id with the passed in token URI)\n    _setTokenURI(nftStakingCounter, _tokenURI);\n\n    // loop through the colors passed and make each of the colors as exists since the token is already minted\n    for (uint i=0; i<_colors.length; i++) {\n      colorExists[_colors[i]] = true;\n    }\n    // make passed token URI as exists\n    tokenURIExists[_tokenURI] = true;\n    // make token name passed as exists\n    tokenNameExists[_name] = true;\n\n    // creat a new crypto boy (struct) and pass in new values\n    address payable zero  = payable (address(0));\n    address payable sender  = payable (msg.sender);\n    Staking memory newStaking = Staking(\n    nftStakingCounter,\n    _name,\n    _tokenURI,\n    sender,\n    sender,\n    zero,\n    false,\n    _price,\n    0,\n    true);\n    // add the token id and it's crypto boy to all crypto boys mapping\n    allNFTStaking[nftStakingCounter] = newStaking;\n  }\n\n  // get owner of the token\n  function getTokenOwner(uint256 _tokenId) public view returns(address) {\n    address _tokenOwner = ownerOf(_tokenId);\n    return _tokenOwner;\n  }\n\n  // get metadata of the token\n  function getTokenMetaData(uint _tokenId) public view returns(string memory) {\n    string memory tokenMetaData = tokenURI(_tokenId);\n    return tokenMetaData;\n  }\n\n  // get total number of tokens minted so far\n  function getNumberOfTokensMinted() public view returns(uint256) {\n    uint256 totalNumberOfTokensMinted = nftStakingCounter;\n    return totalNumberOfTokensMinted;\n  }\n\n  // get total number of tokens owned by an address\n  function getTotalNumberOfTokensOwnedByAnAddress(address _owner) public view returns(uint256) {\n    uint256 totalNumberOfTokensOwned = balanceOf(_owner);\n    return totalNumberOfTokensOwned;\n  }\n\n  // check if the token already exists\n  function getTokenExists(uint256 _tokenId) public view returns(bool) {\n    bool tokenExists = _exists(_tokenId);\n    return tokenExists;\n  }\n\n  // by a token by passing in the token's id\n  function buyToken(uint256 _tokenId) public payable {\n    // check if the function caller is not an zero account address\n    require(msg.sender != address(0));\n    // check if the token id of the token being bought exists or not\n    require(_exists(_tokenId));\n    // get the token's owner\n    address tokenOwner = ownerOf(_tokenId);\n    // token's owner should not be an zero address account\n    require(tokenOwner != address(0));\n    // the one who wants to buy the token should not be the token's owner\n    require(tokenOwner != msg.sender);\n    // get that token from all crypto NFT mapping and create a memory of it defined as (struct => Staking)\n    Staking memory staking = allNFTStaking[_tokenId];\n    // price sent in to buy should be equal to or more than the token's price\n    require(msg.value >= staking.price);\n    // token should be for sale\n    require(staking.forSale);\n    // transfer the token from owner to the caller of the function (buyer)\n    _transfer(tokenOwner, msg.sender, _tokenId);\n    // get owner of the token\n    address payable sendTo = staking.currentOwner;\n    // send token's worth of ethers to the owner\n    sendTo.transfer(msg.value);\n    // update the token's previous owner\n    staking.previousOwner = staking.currentOwner;\n    // update the token's current owner\n    staking.currentOwner = payable (msg.sender);\n    // update the how many times this token was transfered\n    staking.numberOfTransfers += 1;\n    // set and update that token in the mapping\n    allNFTStaking[_tokenId] = staking;\n  }\n\n  function changeTokenPrice(uint256 _tokenId, uint256 _newPrice) public {\n    // require caller of the function is not an empty address\n    require(msg.sender != address(0));\n    // require that token should exist\n    require(_exists(_tokenId));\n    // get the token's owner\n    address tokenOwner = ownerOf(_tokenId);\n    // check that token's owner should be equal to the caller of the function\n    require(tokenOwner == msg.sender);\n    // get that token from all crypto nft mapping and create a memory of it defined as (struct => Staking)\n    Staking memory staking = allNFTStaking[_tokenId];\n    // update token's price with new price\n    staking.price = _newPrice;\n    // set and update that token in the mapping\n    allNFTStaking[_tokenId] = staking;\n  }\n\n  // switch between set for sale and set not for sale\n  function toggleForSale(uint256 _tokenId) public {\n    // require caller of the function is not an empty address\n    require(msg.sender != address(0));\n    // require that token should exist\n    require(_exists(_tokenId));\n    // get the token's owner\n    address tokenOwner = ownerOf(_tokenId);\n    // check that token's owner should be equal to the caller of the function\n    require(tokenOwner == msg.sender);\n    // get that token from all crypto nft mapping and create a memory of it defined as (struct => Staking)\n    Staking memory staking = allNFTStaking[_tokenId];\n    // if token's forSale is false make it true and vice versa\n    // check that the token is not staked\n    require(staking.staked==false);\n    if(staking.forSale) {\n      staking.forSale = false;\n    } else {\n      staking.forSale = true;\n    }\n    // set and update that token in the mapping\n    allNFTStaking[_tokenId] = staking;\n  }\n\n  \n    // ---------- STAKES ----------\n\n    /* \n     * @notice A method for a stakeholder to create a NFT stake. The ideia of stake a NFT should be different \n     * stake a ERC20 token. The idea here is a transfer the onwership to the contract adn not  burn the NFT\n     * @param _stake The size of the stake to be created.\n     */\n     function createStake(uint256 _tokenId) external\n      {\n      // require caller of the function is not an empty address\n      require(msg.sender != address(0));\n      // require that token should exist\n      require(_exists(_tokenId));\n      // get the token's owner\n      address tokenOwner = ownerOf(_tokenId);\n      // check that token's owner should be equal to the caller of the function\n      require(tokenOwner == msg.sender);\n     \n\n      // get that token from all crypto NFT mapping and create a memory of it defined as (struct => Staking)\n      Staking memory staking = allNFTStaking[_tokenId];\n      // check that the token is not staked\n      require(staking.staked==false);\n\n      \n      //_burn(_tokenId); // burn the NFT\n      // transfer the token from owner to the contract\n      _transfer(tokenOwner, address(this), _tokenId);\n      // change the status of staked == true\n      staking.staked == true;\n\n\n\n      // set and update that token in the mapping\n      allNFTStaking[_tokenId] = staking;\n      \n     \n    }\n\n    /*\n     * @notice A method for a stakeholder to remove a stake. Transfer the owership to the owner of the contract\n     * @param _stake The size of the stake to be removed.\n     */\n     function removeStake(uint256 _tokenId)  public\n     {\n        // require caller of the function is not an empty address\n        require(msg.sender != address(0));\n        // require that token should exist\n        require(_exists(_tokenId));\n        // get the token's owner\n        address tokenOwner = ownerOf(_tokenId);\n        // check that token's owner should be equal to the caller of the function\n        require(tokenOwner == msg.sender);\n        // get that token from all crypto NFT mapping and create a memory of it defined as (struct => Staking)\n        Staking memory staking = allNFTStaking[_tokenId];\n        // check that the token is not staked\n        require(staking.staked==true);\n        \n        // transfer the token from contract to the owner\n        _transfer(address(this), msg.sender, _tokenId);\n        // change the status of staked == true\n        staking.staked == false;\n      }\n\n    function addStakeholder(address _stakeholder)\n        public\n    {\n        (bool _isStakeholder, ) = isStakeholder(_stakeholder);\n        if(!_isStakeholder) stakeholders.push(_stakeholder);\n    }\n\n\n    // ---------- STAKEHOLDERS ----------\n\n    /**\n     * @notice A method to check if an address is a stakeholder.\n     * @param _address The address to verify.\n     * @return bool, uint256 Whether the address is a stakeholder, \n     * and if so its position in the stakeholders array.\n     */\n     function isStakeholder(address _address) public view returns(bool, uint256)\n     {\n       for (uint256 s = 0; s < stakeholders.length; s += 1){\n          if (_address == stakeholders[s]) return (true, s);\n       }\n       return (false, 0);\n     }\n     function removeStakeholder(address _stakeholder) public {\n        (bool _isStakeholder, uint256 s) = isStakeholder(_stakeholder);\n        if(_isStakeholder){\n            stakeholders[s] = stakeholders[stakeholders.length - 1];\n            stakeholders.pop();\n        } \n    }\n}\n\n",
  "sourcePath": "/home/ubuntu/Consensys/blockchain-developer-bootcamp-final-project/contracts/NFTStaking.sol",
  "compiler": {
    "name": "solc",
    "version": "0.8.10+commit.fc410830.Emscripten.clang"
  },
  "schemaVersion": "3.4.3",
  "updatedAt": "2021-12-10T02:36:26.228Z",
  "devdoc": {
    "kind": "dev",
    "methods": {
      "approve(address,uint256)": {
        "details": "See {IERC721-approve}."
      },
      "balanceOf(address)": {
        "details": "See {IERC721-balanceOf}."
      },
      "getApproved(uint256)": {
        "details": "See {IERC721-getApproved}."
      },
      "isApprovedForAll(address,address)": {
        "details": "See {IERC721-isApprovedForAll}."
      },
      "isStakeholder(address)": {
        "params": {
          "_address": "The address to verify."
        },
        "returns": {
          "_0": "bool, uint256 Whether the address is a stakeholder,  and if so its position in the stakeholders array."
        }
      },
      "name()": {
        "details": "See {IERC721Metadata-name}."
      },
      "ownerOf(uint256)": {
        "details": "See {IERC721-ownerOf}."
      },
      "safeTransferFrom(address,address,uint256)": {
        "details": "See {IERC721-safeTransferFrom}."
      },
      "safeTransferFrom(address,address,uint256,bytes)": {
        "details": "See {IERC721-safeTransferFrom}."
      },
      "setApprovalForAll(address,bool)": {
        "details": "See {IERC721-setApprovalForAll}."
      },
      "supportsInterface(bytes4)": {
        "details": "See {IERC165-supportsInterface}."
      },
      "symbol()": {
        "details": "See {IERC721Metadata-symbol}."
      },
      "tokenURI(uint256)": {
        "details": "See {IERC721Metadata-tokenURI}."
      },
      "transferFrom(address,address,uint256)": {
        "details": "See {IERC721-transferFrom}."
      }
    },
    "version": 1
  },
  "userdoc": {
    "kind": "user",
    "methods": {
      "isStakeholder(address)": {
        "notice": "A method to check if an address is a stakeholder."
      }
    },
    "version": 1
  }
}