{
  "contractName": "NFTStaking",
  "abi": [
    {
      "inputs": [
        {
          "internalType": "string",
          "name": "_name",
          "type": "string"
        },
        {
          "internalType": "string",
          "name": "_symbol",
          "type": "string"
        }
      ],
      "stateMutability": "nonpayable",
      "type": "constructor"
    },
    {
      "anonymous": false,
      "inputs": [
        {
          "indexed": true,
          "internalType": "address",
          "name": "owner",
          "type": "address"
        },
        {
          "indexed": true,
          "internalType": "address",
          "name": "approved",
          "type": "address"
        },
        {
          "indexed": true,
          "internalType": "uint256",
          "name": "tokenId",
          "type": "uint256"
        }
      ],
      "name": "Approval",
      "type": "event"
    },
    {
      "anonymous": false,
      "inputs": [
        {
          "indexed": true,
          "internalType": "address",
          "name": "owner",
          "type": "address"
        },
        {
          "indexed": true,
          "internalType": "address",
          "name": "operator",
          "type": "address"
        },
        {
          "indexed": false,
          "internalType": "bool",
          "name": "approved",
          "type": "bool"
        }
      ],
      "name": "ApprovalForAll",
      "type": "event"
    },
    {
      "anonymous": false,
      "inputs": [
        {
          "indexed": true,
          "internalType": "address",
          "name": "from",
          "type": "address"
        },
        {
          "indexed": true,
          "internalType": "address",
          "name": "to",
          "type": "address"
        },
        {
          "indexed": true,
          "internalType": "uint256",
          "name": "tokenId",
          "type": "uint256"
        }
      ],
      "name": "Transfer",
      "type": "event"
    },
    {
      "anonymous": false,
      "inputs": [
        {
          "indexed": false,
          "internalType": "string",
          "name": "_name",
          "type": "string"
        }
      ],
      "name": "collectoinNameEvent",
      "type": "event"
    },
    {
      "inputs": [
        {
          "internalType": "uint256",
          "name": "",
          "type": "uint256"
        }
      ],
      "name": "allNFTStaking",
      "outputs": [
        {
          "internalType": "uint256",
          "name": "tokenId",
          "type": "uint256"
        },
        {
          "internalType": "string",
          "name": "tokenName",
          "type": "string"
        },
        {
          "internalType": "string",
          "name": "tokenURI",
          "type": "string"
        },
        {
          "internalType": "address payable",
          "name": "mintedBy",
          "type": "address"
        },
        {
          "internalType": "address payable",
          "name": "currentOwner",
          "type": "address"
        },
        {
          "internalType": "address payable",
          "name": "previousOwner",
          "type": "address"
        },
        {
          "internalType": "uint256",
          "name": "price",
          "type": "uint256"
        },
        {
          "internalType": "uint256",
          "name": "numberOfTransfers",
          "type": "uint256"
        },
        {
          "internalType": "bool",
          "name": "forSale",
          "type": "bool"
        }
      ],
      "stateMutability": "view",
      "type": "function",
      "constant": true
    },
    {
      "inputs": [
        {
          "internalType": "address",
          "name": "to",
          "type": "address"
        },
        {
          "internalType": "uint256",
          "name": "tokenId",
          "type": "uint256"
        }
      ],
      "name": "approve",
      "outputs": [],
      "stateMutability": "nonpayable",
      "type": "function"
    },
    {
      "inputs": [
        {
          "internalType": "address",
          "name": "owner",
          "type": "address"
        }
      ],
      "name": "balanceOf",
      "outputs": [
        {
          "internalType": "uint256",
          "name": "",
          "type": "uint256"
        }
      ],
      "stateMutability": "view",
      "type": "function",
      "constant": true
    },
    {
      "inputs": [],
      "name": "collectionName",
      "outputs": [
        {
          "internalType": "string",
          "name": "",
          "type": "string"
        }
      ],
      "stateMutability": "view",
      "type": "function",
      "constant": true
    },
    {
      "inputs": [],
      "name": "collectionNameSymbol",
      "outputs": [
        {
          "internalType": "string",
          "name": "",
          "type": "string"
        }
      ],
      "stateMutability": "view",
      "type": "function",
      "constant": true
    },
    {
      "inputs": [
        {
          "internalType": "string",
          "name": "",
          "type": "string"
        }
      ],
      "name": "colorExists",
      "outputs": [
        {
          "internalType": "bool",
          "name": "",
          "type": "bool"
        }
      ],
      "stateMutability": "view",
      "type": "function",
      "constant": true
    },
    {
      "inputs": [
        {
          "internalType": "uint256",
          "name": "tokenId",
          "type": "uint256"
        }
      ],
      "name": "getApproved",
      "outputs": [
        {
          "internalType": "address",
          "name": "",
          "type": "address"
        }
      ],
      "stateMutability": "view",
      "type": "function",
      "constant": true
    },
    {
      "inputs": [
        {
          "internalType": "address",
          "name": "owner",
          "type": "address"
        },
        {
          "internalType": "address",
          "name": "operator",
          "type": "address"
        }
      ],
      "name": "isApprovedForAll",
      "outputs": [
        {
          "internalType": "bool",
          "name": "",
          "type": "bool"
        }
      ],
      "stateMutability": "view",
      "type": "function",
      "constant": true
    },
    {
      "inputs": [],
      "name": "name",
      "outputs": [
        {
          "internalType": "string",
          "name": "",
          "type": "string"
        }
      ],
      "stateMutability": "view",
      "type": "function",
      "constant": true
    },
    {
      "inputs": [],
      "name": "nftStakingCounter",
      "outputs": [
        {
          "internalType": "uint256",
          "name": "",
          "type": "uint256"
        }
      ],
      "stateMutability": "view",
      "type": "function",
      "constant": true
    },
    {
      "inputs": [
        {
          "internalType": "uint256",
          "name": "tokenId",
          "type": "uint256"
        }
      ],
      "name": "ownerOf",
      "outputs": [
        {
          "internalType": "address",
          "name": "",
          "type": "address"
        }
      ],
      "stateMutability": "view",
      "type": "function",
      "constant": true
    },
    {
      "inputs": [
        {
          "internalType": "address",
          "name": "from",
          "type": "address"
        },
        {
          "internalType": "address",
          "name": "to",
          "type": "address"
        },
        {
          "internalType": "uint256",
          "name": "tokenId",
          "type": "uint256"
        }
      ],
      "name": "safeTransferFrom",
      "outputs": [],
      "stateMutability": "nonpayable",
      "type": "function"
    },
    {
      "inputs": [
        {
          "internalType": "address",
          "name": "from",
          "type": "address"
        },
        {
          "internalType": "address",
          "name": "to",
          "type": "address"
        },
        {
          "internalType": "uint256",
          "name": "tokenId",
          "type": "uint256"
        },
        {
          "internalType": "bytes",
          "name": "_data",
          "type": "bytes"
        }
      ],
      "name": "safeTransferFrom",
      "outputs": [],
      "stateMutability": "nonpayable",
      "type": "function"
    },
    {
      "inputs": [
        {
          "internalType": "address",
          "name": "operator",
          "type": "address"
        },
        {
          "internalType": "bool",
          "name": "approved",
          "type": "bool"
        }
      ],
      "name": "setApprovalForAll",
      "outputs": [],
      "stateMutability": "nonpayable",
      "type": "function"
    },
    {
      "inputs": [
        {
          "internalType": "bytes4",
          "name": "interfaceId",
          "type": "bytes4"
        }
      ],
      "name": "supportsInterface",
      "outputs": [
        {
          "internalType": "bool",
          "name": "",
          "type": "bool"
        }
      ],
      "stateMutability": "view",
      "type": "function",
      "constant": true
    },
    {
      "inputs": [],
      "name": "symbol",
      "outputs": [
        {
          "internalType": "string",
          "name": "",
          "type": "string"
        }
      ],
      "stateMutability": "view",
      "type": "function",
      "constant": true
    },
    {
      "inputs": [
        {
          "internalType": "string",
          "name": "",
          "type": "string"
        }
      ],
      "name": "tokenNameExists",
      "outputs": [
        {
          "internalType": "bool",
          "name": "",
          "type": "bool"
        }
      ],
      "stateMutability": "view",
      "type": "function",
      "constant": true
    },
    {
      "inputs": [
        {
          "internalType": "uint256",
          "name": "tokenId",
          "type": "uint256"
        }
      ],
      "name": "tokenURI",
      "outputs": [
        {
          "internalType": "string",
          "name": "",
          "type": "string"
        }
      ],
      "stateMutability": "view",
      "type": "function",
      "constant": true
    },
    {
      "inputs": [
        {
          "internalType": "string",
          "name": "",
          "type": "string"
        }
      ],
      "name": "tokenURIExists",
      "outputs": [
        {
          "internalType": "bool",
          "name": "",
          "type": "bool"
        }
      ],
      "stateMutability": "view",
      "type": "function",
      "constant": true
    },
    {
      "inputs": [
        {
          "internalType": "address",
          "name": "from",
          "type": "address"
        },
        {
          "internalType": "address",
          "name": "to",
          "type": "address"
        },
        {
          "internalType": "uint256",
          "name": "tokenId",
          "type": "uint256"
        }
      ],
      "name": "transferFrom",
      "outputs": [],
      "stateMutability": "nonpayable",
      "type": "function"
    },
    {
      "inputs": [
        {
          "internalType": "string",
          "name": "_name",
          "type": "string"
        },
        {
          "internalType": "string",
          "name": "_tokenURI",
          "type": "string"
        },
        {
          "internalType": "uint256",
          "name": "_price",
          "type": "uint256"
        },
        {
          "internalType": "string[]",
          "name": "_colors",
          "type": "string[]"
        }
      ],
      "name": "mintStaking",
      "outputs": [],
      "stateMutability": "nonpayable",
      "type": "function"
    },
    {
      "inputs": [
        {
          "internalType": "uint256",
          "name": "_tokenId",
          "type": "uint256"
        }
      ],
      "name": "getTokenOwner",
      "outputs": [
        {
          "internalType": "address",
          "name": "",
          "type": "address"
        }
      ],
      "stateMutability": "view",
      "type": "function",
      "constant": true
    },
    {
      "inputs": [
        {
          "internalType": "uint256",
          "name": "_tokenId",
          "type": "uint256"
        }
      ],
      "name": "getTokenMetaData",
      "outputs": [
        {
          "internalType": "string",
          "name": "",
          "type": "string"
        }
      ],
      "stateMutability": "view",
      "type": "function",
      "constant": true
    },
    {
      "inputs": [],
      "name": "getNumberOfTokensMinted",
      "outputs": [
        {
          "internalType": "uint256",
          "name": "",
          "type": "uint256"
        }
      ],
      "stateMutability": "view",
      "type": "function",
      "constant": true
    },
    {
      "inputs": [
        {
          "internalType": "address",
          "name": "_owner",
          "type": "address"
        }
      ],
      "name": "getTotalNumberOfTokensOwnedByAnAddress",
      "outputs": [
        {
          "internalType": "uint256",
          "name": "",
          "type": "uint256"
        }
      ],
      "stateMutability": "view",
      "type": "function",
      "constant": true
    },
    {
      "inputs": [
        {
          "internalType": "uint256",
          "name": "_tokenId",
          "type": "uint256"
        }
      ],
      "name": "getTokenExists",
      "outputs": [
        {
          "internalType": "bool",
          "name": "",
          "type": "bool"
        }
      ],
      "stateMutability": "view",
      "type": "function",
      "constant": true
    },
    {
      "inputs": [
        {
          "internalType": "uint256",
          "name": "_tokenId",
          "type": "uint256"
        }
      ],
      "name": "buyToken",
      "outputs": [],
      "stateMutability": "payable",
      "type": "function",
      "payable": true
    },
    {
      "inputs": [
        {
          "internalType": "uint256",
          "name": "_tokenId",
          "type": "uint256"
        },
        {
          "internalType": "uint256",
          "name": "_newPrice",
          "type": "uint256"
        }
      ],
      "name": "changeTokenPrice",
      "outputs": [],
      "stateMutability": "nonpayable",
      "type": "function"
    },
    {
      "inputs": [
        {
          "internalType": "uint256",
          "name": "_tokenId",
          "type": "uint256"
        }
      ],
      "name": "toggleForSale",
      "outputs": [],
      "stateMutability": "nonpayable",
      "type": "function"
    }
  ],
  "bytecode": "0x60806040523480156200001157600080fd5b5060405162004ed438038062004ed483398181016040528101906200003791906200035e565b6040518060400160405280601681526020017f43727970746f20426f797320436f6c6c656374696f6e000000000000000000008152506040518060400160405280600281526020017f43420000000000000000000000000000000000000000000000000000000000008152508160009080519060200190620000bb92919062000111565b508060019080519060200190620000d492919062000111565b5050508160079080519060200190620000ef92919062000111565b5080600890805190602001906200010892919062000111565b50505062000448565b8280546200011f9062000412565b90600052602060002090601f0160209004810192826200014357600085556200018f565b82601f106200015e57805160ff19168380011785556200018f565b828001600101855582156200018f579182015b828111156200018e57825182559160200191906001019062000171565b5b5090506200019e9190620001a2565b5090565b5b80821115620001bd576000816000905550600101620001a3565b5090565b6000604051905090565b600080fd5b600080fd5b600080fd5b600080fd5b6000601f19601f8301169050919050565b7f4e487b7100000000000000000000000000000000000000000000000000000000600052604160045260246000fd5b6200022a82620001df565b810181811067ffffffffffffffff821117156200024c576200024b620001f0565b5b80604052505050565b600062000261620001c1565b90506200026f82826200021f565b919050565b600067ffffffffffffffff821115620002925762000291620001f0565b5b6200029d82620001df565b9050602081019050919050565b60005b83811015620002ca578082015181840152602081019050620002ad565b83811115620002da576000848401525b50505050565b6000620002f7620002f18462000274565b62000255565b905082815260208101848484011115620003165762000315620001da565b5b62000323848285620002aa565b509392505050565b600082601f830112620003435762000342620001d5565b5b815162000355848260208601620002e0565b91505092915050565b60008060408385031215620003785762000377620001cb565b5b600083015167ffffffffffffffff811115620003995762000398620001d0565b5b620003a7858286016200032b565b925050602083015167ffffffffffffffff811115620003cb57620003ca620001d0565b5b620003d9858286016200032b565b9150509250929050565b7f4e487b7100000000000000000000000000000000000000000000000000000000600052602260045260246000fd5b600060028204905060018216806200042b57607f821691505b60208210811415620004425762000441620003e3565b5b50919050565b614a7c80620004586000396000f3fe6080604052600436106101c25760003560e01c806370a08231116100f7578063a46b1fac11610095578063c87b56dd11610064578063c87b56dd146106bb578063cc151f3a146106f8578063e5326ab114610723578063e985e9c51461074e576101c2565b8063a46b1fac146105ef578063a5cd761f1461062c578063b3ec722114610669578063b88d4fde14610692576101c2565b806395d89b41116100d157806395d89b41146105475780639c859bfb14610572578063a22cb4651461059d578063a32018b9146105c6576101c2565b806370a082311461048857806379d56e58146104c55780638d44807c1461050a576101c2565b806342842e0e1161016457806362e8e8ac1161013e57806362e8e8ac146103ba5780636352211e146103e357806367c623cf146104205780636f9507f91461045d576101c2565b806342842e0e14610317578063439028501461034057806343d32ae71461037d576101c2565b8063095ea7b3116101a0578063095ea7b31461026c578063142687f31461029557806323b872dd146102d25780632d296bf1146102fb576101c2565b806301ffc9a7146101c757806306fdde0314610204578063081812fc1461022f575b600080fd5b3480156101d357600080fd5b506101ee60048036038101906101e991906134a2565b61078b565b6040516101fb91906134ea565b60405180910390f35b34801561021057600080fd5b5061021961086d565b604051610226919061359e565b60405180910390f35b34801561023b57600080fd5b50610256600480360381019061025191906135f6565b6108ff565b6040516102639190613664565b60405180910390f35b34801561027857600080fd5b50610293600480360381019061028e91906136ab565b610984565b005b3480156102a157600080fd5b506102bc60048036038101906102b791906135f6565b610a9c565b6040516102c991906134ea565b60405180910390f35b3480156102de57600080fd5b506102f960048036038101906102f491906136eb565b610ab3565b005b610315600480360381019061031091906135f6565b610b13565b005b34801561032357600080fd5b5061033e600480360381019061033991906136eb565b6110d5565b005b34801561034c57600080fd5b506103676004803603810190610362919061373e565b6110f5565b604051610374919061377a565b60405180910390f35b34801561038957600080fd5b506103a4600480360381019061039f91906138ca565b61110c565b6040516103b191906134ea565b60405180910390f35b3480156103c657600080fd5b506103e160048036038101906103dc9190613913565b611142565b005b3480156103ef57600080fd5b5061040a600480360381019061040591906135f6565b6115ca565b6040516104179190613664565b60405180910390f35b34801561042c57600080fd5b50610447600480360381019061044291906135f6565b61167c565b604051610454919061359e565b60405180910390f35b34801561046957600080fd5b50610472611694565b60405161047f919061359e565b60405180910390f35b34801561049457600080fd5b506104af60048036038101906104aa919061373e565b611722565b6040516104bc919061377a565b60405180910390f35b3480156104d157600080fd5b506104ec60048036038101906104e791906135f6565b6117da565b60405161050199989796959493929190613974565b60405180910390f35b34801561051657600080fd5b50610531600480360381019061052c91906138ca565b6119a5565b60405161053e91906134ea565b60405180910390f35b34801561055357600080fd5b5061055c6119db565b604051610569919061359e565b60405180910390f35b34801561057e57600080fd5b50610587611a6d565b604051610594919061377a565b60405180910390f35b3480156105a957600080fd5b506105c460048036038101906105bf9190613a3b565b611a73565b005b3480156105d257600080fd5b506105ed60048036038101906105e891906135f6565b611bf4565b005b3480156105fb57600080fd5b50610616600480360381019061061191906138ca565b6120a6565b60405161062391906134ea565b60405180910390f35b34801561063857600080fd5b50610653600480360381019061064e91906135f6565b6120dc565b6040516106609190613664565b60405180910390f35b34801561067557600080fd5b50610690600480360381019061068b9190613adb565b6120f3565b005b34801561069e57600080fd5b506106b960048036038101906106b49190613c3c565b612580565b005b3480156106c757600080fd5b506106e260048036038101906106dd91906135f6565b6125e2565b6040516106ef919061359e565b60405180910390f35b34801561070457600080fd5b5061070d612734565b60405161071a919061377a565b60405180910390f35b34801561072f57600080fd5b50610738612743565b604051610745919061359e565b60405180910390f35b34801561075a57600080fd5b5061077560048036038101906107709190613cbf565b6127d1565b60405161078291906134ea565b60405180910390f35b60007f80ac58cd000000000000000000000000000000000000000000000000000000007bffffffffffffffffffffffffffffffffffffffffffffffffffffffff1916827bffffffffffffffffffffffffffffffffffffffffffffffffffffffff1916148061085657507f5b5e139f000000000000000000000000000000000000000000000000000000007bffffffffffffffffffffffffffffffffffffffffffffffffffffffff1916827bffffffffffffffffffffffffffffffffffffffffffffffffffffffff1916145b80610866575061086582612865565b5b9050919050565b60606000805461087c90613d2e565b80601f01602080910402602001604051908101604052809291908181526020018280546108a890613d2e565b80156108f55780601f106108ca576101008083540402835291602001916108f5565b820191906000526020600020905b8154815290600101906020018083116108d857829003601f168201915b5050505050905090565b600061090a826128cf565b610949576040517f08c379a000000000000000000000000000000000000000000000000000000000815260040161094090613dd2565b60405180910390fd5b6004600083815260200190815260200160002060009054906101000a900473ffffffffffffffffffffffffffffffffffffffff169050919050565b600061098f826115ca565b90508073ffffffffffffffffffffffffffffffffffffffff168373ffffffffffffffffffffffffffffffffffffffff161415610a00576040517f08c379a00000000000000000000000000000000000000000000000000000000081526004016109f790613e64565b60405180910390fd5b8073ffffffffffffffffffffffffffffffffffffffff16610a1f61293b565b73ffffffffffffffffffffffffffffffffffffffff161480610a4e5750610a4d81610a4861293b565b6127d1565b5b610a8d576040517f08c379a0000000000000000000000000000000000000000000000000000000008152600401610a8490613ef6565b60405180910390fd5b610a978383612943565b505050565b600080610aa8836128cf565b905080915050919050565b610ac4610abe61293b565b826129fc565b610b03576040517f08c379a0000000000000000000000000000000000000000000000000000000008152600401610afa90613f88565b60405180910390fd5b610b0e838383612ada565b505050565b600073ffffffffffffffffffffffffffffffffffffffff163373ffffffffffffffffffffffffffffffffffffffff161415610b4d57600080fd5b610b56816128cf565b610b5f57600080fd5b6000610b6a826115ca565b9050600073ffffffffffffffffffffffffffffffffffffffff168173ffffffffffffffffffffffffffffffffffffffff161415610ba657600080fd5b3373ffffffffffffffffffffffffffffffffffffffff168173ffffffffffffffffffffffffffffffffffffffff161415610bdf57600080fd5b6000600a60008481526020019081526020016000206040518061012001604052908160008201548152602001600182018054610c1a90613d2e565b80601f0160208091040260200160405190810160405280929190818152602001828054610c4690613d2e565b8015610c935780601f10610c6857610100808354040283529160200191610c93565b820191906000526020600020905b815481529060010190602001808311610c7657829003601f168201915b50505050508152602001600282018054610cac90613d2e565b80601f0160208091040260200160405190810160405280929190818152602001828054610cd890613d2e565b8015610d255780601f10610cfa57610100808354040283529160200191610d25565b820191906000526020600020905b815481529060010190602001808311610d0857829003601f168201915b505050505081526020016003820160009054906101000a900473ffffffffffffffffffffffffffffffffffffffff1673ffffffffffffffffffffffffffffffffffffffff1673ffffffffffffffffffffffffffffffffffffffff1681526020016004820160009054906101000a900473ffffffffffffffffffffffffffffffffffffffff1673ffffffffffffffffffffffffffffffffffffffff1673ffffffffffffffffffffffffffffffffffffffff1681526020016005820160009054906101000a900473ffffffffffffffffffffffffffffffffffffffff1673ffffffffffffffffffffffffffffffffffffffff1673ffffffffffffffffffffffffffffffffffffffff16815260200160068201548152602001600782015481526020016008820160009054906101000a900460ff16151515158152505090508060c00151341015610e7257600080fd5b806101000151610e8157600080fd5b610e8c823385612ada565b6000816080015190508073ffffffffffffffffffffffffffffffffffffffff166108fc349081150290604051600060405180830381858888f19350505050158015610edb573d6000803e3d6000fd5b5081608001518260a0019073ffffffffffffffffffffffffffffffffffffffff16908173ffffffffffffffffffffffffffffffffffffffff168152505033826080019073ffffffffffffffffffffffffffffffffffffffff16908173ffffffffffffffffffffffffffffffffffffffff168152505060018260e001818151610f639190613fd7565b9150818152505081600a6000868152602001908152602001600020600082015181600001556020820151816001019080519060200190610fa4929190613393565b506040820151816002019080519060200190610fc1929190613393565b5060608201518160030160006101000a81548173ffffffffffffffffffffffffffffffffffffffff021916908373ffffffffffffffffffffffffffffffffffffffff16021790555060808201518160040160006101000a81548173ffffffffffffffffffffffffffffffffffffffff021916908373ffffffffffffffffffffffffffffffffffffffff16021790555060a08201518160050160006101000a81548173ffffffffffffffffffffffffffffffffffffffff021916908373ffffffffffffffffffffffffffffffffffffffff16021790555060c0820151816006015560e082015181600701556101008201518160080160006101000a81548160ff02191690831515021790555090505050505050565b6110f083838360405180602001604052806000815250612580565b505050565b60008061110183611722565b905080915050919050565b600d818051602081018201805184825260208301602085012081835280955050505050506000915054906101000a900460ff1681565b600073ffffffffffffffffffffffffffffffffffffffff163373ffffffffffffffffffffffffffffffffffffffff16141561117c57600080fd5b611185826128cf565b61118e57600080fd5b6000611199836115ca565b90503373ffffffffffffffffffffffffffffffffffffffff168173ffffffffffffffffffffffffffffffffffffffff16146111d357600080fd5b6000600a6000858152602001908152602001600020604051806101200160405290816000820154815260200160018201805461120e90613d2e565b80601f016020809104026020016040519081016040528092919081815260200182805461123a90613d2e565b80156112875780601f1061125c57610100808354040283529160200191611287565b820191906000526020600020905b81548152906001019060200180831161126a57829003601f168201915b505050505081526020016002820180546112a090613d2e565b80601f01602080910402602001604051908101604052809291908181526020018280546112cc90613d2e565b80156113195780601f106112ee57610100808354040283529160200191611319565b820191906000526020600020905b8154815290600101906020018083116112fc57829003601f168201915b505050505081526020016003820160009054906101000a900473ffffffffffffffffffffffffffffffffffffffff1673ffffffffffffffffffffffffffffffffffffffff1673ffffffffffffffffffffffffffffffffffffffff1681526020016004820160009054906101000a900473ffffffffffffffffffffffffffffffffffffffff1673ffffffffffffffffffffffffffffffffffffffff1673ffffffffffffffffffffffffffffffffffffffff1681526020016005820160009054906101000a900473ffffffffffffffffffffffffffffffffffffffff1673ffffffffffffffffffffffffffffffffffffffff1673ffffffffffffffffffffffffffffffffffffffff16815260200160068201548152602001600782015481526020016008820160009054906101000a900460ff1615151515815250509050828160c001818152505080600a6000868152602001908152602001600020600082015181600001556020820151816001019080519060200190611499929190613393565b5060408201518160020190805190602001906114b6929190613393565b5060608201518160030160006101000a81548173ffffffffffffffffffffffffffffffffffffffff021916908373ffffffffffffffffffffffffffffffffffffffff16021790555060808201518160040160006101000a81548173ffffffffffffffffffffffffffffffffffffffff021916908373ffffffffffffffffffffffffffffffffffffffff16021790555060a08201518160050160006101000a81548173ffffffffffffffffffffffffffffffffffffffff021916908373ffffffffffffffffffffffffffffffffffffffff16021790555060c0820151816006015560e082015181600701556101008201518160080160006101000a81548160ff02191690831515021790555090505050505050565b6000806002600084815260200190815260200160002060009054906101000a900473ffffffffffffffffffffffffffffffffffffffff169050600073ffffffffffffffffffffffffffffffffffffffff168173ffffffffffffffffffffffffffffffffffffffff161415611673576040517f08c379a000000000000000000000000000000000000000000000000000000000815260040161166a9061409f565b60405180910390fd5b80915050919050565b60606000611689836125e2565b905080915050919050565b600880546116a190613d2e565b80601f01602080910402602001604051908101604052809291908181526020018280546116cd90613d2e565b801561171a5780601f106116ef5761010080835404028352916020019161171a565b820191906000526020600020905b8154815290600101906020018083116116fd57829003601f168201915b505050505081565b60008073ffffffffffffffffffffffffffffffffffffffff168273ffffffffffffffffffffffffffffffffffffffff161415611793576040517f08c379a000000000000000000000000000000000000000000000000000000000815260040161178a90614131565b60405180910390fd5b600360008373ffffffffffffffffffffffffffffffffffffffff1673ffffffffffffffffffffffffffffffffffffffff168152602001908152602001600020549050919050565b600a60205280600052604060002060009150905080600001549080600101805461180390613d2e565b80601f016020809104026020016040519081016040528092919081815260200182805461182f90613d2e565b801561187c5780601f106118515761010080835404028352916020019161187c565b820191906000526020600020905b81548152906001019060200180831161185f57829003601f168201915b50505050509080600201805461189190613d2e565b80601f01602080910402602001604051908101604052809291908181526020018280546118bd90613d2e565b801561190a5780601f106118df5761010080835404028352916020019161190a565b820191906000526020600020905b8154815290600101906020018083116118ed57829003601f168201915b5050505050908060030160009054906101000a900473ffffffffffffffffffffffffffffffffffffffff16908060040160009054906101000a900473ffffffffffffffffffffffffffffffffffffffff16908060050160009054906101000a900473ffffffffffffffffffffffffffffffffffffffff16908060060154908060070154908060080160009054906101000a900460ff16905089565b600c818051602081018201805184825260208301602085012081835280955050505050506000915054906101000a900460ff1681565b6060600180546119ea90613d2e565b80601f0160208091040260200160405190810160405280929190818152602001828054611a1690613d2e565b8015611a635780601f10611a3857610100808354040283529160200191611a63565b820191906000526020600020905b815481529060010190602001808311611a4657829003601f168201915b5050505050905090565b60095481565b611a7b61293b565b73ffffffffffffffffffffffffffffffffffffffff168273ffffffffffffffffffffffffffffffffffffffff161415611ae9576040517f08c379a0000000000000000000000000000000000000000000000000000000008152600401611ae09061419d565b60405180910390fd5b8060056000611af661293b565b73ffffffffffffffffffffffffffffffffffffffff1673ffffffffffffffffffffffffffffffffffffffff16815260200190815260200160002060008473ffffffffffffffffffffffffffffffffffffffff1673ffffffffffffffffffffffffffffffffffffffff16815260200190815260200160002060006101000a81548160ff0219169083151502179055508173ffffffffffffffffffffffffffffffffffffffff16611ba361293b565b73ffffffffffffffffffffffffffffffffffffffff167f17307eab39ab6107e8899845ad3d59bd9653f200f220920489ca2b5937696c3183604051611be891906134ea565b60405180910390a35050565b600073ffffffffffffffffffffffffffffffffffffffff163373ffffffffffffffffffffffffffffffffffffffff161415611c2e57600080fd5b611c37816128cf565b611c4057600080fd5b6000611c4b826115ca565b90503373ffffffffffffffffffffffffffffffffffffffff168173ffffffffffffffffffffffffffffffffffffffff1614611c8557600080fd5b6000600a60008481526020019081526020016000206040518061012001604052908160008201548152602001600182018054611cc090613d2e565b80601f0160208091040260200160405190810160405280929190818152602001828054611cec90613d2e565b8015611d395780601f10611d0e57610100808354040283529160200191611d39565b820191906000526020600020905b815481529060010190602001808311611d1c57829003601f168201915b50505050508152602001600282018054611d5290613d2e565b80601f0160208091040260200160405190810160405280929190818152602001828054611d7e90613d2e565b8015611dcb5780601f10611da057610100808354040283529160200191611dcb565b820191906000526020600020905b815481529060010190602001808311611dae57829003601f168201915b505050505081526020016003820160009054906101000a900473ffffffffffffffffffffffffffffffffffffffff1673ffffffffffffffffffffffffffffffffffffffff1673ffffffffffffffffffffffffffffffffffffffff1681526020016004820160009054906101000a900473ffffffffffffffffffffffffffffffffffffffff1673ffffffffffffffffffffffffffffffffffffffff1673ffffffffffffffffffffffffffffffffffffffff1681526020016005820160009054906101000a900473ffffffffffffffffffffffffffffffffffffffff1673ffffffffffffffffffffffffffffffffffffffff1673ffffffffffffffffffffffffffffffffffffffff16815260200160068201548152602001600782015481526020016008820160009054906101000a900460ff161515151581525050905080610100015115611f2957600081610100019015159081151581525050611f3c565b6001816101000190151590811515815250505b80600a6000858152602001908152602001600020600082015181600001556020820151816001019080519060200190611f76929190613393565b506040820151816002019080519060200190611f93929190613393565b5060608201518160030160006101000a81548173ffffffffffffffffffffffffffffffffffffffff021916908373ffffffffffffffffffffffffffffffffffffffff16021790555060808201518160040160006101000a81548173ffffffffffffffffffffffffffffffffffffffff021916908373ffffffffffffffffffffffffffffffffffffffff16021790555060a08201518160050160006101000a81548173ffffffffffffffffffffffffffffffffffffffff021916908373ffffffffffffffffffffffffffffffffffffffff16021790555060c0820151816006015560e082015181600701556101008201518160080160006101000a81548160ff021916908315150217905550905050505050565b600b818051602081018201805184825260208301602085012081835280955050505050506000915054906101000a900460ff1681565b6000806120e8836115ca565b905080915050919050565b600073ffffffffffffffffffffffffffffffffffffffff163373ffffffffffffffffffffffffffffffffffffffff16141561212d57600080fd5b60096000815480929190612140906141bd565b91905055506121506009546128cf565b1561215a57600080fd5b60005b828290508110156121d657600c83838381811061217d5761217c614206565b5b905060200281019061218f9190614244565b60405161219d9291906142d7565b908152602001604051809103902060009054906101000a900460ff16156121c357600080fd5b80806121ce906141bd565b91505061215d565b50600d846040516121e79190614321565b908152602001604051809103902060009054906101000a900460ff1615612243576040517f08c379a000000000000000000000000000000000000000000000000000000000815260040161223a90614384565b60405180910390fd5b600b856040516122539190614321565b908152602001604051809103902060009054906101000a900460ff161561227957600080fd5b61228533600954612d36565b61229160095485612f04565b60005b8282905081101561230e576001600c8484848181106122b6576122b5614206565b5b90506020028101906122c89190614244565b6040516122d69291906142d7565b908152602001604051809103902060006101000a81548160ff0219169083151502179055508080612306906141bd565b915050612294565b506001600d856040516123219190614321565b908152602001604051809103902060006101000a81548160ff0219169083151502179055506001600b866040516123589190614321565b908152602001604051809103902060006101000a81548160ff021916908315150217905550600080339050600060405180610120016040528060095481526020018981526020018881526020018373ffffffffffffffffffffffffffffffffffffffff1681526020018373ffffffffffffffffffffffffffffffffffffffff1681526020018473ffffffffffffffffffffffffffffffffffffffff1681526020018781526020016000815260200160011515815250905080600a6000600954815260200190815260200160002060008201518160000155602082015181600101908051906020019061244b929190613393565b506040820151816002019080519060200190612468929190613393565b5060608201518160030160006101000a81548173ffffffffffffffffffffffffffffffffffffffff021916908373ffffffffffffffffffffffffffffffffffffffff16021790555060808201518160040160006101000a81548173ffffffffffffffffffffffffffffffffffffffff021916908373ffffffffffffffffffffffffffffffffffffffff16021790555060a08201518160050160006101000a81548173ffffffffffffffffffffffffffffffffffffffff021916908373ffffffffffffffffffffffffffffffffffffffff16021790555060c0820151816006015560e082015181600701556101008201518160080160006101000a81548160ff0219169083151502179055509050505050505050505050565b61259161258b61293b565b836129fc565b6125d0576040517f08c379a00000000000000000000000000000000000000000000000000000000081526004016125c790613f88565b60405180910390fd5b6125dc84848484612f78565b50505050565b60606125ed826128cf565b61262c576040517f08c379a000000000000000000000000000000000000000000000000000000000815260040161262390614416565b60405180910390fd5b600060066000848152602001908152602001600020805461264c90613d2e565b80601f016020809104026020016040519081016040528092919081815260200182805461267890613d2e565b80156126c55780601f1061269a576101008083540402835291602001916126c5565b820191906000526020600020905b8154815290600101906020018083116126a857829003601f168201915b5050505050905060006126d6612fd4565b90506000815114156126ec57819250505061272f565b600082511115612721578082604051602001612709929190614436565b6040516020818303038152906040529250505061272f565b61272a84612feb565b925050505b919050565b60008060095490508091505090565b6007805461275090613d2e565b80601f016020809104026020016040519081016040528092919081815260200182805461277c90613d2e565b80156127c95780601f1061279e576101008083540402835291602001916127c9565b820191906000526020600020905b8154815290600101906020018083116127ac57829003601f168201915b505050505081565b6000600560008473ffffffffffffffffffffffffffffffffffffffff1673ffffffffffffffffffffffffffffffffffffffff16815260200190815260200160002060008373ffffffffffffffffffffffffffffffffffffffff1673ffffffffffffffffffffffffffffffffffffffff16815260200190815260200160002060009054906101000a900460ff16905092915050565b60007f01ffc9a7000000000000000000000000000000000000000000000000000000007bffffffffffffffffffffffffffffffffffffffffffffffffffffffff1916827bffffffffffffffffffffffffffffffffffffffffffffffffffffffff1916149050919050565b60008073ffffffffffffffffffffffffffffffffffffffff166002600084815260200190815260200160002060009054906101000a900473ffffffffffffffffffffffffffffffffffffffff1673ffffffffffffffffffffffffffffffffffffffff1614159050919050565b600033905090565b816004600083815260200190815260200160002060006101000a81548173ffffffffffffffffffffffffffffffffffffffff021916908373ffffffffffffffffffffffffffffffffffffffff160217905550808273ffffffffffffffffffffffffffffffffffffffff166129b6836115ca565b73ffffffffffffffffffffffffffffffffffffffff167f8c5be1e5ebec7d5bd14f71427d1e84f3dd0314c0f7b2291e5b200ac8c7c3b92560405160405180910390a45050565b6000612a07826128cf565b612a46576040517f08c379a0000000000000000000000000000000000000000000000000000000008152600401612a3d906144cc565b60405180910390fd5b6000612a51836115ca565b90508073ffffffffffffffffffffffffffffffffffffffff168473ffffffffffffffffffffffffffffffffffffffff161480612ac057508373ffffffffffffffffffffffffffffffffffffffff16612aa8846108ff565b73ffffffffffffffffffffffffffffffffffffffff16145b80612ad15750612ad081856127d1565b5b91505092915050565b8273ffffffffffffffffffffffffffffffffffffffff16612afa826115ca565b73ffffffffffffffffffffffffffffffffffffffff1614612b50576040517f08c379a0000000000000000000000000000000000000000000000000000000008152600401612b479061455e565b60405180910390fd5b600073ffffffffffffffffffffffffffffffffffffffff168273ffffffffffffffffffffffffffffffffffffffff161415612bc0576040517f08c379a0000000000000000000000000000000000000000000000000000000008152600401612bb7906145f0565b60405180910390fd5b612bcb838383613092565b612bd6600082612943565b6001600360008573ffffffffffffffffffffffffffffffffffffffff1673ffffffffffffffffffffffffffffffffffffffff1681526020019081526020016000206000828254612c269190614610565b925050819055506001600360008473ffffffffffffffffffffffffffffffffffffffff1673ffffffffffffffffffffffffffffffffffffffff1681526020019081526020016000206000828254612c7d9190613fd7565b92505081905550816002600083815260200190815260200160002060006101000a81548173ffffffffffffffffffffffffffffffffffffffff021916908373ffffffffffffffffffffffffffffffffffffffff160217905550808273ffffffffffffffffffffffffffffffffffffffff168473ffffffffffffffffffffffffffffffffffffffff167fddf252ad1be2c89b69c2b068fc378daa952ba7f163c4a11628f55a4df523b3ef60405160405180910390a4505050565b600073ffffffffffffffffffffffffffffffffffffffff168273ffffffffffffffffffffffffffffffffffffffff161415612da6576040517f08c379a0000000000000000000000000000000000000000000000000000000008152600401612d9d90614690565b60405180910390fd5b612daf816128cf565b15612def576040517f08c379a0000000000000000000000000000000000000000000000000000000008152600401612de6906146fc565b60405180910390fd5b612dfb60008383613092565b6001600360008473ffffffffffffffffffffffffffffffffffffffff1673ffffffffffffffffffffffffffffffffffffffff1681526020019081526020016000206000828254612e4b9190613fd7565b92505081905550816002600083815260200190815260200160002060006101000a81548173ffffffffffffffffffffffffffffffffffffffff021916908373ffffffffffffffffffffffffffffffffffffffff160217905550808273ffffffffffffffffffffffffffffffffffffffff16600073ffffffffffffffffffffffffffffffffffffffff167fddf252ad1be2c89b69c2b068fc378daa952ba7f163c4a11628f55a4df523b3ef60405160405180910390a45050565b612f0d826128cf565b612f4c576040517f08c379a0000000000000000000000000000000000000000000000000000000008152600401612f439061478e565b60405180910390fd5b80600660008481526020019081526020016000209080519060200190612f73929190613393565b505050565b612f83848484612ada565b612f8f84848484613097565b612fce576040517f08c379a0000000000000000000000000000000000000000000000000000000008152600401612fc590614820565b60405180910390fd5b50505050565b606060405180602001604052806000815250905090565b6060612ff6826128cf565b613035576040517f08c379a000000000000000000000000000000000000000000000000000000000815260040161302c906148b2565b60405180910390fd5b600061303f612fd4565b9050600081511161305f576040518060200160405280600081525061308a565b806130698461321f565b60405160200161307a929190614436565b6040516020818303038152906040525b915050919050565b505050565b60006130b88473ffffffffffffffffffffffffffffffffffffffff16613380565b15613212578373ffffffffffffffffffffffffffffffffffffffff1663150b7a026130e161293b565b8786866040518563ffffffff1660e01b81526004016131039493929190614927565b6020604051808303816000875af192505050801561313f57506040513d601f19601f8201168201806040525081019061313c9190614988565b60015b6131c2573d806000811461316f576040519150601f19603f3d011682016040523d82523d6000602084013e613174565b606091505b506000815114156131ba576040517f08c379a00000000000000000000000000000000000000000000000000000000081526004016131b190614820565b60405180910390fd5b805181602001fd5b63150b7a0260e01b7bffffffffffffffffffffffffffffffffffffffffffffffffffffffff1916817bffffffffffffffffffffffffffffffffffffffffffffffffffffffff191614915050613217565b600190505b949350505050565b60606000821415613267576040518060400160405280600181526020017f3000000000000000000000000000000000000000000000000000000000000000815250905061337b565b600082905060005b60008214613299578080613282906141bd565b915050600a8261329291906149e4565b915061326f565b60008167ffffffffffffffff8111156132b5576132b461379f565b5b6040519080825280601f01601f1916602001820160405280156132e75781602001600182028036833780820191505090505b5090505b60008514613374576001826133009190614610565b9150600a8561330f9190614a15565b603061331b9190613fd7565b60f81b81838151811061333157613330614206565b5b60200101907effffffffffffffffffffffffffffffffffffffffffffffffffffffffffffff1916908160001a905350600a8561336d91906149e4565b94506132eb565b8093505050505b919050565b600080823b905060008111915050919050565b82805461339f90613d2e565b90600052602060002090601f0160209004810192826133c15760008555613408565b82601f106133da57805160ff1916838001178555613408565b82800160010185558215613408579182015b828111156134075782518255916020019190600101906133ec565b5b5090506134159190613419565b5090565b5b8082111561343257600081600090555060010161341a565b5090565b6000604051905090565b600080fd5b600080fd5b60007fffffffff0000000000000000000000000000000000000000000000000000000082169050919050565b61347f8161344a565b811461348a57600080fd5b50565b60008135905061349c81613476565b92915050565b6000602082840312156134b8576134b7613440565b5b60006134c68482850161348d565b91505092915050565b60008115159050919050565b6134e4816134cf565b82525050565b60006020820190506134ff60008301846134db565b92915050565b600081519050919050565b600082825260208201905092915050565b60005b8381101561353f578082015181840152602081019050613524565b8381111561354e576000848401525b50505050565b6000601f19601f8301169050919050565b600061357082613505565b61357a8185613510565b935061358a818560208601613521565b61359381613554565b840191505092915050565b600060208201905081810360008301526135b88184613565565b905092915050565b6000819050919050565b6135d3816135c0565b81146135de57600080fd5b50565b6000813590506135f0816135ca565b92915050565b60006020828403121561360c5761360b613440565b5b600061361a848285016135e1565b91505092915050565b600073ffffffffffffffffffffffffffffffffffffffff82169050919050565b600061364e82613623565b9050919050565b61365e81613643565b82525050565b60006020820190506136796000830184613655565b92915050565b61368881613643565b811461369357600080fd5b50565b6000813590506136a58161367f565b92915050565b600080604083850312156136c2576136c1613440565b5b60006136d085828601613696565b92505060206136e1858286016135e1565b9150509250929050565b60008060006060848603121561370457613703613440565b5b600061371286828701613696565b935050602061372386828701613696565b9250506040613734868287016135e1565b9150509250925092565b60006020828403121561375457613753613440565b5b600061376284828501613696565b91505092915050565b613774816135c0565b82525050565b600060208201905061378f600083018461376b565b92915050565b600080fd5b600080fd5b7f4e487b7100000000000000000000000000000000000000000000000000000000600052604160045260246000fd5b6137d782613554565b810181811067ffffffffffffffff821117156137f6576137f561379f565b5b80604052505050565b6000613809613436565b905061381582826137ce565b919050565b600067ffffffffffffffff8211156138355761383461379f565b5b61383e82613554565b9050602081019050919050565b82818337600083830152505050565b600061386d6138688461381a565b6137ff565b9050828152602081018484840111156138895761388861379a565b5b61389484828561384b565b509392505050565b600082601f8301126138b1576138b0613795565b5b81356138c184826020860161385a565b91505092915050565b6000602082840312156138e0576138df613440565b5b600082013567ffffffffffffffff8111156138fe576138fd613445565b5b61390a8482850161389c565b91505092915050565b6000806040838503121561392a57613929613440565b5b6000613938858286016135e1565b9250506020613949858286016135e1565b9150509250929050565b600061395e82613623565b9050919050565b61396e81613953565b82525050565b60006101208201905061398a600083018c61376b565b818103602083015261399c818b613565565b905081810360408301526139b0818a613565565b90506139bf6060830189613965565b6139cc6080830188613965565b6139d960a0830187613965565b6139e660c083018661376b565b6139f360e083018561376b565b613a016101008301846134db565b9a9950505050505050505050565b613a18816134cf565b8114613a2357600080fd5b50565b600081359050613a3581613a0f565b92915050565b60008060408385031215613a5257613a51613440565b5b6000613a6085828601613696565b9250506020613a7185828601613a26565b9150509250929050565b600080fd5b600080fd5b60008083601f840112613a9b57613a9a613795565b5b8235905067ffffffffffffffff811115613ab857613ab7613a7b565b5b602083019150836020820283011115613ad457613ad3613a80565b5b9250929050565b600080600080600060808688031215613af757613af6613440565b5b600086013567ffffffffffffffff811115613b1557613b14613445565b5b613b218882890161389c565b955050602086013567ffffffffffffffff811115613b4257613b41613445565b5b613b4e8882890161389c565b9450506040613b5f888289016135e1565b935050606086013567ffffffffffffffff811115613b8057613b7f613445565b5b613b8c88828901613a85565b92509250509295509295909350565b600067ffffffffffffffff821115613bb657613bb561379f565b5b613bbf82613554565b9050602081019050919050565b6000613bdf613bda84613b9b565b6137ff565b905082815260208101848484011115613bfb57613bfa61379a565b5b613c0684828561384b565b509392505050565b600082601f830112613c2357613c22613795565b5b8135613c33848260208601613bcc565b91505092915050565b60008060008060808587031215613c5657613c55613440565b5b6000613c6487828801613696565b9450506020613c7587828801613696565b9350506040613c86878288016135e1565b925050606085013567ffffffffffffffff811115613ca757613ca6613445565b5b613cb387828801613c0e565b91505092959194509250565b60008060408385031215613cd657613cd5613440565b5b6000613ce485828601613696565b9250506020613cf585828601613696565b9150509250929050565b7f4e487b7100000000000000000000000000000000000000000000000000000000600052602260045260246000fd5b60006002820490506001821680613d4657607f821691505b60208210811415613d5a57613d59613cff565b5b50919050565b7f4552433732313a20617070726f76656420717565727920666f72206e6f6e657860008201527f697374656e7420746f6b656e0000000000000000000000000000000000000000602082015250565b6000613dbc602c83613510565b9150613dc782613d60565b604082019050919050565b60006020820190508181036000830152613deb81613daf565b9050919050565b7f4552433732313a20617070726f76616c20746f2063757272656e74206f776e6560008201527f7200000000000000000000000000000000000000000000000000000000000000602082015250565b6000613e4e602183613510565b9150613e5982613df2565b604082019050919050565b60006020820190508181036000830152613e7d81613e41565b9050919050565b7f4552433732313a20617070726f76652063616c6c6572206973206e6f74206f7760008201527f6e6572206e6f7220617070726f76656420666f7220616c6c0000000000000000602082015250565b6000613ee0603883613510565b9150613eeb82613e84565b604082019050919050565b60006020820190508181036000830152613f0f81613ed3565b9050919050565b7f4552433732313a207472616e736665722063616c6c6572206973206e6f74206f60008201527f776e6572206e6f7220617070726f766564000000000000000000000000000000602082015250565b6000613f72603183613510565b9150613f7d82613f16565b604082019050919050565b60006020820190508181036000830152613fa181613f65565b9050919050565b7f4e487b7100000000000000000000000000000000000000000000000000000000600052601160045260246000fd5b6000613fe2826135c0565b9150613fed836135c0565b9250827fffffffffffffffffffffffffffffffffffffffffffffffffffffffffffffffff0382111561402257614021613fa8565b5b828201905092915050565b7f4552433732313a206f776e657220717565727920666f72206e6f6e657869737460008201527f656e7420746f6b656e0000000000000000000000000000000000000000000000602082015250565b6000614089602983613510565b91506140948261402d565b604082019050919050565b600060208201905081810360008301526140b88161407c565b9050919050565b7f4552433732313a2062616c616e636520717565727920666f7220746865207a6560008201527f726f206164647265737300000000000000000000000000000000000000000000602082015250565b600061411b602a83613510565b9150614126826140bf565b604082019050919050565b6000602082019050818103600083015261414a8161410e565b9050919050565b7f4552433732313a20617070726f766520746f2063616c6c657200000000000000600082015250565b6000614187601983613510565b915061419282614151565b602082019050919050565b600060208201905081810360008301526141b68161417a565b9050919050565b60006141c8826135c0565b91507fffffffffffffffffffffffffffffffffffffffffffffffffffffffffffffffff8214156141fb576141fa613fa8565b5b600182019050919050565b7f4e487b7100000000000000000000000000000000000000000000000000000000600052603260045260246000fd5b600080fd5b600080fd5b600080fd5b6000808335600160200384360303811261426157614260614235565b5b80840192508235915067ffffffffffffffff8211156142835761428261423a565b5b60208301925060018202360383131561429f5761429e61423f565b5b509250929050565b600081905092915050565b60006142be83856142a7565b93506142cb83858461384b565b82840190509392505050565b60006142e48284866142b2565b91508190509392505050565b60006142fb82613505565b61430581856142a7565b9350614315818560208601613521565b80840191505092915050565b600061432d82846142f0565b915081905092915050565b7f746f6b656e2055524920616c7265616479206578697374000000000000000000600082015250565b600061436e601783613510565b915061437982614338565b602082019050919050565b6000602082019050818103600083015261439d81614361565b9050919050565b7f45524337323155524953746f726167653a2055524920717565727920666f722060008201527f6e6f6e6578697374656e7420746f6b656e000000000000000000000000000000602082015250565b6000614400603183613510565b915061440b826143a4565b604082019050919050565b6000602082019050818103600083015261442f816143f3565b9050919050565b600061444282856142f0565b915061444e82846142f0565b91508190509392505050565b7f4552433732313a206f70657261746f7220717565727920666f72206e6f6e657860008201527f697374656e7420746f6b656e0000000000000000000000000000000000000000602082015250565b60006144b6602c83613510565b91506144c18261445a565b604082019050919050565b600060208201905081810360008301526144e5816144a9565b9050919050565b7f4552433732313a207472616e73666572206f6620746f6b656e2074686174206960008201527f73206e6f74206f776e0000000000000000000000000000000000000000000000602082015250565b6000614548602983613510565b9150614553826144ec565b604082019050919050565b600060208201905081810360008301526145778161453b565b9050919050565b7f4552433732313a207472616e7366657220746f20746865207a65726f2061646460008201527f7265737300000000000000000000000000000000000000000000000000000000602082015250565b60006145da602483613510565b91506145e58261457e565b604082019050919050565b60006020820190508181036000830152614609816145cd565b9050919050565b600061461b826135c0565b9150614626836135c0565b92508282101561463957614638613fa8565b5b828203905092915050565b7f4552433732313a206d696e7420746f20746865207a65726f2061646472657373600082015250565b600061467a602083613510565b915061468582614644565b602082019050919050565b600060208201905081810360008301526146a98161466d565b9050919050565b7f4552433732313a20746f6b656e20616c7265616479206d696e74656400000000600082015250565b60006146e6601c83613510565b91506146f1826146b0565b602082019050919050565b60006020820190508181036000830152614715816146d9565b9050919050565b7f45524337323155524953746f726167653a2055524920736574206f66206e6f6e60008201527f6578697374656e7420746f6b656e000000000000000000000000000000000000602082015250565b6000614778602e83613510565b91506147838261471c565b604082019050919050565b600060208201905081810360008301526147a78161476b565b9050919050565b7f4552433732313a207472616e7366657220746f206e6f6e20455243373231526560008201527f63656976657220696d706c656d656e7465720000000000000000000000000000602082015250565b600061480a603283613510565b9150614815826147ae565b604082019050919050565b60006020820190508181036000830152614839816147fd565b9050919050565b7f4552433732314d657461646174613a2055524920717565727920666f72206e6f60008201527f6e6578697374656e7420746f6b656e0000000000000000000000000000000000602082015250565b600061489c602f83613510565b91506148a782614840565b604082019050919050565b600060208201905081810360008301526148cb8161488f565b9050919050565b600081519050919050565b600082825260208201905092915050565b60006148f9826148d2565b61490381856148dd565b9350614913818560208601613521565b61491c81613554565b840191505092915050565b600060808201905061493c6000830187613655565b6149496020830186613655565b614956604083018561376b565b818103606083015261496881846148ee565b905095945050505050565b60008151905061498281613476565b92915050565b60006020828403121561499e5761499d613440565b5b60006149ac84828501614973565b91505092915050565b7f4e487b7100000000000000000000000000000000000000000000000000000000600052601260045260246000fd5b60006149ef826135c0565b91506149fa836135c0565b925082614a0a57614a096149b5565b5b828204905092915050565b6000614a20826135c0565b9150614a2b836135c0565b925082614a3b57614a3a6149b5565b5b82820690509291505056fea26469706673582212203300bff74d7dee664f96f7438a247d3349941138f1490f3f2066cf09c1d8710e64736f6c634300080a0033",
  "immutableReferences": {},
  "source": "// SPDX-License-Identifier: MIT\npragma solidity ^0.8.0;\n//pragma abicoder v2;\n\n// import ERC721 iterface\nimport \"@openzeppelin/contracts/utils/Counters.sol\";\nimport \"@openzeppelin/contracts/token/ERC721/extensions/ERC721URIStorage.sol\";\nimport \"@openzeppelin/contracts/token/ERC721/ERC721.sol\";\nimport \"@openzeppelin/contracts/token/ERC721/IERC721.sol\";\n//import  \"@openzeppelin-solidity/contracts/token/ERC721/ERC721Full.sol\";\nimport \"@openzeppelin/contracts/token/ERC721/IERC721Receiver.sol\";\nimport \"@openzeppelin/contracts/token/ERC721/extensions/IERC721Metadata.sol\";\nimport \"@openzeppelin/contracts/utils/Address.sol\";\nimport \"@openzeppelin/contracts/utils/Context.sol\";\nimport \"@openzeppelin/contracts/utils/Strings.sol\";\nimport \"@openzeppelin/contracts/utils/introspection/ERC165.sol\";\n//import \"@openzeppelin/contracts/token/ERC721/extensions/IERC721Enumerable.sol\";\n\n// NFTStaking smart contract inherits ERC721 interface\ncontract NFTStaking is ERC721URIStorage  {\n\n  // this contract's token collection name\n  string public  collectionName;\n  // this contract's token symbol\n  string public  collectionNameSymbol;\n  // total number of crypto boys minted\n  uint256 public nftStakingCounter;\n\n \n\n\n  event collectoinNameEvent(string _name);\n\n  // define crypto boy struct\n   struct Staking {\n    uint256 tokenId;\n    string tokenName;\n    string tokenURI;\n    address payable mintedBy;\n    address payable currentOwner;\n    address payable previousOwner;\n    uint256 price;\n    uint256 numberOfTransfers;\n    bool forSale;\n  }\n\n\n  // map staking's token id to crypto boy\n  mapping(uint256 => Staking) public allNFTStaking;\n  // check if token name exists\n  mapping(string => bool) public tokenNameExists;\n  // check if color exists\n  mapping(string => bool) public colorExists;\n  // check if token URI exists\n  mapping(string => bool) public tokenURIExists;\n\n  // initialize contract while deployment with contract's collection name and token\n  //constructor() ERC721(\"Crypto Boys Collection\", \"CB\")\n  constructor(string memory _name, string memory _symbol) ERC721(\"Crypto Boys Collection\", \"CB\")\n  {\n    collectionName = _name;\n   \n    collectionNameSymbol = _symbol; \n  } \n\n\n  // mint a new crypto boy\n  function mintStaking(string memory _name, string memory _tokenURI, uint256 _price, string[] calldata _colors) external {\n    // check if thic fucntion caller is not an zero address account\n    require(msg.sender != address(0));\n    // increment counter\n    nftStakingCounter ++;\n    // check if a token exists with the above token id => incremented counter\n    require(!_exists(nftStakingCounter));\n\n    // loop through the colors passed and check if each colors already exists or not\n    for(uint i=0; i<_colors.length; i++) {\n      require(!colorExists[_colors[i]]);\n    }\n    // check if the token URI already exists or not\n    require(!tokenURIExists[_tokenURI],\"token URI already exist\");\n    // check if the token name already exists or not\n    require(!tokenNameExists[_name]);\n\n    // mint the token\n    _mint(msg.sender, nftStakingCounter);\n    // set token URI (bind token id with the passed in token URI)\n    _setTokenURI(nftStakingCounter, _tokenURI);\n\n    // loop through the colors passed and make each of the colors as exists since the token is already minted\n    for (uint i=0; i<_colors.length; i++) {\n      colorExists[_colors[i]] = true;\n    }\n    // make passed token URI as exists\n    tokenURIExists[_tokenURI] = true;\n    // make token name passed as exists\n    tokenNameExists[_name] = true;\n\n    // creat a new crypto boy (struct) and pass in new values\n    address payable zero  = payable (address(0));\n    address payable sender  = payable (msg.sender);\n    Staking memory newStaking = Staking(\n    nftStakingCounter,\n    _name,\n    _tokenURI,\n    sender,\n    sender,\n    zero,\n    _price,\n    0,\n    true);\n    // add the token id and it's crypto boy to all crypto boys mapping\n    allNFTStaking[nftStakingCounter] = newStaking;\n  }\n\n  // get owner of the token\n  function getTokenOwner(uint256 _tokenId) public view returns(address) {\n    address _tokenOwner = ownerOf(_tokenId);\n    return _tokenOwner;\n  }\n\n  // get metadata of the token\n  function getTokenMetaData(uint _tokenId) public view returns(string memory) {\n    string memory tokenMetaData = tokenURI(_tokenId);\n    return tokenMetaData;\n  }\n\n  // get total number of tokens minted so far\n  function getNumberOfTokensMinted() public view returns(uint256) {\n    uint256 totalNumberOfTokensMinted = nftStakingCounter;\n    return totalNumberOfTokensMinted;\n  }\n\n  // get total number of tokens owned by an address\n  function getTotalNumberOfTokensOwnedByAnAddress(address _owner) public view returns(uint256) {\n    uint256 totalNumberOfTokensOwned = balanceOf(_owner);\n    return totalNumberOfTokensOwned;\n  }\n\n  // check if the token already exists\n  function getTokenExists(uint256 _tokenId) public view returns(bool) {\n    bool tokenExists = _exists(_tokenId);\n    return tokenExists;\n  }\n\n  // by a token by passing in the token's id\n  function buyToken(uint256 _tokenId) public payable {\n    // check if the function caller is not an zero account address\n    require(msg.sender != address(0));\n    // check if the token id of the token being bought exists or not\n    require(_exists(_tokenId));\n    // get the token's owner\n    address tokenOwner = ownerOf(_tokenId);\n    // token's owner should not be an zero address account\n    require(tokenOwner != address(0));\n    // the one who wants to buy the token should not be the token's owner\n    require(tokenOwner != msg.sender);\n    // get that token from all crypto boys mapping and create a memory of it defined as (struct => Staking)\n    Staking memory staking = allNFTStaking[_tokenId];\n    // price sent in to buy should be equal to or more than the token's price\n    require(msg.value >= staking.price);\n    // token should be for sale\n    require(staking.forSale);\n    // transfer the token from owner to the caller of the function (buyer)\n    _transfer(tokenOwner, msg.sender, _tokenId);\n    // get owner of the token\n    address payable sendTo = staking.currentOwner;\n    // send token's worth of ethers to the owner\n    sendTo.transfer(msg.value);\n    // update the token's previous owner\n    staking.previousOwner = staking.currentOwner;\n    // update the token's current owner\n    staking.currentOwner = payable (msg.sender);\n    // update the how many times this token was transfered\n    staking.numberOfTransfers += 1;\n    // set and update that token in the mapping\n    allNFTStaking[_tokenId] = staking;\n  }\n\n  function changeTokenPrice(uint256 _tokenId, uint256 _newPrice) public {\n    // require caller of the function is not an empty address\n    require(msg.sender != address(0));\n    // require that token should exist\n    require(_exists(_tokenId));\n    // get the token's owner\n    address tokenOwner = ownerOf(_tokenId);\n    // check that token's owner should be equal to the caller of the function\n    require(tokenOwner == msg.sender);\n    // get that token from all crypto boys mapping and create a memory of it defined as (struct => Staking)\n    Staking memory staking = allNFTStaking[_tokenId];\n    // update token's price with new price\n    staking.price = _newPrice;\n    // set and update that token in the mapping\n    allNFTStaking[_tokenId] = staking;\n  }\n\n  // switch between set for sale and set not for sale\n  function toggleForSale(uint256 _tokenId) public {\n    // require caller of the function is not an empty address\n    require(msg.sender != address(0));\n    // require that token should exist\n    require(_exists(_tokenId));\n    // get the token's owner\n    address tokenOwner = ownerOf(_tokenId);\n    // check that token's owner should be equal to the caller of the function\n    require(tokenOwner == msg.sender);\n    // get that token from all crypto boys mapping and create a memory of it defined as (struct => Staking)\n    Staking memory staking = allNFTStaking[_tokenId];\n    // if token's forSale is false make it true and vice versa\n    if(staking.forSale) {\n      staking.forSale = false;\n    } else {\n      staking.forSale = true;\n    }\n    // set and update that token in the mapping\n    allNFTStaking[_tokenId] = staking;\n  }\n}\n\n",
  "sourcePath": "/home/ubuntu/Consensys/blockchain-developer-bootcamp-final-project/contracts/NFTStaking.sol",
  "compiler": {
    "name": "solc",
    "version": "0.8.10+commit.fc410830.Emscripten.clang"
  },
  "schemaVersion": "3.4.3",
  "updatedAt": "2021-12-01T13:16:26.875Z",
  "networkType": "ethereum",
  "devdoc": {
    "kind": "dev",
    "methods": {
      "approve(address,uint256)": {
        "details": "See {IERC721-approve}."
      },
      "balanceOf(address)": {
        "details": "See {IERC721-balanceOf}."
      },
      "getApproved(uint256)": {
        "details": "See {IERC721-getApproved}."
      },
      "isApprovedForAll(address,address)": {
        "details": "See {IERC721-isApprovedForAll}."
      },
      "name()": {
        "details": "See {IERC721Metadata-name}."
      },
      "ownerOf(uint256)": {
        "details": "See {IERC721-ownerOf}."
      },
      "safeTransferFrom(address,address,uint256)": {
        "details": "See {IERC721-safeTransferFrom}."
      },
      "safeTransferFrom(address,address,uint256,bytes)": {
        "details": "See {IERC721-safeTransferFrom}."
      },
      "setApprovalForAll(address,bool)": {
        "details": "See {IERC721-setApprovalForAll}."
      },
      "supportsInterface(bytes4)": {
        "details": "See {IERC165-supportsInterface}."
      },
      "symbol()": {
        "details": "See {IERC721Metadata-symbol}."
      },
      "tokenURI(uint256)": {
        "details": "See {IERC721Metadata-tokenURI}."
      },
      "transferFrom(address,address,uint256)": {
        "details": "See {IERC721-transferFrom}."
      }
    },
    "version": 1
  },
  "userdoc": {
    "kind": "user",
    "methods": {},
    "version": 1
  }
}