{
  "contractName": "NFTStaking",
  "abi": [
    {
      "inputs": [
        {
          "internalType": "string",
          "name": "_name",
          "type": "string"
        },
        {
          "internalType": "string",
          "name": "_symbol",
          "type": "string"
        }
      ],
      "stateMutability": "nonpayable",
      "type": "constructor"
    },
    {
      "anonymous": false,
      "inputs": [
        {
          "indexed": true,
          "internalType": "address",
          "name": "owner",
          "type": "address"
        },
        {
          "indexed": true,
          "internalType": "address",
          "name": "approved",
          "type": "address"
        },
        {
          "indexed": true,
          "internalType": "uint256",
          "name": "tokenId",
          "type": "uint256"
        }
      ],
      "name": "Approval",
      "type": "event"
    },
    {
      "anonymous": false,
      "inputs": [
        {
          "indexed": true,
          "internalType": "address",
          "name": "owner",
          "type": "address"
        },
        {
          "indexed": true,
          "internalType": "address",
          "name": "operator",
          "type": "address"
        },
        {
          "indexed": false,
          "internalType": "bool",
          "name": "approved",
          "type": "bool"
        }
      ],
      "name": "ApprovalForAll",
      "type": "event"
    },
    {
      "anonymous": false,
      "inputs": [
        {
          "indexed": true,
          "internalType": "address",
          "name": "from",
          "type": "address"
        },
        {
          "indexed": true,
          "internalType": "address",
          "name": "to",
          "type": "address"
        },
        {
          "indexed": true,
          "internalType": "uint256",
          "name": "tokenId",
          "type": "uint256"
        }
      ],
      "name": "Transfer",
      "type": "event"
    },
    {
      "anonymous": false,
      "inputs": [
        {
          "indexed": false,
          "internalType": "string",
          "name": "_name",
          "type": "string"
        }
      ],
      "name": "collectoinNameEvent",
      "type": "event"
    },
    {
      "inputs": [
        {
          "internalType": "uint256",
          "name": "",
          "type": "uint256"
        }
      ],
      "name": "allNFTStaking",
      "outputs": [
        {
          "internalType": "uint256",
          "name": "tokenId",
          "type": "uint256"
        },
        {
          "internalType": "string",
          "name": "tokenName",
          "type": "string"
        },
        {
          "internalType": "string",
          "name": "tokenURI",
          "type": "string"
        },
        {
          "internalType": "address payable",
          "name": "mintedBy",
          "type": "address"
        },
        {
          "internalType": "address payable",
          "name": "currentOwner",
          "type": "address"
        },
        {
          "internalType": "address payable",
          "name": "previousOwner",
          "type": "address"
        },
        {
          "internalType": "bool",
          "name": "staked",
          "type": "bool"
        },
        {
          "internalType": "uint256",
          "name": "price",
          "type": "uint256"
        },
        {
          "internalType": "uint256",
          "name": "numberOfTransfers",
          "type": "uint256"
        },
        {
          "internalType": "bool",
          "name": "forSale",
          "type": "bool"
        }
      ],
      "stateMutability": "view",
      "type": "function"
    },
    {
      "inputs": [
        {
          "internalType": "address",
          "name": "to",
          "type": "address"
        },
        {
          "internalType": "uint256",
          "name": "tokenId",
          "type": "uint256"
        }
      ],
      "name": "approve",
      "outputs": [],
      "stateMutability": "nonpayable",
      "type": "function"
    },
    {
      "inputs": [
        {
          "internalType": "address",
          "name": "owner",
          "type": "address"
        }
      ],
      "name": "balanceOf",
      "outputs": [
        {
          "internalType": "uint256",
          "name": "",
          "type": "uint256"
        }
      ],
      "stateMutability": "view",
      "type": "function"
    },
    {
      "inputs": [],
      "name": "collectionName",
      "outputs": [
        {
          "internalType": "string",
          "name": "",
          "type": "string"
        }
      ],
      "stateMutability": "view",
      "type": "function"
    },
    {
      "inputs": [],
      "name": "collectionNameSymbol",
      "outputs": [
        {
          "internalType": "string",
          "name": "",
          "type": "string"
        }
      ],
      "stateMutability": "view",
      "type": "function"
    },
    {
      "inputs": [
        {
          "internalType": "uint256",
          "name": "tokenId",
          "type": "uint256"
        }
      ],
      "name": "getApproved",
      "outputs": [
        {
          "internalType": "address",
          "name": "",
          "type": "address"
        }
      ],
      "stateMutability": "view",
      "type": "function"
    },
    {
      "inputs": [
        {
          "internalType": "address",
          "name": "owner",
          "type": "address"
        },
        {
          "internalType": "address",
          "name": "operator",
          "type": "address"
        }
      ],
      "name": "isApprovedForAll",
      "outputs": [
        {
          "internalType": "bool",
          "name": "",
          "type": "bool"
        }
      ],
      "stateMutability": "view",
      "type": "function"
    },
    {
      "inputs": [],
      "name": "name",
      "outputs": [
        {
          "internalType": "string",
          "name": "",
          "type": "string"
        }
      ],
      "stateMutability": "view",
      "type": "function"
    },
    {
      "inputs": [],
      "name": "nftStakingCounter",
      "outputs": [
        {
          "internalType": "uint256",
          "name": "",
          "type": "uint256"
        }
      ],
      "stateMutability": "view",
      "type": "function"
    },
    {
      "inputs": [
        {
          "internalType": "uint256",
          "name": "tokenId",
          "type": "uint256"
        }
      ],
      "name": "ownerOf",
      "outputs": [
        {
          "internalType": "address",
          "name": "",
          "type": "address"
        }
      ],
      "stateMutability": "view",
      "type": "function"
    },
    {
      "inputs": [
        {
          "internalType": "address",
          "name": "from",
          "type": "address"
        },
        {
          "internalType": "address",
          "name": "to",
          "type": "address"
        },
        {
          "internalType": "uint256",
          "name": "tokenId",
          "type": "uint256"
        }
      ],
      "name": "safeTransferFrom",
      "outputs": [],
      "stateMutability": "nonpayable",
      "type": "function"
    },
    {
      "inputs": [
        {
          "internalType": "address",
          "name": "from",
          "type": "address"
        },
        {
          "internalType": "address",
          "name": "to",
          "type": "address"
        },
        {
          "internalType": "uint256",
          "name": "tokenId",
          "type": "uint256"
        },
        {
          "internalType": "bytes",
          "name": "_data",
          "type": "bytes"
        }
      ],
      "name": "safeTransferFrom",
      "outputs": [],
      "stateMutability": "nonpayable",
      "type": "function"
    },
    {
      "inputs": [
        {
          "internalType": "address",
          "name": "operator",
          "type": "address"
        },
        {
          "internalType": "bool",
          "name": "approved",
          "type": "bool"
        }
      ],
      "name": "setApprovalForAll",
      "outputs": [],
      "stateMutability": "nonpayable",
      "type": "function"
    },
    {
      "inputs": [
        {
          "internalType": "bytes4",
          "name": "interfaceId",
          "type": "bytes4"
        }
      ],
      "name": "supportsInterface",
      "outputs": [
        {
          "internalType": "bool",
          "name": "",
          "type": "bool"
        }
      ],
      "stateMutability": "view",
      "type": "function"
    },
    {
      "inputs": [],
      "name": "symbol",
      "outputs": [
        {
          "internalType": "string",
          "name": "",
          "type": "string"
        }
      ],
      "stateMutability": "view",
      "type": "function"
    },
    {
      "inputs": [
        {
          "internalType": "string",
          "name": "",
          "type": "string"
        }
      ],
      "name": "tokenNameExists",
      "outputs": [
        {
          "internalType": "bool",
          "name": "",
          "type": "bool"
        }
      ],
      "stateMutability": "view",
      "type": "function"
    },
    {
      "inputs": [
        {
          "internalType": "uint256",
          "name": "tokenId",
          "type": "uint256"
        }
      ],
      "name": "tokenURI",
      "outputs": [
        {
          "internalType": "string",
          "name": "",
          "type": "string"
        }
      ],
      "stateMutability": "view",
      "type": "function"
    },
    {
      "inputs": [
        {
          "internalType": "string",
          "name": "",
          "type": "string"
        }
      ],
      "name": "tokenURIExists",
      "outputs": [
        {
          "internalType": "bool",
          "name": "",
          "type": "bool"
        }
      ],
      "stateMutability": "view",
      "type": "function"
    },
    {
      "inputs": [
        {
          "internalType": "address",
          "name": "from",
          "type": "address"
        },
        {
          "internalType": "address",
          "name": "to",
          "type": "address"
        },
        {
          "internalType": "uint256",
          "name": "tokenId",
          "type": "uint256"
        }
      ],
      "name": "transferFrom",
      "outputs": [],
      "stateMutability": "nonpayable",
      "type": "function"
    },
    {
      "inputs": [
        {
          "internalType": "string",
          "name": "_name",
          "type": "string"
        },
        {
          "internalType": "string",
          "name": "_tokenURI",
          "type": "string"
        },
        {
          "internalType": "uint256",
          "name": "_price",
          "type": "uint256"
        }
      ],
      "name": "mintStaking",
      "outputs": [],
      "stateMutability": "nonpayable",
      "type": "function"
    },
    {
      "inputs": [
        {
          "internalType": "uint256",
          "name": "_tokenId",
          "type": "uint256"
        }
      ],
      "name": "getTokenOwner",
      "outputs": [
        {
          "internalType": "address",
          "name": "",
          "type": "address"
        }
      ],
      "stateMutability": "view",
      "type": "function"
    },
    {
      "inputs": [
        {
          "internalType": "uint256",
          "name": "_tokenId",
          "type": "uint256"
        }
      ],
      "name": "getTokenMetaData",
      "outputs": [
        {
          "internalType": "string",
          "name": "",
          "type": "string"
        }
      ],
      "stateMutability": "view",
      "type": "function"
    },
    {
      "inputs": [
        {
          "internalType": "uint256",
          "name": "_tokenId",
          "type": "uint256"
        }
      ],
      "name": "getTokenName",
      "outputs": [
        {
          "internalType": "string",
          "name": "",
          "type": "string"
        }
      ],
      "stateMutability": "view",
      "type": "function"
    },
    {
      "inputs": [
        {
          "internalType": "uint256",
          "name": "_tokenId",
          "type": "uint256"
        }
      ],
      "name": "getTokenPrice",
      "outputs": [
        {
          "internalType": "uint256",
          "name": "",
          "type": "uint256"
        }
      ],
      "stateMutability": "view",
      "type": "function"
    },
    {
      "inputs": [],
      "name": "getNumberOfTokensMinted",
      "outputs": [
        {
          "internalType": "uint256",
          "name": "",
          "type": "uint256"
        }
      ],
      "stateMutability": "view",
      "type": "function"
    },
    {
      "inputs": [
        {
          "internalType": "address",
          "name": "_owner",
          "type": "address"
        }
      ],
      "name": "getTotalNumberOfTokensOwnedByAnAddress",
      "outputs": [
        {
          "internalType": "uint256",
          "name": "",
          "type": "uint256"
        }
      ],
      "stateMutability": "view",
      "type": "function"
    },
    {
      "inputs": [
        {
          "internalType": "uint256",
          "name": "_tokenId",
          "type": "uint256"
        }
      ],
      "name": "getTokenExists",
      "outputs": [
        {
          "internalType": "bool",
          "name": "",
          "type": "bool"
        }
      ],
      "stateMutability": "view",
      "type": "function"
    },
    {
      "inputs": [
        {
          "internalType": "uint256",
          "name": "_tokenId",
          "type": "uint256"
        }
      ],
      "name": "buyToken",
      "outputs": [],
      "stateMutability": "payable",
      "type": "function"
    },
    {
      "inputs": [
        {
          "internalType": "uint256",
          "name": "_tokenId",
          "type": "uint256"
        },
        {
          "internalType": "uint256",
          "name": "_newPrice",
          "type": "uint256"
        }
      ],
      "name": "changeTokenPrice",
      "outputs": [],
      "stateMutability": "nonpayable",
      "type": "function"
    },
    {
      "inputs": [
        {
          "internalType": "uint256",
          "name": "_tokenId",
          "type": "uint256"
        }
      ],
      "name": "toggleForSale",
      "outputs": [],
      "stateMutability": "nonpayable",
      "type": "function"
    },
    {
      "inputs": [
        {
          "internalType": "uint256",
          "name": "_tokenId",
          "type": "uint256"
        }
      ],
      "name": "createStake",
      "outputs": [],
      "stateMutability": "nonpayable",
      "type": "function"
    },
    {
      "inputs": [
        {
          "internalType": "uint256",
          "name": "_tokenId",
          "type": "uint256"
        }
      ],
      "name": "removeStake",
      "outputs": [],
      "stateMutability": "nonpayable",
      "type": "function"
    },
    {
      "inputs": [
        {
          "internalType": "address",
          "name": "_stakeholder",
          "type": "address"
        }
      ],
      "name": "addStakeholder",
      "outputs": [],
      "stateMutability": "nonpayable",
      "type": "function"
    },
    {
      "inputs": [
        {
          "internalType": "address",
          "name": "_address",
          "type": "address"
        }
      ],
      "name": "isStakeholder",
      "outputs": [
        {
          "internalType": "bool",
          "name": "",
          "type": "bool"
        },
        {
          "internalType": "uint256",
          "name": "",
          "type": "uint256"
        }
      ],
      "stateMutability": "view",
      "type": "function"
    },
    {
      "inputs": [
        {
          "internalType": "address",
          "name": "_stakeholder",
          "type": "address"
        }
      ],
      "name": "removeStakeholder",
      "outputs": [],
      "stateMutability": "nonpayable",
      "type": "function"
    }
  ],
  "bytecode": "0x60806040523480156200001157600080fd5b50604051620065d4380380620065d483398181016040528101906200003791906200035e565b6040518060400160405280601681526020017f5374616b696e67204e465420436f6c6c656374696f6e000000000000000000008152506040518060400160405280600781526020017f5374616b696e67000000000000000000000000000000000000000000000000008152508160009080519060200190620000bb92919062000111565b508060019080519060200190620000d492919062000111565b5050508160079080519060200190620000ef92919062000111565b5080600890805190602001906200010892919062000111565b50505062000448565b8280546200011f9062000412565b90600052602060002090601f0160209004810192826200014357600085556200018f565b82601f106200015e57805160ff19168380011785556200018f565b828001600101855582156200018f579182015b828111156200018e57825182559160200191906001019062000171565b5b5090506200019e9190620001a2565b5090565b5b80821115620001bd576000816000905550600101620001a3565b5090565b6000604051905090565b600080fd5b600080fd5b600080fd5b600080fd5b6000601f19601f8301169050919050565b7f4e487b7100000000000000000000000000000000000000000000000000000000600052604160045260246000fd5b6200022a82620001df565b810181811067ffffffffffffffff821117156200024c576200024b620001f0565b5b80604052505050565b600062000261620001c1565b90506200026f82826200021f565b919050565b600067ffffffffffffffff821115620002925762000291620001f0565b5b6200029d82620001df565b9050602081019050919050565b60005b83811015620002ca578082015181840152602081019050620002ad565b83811115620002da576000848401525b50505050565b6000620002f7620002f18462000274565b62000255565b905082815260208101848484011115620003165762000315620001da565b5b62000323848285620002aa565b509392505050565b600082601f830112620003435762000342620001d5565b5b815162000355848260208601620002e0565b91505092915050565b60008060408385031215620003785762000377620001cb565b5b600083015167ffffffffffffffff811115620003995762000398620001d0565b5b620003a7858286016200032b565b925050602083015167ffffffffffffffff811115620003cb57620003ca620001d0565b5b620003d9858286016200032b565b9150509250929050565b7f4e487b7100000000000000000000000000000000000000000000000000000000600052602260045260246000fd5b600060028204905060018216806200042b57607f821691505b60208210811415620004425762000441620003e3565b5b50919050565b61617c80620004586000396000f3fe6080604052600436106102045760003560e01c806379d56e5811610118578063bcb0c2d7116100a0578063dbe16c071161006f578063dbe16c07146107e1578063e5326ab11461081e578063e5c42fd114610849578063e985e9c514610872578063ef037b90146108af57610204565b8063bcb0c2d714610713578063c457fb371461073c578063c87b56dd14610779578063cc151f3a146107b657610204565b8063a22cb465116100e7578063a22cb4651461061e578063a32018b914610647578063a46b1fac14610670578063a5cd761f146106ad578063b88d4fde146106ea57610204565b806379d56e5814610559578063939624ab1461059f57806395d89b41146105c85780639c859bfb146105f357610204565b806342842e0e1161019b5780636352211e1161016a5780636352211e1461044e57806367c623cf1461048b5780636db5418b146104c85780636f9507f9146104f157806370a082311461051c57610204565b806342842e0e1461038257806343902850146103ab57806343d32ae7146103e857806362e8e8ac1461042557610204565b8063142687f3116101d7578063142687f3146102d75780631bf6ddae1461031457806323b872dd1461033d5780632d296bf11461036657610204565b806301ffc9a71461020957806306fdde0314610246578063081812fc14610271578063095ea7b3146102ae575b600080fd5b34801561021557600080fd5b50610230600480360381019061022b919061493a565b6108ed565b60405161023d9190614982565b60405180910390f35b34801561025257600080fd5b5061025b6109cf565b6040516102689190614a36565b60405180910390f35b34801561027d57600080fd5b5061029860048036038101906102939190614a8e565b610a61565b6040516102a59190614afc565b60405180910390f35b3480156102ba57600080fd5b506102d560048036038101906102d09190614b43565b610ae6565b005b3480156102e357600080fd5b506102fe60048036038101906102f99190614a8e565b610bfe565b60405161030b9190614982565b60405180910390f35b34801561032057600080fd5b5061033b60048036038101906103369190614a8e565b610c15565b005b34801561034957600080fd5b50610364600480360381019061035f9190614b83565b6110ff565b005b610380600480360381019061037b9190614a8e565b61115f565b005b34801561038e57600080fd5b506103a960048036038101906103a49190614b83565b611794565b005b3480156103b757600080fd5b506103d260048036038101906103cd9190614bd6565b6117b4565b6040516103df9190614c12565b60405180910390f35b3480156103f457600080fd5b5061040f600480360381019061040a9190614d62565b6117cb565b60405161041c9190614982565b60405180910390f35b34801561043157600080fd5b5061044c60048036038101906104479190614dab565b611801565b005b34801561045a57600080fd5b5061047560048036038101906104709190614a8e565b611d31565b6040516104829190614afc565b60405180910390f35b34801561049757600080fd5b506104b260048036038101906104ad9190614a8e565b611de3565b6040516104bf9190614a36565b60405180910390f35b3480156104d457600080fd5b506104ef60048036038101906104ea9190614deb565b611dfb565b005b3480156104fd57600080fd5b50610506612221565b6040516105139190614a36565b60405180910390f35b34801561052857600080fd5b50610543600480360381019061053e9190614bd6565b6122af565b6040516105509190614c12565b60405180910390f35b34801561056557600080fd5b50610580600480360381019061057b9190614a8e565b612367565b6040516105969a99989796959493929190614e97565b60405180910390f35b3480156105ab57600080fd5b506105c660048036038101906105c19190614a8e565b612545565b005b3480156105d457600080fd5b506105dd612aa1565b6040516105ea9190614a36565b60405180910390f35b3480156105ff57600080fd5b50610608612b33565b6040516106159190614c12565b60405180910390f35b34801561062a57600080fd5b5061064560048036038101906106409190614f6d565b612b39565b005b34801561065357600080fd5b5061066e60048036038101906106699190614a8e565b612cba565b005b34801561067c57600080fd5b5061069760048036038101906106929190614d62565b6131bd565b6040516106a49190614982565b60405180910390f35b3480156106b957600080fd5b506106d460048036038101906106cf9190614a8e565b6131f3565b6040516106e19190614afc565b60405180910390f35b3480156106f657600080fd5b50610711600480360381019061070c919061504e565b61320a565b005b34801561071f57600080fd5b5061073a60048036038101906107359190614bd6565b61326c565b005b34801561074857600080fd5b50610763600480360381019061075e9190614a8e565b61337b565b6040516107709190614c12565b60405180910390f35b34801561078557600080fd5b506107a0600480360381019061079b9190614a8e565b613626565b6040516107ad9190614a36565b60405180910390f35b3480156107c257600080fd5b506107cb613778565b6040516107d89190614c12565b60405180910390f35b3480156107ed57600080fd5b5061080860048036038101906108039190614a8e565b613787565b6040516108159190614a36565b60405180910390f35b34801561082a57600080fd5b50610833613a33565b6040516108409190614a36565b60405180910390f35b34801561085557600080fd5b50610870600480360381019061086b9190614bd6565b613ac1565b005b34801561087e57600080fd5b50610899600480360381019061089491906150d1565b613b3c565b6040516108a69190614982565b60405180910390f35b3480156108bb57600080fd5b506108d660048036038101906108d19190614bd6565b613bd0565b6040516108e4929190615111565b60405180910390f35b60007f80ac58cd000000000000000000000000000000000000000000000000000000007bffffffffffffffffffffffffffffffffffffffffffffffffffffffff1916827bffffffffffffffffffffffffffffffffffffffffffffffffffffffff191614806109b857507f5b5e139f000000000000000000000000000000000000000000000000000000007bffffffffffffffffffffffffffffffffffffffffffffffffffffffff1916827bffffffffffffffffffffffffffffffffffffffffffffffffffffffff1916145b806109c857506109c782613c84565b5b9050919050565b6060600080546109de90615169565b80601f0160208091040260200160405190810160405280929190818152602001828054610a0a90615169565b8015610a575780601f10610a2c57610100808354040283529160200191610a57565b820191906000526020600020905b815481529060010190602001808311610a3a57829003601f168201915b5050505050905090565b6000610a6c82613cee565b610aab576040517f08c379a0000000000000000000000000000000000000000000000000000000008152600401610aa29061520d565b60405180910390fd5b6004600083815260200190815260200160002060009054906101000a900473ffffffffffffffffffffffffffffffffffffffff169050919050565b6000610af182611d31565b90508073ffffffffffffffffffffffffffffffffffffffff168373ffffffffffffffffffffffffffffffffffffffff161415610b62576040517f08c379a0000000000000000000000000000000000000000000000000000000008152600401610b599061529f565b60405180910390fd5b8073ffffffffffffffffffffffffffffffffffffffff16610b81613d5a565b73ffffffffffffffffffffffffffffffffffffffff161480610bb05750610baf81610baa613d5a565b613b3c565b5b610bef576040517f08c379a0000000000000000000000000000000000000000000000000000000008152600401610be690615331565b60405180910390fd5b610bf98383613d62565b505050565b600080610c0a83613cee565b905080915050919050565b600073ffffffffffffffffffffffffffffffffffffffff163373ffffffffffffffffffffffffffffffffffffffff161415610c4f57600080fd5b610c5881613cee565b610c6157600080fd5b6000610c6c82611d31565b90503373ffffffffffffffffffffffffffffffffffffffff168173ffffffffffffffffffffffffffffffffffffffff1614610ca657600080fd5b6000600e60008481526020019081526020016000206040518061014001604052908160008201548152602001600182018054610ce190615169565b80601f0160208091040260200160405190810160405280929190818152602001828054610d0d90615169565b8015610d5a5780601f10610d2f57610100808354040283529160200191610d5a565b820191906000526020600020905b815481529060010190602001808311610d3d57829003601f168201915b50505050508152602001600282018054610d7390615169565b80601f0160208091040260200160405190810160405280929190818152602001828054610d9f90615169565b8015610dec5780601f10610dc157610100808354040283529160200191610dec565b820191906000526020600020905b815481529060010190602001808311610dcf57829003601f168201915b505050505081526020016003820160009054906101000a900473ffffffffffffffffffffffffffffffffffffffff1673ffffffffffffffffffffffffffffffffffffffff1673ffffffffffffffffffffffffffffffffffffffff1681526020016004820160009054906101000a900473ffffffffffffffffffffffffffffffffffffffff1673ffffffffffffffffffffffffffffffffffffffff1673ffffffffffffffffffffffffffffffffffffffff1681526020016005820160009054906101000a900473ffffffffffffffffffffffffffffffffffffffff1673ffffffffffffffffffffffffffffffffffffffff1673ffffffffffffffffffffffffffffffffffffffff1681526020016005820160149054906101000a900460ff1615151515815260200160068201548152602001600782015481526020016008820160009054906101000a900460ff1615151515815250509050600015158160c00151151514610f5857600080fd5b610f63823085613e1b565b60018160c001901515908115158152505080600e6000858152602001908152602001600020600082015181600001556020820151816001019080519060200190610fae92919061482b565b506040820151816002019080519060200190610fcb92919061482b565b5060608201518160030160006101000a81548173ffffffffffffffffffffffffffffffffffffffff021916908373ffffffffffffffffffffffffffffffffffffffff16021790555060808201518160040160006101000a81548173ffffffffffffffffffffffffffffffffffffffff021916908373ffffffffffffffffffffffffffffffffffffffff16021790555060a08201518160050160006101000a81548173ffffffffffffffffffffffffffffffffffffffff021916908373ffffffffffffffffffffffffffffffffffffffff16021790555060c08201518160050160146101000a81548160ff02191690831515021790555060e0820151816006015561010082015181600701556101208201518160080160006101000a81548160ff021916908315150217905550905050505050565b61111061110a613d5a565b82614077565b61114f576040517f08c379a0000000000000000000000000000000000000000000000000000000008152600401611146906153c3565b60405180910390fd5b61115a838383613e1b565b505050565b600073ffffffffffffffffffffffffffffffffffffffff163373ffffffffffffffffffffffffffffffffffffffff1614156111cf576040517f08c379a00000000000000000000000000000000000000000000000000000000081526004016111c690615455565b60405180910390fd5b6111d881613cee565b6111e157600080fd5b60006111ec82611d31565b9050600073ffffffffffffffffffffffffffffffffffffffff168173ffffffffffffffffffffffffffffffffffffffff16141561122857600080fd5b3373ffffffffffffffffffffffffffffffffffffffff168173ffffffffffffffffffffffffffffffffffffffff16141561126157600080fd5b6000600e6000848152602001908152602001600020604051806101400160405290816000820154815260200160018201805461129c90615169565b80601f01602080910402602001604051908101604052809291908181526020018280546112c890615169565b80156113155780601f106112ea57610100808354040283529160200191611315565b820191906000526020600020905b8154815290600101906020018083116112f857829003601f168201915b5050505050815260200160028201805461132e90615169565b80601f016020809104026020016040519081016040528092919081815260200182805461135a90615169565b80156113a75780601f1061137c576101008083540402835291602001916113a7565b820191906000526020600020905b81548152906001019060200180831161138a57829003601f168201915b505050505081526020016003820160009054906101000a900473ffffffffffffffffffffffffffffffffffffffff1673ffffffffffffffffffffffffffffffffffffffff1673ffffffffffffffffffffffffffffffffffffffff1681526020016004820160009054906101000a900473ffffffffffffffffffffffffffffffffffffffff1673ffffffffffffffffffffffffffffffffffffffff1673ffffffffffffffffffffffffffffffffffffffff1681526020016005820160009054906101000a900473ffffffffffffffffffffffffffffffffffffffff1673ffffffffffffffffffffffffffffffffffffffff1673ffffffffffffffffffffffffffffffffffffffff1681526020016005820160149054906101000a900460ff1615151515815260200160068201548152602001600782015481526020016008820160009054906101000a900460ff16151515158152505090508060e0015134101561150f57600080fd5b80610120015161151e57600080fd5b611529823385613e1b565b6000816080015190508073ffffffffffffffffffffffffffffffffffffffff166108fc349081150290604051600060405180830381858888f19350505050158015611578573d6000803e3d6000fd5b5081608001518260a0019073ffffffffffffffffffffffffffffffffffffffff16908173ffffffffffffffffffffffffffffffffffffffff168152505033826080019073ffffffffffffffffffffffffffffffffffffffff16908173ffffffffffffffffffffffffffffffffffffffff16815250506001826101000181815161160191906154a4565b9150818152505081600e600086815260200190815260200160002060008201518160000155602082015181600101908051906020019061164292919061482b565b50604082015181600201908051906020019061165f92919061482b565b5060608201518160030160006101000a81548173ffffffffffffffffffffffffffffffffffffffff021916908373ffffffffffffffffffffffffffffffffffffffff16021790555060808201518160040160006101000a81548173ffffffffffffffffffffffffffffffffffffffff021916908373ffffffffffffffffffffffffffffffffffffffff16021790555060a08201518160050160006101000a81548173ffffffffffffffffffffffffffffffffffffffff021916908373ffffffffffffffffffffffffffffffffffffffff16021790555060c08201518160050160146101000a81548160ff02191690831515021790555060e0820151816006015561010082015181600701556101208201518160080160006101000a81548160ff02191690831515021790555090505050505050565b6117af8383836040518060200160405280600081525061320a565b505050565b6000806117c0836122af565b905080915050919050565b6010818051602081018201805184825260208301602085012081835280955050505050506000915054906101000a900460ff1681565b600073ffffffffffffffffffffffffffffffffffffffff163373ffffffffffffffffffffffffffffffffffffffff16141561183b57600080fd5b61184482613cee565b611883576040517f08c379a000000000000000000000000000000000000000000000000000000000815260040161187a90615546565b60405180910390fd5b600061188e83611d31565b90503373ffffffffffffffffffffffffffffffffffffffff168173ffffffffffffffffffffffffffffffffffffffff16146118fe576040517f08c379a00000000000000000000000000000000000000000000000000000000081526004016118f5906155d8565b60405180910390fd5b6000600e6000858152602001908152602001600020604051806101400160405290816000820154815260200160018201805461193990615169565b80601f016020809104026020016040519081016040528092919081815260200182805461196590615169565b80156119b25780601f10611987576101008083540402835291602001916119b2565b820191906000526020600020905b81548152906001019060200180831161199557829003601f168201915b505050505081526020016002820180546119cb90615169565b80601f01602080910402602001604051908101604052809291908181526020018280546119f790615169565b8015611a445780601f10611a1957610100808354040283529160200191611a44565b820191906000526020600020905b815481529060010190602001808311611a2757829003601f168201915b505050505081526020016003820160009054906101000a900473ffffffffffffffffffffffffffffffffffffffff1673ffffffffffffffffffffffffffffffffffffffff1673ffffffffffffffffffffffffffffffffffffffff1681526020016004820160009054906101000a900473ffffffffffffffffffffffffffffffffffffffff1673ffffffffffffffffffffffffffffffffffffffff1673ffffffffffffffffffffffffffffffffffffffff1681526020016005820160009054906101000a900473ffffffffffffffffffffffffffffffffffffffff1673ffffffffffffffffffffffffffffffffffffffff1673ffffffffffffffffffffffffffffffffffffffff1681526020016005820160149054906101000a900460ff1615151515815260200160068201548152602001600782015481526020016008820160009054906101000a900460ff1615151515815250509050828160e001818152505080600e6000868152602001908152602001600020600082015181600001556020820151816001019080519060200190611bdf92919061482b565b506040820151816002019080519060200190611bfc92919061482b565b5060608201518160030160006101000a81548173ffffffffffffffffffffffffffffffffffffffff021916908373ffffffffffffffffffffffffffffffffffffffff16021790555060808201518160040160006101000a81548173ffffffffffffffffffffffffffffffffffffffff021916908373ffffffffffffffffffffffffffffffffffffffff16021790555060a08201518160050160006101000a81548173ffffffffffffffffffffffffffffffffffffffff021916908373ffffffffffffffffffffffffffffffffffffffff16021790555060c08201518160050160146101000a81548160ff02191690831515021790555060e0820151816006015561010082015181600701556101208201518160080160006101000a81548160ff02191690831515021790555090505050505050565b6000806002600084815260200190815260200160002060009054906101000a900473ffffffffffffffffffffffffffffffffffffffff169050600073ffffffffffffffffffffffffffffffffffffffff168173ffffffffffffffffffffffffffffffffffffffff161415611dda576040517f08c379a0000000000000000000000000000000000000000000000000000000008152600401611dd19061566a565b60405180910390fd5b80915050919050565b60606000611df083613626565b905080915050919050565b600073ffffffffffffffffffffffffffffffffffffffff163373ffffffffffffffffffffffffffffffffffffffff161415611e6b576040517f08c379a0000000000000000000000000000000000000000000000000000000008152600401611e62906156d6565b60405180910390fd5b60096000815480929190611e7e906156f6565b9190505550611e8e600954613cee565b15611e9857600080fd5b601082604051611ea8919061577b565b908152602001604051809103902060009054906101000a900460ff1615611f04576040517f08c379a0000000000000000000000000000000000000000000000000000000008152600401611efb90615804565b60405180910390fd5b600f83604051611f14919061577b565b908152602001604051809103902060009054906101000a900460ff1615611f70576040517f08c379a0000000000000000000000000000000000000000000000000000000008152600401611f6790615896565b60405180910390fd5b611f7c33600954614155565b611f8860095483614173565b6001601083604051611f9a919061577b565b908152602001604051809103902060006101000a81548160ff0219169083151502179055506001600f84604051611fd1919061577b565b908152602001604051809103902060006101000a81548160ff021916908315150217905550600080339050600060405180610140016040528060095481526020018781526020018681526020018373ffffffffffffffffffffffffffffffffffffffff1681526020018373ffffffffffffffffffffffffffffffffffffffff1681526020018473ffffffffffffffffffffffffffffffffffffffff1681526020016000151581526020018581526020016000815260200160011515815250905080600e600060095481526020019081526020016000206000820151816000015560208201518160010190805190602001906120cd92919061482b565b5060408201518160020190805190602001906120ea92919061482b565b5060608201518160030160006101000a81548173ffffffffffffffffffffffffffffffffffffffff021916908373ffffffffffffffffffffffffffffffffffffffff16021790555060808201518160040160006101000a81548173ffffffffffffffffffffffffffffffffffffffff021916908373ffffffffffffffffffffffffffffffffffffffff16021790555060a08201518160050160006101000a81548173ffffffffffffffffffffffffffffffffffffffff021916908373ffffffffffffffffffffffffffffffffffffffff16021790555060c08201518160050160146101000a81548160ff02191690831515021790555060e0820151816006015561010082015181600701556101208201518160080160006101000a81548160ff021916908315150217905550905050505050505050565b6008805461222e90615169565b80601f016020809104026020016040519081016040528092919081815260200182805461225a90615169565b80156122a75780601f1061227c576101008083540402835291602001916122a7565b820191906000526020600020905b81548152906001019060200180831161228a57829003601f168201915b505050505081565b60008073ffffffffffffffffffffffffffffffffffffffff168273ffffffffffffffffffffffffffffffffffffffff161415612320576040517f08c379a000000000000000000000000000000000000000000000000000000000815260040161231790615928565b60405180910390fd5b600360008373ffffffffffffffffffffffffffffffffffffffff1673ffffffffffffffffffffffffffffffffffffffff168152602001908152602001600020549050919050565b600e60205280600052604060002060009150905080600001549080600101805461239090615169565b80601f01602080910402602001604051908101604052809291908181526020018280546123bc90615169565b80156124095780601f106123de57610100808354040283529160200191612409565b820191906000526020600020905b8154815290600101906020018083116123ec57829003601f168201915b50505050509080600201805461241e90615169565b80601f016020809104026020016040519081016040528092919081815260200182805461244a90615169565b80156124975780601f1061246c57610100808354040283529160200191612497565b820191906000526020600020905b81548152906001019060200180831161247a57829003601f168201915b5050505050908060030160009054906101000a900473ffffffffffffffffffffffffffffffffffffffff16908060040160009054906101000a900473ffffffffffffffffffffffffffffffffffffffff16908060050160009054906101000a900473ffffffffffffffffffffffffffffffffffffffff16908060050160149054906101000a900460ff16908060060154908060070154908060080160009054906101000a900460ff1690508a565b600073ffffffffffffffffffffffffffffffffffffffff163373ffffffffffffffffffffffffffffffffffffffff16141561257f57600080fd5b61258881613cee565b61259157600080fd5b600061259c82611d31565b90503073ffffffffffffffffffffffffffffffffffffffff168173ffffffffffffffffffffffffffffffffffffffff16146125d657600080fd5b6000600e6000848152602001908152602001600020604051806101400160405290816000820154815260200160018201805461261190615169565b80601f016020809104026020016040519081016040528092919081815260200182805461263d90615169565b801561268a5780601f1061265f5761010080835404028352916020019161268a565b820191906000526020600020905b81548152906001019060200180831161266d57829003601f168201915b505050505081526020016002820180546126a390615169565b80601f01602080910402602001604051908101604052809291908181526020018280546126cf90615169565b801561271c5780601f106126f15761010080835404028352916020019161271c565b820191906000526020600020905b8154815290600101906020018083116126ff57829003601f168201915b505050505081526020016003820160009054906101000a900473ffffffffffffffffffffffffffffffffffffffff1673ffffffffffffffffffffffffffffffffffffffff1673ffffffffffffffffffffffffffffffffffffffff1681526020016004820160009054906101000a900473ffffffffffffffffffffffffffffffffffffffff1673ffffffffffffffffffffffffffffffffffffffff1673ffffffffffffffffffffffffffffffffffffffff1681526020016005820160009054906101000a900473ffffffffffffffffffffffffffffffffffffffff1673ffffffffffffffffffffffffffffffffffffffff1673ffffffffffffffffffffffffffffffffffffffff1681526020016005820160149054906101000a900460ff1615151515815260200160068201548152602001600782015481526020016008820160009054906101000a900460ff1615151515815250509050600115158160c0015115151461288857600080fd5b3373ffffffffffffffffffffffffffffffffffffffff16816080015173ffffffffffffffffffffffffffffffffffffffff16146128fa576040517f08c379a00000000000000000000000000000000000000000000000000000000081526004016128f1906159ba565b60405180910390fd5b612905303385613e1b565b60008160c001901515908115158152505080600e600085815260200190815260200160002060008201518160000155602082015181600101908051906020019061295092919061482b565b50604082015181600201908051906020019061296d92919061482b565b5060608201518160030160006101000a81548173ffffffffffffffffffffffffffffffffffffffff021916908373ffffffffffffffffffffffffffffffffffffffff16021790555060808201518160040160006101000a81548173ffffffffffffffffffffffffffffffffffffffff021916908373ffffffffffffffffffffffffffffffffffffffff16021790555060a08201518160050160006101000a81548173ffffffffffffffffffffffffffffffffffffffff021916908373ffffffffffffffffffffffffffffffffffffffff16021790555060c08201518160050160146101000a81548160ff02191690831515021790555060e0820151816006015561010082015181600701556101208201518160080160006101000a81548160ff021916908315150217905550905050505050565b606060018054612ab090615169565b80601f0160208091040260200160405190810160405280929190818152602001828054612adc90615169565b8015612b295780601f10612afe57610100808354040283529160200191612b29565b820191906000526020600020905b815481529060010190602001808311612b0c57829003601f168201915b5050505050905090565b60095481565b612b41613d5a565b73ffffffffffffffffffffffffffffffffffffffff168273ffffffffffffffffffffffffffffffffffffffff161415612baf576040517f08c379a0000000000000000000000000000000000000000000000000000000008152600401612ba690615a26565b60405180910390fd5b8060056000612bbc613d5a565b73ffffffffffffffffffffffffffffffffffffffff1673ffffffffffffffffffffffffffffffffffffffff16815260200190815260200160002060008473ffffffffffffffffffffffffffffffffffffffff1673ffffffffffffffffffffffffffffffffffffffff16815260200190815260200160002060006101000a81548160ff0219169083151502179055508173ffffffffffffffffffffffffffffffffffffffff16612c69613d5a565b73ffffffffffffffffffffffffffffffffffffffff167f17307eab39ab6107e8899845ad3d59bd9653f200f220920489ca2b5937696c3183604051612cae9190614982565b60405180910390a35050565b600073ffffffffffffffffffffffffffffffffffffffff163373ffffffffffffffffffffffffffffffffffffffff161415612cf457600080fd5b612cfd81613cee565b612d0657600080fd5b6000612d1182611d31565b90503373ffffffffffffffffffffffffffffffffffffffff168173ffffffffffffffffffffffffffffffffffffffff1614612d4b57600080fd5b6000600e60008481526020019081526020016000206040518061014001604052908160008201548152602001600182018054612d8690615169565b80601f0160208091040260200160405190810160405280929190818152602001828054612db290615169565b8015612dff5780601f10612dd457610100808354040283529160200191612dff565b820191906000526020600020905b815481529060010190602001808311612de257829003601f168201915b50505050508152602001600282018054612e1890615169565b80601f0160208091040260200160405190810160405280929190818152602001828054612e4490615169565b8015612e915780601f10612e6657610100808354040283529160200191612e91565b820191906000526020600020905b815481529060010190602001808311612e7457829003601f168201915b505050505081526020016003820160009054906101000a900473ffffffffffffffffffffffffffffffffffffffff1673ffffffffffffffffffffffffffffffffffffffff1673ffffffffffffffffffffffffffffffffffffffff1681526020016004820160009054906101000a900473ffffffffffffffffffffffffffffffffffffffff1673ffffffffffffffffffffffffffffffffffffffff1673ffffffffffffffffffffffffffffffffffffffff1681526020016005820160009054906101000a900473ffffffffffffffffffffffffffffffffffffffff1673ffffffffffffffffffffffffffffffffffffffff1673ffffffffffffffffffffffffffffffffffffffff1681526020016005820160149054906101000a900460ff1615151515815260200160068201548152602001600782015481526020016008820160009054906101000a900460ff1615151515815250509050600015158160c00151151514612ffd57600080fd5b8061012001511561301f57600081610120019015159081151581525050613032565b6001816101200190151590811515815250505b80600e600085815260200190815260200160002060008201518160000155602082015181600101908051906020019061306c92919061482b565b50604082015181600201908051906020019061308992919061482b565b5060608201518160030160006101000a81548173ffffffffffffffffffffffffffffffffffffffff021916908373ffffffffffffffffffffffffffffffffffffffff16021790555060808201518160040160006101000a81548173ffffffffffffffffffffffffffffffffffffffff021916908373ffffffffffffffffffffffffffffffffffffffff16021790555060a08201518160050160006101000a81548173ffffffffffffffffffffffffffffffffffffffff021916908373ffffffffffffffffffffffffffffffffffffffff16021790555060c08201518160050160146101000a81548160ff02191690831515021790555060e0820151816006015561010082015181600701556101208201518160080160006101000a81548160ff021916908315150217905550905050505050565b600f818051602081018201805184825260208301602085012081835280955050505050506000915054906101000a900460ff1681565b6000806131ff83611d31565b905080915050919050565b61321b613215613d5a565b83614077565b61325a576040517f08c379a0000000000000000000000000000000000000000000000000000000008152600401613251906153c3565b60405180910390fd5b613266848484846141e7565b50505050565b60008061327883613bd0565b91509150811561337657600a6001600a805490506132969190615a46565b815481106132a7576132a6615a7a565b5b9060005260206000200160009054906101000a900473ffffffffffffffffffffffffffffffffffffffff16600a82815481106132e6576132e5615a7a565b5b9060005260206000200160006101000a81548173ffffffffffffffffffffffffffffffffffffffff021916908373ffffffffffffffffffffffffffffffffffffffff160217905550600a8054806133405761333f615aa9565b5b6001900381819060005260206000200160006101000a81549073ffffffffffffffffffffffffffffffffffffffff021916905590555b505050565b600080600e600084815260200190815260200160002060405180610140016040529081600082015481526020016001820180546133b790615169565b80601f01602080910402602001604051908101604052809291908181526020018280546133e390615169565b80156134305780601f1061340557610100808354040283529160200191613430565b820191906000526020600020905b81548152906001019060200180831161341357829003601f168201915b5050505050815260200160028201805461344990615169565b80601f016020809104026020016040519081016040528092919081815260200182805461347590615169565b80156134c25780601f10613497576101008083540402835291602001916134c2565b820191906000526020600020905b8154815290600101906020018083116134a557829003601f168201915b505050505081526020016003820160009054906101000a900473ffffffffffffffffffffffffffffffffffffffff1673ffffffffffffffffffffffffffffffffffffffff1673ffffffffffffffffffffffffffffffffffffffff1681526020016004820160009054906101000a900473ffffffffffffffffffffffffffffffffffffffff1673ffffffffffffffffffffffffffffffffffffffff1673ffffffffffffffffffffffffffffffffffffffff1681526020016005820160009054906101000a900473ffffffffffffffffffffffffffffffffffffffff1673ffffffffffffffffffffffffffffffffffffffff1673ffffffffffffffffffffffffffffffffffffffff1681526020016005820160149054906101000a900460ff1615151515815260200160068201548152602001600782015481526020016008820160009054906101000a900460ff16151515158152505090508060e00151915050919050565b606061363182613cee565b613670576040517f08c379a000000000000000000000000000000000000000000000000000000000815260040161366790615b4a565b60405180910390fd5b600060066000848152602001908152602001600020805461369090615169565b80601f01602080910402602001604051908101604052809291908181526020018280546136bc90615169565b80156137095780601f106136de57610100808354040283529160200191613709565b820191906000526020600020905b8154815290600101906020018083116136ec57829003601f168201915b50505050509050600061371a614243565b9050600081511415613730578192505050613773565b60008251111561376557808260405160200161374d929190615b6a565b60405160208183030381529060405292505050613773565b61376e8461425a565b925050505b919050565b60008060095490508091505090565b60606000600e600084815260200190815260200160002060405180610140016040529081600082015481526020016001820180546137c490615169565b80601f01602080910402602001604051908101604052809291908181526020018280546137f090615169565b801561383d5780601f106138125761010080835404028352916020019161383d565b820191906000526020600020905b81548152906001019060200180831161382057829003601f168201915b5050505050815260200160028201805461385690615169565b80601f016020809104026020016040519081016040528092919081815260200182805461388290615169565b80156138cf5780601f106138a4576101008083540402835291602001916138cf565b820191906000526020600020905b8154815290600101906020018083116138b257829003601f168201915b505050505081526020016003820160009054906101000a900473ffffffffffffffffffffffffffffffffffffffff1673ffffffffffffffffffffffffffffffffffffffff1673ffffffffffffffffffffffffffffffffffffffff1681526020016004820160009054906101000a900473ffffffffffffffffffffffffffffffffffffffff1673ffffffffffffffffffffffffffffffffffffffff1673ffffffffffffffffffffffffffffffffffffffff1681526020016005820160009054906101000a900473ffffffffffffffffffffffffffffffffffffffff1673ffffffffffffffffffffffffffffffffffffffff1673ffffffffffffffffffffffffffffffffffffffff1681526020016005820160149054906101000a900460ff1615151515815260200160068201548152602001600782015481526020016008820160009054906101000a900460ff16151515158152505090508060200151915050919050565b60078054613a4090615169565b80601f0160208091040260200160405190810160405280929190818152602001828054613a6c90615169565b8015613ab95780601f10613a8e57610100808354040283529160200191613ab9565b820191906000526020600020905b815481529060010190602001808311613a9c57829003601f168201915b505050505081565b6000613acc82613bd0565b50905080613b3857600a829080600181540180825580915050600190039060005260206000200160009091909190916101000a81548173ffffffffffffffffffffffffffffffffffffffff021916908373ffffffffffffffffffffffffffffffffffffffff1602179055505b5050565b6000600560008473ffffffffffffffffffffffffffffffffffffffff1673ffffffffffffffffffffffffffffffffffffffff16815260200190815260200160002060008373ffffffffffffffffffffffffffffffffffffffff1673ffffffffffffffffffffffffffffffffffffffff16815260200190815260200160002060009054906101000a900460ff16905092915050565b60008060005b600a80549050811015613c7657600a8181548110613bf757613bf6615a7a565b5b9060005260206000200160009054906101000a900473ffffffffffffffffffffffffffffffffffffffff1673ffffffffffffffffffffffffffffffffffffffff168473ffffffffffffffffffffffffffffffffffffffff161415613c62576001819250925050613c7f565b600181613c6f91906154a4565b9050613bd6565b50600080915091505b915091565b60007f01ffc9a7000000000000000000000000000000000000000000000000000000007bffffffffffffffffffffffffffffffffffffffffffffffffffffffff1916827bffffffffffffffffffffffffffffffffffffffffffffffffffffffff1916149050919050565b60008073ffffffffffffffffffffffffffffffffffffffff166002600084815260200190815260200160002060009054906101000a900473ffffffffffffffffffffffffffffffffffffffff1673ffffffffffffffffffffffffffffffffffffffff1614159050919050565b600033905090565b816004600083815260200190815260200160002060006101000a81548173ffffffffffffffffffffffffffffffffffffffff021916908373ffffffffffffffffffffffffffffffffffffffff160217905550808273ffffffffffffffffffffffffffffffffffffffff16613dd583611d31565b73ffffffffffffffffffffffffffffffffffffffff167f8c5be1e5ebec7d5bd14f71427d1e84f3dd0314c0f7b2291e5b200ac8c7c3b92560405160405180910390a45050565b8273ffffffffffffffffffffffffffffffffffffffff16613e3b82611d31565b73ffffffffffffffffffffffffffffffffffffffff1614613e91576040517f08c379a0000000000000000000000000000000000000000000000000000000008152600401613e8890615c00565b60405180910390fd5b600073ffffffffffffffffffffffffffffffffffffffff168273ffffffffffffffffffffffffffffffffffffffff161415613f01576040517f08c379a0000000000000000000000000000000000000000000000000000000008152600401613ef890615c92565b60405180910390fd5b613f0c838383614301565b613f17600082613d62565b6001600360008573ffffffffffffffffffffffffffffffffffffffff1673ffffffffffffffffffffffffffffffffffffffff1681526020019081526020016000206000828254613f679190615a46565b925050819055506001600360008473ffffffffffffffffffffffffffffffffffffffff1673ffffffffffffffffffffffffffffffffffffffff1681526020019081526020016000206000828254613fbe91906154a4565b92505081905550816002600083815260200190815260200160002060006101000a81548173ffffffffffffffffffffffffffffffffffffffff021916908373ffffffffffffffffffffffffffffffffffffffff160217905550808273ffffffffffffffffffffffffffffffffffffffff168473ffffffffffffffffffffffffffffffffffffffff167fddf252ad1be2c89b69c2b068fc378daa952ba7f163c4a11628f55a4df523b3ef60405160405180910390a4505050565b600061408282613cee565b6140c1576040517f08c379a00000000000000000000000000000000000000000000000000000000081526004016140b890615d24565b60405180910390fd5b60006140cc83611d31565b90508073ffffffffffffffffffffffffffffffffffffffff168473ffffffffffffffffffffffffffffffffffffffff16148061413b57508373ffffffffffffffffffffffffffffffffffffffff1661412384610a61565b73ffffffffffffffffffffffffffffffffffffffff16145b8061414c575061414b8185613b3c565b5b91505092915050565b61416f828260405180602001604052806000815250614306565b5050565b61417c82613cee565b6141bb576040517f08c379a00000000000000000000000000000000000000000000000000000000081526004016141b290615db6565b60405180910390fd5b806006600084815260200190815260200160002090805190602001906141e292919061482b565b505050565b6141f2848484613e1b565b6141fe84848484614361565b61423d576040517f08c379a000000000000000000000000000000000000000000000000000000000815260040161423490615e48565b60405180910390fd5b50505050565b606060405180602001604052806000815250905090565b606061426582613cee565b6142a4576040517f08c379a000000000000000000000000000000000000000000000000000000000815260040161429b90615eda565b60405180910390fd5b60006142ae614243565b905060008151116142ce57604051806020016040528060008152506142f9565b806142d8846144e9565b6040516020016142e9929190615b6a565b6040516020818303038152906040525b915050919050565b505050565b614310838361464a565b61431d6000848484614361565b61435c576040517f08c379a000000000000000000000000000000000000000000000000000000000815260040161435390615e48565b60405180910390fd5b505050565b60006143828473ffffffffffffffffffffffffffffffffffffffff16614818565b156144dc578373ffffffffffffffffffffffffffffffffffffffff1663150b7a026143ab613d5a565b8786866040518563ffffffff1660e01b81526004016143cd9493929190615f4f565b6020604051808303816000875af192505050801561440957506040513d601f19601f820116820180604052508101906144069190615fb0565b60015b61448c573d8060008114614439576040519150601f19603f3d011682016040523d82523d6000602084013e61443e565b606091505b50600081511415614484576040517f08c379a000000000000000000000000000000000000000000000000000000000815260040161447b90615e48565b60405180910390fd5b805181602001fd5b63150b7a0260e01b7bffffffffffffffffffffffffffffffffffffffffffffffffffffffff1916817bffffffffffffffffffffffffffffffffffffffffffffffffffffffff1916149150506144e1565b600190505b949350505050565b60606000821415614531576040518060400160405280600181526020017f30000000000000000000000000000000000000000000000000000000000000008152509050614645565b600082905060005b6000821461456357808061454c906156f6565b915050600a8261455c919061600c565b9150614539565b60008167ffffffffffffffff81111561457f5761457e614c37565b5b6040519080825280601f01601f1916602001820160405280156145b15781602001600182028036833780820191505090505b5090505b6000851461463e576001826145ca9190615a46565b9150600a856145d9919061603d565b60306145e591906154a4565b60f81b8183815181106145fb576145fa615a7a565b5b60200101907effffffffffffffffffffffffffffffffffffffffffffffffffffffffffffff1916908160001a905350600a85614637919061600c565b94506145b5565b8093505050505b919050565b600073ffffffffffffffffffffffffffffffffffffffff168273ffffffffffffffffffffffffffffffffffffffff1614156146ba576040517f08c379a00000000000000000000000000000000000000000000000000000000081526004016146b1906160ba565b60405180910390fd5b6146c381613cee565b15614703576040517f08c379a00000000000000000000000000000000000000000000000000000000081526004016146fa90616126565b60405180910390fd5b61470f60008383614301565b6001600360008473ffffffffffffffffffffffffffffffffffffffff1673ffffffffffffffffffffffffffffffffffffffff168152602001908152602001600020600082825461475f91906154a4565b92505081905550816002600083815260200190815260200160002060006101000a81548173ffffffffffffffffffffffffffffffffffffffff021916908373ffffffffffffffffffffffffffffffffffffffff160217905550808273ffffffffffffffffffffffffffffffffffffffff16600073ffffffffffffffffffffffffffffffffffffffff167fddf252ad1be2c89b69c2b068fc378daa952ba7f163c4a11628f55a4df523b3ef60405160405180910390a45050565b600080823b905060008111915050919050565b82805461483790615169565b90600052602060002090601f01602090048101928261485957600085556148a0565b82601f1061487257805160ff19168380011785556148a0565b828001600101855582156148a0579182015b8281111561489f578251825591602001919060010190614884565b5b5090506148ad91906148b1565b5090565b5b808211156148ca5760008160009055506001016148b2565b5090565b6000604051905090565b600080fd5b600080fd5b60007fffffffff0000000000000000000000000000000000000000000000000000000082169050919050565b614917816148e2565b811461492257600080fd5b50565b6000813590506149348161490e565b92915050565b6000602082840312156149505761494f6148d8565b5b600061495e84828501614925565b91505092915050565b60008115159050919050565b61497c81614967565b82525050565b60006020820190506149976000830184614973565b92915050565b600081519050919050565b600082825260208201905092915050565b60005b838110156149d75780820151818401526020810190506149bc565b838111156149e6576000848401525b50505050565b6000601f19601f8301169050919050565b6000614a088261499d565b614a1281856149a8565b9350614a228185602086016149b9565b614a2b816149ec565b840191505092915050565b60006020820190508181036000830152614a5081846149fd565b905092915050565b6000819050919050565b614a6b81614a58565b8114614a7657600080fd5b50565b600081359050614a8881614a62565b92915050565b600060208284031215614aa457614aa36148d8565b5b6000614ab284828501614a79565b91505092915050565b600073ffffffffffffffffffffffffffffffffffffffff82169050919050565b6000614ae682614abb565b9050919050565b614af681614adb565b82525050565b6000602082019050614b116000830184614aed565b92915050565b614b2081614adb565b8114614b2b57600080fd5b50565b600081359050614b3d81614b17565b92915050565b60008060408385031215614b5a57614b596148d8565b5b6000614b6885828601614b2e565b9250506020614b7985828601614a79565b9150509250929050565b600080600060608486031215614b9c57614b9b6148d8565b5b6000614baa86828701614b2e565b9350506020614bbb86828701614b2e565b9250506040614bcc86828701614a79565b9150509250925092565b600060208284031215614bec57614beb6148d8565b5b6000614bfa84828501614b2e565b91505092915050565b614c0c81614a58565b82525050565b6000602082019050614c276000830184614c03565b92915050565b600080fd5b600080fd5b7f4e487b7100000000000000000000000000000000000000000000000000000000600052604160045260246000fd5b614c6f826149ec565b810181811067ffffffffffffffff82111715614c8e57614c8d614c37565b5b80604052505050565b6000614ca16148ce565b9050614cad8282614c66565b919050565b600067ffffffffffffffff821115614ccd57614ccc614c37565b5b614cd6826149ec565b9050602081019050919050565b82818337600083830152505050565b6000614d05614d0084614cb2565b614c97565b905082815260208101848484011115614d2157614d20614c32565b5b614d2c848285614ce3565b509392505050565b600082601f830112614d4957614d48614c2d565b5b8135614d59848260208601614cf2565b91505092915050565b600060208284031215614d7857614d776148d8565b5b600082013567ffffffffffffffff811115614d9657614d956148dd565b5b614da284828501614d34565b91505092915050565b60008060408385031215614dc257614dc16148d8565b5b6000614dd085828601614a79565b9250506020614de185828601614a79565b9150509250929050565b600080600060608486031215614e0457614e036148d8565b5b600084013567ffffffffffffffff811115614e2257614e216148dd565b5b614e2e86828701614d34565b935050602084013567ffffffffffffffff811115614e4f57614e4e6148dd565b5b614e5b86828701614d34565b9250506040614e6c86828701614a79565b9150509250925092565b6000614e8182614abb565b9050919050565b614e9181614e76565b82525050565b600061014082019050614ead600083018d614c03565b8181036020830152614ebf818c6149fd565b90508181036040830152614ed3818b6149fd565b9050614ee2606083018a614e88565b614eef6080830189614e88565b614efc60a0830188614e88565b614f0960c0830187614973565b614f1660e0830186614c03565b614f24610100830185614c03565b614f32610120830184614973565b9b9a5050505050505050505050565b614f4a81614967565b8114614f5557600080fd5b50565b600081359050614f6781614f41565b92915050565b60008060408385031215614f8457614f836148d8565b5b6000614f9285828601614b2e565b9250506020614fa385828601614f58565b9150509250929050565b600067ffffffffffffffff821115614fc857614fc7614c37565b5b614fd1826149ec565b9050602081019050919050565b6000614ff1614fec84614fad565b614c97565b90508281526020810184848401111561500d5761500c614c32565b5b615018848285614ce3565b509392505050565b600082601f83011261503557615034614c2d565b5b8135615045848260208601614fde565b91505092915050565b60008060008060808587031215615068576150676148d8565b5b600061507687828801614b2e565b945050602061508787828801614b2e565b935050604061509887828801614a79565b925050606085013567ffffffffffffffff8111156150b9576150b86148dd565b5b6150c587828801615020565b91505092959194509250565b600080604083850312156150e8576150e76148d8565b5b60006150f685828601614b2e565b925050602061510785828601614b2e565b9150509250929050565b60006040820190506151266000830185614973565b6151336020830184614c03565b9392505050565b7f4e487b7100000000000000000000000000000000000000000000000000000000600052602260045260246000fd5b6000600282049050600182168061518157607f821691505b602082108114156151955761519461513a565b5b50919050565b7f4552433732313a20617070726f76656420717565727920666f72206e6f6e657860008201527f697374656e7420746f6b656e0000000000000000000000000000000000000000602082015250565b60006151f7602c836149a8565b91506152028261519b565b604082019050919050565b60006020820190508181036000830152615226816151ea565b9050919050565b7f4552433732313a20617070726f76616c20746f2063757272656e74206f776e6560008201527f7200000000000000000000000000000000000000000000000000000000000000602082015250565b60006152896021836149a8565b91506152948261522d565b604082019050919050565b600060208201905081810360008301526152b88161527c565b9050919050565b7f4552433732313a20617070726f76652063616c6c6572206973206e6f74206f7760008201527f6e6572206e6f7220617070726f76656420666f7220616c6c0000000000000000602082015250565b600061531b6038836149a8565b9150615326826152bf565b604082019050919050565b6000602082019050818103600083015261534a8161530e565b9050919050565b7f4552433732313a207472616e736665722063616c6c6572206973206e6f74206f60008201527f776e6572206e6f7220617070726f766564000000000000000000000000000000602082015250565b60006153ad6031836149a8565b91506153b882615351565b604082019050919050565b600060208201905081810360008301526153dc816153a0565b9050919050565b7f54727920746f20627579206e667420776974682075736572203078303030303060008201527f3030303030303000000000000000000000000000000000000000000000000000602082015250565b600061543f6027836149a8565b915061544a826153e3565b604082019050919050565b6000602082019050818103600083015261546e81615432565b9050919050565b7f4e487b7100000000000000000000000000000000000000000000000000000000600052601160045260246000fd5b60006154af82614a58565b91506154ba83614a58565b9250827fffffffffffffffffffffffffffffffffffffffffffffffffffffffffffffffff038211156154ef576154ee615475565b5b828201905092915050565b7f546f6b656e20646f206e6f742065786973740000000000000000000000000000600082015250565b60006155306012836149a8565b915061553b826154fa565b602082019050919050565b6000602082019050818103600083015261555f81615523565b9050919050565b7f54727920746f206368616e676520746f6b656e2070726963652077697468206160008201527f20757365722074686174206973206e6f7420746865206f776e65720000000000602082015250565b60006155c2603b836149a8565b91506155cd82615566565b604082019050919050565b600060208201905081810360008301526155f1816155b5565b9050919050565b7f4552433732313a206f776e657220717565727920666f72206e6f6e657869737460008201527f656e7420746f6b656e0000000000000000000000000000000000000000000000602082015250565b60006156546029836149a8565b915061565f826155f8565b604082019050919050565b6000602082019050818103600083015261568381615647565b9050919050565b7f54727920746f206d696e74204e46542077697468203078302061647265737300600082015250565b60006156c0601f836149a8565b91506156cb8261568a565b602082019050919050565b600060208201905081810360008301526156ef816156b3565b9050919050565b600061570182614a58565b91507fffffffffffffffffffffffffffffffffffffffffffffffffffffffffffffffff82141561573457615733615475565b5b600182019050919050565b600081905092915050565b60006157558261499d565b61575f818561573f565b935061576f8185602086016149b9565b80840191505092915050565b6000615787828461574a565b915081905092915050565b7f54727920746f206d696e7420616e6f746572204e46542077697468207468652060008201527f73616d6520555249000000000000000000000000000000000000000000000000602082015250565b60006157ee6028836149a8565b91506157f982615792565b604082019050919050565b6000602082019050818103600083015261581d816157e1565b9050919050565b7f54727920746f206d696e74204e46542077697468207468652073616d65206e6160008201527f6d65000000000000000000000000000000000000000000000000000000000000602082015250565b60006158806022836149a8565b915061588b82615824565b604082019050919050565b600060208201905081810360008301526158af81615873565b9050919050565b7f4552433732313a2062616c616e636520717565727920666f7220746865207a6560008201527f726f206164647265737300000000000000000000000000000000000000000000602082015250565b6000615912602a836149a8565b915061591d826158b6565b604082019050919050565b6000602082019050818103600083015261594181615905565b9050919050565b7f54727920746f2072656d6f766520746865207374616b6520776974682061206460008201527f6966666572656e74207573657273000000000000000000000000000000000000602082015250565b60006159a4602e836149a8565b91506159af82615948565b604082019050919050565b600060208201905081810360008301526159d381615997565b9050919050565b7f4552433732313a20617070726f766520746f2063616c6c657200000000000000600082015250565b6000615a106019836149a8565b9150615a1b826159da565b602082019050919050565b60006020820190508181036000830152615a3f81615a03565b9050919050565b6000615a5182614a58565b9150615a5c83614a58565b925082821015615a6f57615a6e615475565b5b828203905092915050565b7f4e487b7100000000000000000000000000000000000000000000000000000000600052603260045260246000fd5b7f4e487b7100000000000000000000000000000000000000000000000000000000600052603160045260246000fd5b7f45524337323155524953746f726167653a2055524920717565727920666f722060008201527f6e6f6e6578697374656e7420746f6b656e000000000000000000000000000000602082015250565b6000615b346031836149a8565b9150615b3f82615ad8565b604082019050919050565b60006020820190508181036000830152615b6381615b27565b9050919050565b6000615b76828561574a565b9150615b82828461574a565b91508190509392505050565b7f4552433732313a207472616e73666572206f6620746f6b656e2074686174206960008201527f73206e6f74206f776e0000000000000000000000000000000000000000000000602082015250565b6000615bea6029836149a8565b9150615bf582615b8e565b604082019050919050565b60006020820190508181036000830152615c1981615bdd565b9050919050565b7f4552433732313a207472616e7366657220746f20746865207a65726f2061646460008201527f7265737300000000000000000000000000000000000000000000000000000000602082015250565b6000615c7c6024836149a8565b9150615c8782615c20565b604082019050919050565b60006020820190508181036000830152615cab81615c6f565b9050919050565b7f4552433732313a206f70657261746f7220717565727920666f72206e6f6e657860008201527f697374656e7420746f6b656e0000000000000000000000000000000000000000602082015250565b6000615d0e602c836149a8565b9150615d1982615cb2565b604082019050919050565b60006020820190508181036000830152615d3d81615d01565b9050919050565b7f45524337323155524953746f726167653a2055524920736574206f66206e6f6e60008201527f6578697374656e7420746f6b656e000000000000000000000000000000000000602082015250565b6000615da0602e836149a8565b9150615dab82615d44565b604082019050919050565b60006020820190508181036000830152615dcf81615d93565b9050919050565b7f4552433732313a207472616e7366657220746f206e6f6e20455243373231526560008201527f63656976657220696d706c656d656e7465720000000000000000000000000000602082015250565b6000615e326032836149a8565b9150615e3d82615dd6565b604082019050919050565b60006020820190508181036000830152615e6181615e25565b9050919050565b7f4552433732314d657461646174613a2055524920717565727920666f72206e6f60008201527f6e6578697374656e7420746f6b656e0000000000000000000000000000000000602082015250565b6000615ec4602f836149a8565b9150615ecf82615e68565b604082019050919050565b60006020820190508181036000830152615ef381615eb7565b9050919050565b600081519050919050565b600082825260208201905092915050565b6000615f2182615efa565b615f2b8185615f05565b9350615f3b8185602086016149b9565b615f44816149ec565b840191505092915050565b6000608082019050615f646000830187614aed565b615f716020830186614aed565b615f7e6040830185614c03565b8181036060830152615f908184615f16565b905095945050505050565b600081519050615faa8161490e565b92915050565b600060208284031215615fc657615fc56148d8565b5b6000615fd484828501615f9b565b91505092915050565b7f4e487b7100000000000000000000000000000000000000000000000000000000600052601260045260246000fd5b600061601782614a58565b915061602283614a58565b92508261603257616031615fdd565b5b828204905092915050565b600061604882614a58565b915061605383614a58565b92508261606357616062615fdd565b5b828206905092915050565b7f4552433732313a206d696e7420746f20746865207a65726f2061646472657373600082015250565b60006160a46020836149a8565b91506160af8261606e565b602082019050919050565b600060208201905081810360008301526160d381616097565b9050919050565b7f4552433732313a20746f6b656e20616c7265616479206d696e74656400000000600082015250565b6000616110601c836149a8565b915061611b826160da565b602082019050919050565b6000602082019050818103600083015261613f81616103565b905091905056fea26469706673582212201bc158e1079b00890e1edc75d698e6d9779cf22316198c887f90d0684871058164736f6c634300080a0033",
  "immutableReferences": {},
  "source": "// SPDX-License-Identifier: MIT\npragma solidity ^0.8.0;\n//pragma abicoder v2;\n\n// import ERC721 iterface\nimport \"@openzeppelin/contracts/utils/Counters.sol\";\nimport \"@openzeppelin/contracts/token/ERC721/extensions/ERC721URIStorage.sol\";\nimport \"@openzeppelin/contracts/token/ERC721/ERC721.sol\";\nimport \"@openzeppelin/contracts/token/ERC721/IERC721.sol\";\n//import  \"@openzeppelin-solidity/contracts/token/ERC721/ERC721Full.sol\";\nimport \"@openzeppelin/contracts/token/ERC721/IERC721Receiver.sol\";\nimport \"@openzeppelin/contracts/token/ERC721/extensions/IERC721Metadata.sol\";\nimport \"@openzeppelin/contracts/utils/Address.sol\";\nimport \"@openzeppelin/contracts/utils/Context.sol\";\nimport \"@openzeppelin/contracts/utils/Strings.sol\";\nimport \"@openzeppelin/contracts/utils/introspection/ERC165.sol\";\n//import \"@openzeppelin/contracts/token/ERC721/extensions/IERC721Enumerable.sol\";\n\n// NFTStaking smart contract inherits ERC721 interface\ncontract NFTStaking is ERC721URIStorage  {\n\n  // Event declaration\n  // Up to 3 parameters can be indexed.\n  // Indexed parameters helps you filter the logs by the indexed parameter\n  \n\n  // this contract's token collection name\n  string public  collectionName;\n  // this contract's token symbol\n  string public  collectionNameSymbol;\n  // total number of crypto boys minted\n  uint256 public nftStakingCounter;\n  /**\n  * @notice We usually require to know who are all the stakeholders.\n  */\n  address[] internal stakeholders;\n  /**\n  * @notice The stakes for each stakeholder.\n  */\n  mapping(address => uint256[]) internal stakes;\n \n   /**\n   * @notice The accumulated rewards for each stakeholder.\n   */\n     mapping(address => uint256) internal rewards;\n\n     uint256[] internal nft;\n\n \n\n\n  event collectoinNameEvent(string _name);\n\n  // define crypto boy struct\n   struct Staking {\n    uint256 tokenId;\n    string tokenName;\n    string tokenURI;\n    address payable mintedBy;\n    address payable currentOwner;\n    address payable previousOwner;\n    bool staked;\n    uint256 price;\n    uint256 numberOfTransfers;\n    bool forSale;\n  }\n\n\n  // map staking's token id to crypto boy\n  mapping(uint256 => Staking) public allNFTStaking;\n  // check if token name exists\n  mapping(string => bool) public tokenNameExists;\n  // check if color exists\n  //mapping(string => bool) public colorExists;\n  // check if token URI exists\n  mapping(string => bool) public tokenURIExists;\n\n  // initialize contract while deployment with contract's collection name and token\n  //constructor() ERC721(\"Crypto Boys Collection\", \"CB\")\n  constructor(string memory _name, string memory _symbol) ERC721(\"Staking NFT Collection\", \"Staking\")\n  {\n    collectionName = _name;\n   \n    collectionNameSymbol = _symbol; \n  } \n\n/*   function registerUser(address _user) {\n\n    // registers user\n  \n  } */\n\n  // mint a new crypto boy\n  function mintStaking(string memory _name, string memory _tokenURI, uint256 _price) public {\n    // check if thic fucntion caller is not an zero address account\n    require(msg.sender != address(0),\"Try to mint NFT with 0x0 adress\");\n    // increment counter\n    nftStakingCounter ++;\n    // check if a token exists with the above token id => incremented counter\n    require(!_exists(nftStakingCounter));\n\n    // check if the token URI already exists or not\n    require(!tokenURIExists[_tokenURI],\"Try to mint anoter NFT with the same URI\");\n    // check if the token name already exists or not\n    require(!tokenNameExists[_name], \"Try to mint NFT with the same name\");\n\n    // mint the token\n    _safeMint(msg.sender, nftStakingCounter);\n    // set token URI (bind token id with the passed in token URI)\n    _setTokenURI(nftStakingCounter, _tokenURI);\n\n   /*  // loop through the colors passed and make each of the colors as exists since the token is already minted\n    for (uint i=0; i<_colors.length; i++) {\n      colorExists[_colors[i]] = true;\n    } */\n    // make passed token URI as exists\n    tokenURIExists[_tokenURI] = true;\n    // make token name passed as exists\n    tokenNameExists[_name] = true;\n\n    // creat a new crypto boy (struct) and pass in new values\n    address payable zero  = payable (address(0));\n    address payable sender  = payable (msg.sender);\n    Staking memory newStaking = Staking(\n    nftStakingCounter,\n    _name,\n    _tokenURI,\n    sender,\n    sender,\n    zero,\n    false,\n    _price,\n    0,\n    true);\n    // add the token id and it's crypto boy to all crypto boys mapping\n    allNFTStaking[nftStakingCounter] = newStaking;\n  }\n\n  // get owner of the token\n  function getTokenOwner(uint256 _tokenId) public view returns(address) {\n    address _tokenOwner = ownerOf(_tokenId);\n    return _tokenOwner;\n  }\n\n  // get metadata of the token\n  function getTokenMetaData(uint _tokenId) public view returns(string memory) {\n    string memory tokenMetaData = tokenURI(_tokenId);\n    //Staking memory staking = allNFTStaking[_tokenId];\n    return (tokenMetaData);\n  }\n  // get name of the token\n  function getTokenName(uint _tokenId) public view returns(string memory) {\n    //string memory tokenMetaData = tokenURI(_tokenId);\n    Staking memory staking = allNFTStaking[_tokenId];\n    return (staking.tokenName);\n  }\n  // get price of the token\n  function getTokenPrice(uint _tokenId) public view returns(uint256) {\n    //string memory tokenMetaData = tokenURI(_tokenId);\n    Staking memory staking = allNFTStaking[_tokenId];\n    return (staking.price);\n  }\n\n  // get total number of tokens minted so far\n  function getNumberOfTokensMinted() public view returns(uint256) {\n    uint256 totalNumberOfTokensMinted = nftStakingCounter;\n    return totalNumberOfTokensMinted;\n  }\n\n  // get total number of tokens owned by an address\n  function getTotalNumberOfTokensOwnedByAnAddress(address _owner) public view returns(uint256) {\n    uint256 totalNumberOfTokensOwned = balanceOf(_owner);\n    return totalNumberOfTokensOwned;\n  }\n\n  // check if the token already exists\n  function getTokenExists(uint256 _tokenId) public view returns(bool) {\n    bool tokenExists = _exists(_tokenId);\n    return tokenExists;\n  }\n\n\n  // by a token by passing in the token's id\n  function buyToken(uint256 _tokenId) public payable {\n    // check if the function caller is not an zero account address\n    require(msg.sender != 0x0000000000000000000000000000000000000000,\"Try to buy nft with user 0x000000000000\");\n    // check if the token id of the token being bought exists or not\n    require(_exists(_tokenId));\n    // get the token's owner\n    address tokenOwner = ownerOf(_tokenId);\n    // token's owner should not be an zero address account\n    require(tokenOwner != address(0));\n    // the one who wants to buy the token should not be the token's owner\n    require(tokenOwner != msg.sender);\n    // get that token from all crypto NFT mapping and create a memory of it defined as (struct => Staking)\n    Staking memory staking = allNFTStaking[_tokenId];\n    // price sent in to buy should be equal to or more than the token's price\n    require(msg.value >= staking.price);\n    // token should be for sale\n    require(staking.forSale);\n    // transfer the token from owner to the caller of the function (buyer)\n    _transfer(tokenOwner, msg.sender, _tokenId);\n    // get owner of the token\n    address payable sendTo = staking.currentOwner;\n    // send token's worth of ethers to the owner\n    sendTo.transfer(msg.value);\n    // update the token's previous owner\n    staking.previousOwner = staking.currentOwner;\n    // update the token's current owner\n    staking.currentOwner = payable (msg.sender);\n    // update the how many times this token was transfered\n    staking.numberOfTransfers += 1;\n    // set and update that token in the mapping\n    allNFTStaking[_tokenId] = staking;\n  }\n\n  function changeTokenPrice(uint256 _tokenId, uint256 _newPrice) public {\n    // require caller of the function is not an empty address\n    require(msg.sender != address(0));\n    // require that token should exist\n    require(_exists(_tokenId), \"Token do not exist\");\n    // get the token's owner\n    address tokenOwner = ownerOf(_tokenId);\n    // check that token's owner should be equal to the caller of the function\n    require(tokenOwner == msg.sender, \"Try to change token price with a user that is not the owner\");\n    // get that token from all crypto nft mapping and create a memory of it defined as (struct => Staking)\n    Staking memory staking = allNFTStaking[_tokenId];\n    // update token's price with new price\n    staking.price = _newPrice;\n    // set and update that token in the mapping\n    allNFTStaking[_tokenId] = staking;\n  }\n\n  // switch between set for sale and set not for sale\n  function toggleForSale(uint256 _tokenId) public {\n    // require caller of the function is not an empty address\n    require(msg.sender != address(0));\n    // require that token should exist\n    require(_exists(_tokenId));\n    // get the token's owner\n    address tokenOwner = ownerOf(_tokenId);\n    // check that token's owner should be equal to the caller of the function\n    require(tokenOwner == msg.sender);\n    // get that token from all crypto nft mapping and create a memory of it defined as (struct => Staking)\n    Staking memory staking = allNFTStaking[_tokenId];\n    // if token's forSale is false make it true and vice versa\n    // check that the token is not staked\n    require(staking.staked==false);\n    if(staking.forSale) {\n      staking.forSale = false;\n    } else {\n      staking.forSale = true;\n    }\n    // set and update that token in the mapping\n    allNFTStaking[_tokenId] = staking;\n  }\n\n  \n    // ---------- STAKES ----------\n\n    /* \n     * @notice A method for a stakeholder to create a NFT stake. The ideia of stake a NFT should be different \n     * stake a ERC20 token. The idea here is a transfer the onwership to the contract adn not  burn the NFT\n     * @param _stake The size of the stake to be created.\n     */\n     function createStake(uint256 _tokenId) external\n      {\n      \n      // require caller of the function is not an empty address\n      require(msg.sender != address(0));\n      // require that token should exist\n      require(_exists(_tokenId));\n      // get the token's owner\n      address tokenOwner = ownerOf(_tokenId);\n      // check that token's owner should be equal to the caller of the function\n      require(tokenOwner == msg.sender);\n      \n\n      // get that token from all crypto NFT mapping and create a memory of it defined as (struct => Staking)\n      Staking memory staking = allNFTStaking[_tokenId];\n      // check that the token is not staked\n      require(staking.staked==false);\n\n      \n      //_burn(_tokenId); // burn the NFT\n      // transfer the token from owner to the contract\n      _transfer(tokenOwner, address(this), _tokenId);\n      // change the status of staked == true\n      staking.staked = true;\n\n\n    \n\n      // set and update that token in the mapping\n      allNFTStaking[_tokenId] = staking;\n      \n     \n    }\n\n    /*\n     * @notice A method for a stakeholder to remove a stake. Transfer the owership to the owner of the contract\n     * @param _stake The size of the stake to be removed.\n     */\n     function removeStake(uint256 _tokenId)  public\n     {\n        // require caller of the function is not an empty address\n        require(msg.sender != address(0));\n        // require that token should exist\n        require(_exists(_tokenId));\n        // get the token's owner\n        address tokenOwner = ownerOf(_tokenId);\n        // check that token's owner should be equal to the caller of the function\n        require(tokenOwner == address(this));\n        // get that token from all crypto NFT mapping and create a memory of it defined as (struct => Staking)\n        Staking memory staking = allNFTStaking[_tokenId];\n        // check that the token is not staked\n        require(staking.staked==true);\n        require(staking.currentOwner==msg.sender,\"Try to remove the stake with a different users\");\n        \n        // transfer the token from contract to the owner\n        _transfer(address(this), msg.sender, _tokenId);\n        // change the status of staked == true\n        staking.staked = false;\n        \n        // set and update that token in the mapping\n        allNFTStaking[_tokenId] = staking;\n      }\n\n    function addStakeholder(address _stakeholder)\n        public\n    {\n        (bool _isStakeholder, ) = isStakeholder(_stakeholder);\n        if(!_isStakeholder) stakeholders.push(_stakeholder);\n    }\n\n\n    // ---------- STAKEHOLDERS ----------\n\n    /**\n     * @notice A method to check if an address is a stakeholder.\n     * @param _address The address to verify.\n     * @return bool, uint256 Whether the address is a stakeholder, \n     * and if so its position in the stakeholders array.\n     */\n     function isStakeholder(address _address) public view returns(bool, uint256)\n     {\n       for (uint256 s = 0; s < stakeholders.length; s += 1){\n          if (_address == stakeholders[s]) return (true, s);\n       }\n       return (false, 0);\n     }\n     function removeStakeholder(address _stakeholder) public {\n        (bool _isStakeholder, uint256 s) = isStakeholder(_stakeholder);\n        if(_isStakeholder){\n            stakeholders[s] = stakeholders[stakeholders.length - 1];\n            stakeholders.pop();\n        } \n    }\n}\n\n",
  "sourcePath": "/home/ubuntu/Consensys/blockchain-developer-bootcamp-final-project/contracts/NFTStaking.sol",
  "compiler": {
    "name": "solc",
    "version": "0.8.10+commit.fc410830.Emscripten.clang"
  },
  "schemaVersion": "3.4.3",
  "updatedAt": "2022-01-04T14:02:48.947Z",
  "devdoc": {
    "kind": "dev",
    "methods": {
      "approve(address,uint256)": {
        "details": "See {IERC721-approve}."
      },
      "balanceOf(address)": {
        "details": "See {IERC721-balanceOf}."
      },
      "getApproved(uint256)": {
        "details": "See {IERC721-getApproved}."
      },
      "isApprovedForAll(address,address)": {
        "details": "See {IERC721-isApprovedForAll}."
      },
      "isStakeholder(address)": {
        "params": {
          "_address": "The address to verify."
        },
        "returns": {
          "_0": "bool, uint256 Whether the address is a stakeholder,  and if so its position in the stakeholders array."
        }
      },
      "name()": {
        "details": "See {IERC721Metadata-name}."
      },
      "ownerOf(uint256)": {
        "details": "See {IERC721-ownerOf}."
      },
      "safeTransferFrom(address,address,uint256)": {
        "details": "See {IERC721-safeTransferFrom}."
      },
      "safeTransferFrom(address,address,uint256,bytes)": {
        "details": "See {IERC721-safeTransferFrom}."
      },
      "setApprovalForAll(address,bool)": {
        "details": "See {IERC721-setApprovalForAll}."
      },
      "supportsInterface(bytes4)": {
        "details": "See {IERC165-supportsInterface}."
      },
      "symbol()": {
        "details": "See {IERC721Metadata-symbol}."
      },
      "tokenURI(uint256)": {
        "details": "See {IERC721Metadata-tokenURI}."
      },
      "transferFrom(address,address,uint256)": {
        "details": "See {IERC721-transferFrom}."
      }
    },
    "version": 1
  },
  "userdoc": {
    "kind": "user",
    "methods": {
      "isStakeholder(address)": {
        "notice": "A method to check if an address is a stakeholder."
      }
    },
    "version": 1
  }
}