{
  "contractName": "NFTStaking",
  "abi": [
    {
      "inputs": [
        {
          "internalType": "string",
          "name": "_name",
          "type": "string"
        },
        {
          "internalType": "string",
          "name": "_symbol",
          "type": "string"
        }
      ],
      "stateMutability": "nonpayable",
      "type": "constructor"
    },
    {
      "anonymous": false,
      "inputs": [
        {
          "indexed": true,
          "internalType": "address",
          "name": "owner",
          "type": "address"
        },
        {
          "indexed": true,
          "internalType": "address",
          "name": "approved",
          "type": "address"
        },
        {
          "indexed": true,
          "internalType": "uint256",
          "name": "tokenId",
          "type": "uint256"
        }
      ],
      "name": "Approval",
      "type": "event"
    },
    {
      "anonymous": false,
      "inputs": [
        {
          "indexed": true,
          "internalType": "address",
          "name": "owner",
          "type": "address"
        },
        {
          "indexed": true,
          "internalType": "address",
          "name": "operator",
          "type": "address"
        },
        {
          "indexed": false,
          "internalType": "bool",
          "name": "approved",
          "type": "bool"
        }
      ],
      "name": "ApprovalForAll",
      "type": "event"
    },
    {
      "anonymous": false,
      "inputs": [
        {
          "indexed": true,
          "internalType": "address",
          "name": "from",
          "type": "address"
        },
        {
          "indexed": true,
          "internalType": "address",
          "name": "to",
          "type": "address"
        },
        {
          "indexed": true,
          "internalType": "uint256",
          "name": "tokenId",
          "type": "uint256"
        }
      ],
      "name": "Transfer",
      "type": "event"
    },
    {
      "anonymous": false,
      "inputs": [
        {
          "indexed": false,
          "internalType": "string",
          "name": "_name",
          "type": "string"
        }
      ],
      "name": "collectoinNameEvent",
      "type": "event"
    },
    {
      "inputs": [
        {
          "internalType": "uint256",
          "name": "",
          "type": "uint256"
        }
      ],
      "name": "allNFTStaking",
      "outputs": [
        {
          "internalType": "uint256",
          "name": "tokenId",
          "type": "uint256"
        },
        {
          "internalType": "string",
          "name": "tokenName",
          "type": "string"
        },
        {
          "internalType": "string",
          "name": "tokenURI",
          "type": "string"
        },
        {
          "internalType": "address payable",
          "name": "mintedBy",
          "type": "address"
        },
        {
          "internalType": "address payable",
          "name": "currentOwner",
          "type": "address"
        },
        {
          "internalType": "address payable",
          "name": "previousOwner",
          "type": "address"
        },
        {
          "internalType": "bool",
          "name": "staked",
          "type": "bool"
        },
        {
          "internalType": "uint256",
          "name": "price",
          "type": "uint256"
        },
        {
          "internalType": "uint256",
          "name": "numberOfTransfers",
          "type": "uint256"
        },
        {
          "internalType": "bool",
          "name": "forSale",
          "type": "bool"
        }
      ],
      "stateMutability": "view",
      "type": "function"
    },
    {
      "inputs": [
        {
          "internalType": "address",
          "name": "to",
          "type": "address"
        },
        {
          "internalType": "uint256",
          "name": "tokenId",
          "type": "uint256"
        }
      ],
      "name": "approve",
      "outputs": [],
      "stateMutability": "nonpayable",
      "type": "function"
    },
    {
      "inputs": [
        {
          "internalType": "address",
          "name": "owner",
          "type": "address"
        }
      ],
      "name": "balanceOf",
      "outputs": [
        {
          "internalType": "uint256",
          "name": "",
          "type": "uint256"
        }
      ],
      "stateMutability": "view",
      "type": "function"
    },
    {
      "inputs": [],
      "name": "collectionName",
      "outputs": [
        {
          "internalType": "string",
          "name": "",
          "type": "string"
        }
      ],
      "stateMutability": "view",
      "type": "function"
    },
    {
      "inputs": [],
      "name": "collectionNameSymbol",
      "outputs": [
        {
          "internalType": "string",
          "name": "",
          "type": "string"
        }
      ],
      "stateMutability": "view",
      "type": "function"
    },
    {
      "inputs": [
        {
          "internalType": "uint256",
          "name": "tokenId",
          "type": "uint256"
        }
      ],
      "name": "getApproved",
      "outputs": [
        {
          "internalType": "address",
          "name": "",
          "type": "address"
        }
      ],
      "stateMutability": "view",
      "type": "function"
    },
    {
      "inputs": [
        {
          "internalType": "address",
          "name": "owner",
          "type": "address"
        },
        {
          "internalType": "address",
          "name": "operator",
          "type": "address"
        }
      ],
      "name": "isApprovedForAll",
      "outputs": [
        {
          "internalType": "bool",
          "name": "",
          "type": "bool"
        }
      ],
      "stateMutability": "view",
      "type": "function"
    },
    {
      "inputs": [],
      "name": "name",
      "outputs": [
        {
          "internalType": "string",
          "name": "",
          "type": "string"
        }
      ],
      "stateMutability": "view",
      "type": "function"
    },
    {
      "inputs": [],
      "name": "nftStakingCounter",
      "outputs": [
        {
          "internalType": "uint256",
          "name": "",
          "type": "uint256"
        }
      ],
      "stateMutability": "view",
      "type": "function"
    },
    {
      "inputs": [
        {
          "internalType": "uint256",
          "name": "tokenId",
          "type": "uint256"
        }
      ],
      "name": "ownerOf",
      "outputs": [
        {
          "internalType": "address",
          "name": "",
          "type": "address"
        }
      ],
      "stateMutability": "view",
      "type": "function"
    },
    {
      "inputs": [
        {
          "internalType": "address",
          "name": "from",
          "type": "address"
        },
        {
          "internalType": "address",
          "name": "to",
          "type": "address"
        },
        {
          "internalType": "uint256",
          "name": "tokenId",
          "type": "uint256"
        }
      ],
      "name": "safeTransferFrom",
      "outputs": [],
      "stateMutability": "nonpayable",
      "type": "function"
    },
    {
      "inputs": [
        {
          "internalType": "address",
          "name": "from",
          "type": "address"
        },
        {
          "internalType": "address",
          "name": "to",
          "type": "address"
        },
        {
          "internalType": "uint256",
          "name": "tokenId",
          "type": "uint256"
        },
        {
          "internalType": "bytes",
          "name": "_data",
          "type": "bytes"
        }
      ],
      "name": "safeTransferFrom",
      "outputs": [],
      "stateMutability": "nonpayable",
      "type": "function"
    },
    {
      "inputs": [
        {
          "internalType": "address",
          "name": "operator",
          "type": "address"
        },
        {
          "internalType": "bool",
          "name": "approved",
          "type": "bool"
        }
      ],
      "name": "setApprovalForAll",
      "outputs": [],
      "stateMutability": "nonpayable",
      "type": "function"
    },
    {
      "inputs": [
        {
          "internalType": "bytes4",
          "name": "interfaceId",
          "type": "bytes4"
        }
      ],
      "name": "supportsInterface",
      "outputs": [
        {
          "internalType": "bool",
          "name": "",
          "type": "bool"
        }
      ],
      "stateMutability": "view",
      "type": "function"
    },
    {
      "inputs": [],
      "name": "symbol",
      "outputs": [
        {
          "internalType": "string",
          "name": "",
          "type": "string"
        }
      ],
      "stateMutability": "view",
      "type": "function"
    },
    {
      "inputs": [
        {
          "internalType": "string",
          "name": "",
          "type": "string"
        }
      ],
      "name": "tokenNameExists",
      "outputs": [
        {
          "internalType": "bool",
          "name": "",
          "type": "bool"
        }
      ],
      "stateMutability": "view",
      "type": "function"
    },
    {
      "inputs": [
        {
          "internalType": "uint256",
          "name": "tokenId",
          "type": "uint256"
        }
      ],
      "name": "tokenURI",
      "outputs": [
        {
          "internalType": "string",
          "name": "",
          "type": "string"
        }
      ],
      "stateMutability": "view",
      "type": "function"
    },
    {
      "inputs": [
        {
          "internalType": "string",
          "name": "",
          "type": "string"
        }
      ],
      "name": "tokenURIExists",
      "outputs": [
        {
          "internalType": "bool",
          "name": "",
          "type": "bool"
        }
      ],
      "stateMutability": "view",
      "type": "function"
    },
    {
      "inputs": [
        {
          "internalType": "address",
          "name": "from",
          "type": "address"
        },
        {
          "internalType": "address",
          "name": "to",
          "type": "address"
        },
        {
          "internalType": "uint256",
          "name": "tokenId",
          "type": "uint256"
        }
      ],
      "name": "transferFrom",
      "outputs": [],
      "stateMutability": "nonpayable",
      "type": "function"
    },
    {
      "inputs": [
        {
          "internalType": "string",
          "name": "_name",
          "type": "string"
        },
        {
          "internalType": "string",
          "name": "_tokenURI",
          "type": "string"
        },
        {
          "internalType": "uint256",
          "name": "_price",
          "type": "uint256"
        }
      ],
      "name": "mintStaking",
      "outputs": [],
      "stateMutability": "nonpayable",
      "type": "function"
    },
    {
      "inputs": [
        {
          "internalType": "uint256",
          "name": "_tokenId",
          "type": "uint256"
        }
      ],
      "name": "getTokenOwner",
      "outputs": [
        {
          "internalType": "address",
          "name": "",
          "type": "address"
        }
      ],
      "stateMutability": "view",
      "type": "function"
    },
    {
      "inputs": [
        {
          "internalType": "uint256",
          "name": "_tokenId",
          "type": "uint256"
        }
      ],
      "name": "getTokenMetaData",
      "outputs": [
        {
          "internalType": "string",
          "name": "",
          "type": "string"
        }
      ],
      "stateMutability": "view",
      "type": "function"
    },
    {
      "inputs": [
        {
          "internalType": "uint256",
          "name": "_tokenId",
          "type": "uint256"
        }
      ],
      "name": "getTokenName",
      "outputs": [
        {
          "internalType": "string",
          "name": "",
          "type": "string"
        }
      ],
      "stateMutability": "view",
      "type": "function"
    },
    {
      "inputs": [
        {
          "internalType": "uint256",
          "name": "_tokenId",
          "type": "uint256"
        }
      ],
      "name": "getTokenPrice",
      "outputs": [
        {
          "internalType": "uint256",
          "name": "",
          "type": "uint256"
        }
      ],
      "stateMutability": "view",
      "type": "function"
    },
    {
      "inputs": [],
      "name": "getNumberOfTokensMinted",
      "outputs": [
        {
          "internalType": "uint256",
          "name": "",
          "type": "uint256"
        }
      ],
      "stateMutability": "view",
      "type": "function"
    },
    {
      "inputs": [
        {
          "internalType": "address",
          "name": "_owner",
          "type": "address"
        }
      ],
      "name": "getTotalNumberOfTokensOwnedByAnAddress",
      "outputs": [
        {
          "internalType": "uint256",
          "name": "",
          "type": "uint256"
        }
      ],
      "stateMutability": "view",
      "type": "function"
    },
    {
      "inputs": [
        {
          "internalType": "uint256",
          "name": "_tokenId",
          "type": "uint256"
        }
      ],
      "name": "getTokenExists",
      "outputs": [
        {
          "internalType": "bool",
          "name": "",
          "type": "bool"
        }
      ],
      "stateMutability": "view",
      "type": "function"
    },
    {
      "inputs": [
        {
          "internalType": "uint256",
          "name": "_tokenId",
          "type": "uint256"
        }
      ],
      "name": "buyToken",
      "outputs": [],
      "stateMutability": "payable",
      "type": "function"
    },
    {
      "inputs": [
        {
          "internalType": "uint256",
          "name": "_tokenId",
          "type": "uint256"
        },
        {
          "internalType": "uint256",
          "name": "_newPrice",
          "type": "uint256"
        }
      ],
      "name": "changeTokenPrice",
      "outputs": [],
      "stateMutability": "nonpayable",
      "type": "function"
    },
    {
      "inputs": [
        {
          "internalType": "uint256",
          "name": "_tokenId",
          "type": "uint256"
        }
      ],
      "name": "toggleForSale",
      "outputs": [],
      "stateMutability": "nonpayable",
      "type": "function"
    },
    {
      "inputs": [
        {
          "internalType": "uint256",
          "name": "_tokenId",
          "type": "uint256"
        }
      ],
      "name": "createStake",
      "outputs": [],
      "stateMutability": "nonpayable",
      "type": "function"
    },
    {
      "inputs": [
        {
          "internalType": "uint256",
          "name": "_tokenId",
          "type": "uint256"
        }
      ],
      "name": "removeStake",
      "outputs": [],
      "stateMutability": "nonpayable",
      "type": "function"
    },
    {
      "inputs": [
        {
          "internalType": "address",
          "name": "_stakeholder",
          "type": "address"
        }
      ],
      "name": "addStakeholder",
      "outputs": [],
      "stateMutability": "nonpayable",
      "type": "function"
    },
    {
      "inputs": [
        {
          "internalType": "address",
          "name": "_address",
          "type": "address"
        }
      ],
      "name": "isStakeholder",
      "outputs": [
        {
          "internalType": "bool",
          "name": "",
          "type": "bool"
        },
        {
          "internalType": "uint256",
          "name": "",
          "type": "uint256"
        }
      ],
      "stateMutability": "view",
      "type": "function"
    },
    {
      "inputs": [
        {
          "internalType": "address",
          "name": "_stakeholder",
          "type": "address"
        }
      ],
      "name": "removeStakeholder",
      "outputs": [],
      "stateMutability": "nonpayable",
      "type": "function"
    }
  ],
  "bytecode": "0x60806040523480156200001157600080fd5b5060405162003bc238038062003bc2833981016040819052620000349162000287565b604080518082018252601681527f5374616b696e67204e465420436f6c6c656374696f6e0000000000000000000060208083019182528351808501909452600784527f5374616b696e6700000000000000000000000000000000000000000000000000908401528151919291620000ae91600091620000fb565b508051620000c4906001906020840190620000fb565b50508251620000dc91506007906020850190620000fb565b508051620000f2906008906020840190620000fb565b50505062000347565b8280546200010990620002f1565b90600052602060002090601f0160209004810192826200012d576000855562000178565b82601f106200014857805160ff191683800117855562000178565b8280016001018555821562000178579182015b82811115620001785782518255916020019190600101906200015b565b50620001869291506200018a565b5090565b5b808211156200018657600081556001016200018b565b7f4e487b7100000000000000000000000000000000000000000000000000000000600052604160045260246000fd5b600082601f830112620001e257600080fd5b81516001604060020a0380821115620001ff57620001ff620001a1565b604051601f8301601f19908116603f011681019082821181831017156200022a576200022a620001a1565b816040528381526020925086838588010111156200024757600080fd5b600091505b838210156200026b57858201830151818301840152908201906200024c565b838211156200027d5760008385830101525b9695505050505050565b600080604083850312156200029b57600080fd5b82516001604060020a0380821115620002b357600080fd5b620002c186838701620001d0565b93506020850151915080821115620002d857600080fd5b50620002e785828601620001d0565b9150509250929050565b6002810460018216806200030657607f821691505b6020821081141562000341577f4e487b7100000000000000000000000000000000000000000000000000000000600052602260045260246000fd5b50919050565b61386b80620003576000396000f3fe608060405260043610610221576000357c01000000000000000000000000000000000000000000000000000000009004806379d56e5811610135578063bcb0c2d7116100bd578063dbe16c071161008c578063dbe16c0714610639578063e5326ab114610659578063e5c42fd11461066e578063e985e9c51461068e578063ef037b90146106d757600080fd5b8063bcb0c2d7146105c4578063c457fb37146105e4578063c87b56dd14610604578063cc151f3a1461062457600080fd5b8063a22cb46511610104578063a22cb46514610509578063a32018b914610529578063a46b1fac14610549578063a5cd761f14610584578063b88d4fde146105a457600080fd5b806379d56e5814610488578063939624ab146104be57806395d89b41146104de5780639c859bfb146104f357600080fd5b806342842e0e116101b85780636352211e116101875780636352211e146103f357806367c623cf146104135780636db5418b146104335780636f9507f91461045357806370a082311461046857600080fd5b806342842e0e1461034a578063439028501461036a57806343d32ae71461039857806362e8e8ac146103d357600080fd5b8063142687f3116101f4578063142687f3146102d75780631bf6ddae146102f757806323b872dd146103175780632d296bf11461033757600080fd5b806301ffc9a71461022657806306fdde031461025b578063081812fc1461027d578063095ea7b3146102b5575b600080fd5b34801561023257600080fd5b506102466102413660046131af565b61070e565b60405190151581526020015b60405180910390f35b34801561026757600080fd5b506102706107ab565b6040516102529190613224565b34801561028957600080fd5b5061029d610298366004613237565b61083d565b604051600160a060020a039091168152602001610252565b3480156102c157600080fd5b506102d56102d036600461326c565b6108de565b005b3480156102e357600080fd5b506102466102f2366004613237565b610a16565b34801561030357600080fd5b506102d5610312366004613237565b610a29565b34801561032357600080fd5b506102d5610332366004613296565b610d3b565b6102d5610345366004613237565b610d6f565b34801561035657600080fd5b506102d5610365366004613296565b61114e565b34801561037657600080fd5b5061038a6103853660046132d2565b611169565b604051908152602001610252565b3480156103a457600080fd5b506102466103b336600461339c565b805160208183018101805160108252928201919093012091525460ff1681565b3480156103df57600080fd5b506102d56103ee3660046133d1565b611175565b3480156103ff57600080fd5b5061029d61040e366004613237565b611455565b34801561041f57600080fd5b5061027061042e366004613237565b6114e3565b34801561043f57600080fd5b506102d561044e3660046133f3565b6114f0565b34801561045f57600080fd5b50610270611863565b34801561047457600080fd5b5061038a6104833660046132d2565b6118f1565b34801561049457600080fd5b506104a86104a3366004613237565b61198e565b6040516102529a99989796959493929190613460565b3480156104ca57600080fd5b506102d56104d9366004613237565b611b06565b3480156104ea57600080fd5b50610270611dd3565b3480156104ff57600080fd5b5061038a60095481565b34801561051557600080fd5b506102d56105243660046134d8565b611de2565b34801561053557600080fd5b506102d5610544366004613237565b611eaa565b34801561055557600080fd5b5061024661056436600461339c565b8051602081830181018051600f8252928201919093012091525460ff1681565b34801561059057600080fd5b5061029d61059f366004613237565b6120fd565b3480156105b057600080fd5b506102d56105bf366004613514565b612109565b3480156105d057600080fd5b506102d56105df3660046132d2565b612144565b3480156105f057600080fd5b5061038a6105ff366004613237565b61220c565b34801561061057600080fd5b5061027061061f366004613237565b6123c2565b34801561063057600080fd5b5060095461038a565b34801561064557600080fd5b50610270610654366004613237565b612548565b34801561066557600080fd5b50610270612702565b34801561067a57600080fd5b506102d56106893660046132d2565b61270f565b34801561069a57600080fd5b506102466106a9366004613590565b600160a060020a03918216600090815260056020908152604080832093909416825291909152205460ff1690565b3480156106e357600080fd5b506106f76106f23660046132d2565b612772565b604080519215158352602083019190915201610252565b6000600160e060020a031982167f80ac58cd0000000000000000000000000000000000000000000000000000000014806107715750600160e060020a031982167f5b5e139f00000000000000000000000000000000000000000000000000000000145b806107a557507f01ffc9a700000000000000000000000000000000000000000000000000000000600160e060020a03198316145b92915050565b6060600080546107ba906135c3565b80601f01602080910402602001604051908101604052809291908181526020018280546107e6906135c3565b80156108335780601f1061080857610100808354040283529160200191610833565b820191906000526020600020905b81548152906001019060200180831161081657829003601f168201915b5050505050905090565b6000610848826127dd565b6108c25760405160e560020a62461bcd02815260206004820152602c60248201527f4552433732313a20617070726f76656420717565727920666f72206e6f6e657860448201527f697374656e7420746f6b656e000000000000000000000000000000000000000060648201526084015b60405180910390fd5b50600090815260046020526040902054600160a060020a031690565b60006108e982611455565b905080600160a060020a031683600160a060020a031614156109765760405160e560020a62461bcd02815260206004820152602160248201527f4552433732313a20617070726f76616c20746f2063757272656e74206f776e6560448201527f720000000000000000000000000000000000000000000000000000000000000060648201526084016108b9565b33600160a060020a0382161480610992575061099281336106a9565b610a075760405160e560020a62461bcd02815260206004820152603860248201527f4552433732313a20617070726f76652063616c6c6572206973206e6f74206f7760448201527f6e6572206e6f7220617070726f76656420666f7220616c6c000000000000000060648201526084016108b9565b610a1183836127fa565b505050565b600080610a22836127dd565b9392505050565b33610a3357600080fd5b610a3c816127dd565b610a4557600080fd5b6000610a5082611455565b9050600160a060020a0381163314610a6757600080fd5b6000600e60008481526020019081526020016000206040518061014001604052908160008201548152602001600182018054610aa2906135c3565b80601f0160208091040260200160405190810160405280929190818152602001828054610ace906135c3565b8015610b1b5780601f10610af057610100808354040283529160200191610b1b565b820191906000526020600020905b815481529060010190602001808311610afe57829003601f168201915b50505050508152602001600282018054610b34906135c3565b80601f0160208091040260200160405190810160405280929190818152602001828054610b60906135c3565b8015610bad5780601f10610b8257610100808354040283529160200191610bad565b820191906000526020600020905b815481529060010190602001808311610b9057829003601f168201915b50505091835250506003820154600160a060020a0390811660208301526004830154811660408301526005830154908116606083015260ff60a060020a909104811615156080830152600683015460a0830152600783015460c08084019190915260089093015416151560e09091015281015190915015610c2d57600080fd5b610c38823085612868565b600160c082018190526000848152600e602090815260409091208351815581840151805185949293610c6e9385019201906130fd565b5060408201518051610c8a9160028401916020909101906130fd565b506060820151600382018054600160a060020a0319908116600160a060020a0393841617909155608084015160048401805490921690831617905560a083015160058301805460c08601519290931674ffffffffffffffffffffffffffffffffffffffffff199093169290921760a060020a9115159190910217905560e082015160068201556101008201516007820155610120909101516008909101805460ff1916911515919091179055505050565b610d453382612a3b565b610d645760405160e560020a62461bcd0281526004016108b990613601565b610a11838383612868565b33610dbf5760405160e560020a62461bcd02815260206004820152601660248201527f427579206e66742077697468207573657220307830300000000000000000000060448201526064016108b9565b610dc8816127dd565b610dd157600080fd5b6000610ddc82611455565b9050600160a060020a038116610df157600080fd5b600160a060020a038116331415610e0757600080fd5b6000600e60008481526020019081526020016000206040518061014001604052908160008201548152602001600182018054610e42906135c3565b80601f0160208091040260200160405190810160405280929190818152602001828054610e6e906135c3565b8015610ebb5780601f10610e9057610100808354040283529160200191610ebb565b820191906000526020600020905b815481529060010190602001808311610e9e57829003601f168201915b50505050508152602001600282018054610ed4906135c3565b80601f0160208091040260200160405190810160405280929190818152602001828054610f00906135c3565b8015610f4d5780601f10610f2257610100808354040283529160200191610f4d565b820191906000526020600020905b815481529060010190602001808311610f3057829003601f168201915b50505091835250506003820154600160a060020a0390811660208301526004830154811660408301526005830154908116606083015260ff60a060020a909104811615156080830152600683015460a0830152600783015460c0830152600890920154909116151560e091820152810151909150341015610fcd57600080fd5b806101200151610fdc57600080fd5b610fe7823385612868565b6080810151604051600160a060020a038216903480156108fc02916000818181858888f19350505050158015611021573d6000803e3d6000fd5b50608082018051600160a060020a031660a0840152339052610100820180516001919061104f908390613677565b9052506000848152600e602090815260409091208351815581840151805185936110809260018501929101906130fd565b506040820151805161109c9160028401916020909101906130fd565b506060820151600382018054600160a060020a0319908116600160a060020a0393841617909155608084015160048401805490921690831617905560a083015160058301805460c08601519290931674ffffffffffffffffffffffffffffffffffffffffff199093169290921760a060020a9115159190910217905560e082015160068201556101008201516007820155610120909101516008909101805460ff191691151591909117905550505050565b610a1183838360405180602001604052806000815250612109565b600080610a22836118f1565b3361117f57600080fd5b611188826127dd565b6111d75760405160e560020a62461bcd02815260206004820152601260248201527f546f6b656e20646f206e6f74206578697374000000000000000000000000000060448201526064016108b9565b60006111e283611455565b9050600160a060020a03811633146112655760405160e560020a62461bcd02815260206004820152603b60248201527f54727920746f206368616e676520746f6b656e2070726963652077697468206160448201527f20757365722074686174206973206e6f7420746865206f776e6572000000000060648201526084016108b9565b6000600e600085815260200190815260200160002060405180610140016040529081600082015481526020016001820180546112a0906135c3565b80601f01602080910402602001604051908101604052809291908181526020018280546112cc906135c3565b80156113195780601f106112ee57610100808354040283529160200191611319565b820191906000526020600020905b8154815290600101906020018083116112fc57829003601f168201915b50505050508152602001600282018054611332906135c3565b80601f016020809104026020016040519081016040528092919081815260200182805461135e906135c3565b80156113ab5780601f10611380576101008083540402835291602001916113ab565b820191906000526020600020905b81548152906001019060200180831161138e57829003601f168201915b50505091835250506003820154600160a060020a03908116602080840191909152600484015482166040808501919091526005850154928316606085015260a060020a90920460ff90811615156080850152600685015460a0850152600785015460c0850152600890940154909316151560e0928301529083018690526000878152600e8352208251815582820151805193945084939192611080926001850192909101906130fd565b600081815260026020526040812054600160a060020a0316806107a55760405160e560020a62461bcd02815260206004820152602960248201527f4552433732313a206f776e657220717565727920666f72206e6f6e657869737460448201527f656e7420746f6b656e000000000000000000000000000000000000000000000060648201526084016108b9565b60606000610a22836123c2565b336115405760405160e560020a62461bcd02815260206004820152601f60248201527f54727920746f206d696e74204e4654207769746820307830206164726573730060448201526064016108b9565b600980549060006115508361368f565b91905055506115606009546127dd565b1561156a57600080fd5b60108260405161157a91906136aa565b9081526040519081900360200190205460ff16156116035760405160e560020a62461bcd02815260206004820152602860248201527f54727920746f206d696e7420616e6f746572204e46542077697468207468652060448201527f73616d652055524900000000000000000000000000000000000000000000000060648201526084016108b9565b600f8360405161161391906136aa565b9081526040519081900360200190205460ff161561169c5760405160e560020a62461bcd02815260206004820152602260248201527f54727920746f206d696e74204e46542077697468207468652073616d65206e6160448201527f6d6500000000000000000000000000000000000000000000000000000000000060648201526084016108b9565b6116a833600954612b35565b6116b460095483612b4f565b60016010836040516116c691906136aa565b908152604051908190036020018120805492151560ff1990931692909217909155600190600f906116f89086906136aa565b9081526040805160209281900383018120805460ff19169415159490941790935561014083018152600954808452828401878152848301879052336060860181905260808601819052600060a0870181905260c0870181905260e08701889052610100870181905260016101208801819052938152600e865293842086518155915180519496919591948594611793939085019201906130fd565b50604082015180516117af9160028401916020909101906130fd565b506060820151600382018054600160a060020a0319908116600160a060020a0393841617909155608084015160048401805490921690831617905560a083015160058301805460c08601519290931674ffffffffffffffffffffffffffffffffffffffffff199093169290921760a060020a9115159190910217905560e082015160068201556101008201516007820155610120909101516008909101805460ff1916911515919091179055505050505050565b60088054611870906135c3565b80601f016020809104026020016040519081016040528092919081815260200182805461189c906135c3565b80156118e95780601f106118be576101008083540402835291602001916118e9565b820191906000526020600020905b8154815290600101906020018083116118cc57829003601f168201915b505050505081565b6000600160a060020a0382166119725760405160e560020a62461bcd02815260206004820152602a60248201527f4552433732313a2062616c616e636520717565727920666f7220746865207a6560448201527f726f20616464726573730000000000000000000000000000000000000000000060648201526084016108b9565b50600160a060020a031660009081526003602052604090205490565b600e60205260009081526040902080546001820180549192916119b0906135c3565b80601f01602080910402602001604051908101604052809291908181526020018280546119dc906135c3565b8015611a295780601f106119fe57610100808354040283529160200191611a29565b820191906000526020600020905b815481529060010190602001808311611a0c57829003601f168201915b505050505090806002018054611a3e906135c3565b80601f0160208091040260200160405190810160405280929190818152602001828054611a6a906135c3565b8015611ab75780601f10611a8c57610100808354040283529160200191611ab7565b820191906000526020600020905b815481529060010190602001808311611a9a57829003601f168201915b505050600384015460048501546005860154600687015460078801546008909801549697600160a060020a03948516979385169650938216945060ff60a060020a90920482169390929091168a565b33611b1057600080fd5b611b19816127dd565b611b2257600080fd5b6000611b2d82611455565b9050600160a060020a0381163014611b4457600080fd5b6000600e60008481526020019081526020016000206040518061014001604052908160008201548152602001600182018054611b7f906135c3565b80601f0160208091040260200160405190810160405280929190818152602001828054611bab906135c3565b8015611bf85780601f10611bcd57610100808354040283529160200191611bf8565b820191906000526020600020905b815481529060010190602001808311611bdb57829003601f168201915b50505050508152602001600282018054611c11906135c3565b80601f0160208091040260200160405190810160405280929190818152602001828054611c3d906135c3565b8015611c8a5780601f10611c5f57610100808354040283529160200191611c8a565b820191906000526020600020905b815481529060010190602001808311611c6d57829003601f168201915b50505091835250506003820154600160a060020a0390811660208301526004830154811660408301526005830154908116606083015260ff60a060020a909104811615156080830152600683015460a0830152600783015460c08084019190915260089093015416151560e0909101528101519091501515600114611d0e57600080fd5b6080810151600160a060020a03163314611d935760405160e560020a62461bcd02815260206004820152602e60248201527f54727920746f2072656d6f766520746865207374616b6520776974682061206460448201527f6966666572656e7420757365727300000000000000000000000000000000000060648201526084016108b9565b611d9e303385612868565b600060c08201819052838152600e60209081526040909120825181558183015180518493610c6e9260018501929101906130fd565b6060600180546107ba906135c3565b600160a060020a038216331415611e3e5760405160e560020a62461bcd02815260206004820152601960248201527f4552433732313a20617070726f766520746f2063616c6c65720000000000000060448201526064016108b9565b336000818152600560209081526040808320600160a060020a03871680855290835292819020805460ff191686151590811790915590519081529192917f17307eab39ab6107e8899845ad3d59bd9653f200f220920489ca2b5937696c31910160405180910390a35050565b33611eb457600080fd5b611ebd816127dd565b611ec657600080fd5b6000611ed182611455565b9050600160a060020a0381163314611ee857600080fd5b6000600e60008481526020019081526020016000206040518061014001604052908160008201548152602001600182018054611f23906135c3565b80601f0160208091040260200160405190810160405280929190818152602001828054611f4f906135c3565b8015611f9c5780601f10611f7157610100808354040283529160200191611f9c565b820191906000526020600020905b815481529060010190602001808311611f7f57829003601f168201915b50505050508152602001600282018054611fb5906135c3565b80601f0160208091040260200160405190810160405280929190818152602001828054611fe1906135c3565b801561202e5780601f106120035761010080835404028352916020019161202e565b820191906000526020600020905b81548152906001019060200180831161201157829003601f168201915b50505091835250506003820154600160a060020a0390811660208301526004830154811660408301526005830154908116606083015260ff60a060020a909104811615156080830152600683015460a0830152600783015460c08084019190915260089093015416151560e090910152810151909150156120ae57600080fd5b806101200151156120c65760006101208201526120cf565b60016101208201525b6000838152600e60209081526040909120825181558183015180518493610c6e9260018501929101906130fd565b600080610a2283611455565b6121133383612a3b565b6121325760405160e560020a62461bcd0281526004016108b990613601565b61213e84848484612bec565b50505050565b60008061215083612772565b915091508115610a1157600a805461216a906001906136c6565b8154811061217a5761217a6136dd565b600091825260209091200154600a8054600160a060020a0390921691839081106121a6576121a66136dd565b9060005260206000200160006101000a815481600160a060020a030219169083600160a060020a03160217905550600a8054806121e5576121e56136f6565b60008281526020902081016000199081018054600160a060020a0319169055019055505050565b6000818152600e602090815260408083208151610140810190925280548252600181018054859484019190612240906135c3565b80601f016020809104026020016040519081016040528092919081815260200182805461226c906135c3565b80156122b95780601f1061228e576101008083540402835291602001916122b9565b820191906000526020600020905b81548152906001019060200180831161229c57829003601f168201915b505050505081526020016002820180546122d2906135c3565b80601f01602080910402602001604051908101604052809291908181526020018280546122fe906135c3565b801561234b5780601f106123205761010080835404028352916020019161234b565b820191906000526020600020905b81548152906001019060200180831161232e57829003601f168201915b50505091835250506003820154600160a060020a0390811660208301526004830154811660408301526005830154908116606083015260ff60a060020a909104811615156080830152600683015460a0830152600783015460c0830152600890920154909116151560e09182015201519392505050565b60606123cd826127dd565b6124425760405160e560020a62461bcd02815260206004820152603160248201527f45524337323155524953746f726167653a2055524920717565727920666f722060448201527f6e6f6e6578697374656e7420746f6b656e00000000000000000000000000000060648201526084016108b9565b6000828152600660205260408120805461245b906135c3565b80601f0160208091040260200160405190810160405280929190818152602001828054612487906135c3565b80156124d45780601f106124a9576101008083540402835291602001916124d4565b820191906000526020600020905b8154815290600101906020018083116124b757829003601f168201915b5050505050905060006124f260408051602081019091526000815290565b9050805160001415612505575092915050565b81511561253757808260405160200161251f92919061370f565b60405160208183030381529060405292505050919050565b61254084612c22565b949350505050565b6000818152600e602090815260408083208151610140810190925280548252600181018054606095948401919061257e906135c3565b80601f01602080910402602001604051908101604052809291908181526020018280546125aa906135c3565b80156125f75780601f106125cc576101008083540402835291602001916125f7565b820191906000526020600020905b8154815290600101906020018083116125da57829003601f168201915b50505050508152602001600282018054612610906135c3565b80601f016020809104026020016040519081016040528092919081815260200182805461263c906135c3565b80156126895780601f1061265e57610100808354040283529160200191612689565b820191906000526020600020905b81548152906001019060200180831161266c57829003601f168201915b50505091835250506003820154600160a060020a039081166020808401919091526004840154821660408401526005840154918216606084015260ff60a060020a909204821615156080840152600684015460a0840152600784015460c084015260089093015416151560e09091015201519392505050565b60078054611870906135c3565b600061271a82612772565b5090508061276e57600a80546001810182556000919091527fc65a7bb8d6351c1cf70c95a316cc6a92839c986682d98bc35f958f4883f9d2a8018054600160a060020a031916600160a060020a0384161790555b5050565b60008060005b600a548110156127d157600a8181548110612795576127956136dd565b600091825260209091200154600160a060020a03858116911614156127bf57600194909350915050565b6127ca600182613677565b9050612778565b50600093849350915050565b600090815260026020526040902054600160a060020a0316151590565b60008181526004602052604090208054600160a060020a031916600160a060020a038416908117909155819061282f82611455565b600160a060020a03167f8c5be1e5ebec7d5bd14f71427d1e84f3dd0314c0f7b2291e5b200ac8c7c3b92560405160405180910390a45050565b82600160a060020a031661287b82611455565b600160a060020a0316146128fa5760405160e560020a62461bcd02815260206004820152602960248201527f4552433732313a207472616e73666572206f6620746f6b656e2074686174206960448201527f73206e6f74206f776e000000000000000000000000000000000000000000000060648201526084016108b9565b600160a060020a0382166129785760405160e560020a62461bcd028152602060048201526024808201527f4552433732313a207472616e7366657220746f20746865207a65726f2061646460448201527f726573730000000000000000000000000000000000000000000000000000000060648201526084016108b9565b6129836000826127fa565b600160a060020a03831660009081526003602052604081208054600192906129ac9084906136c6565b9091555050600160a060020a03821660009081526003602052604081208054600192906129da908490613677565b90915550506000818152600260205260408082208054600160a060020a031916600160a060020a0386811691821790925591518493918716917fddf252ad1be2c89b69c2b068fc378daa952ba7f163c4a11628f55a4df523b3ef91a4505050565b6000612a46826127dd565b612abb5760405160e560020a62461bcd02815260206004820152602c60248201527f4552433732313a206f70657261746f7220717565727920666f72206e6f6e657860448201527f697374656e7420746f6b656e000000000000000000000000000000000000000060648201526084016108b9565b6000612ac683611455565b905080600160a060020a031684600160a060020a03161480612b01575083600160a060020a0316612af68461083d565b600160a060020a0316145b806125405750600160a060020a0380821660009081526005602090815260408083209388168352929052205460ff16612540565b61276e828260405180602001604052806000815250612d0a565b612b58826127dd565b612bcd5760405160e560020a62461bcd02815260206004820152602e60248201527f45524337323155524953746f726167653a2055524920736574206f66206e6f6e60448201527f6578697374656e7420746f6b656e00000000000000000000000000000000000060648201526084016108b9565b60008281526006602090815260409091208251610a11928401906130fd565b612bf7848484612868565b612c0384848484612d40565b61213e5760405160e560020a62461bcd0281526004016108b99061373e565b6060612c2d826127dd565b612ca25760405160e560020a62461bcd02815260206004820152602f60248201527f4552433732314d657461646174613a2055524920717565727920666f72206e6f60448201527f6e6578697374656e7420746f6b656e000000000000000000000000000000000060648201526084016108b9565b6000612cb960408051602081019091526000815290565b90506000815111612cd95760405180602001604052806000815250610a22565b80612ce384612e73565b604051602001612cf492919061370f565b6040516020818303038152906040529392505050565b612d148383612fc4565b612d216000848484612d40565b610a115760405160e560020a62461bcd0281526004016108b99061373e565b6000600160a060020a0384163b15612e68576040517f150b7a02000000000000000000000000000000000000000000000000000000008152600160a060020a0385169063150b7a0290612d9d90339089908890889060040161379b565b6020604051808303816000875af1925050508015612dd8575060408051601f3d908101601f19168201909252612dd5918101906137d7565b60015b612e35573d808015612e06576040519150601f19603f3d011682016040523d82523d6000602084013e612e0b565b606091505b508051612e2d5760405160e560020a62461bcd0281526004016108b99061373e565b805181602001fd5b600160e060020a0319167f150b7a0200000000000000000000000000000000000000000000000000000000149050612540565b506001949350505050565b606081612eb357505060408051808201909152600181527f3000000000000000000000000000000000000000000000000000000000000000602082015290565b8160005b8115612edd5780612ec78161368f565b9150612ed69050600a8361380d565b9150612eb7565b60008167ffffffffffffffff811115612ef857612ef86132ed565b6040519080825280601f01601f191660200182016040528015612f22576020820181803683370190505b5090505b841561254057612f376001836136c6565b9150612f44600a86613821565b612f4f906030613677565b7f010000000000000000000000000000000000000000000000000000000000000002818381518110612f8357612f836136dd565b60200101907effffffffffffffffffffffffffffffffffffffffffffffffffffffffffffff1916908160001a905350612fbd600a8661380d565b9450612f26565b600160a060020a03821661301d5760405160e560020a62461bcd02815260206004820181905260248201527f4552433732313a206d696e7420746f20746865207a65726f206164647265737360448201526064016108b9565b613026816127dd565b156130765760405160e560020a62461bcd02815260206004820152601c60248201527f4552433732313a20746f6b656e20616c7265616479206d696e7465640000000060448201526064016108b9565b600160a060020a038216600090815260036020526040812080546001929061309f908490613677565b90915550506000818152600260205260408082208054600160a060020a031916600160a060020a03861690811790915590518392907fddf252ad1be2c89b69c2b068fc378daa952ba7f163c4a11628f55a4df523b3ef908290a45050565b828054613109906135c3565b90600052602060002090601f01602090048101928261312b5760008555613171565b82601f1061314457805160ff1916838001178555613171565b82800160010185558215613171579182015b82811115613171578251825591602001919060010190613156565b5061317d929150613181565b5090565b5b8082111561317d5760008155600101613182565b600160e060020a0319811681146131ac57600080fd5b50565b6000602082840312156131c157600080fd5b8135610a2281613196565b60005b838110156131e75781810151838201526020016131cf565b8381111561213e5750506000910152565b600081518084526132108160208601602086016131cc565b601f01601f19169290920160200192915050565b602081526000610a2260208301846131f8565b60006020828403121561324957600080fd5b5035919050565b8035600160a060020a038116811461326757600080fd5b919050565b6000806040838503121561327f57600080fd5b61328883613250565b946020939093013593505050565b6000806000606084860312156132ab57600080fd5b6132b484613250565b92506132c260208501613250565b9150604084013590509250925092565b6000602082840312156132e457600080fd5b610a2282613250565b60e060020a634e487b7102600052604160045260246000fd5b600067ffffffffffffffff80841115613321576133216132ed565b604051601f8501601f19908116603f01168101908282118183101715613349576133496132ed565b8160405280935085815286868601111561336257600080fd5b858560208301376000602087830101525050509392505050565b600082601f83011261338d57600080fd5b610a2283833560208501613306565b6000602082840312156133ae57600080fd5b813567ffffffffffffffff8111156133c557600080fd5b6125408482850161337c565b600080604083850312156133e457600080fd5b50508035926020909101359150565b60008060006060848603121561340857600080fd5b833567ffffffffffffffff8082111561342057600080fd5b61342c8783880161337c565b9450602086013591508082111561344257600080fd5b5061344f8682870161337c565b925050604084013590509250925092565b60006101408c835280602084015261347a8184018d6131f8565b9050828103604084015261348e818c6131f8565b600160a060020a039a8b166060850152988a16608084015250509490961660a085015291151560c084015260e0830152610100820152911515610120909201919091529392505050565b600080604083850312156134eb57600080fd5b6134f483613250565b91506020830135801515811461350957600080fd5b809150509250929050565b6000806000806080858703121561352a57600080fd5b61353385613250565b935061354160208601613250565b925060408501359150606085013567ffffffffffffffff81111561356457600080fd5b8501601f8101871361357557600080fd5b61358487823560208401613306565b91505092959194509250565b600080604083850312156135a357600080fd5b6135ac83613250565b91506135ba60208401613250565b90509250929050565b6002810460018216806135d757607f821691505b602082108114156135fb5760e060020a634e487b7102600052602260045260246000fd5b50919050565b60208082526031908201527f4552433732313a207472616e736665722063616c6c6572206973206e6f74206f60408201527f776e6572206e6f7220617070726f766564000000000000000000000000000000606082015260800190565b60e060020a634e487b7102600052601160045260246000fd5b6000821982111561368a5761368a61365e565b500190565b60006000198214156136a3576136a361365e565b5060010190565b600082516136bc8184602087016131cc565b9190910192915050565b6000828210156136d8576136d861365e565b500390565b60e060020a634e487b7102600052603260045260246000fd5b60e060020a634e487b7102600052603160045260246000fd5b600083516137218184602088016131cc565b8351908301906137358183602088016131cc565b01949350505050565b60208082526032908201527f4552433732313a207472616e7366657220746f206e6f6e20455243373231526560408201527f63656976657220696d706c656d656e7465720000000000000000000000000000606082015260800190565b6000600160a060020a038087168352808616602084015250836040830152608060608301526137cd60808301846131f8565b9695505050505050565b6000602082840312156137e957600080fd5b8151610a2281613196565b60e060020a634e487b7102600052601260045260246000fd5b60008261381c5761381c6137f4565b500490565b600082613830576138306137f4565b50069056fea2646970667358221220a806adf44dfde98c279e5714e422bcfd03dbbd2e32e86d65ce3add7b0476877b64736f6c634300080a0033",
  "immutableReferences": {},
  "source": "// SPDX-License-Identifier: MIT\npragma solidity ^0.8.0;\n//pragma abicoder v2;\n\n// import ERC721 iterface\nimport \"@openzeppelin/contracts/utils/Counters.sol\";\nimport \"@openzeppelin/contracts/token/ERC721/extensions/ERC721URIStorage.sol\";\nimport \"@openzeppelin/contracts/token/ERC721/ERC721.sol\";\nimport \"@openzeppelin/contracts/token/ERC721/IERC721.sol\";\n//import  \"@openzeppelin-solidity/contracts/token/ERC721/ERC721Full.sol\";\nimport \"@openzeppelin/contracts/token/ERC721/IERC721Receiver.sol\";\nimport \"@openzeppelin/contracts/token/ERC721/extensions/IERC721Metadata.sol\";\nimport \"@openzeppelin/contracts/utils/Address.sol\";\nimport \"@openzeppelin/contracts/utils/Context.sol\";\nimport \"@openzeppelin/contracts/utils/Strings.sol\";\nimport \"@openzeppelin/contracts/utils/introspection/ERC165.sol\";\n//import \"@openzeppelin/contracts/token/ERC721/extensions/IERC721Enumerable.sol\";\n\n// NFTStaking smart contract inherits ERC721 interface\ncontract NFTStaking is ERC721URIStorage  {\n\n  // Event declaration\n  // Up to 3 parameters can be indexed.\n  // Indexed parameters helps you filter the logs by the indexed parameter\n  \n\n  // this contract's token collection name\n  string public  collectionName;\n  // this contract's token symbol\n  string public  collectionNameSymbol;\n  // total number of crypto boys minted\n  uint256 public nftStakingCounter;\n  /**\n  * @notice We usually require to know who are all the stakeholders.\n  */\n  address[] internal stakeholders;\n  /**\n  * @notice The stakes for each stakeholder.\n  */\n  mapping(address => uint256[]) internal stakes;\n \n   /**\n   * @notice The accumulated rewards for each stakeholder.\n   */\n     mapping(address => uint256) internal rewards;\n\n     uint256[] internal nft;\n\n \n\n\n  event collectoinNameEvent(string _name);\n\n  // define crypto boy struct\n   struct Staking {\n    uint256 tokenId;\n    string tokenName;\n    string tokenURI;\n    address payable mintedBy;\n    address payable currentOwner;\n    address payable previousOwner;\n    bool staked;\n    uint256 price;\n    uint256 numberOfTransfers;\n    bool forSale;\n  }\n\n\n  // map staking's token id to crypto boy\n  mapping(uint256 => Staking) public allNFTStaking;\n  // check if token name exists\n  mapping(string => bool) public tokenNameExists;\n  // check if color exists\n  //mapping(string => bool) public colorExists;\n  // check if token URI exists\n  mapping(string => bool) public tokenURIExists;\n\n  // initialize contract while deployment with contract's collection name and token\n  //constructor() ERC721(\"Crypto Boys Collection\", \"CB\")\n  constructor(string memory _name, string memory _symbol) ERC721(\"Staking NFT Collection\", \"Staking\")\n  {\n    collectionName = _name;\n   \n    collectionNameSymbol = _symbol; \n  } \n\n/*   function registerUser(address _user) {\n\n    // registers user\n  \n  } */\n\n  // mint a new crypto boy\n  function mintStaking(string memory _name, string memory _tokenURI, uint256 _price) public {\n    // check if thic fucntion caller is not an zero address account\n    require(msg.sender != address(0),\"Try to mint NFT with 0x0 adress\");\n    // increment counter\n    nftStakingCounter ++;\n    // check if a token exists with the above token id => incremented counter\n    require(!_exists(nftStakingCounter));\n\n    // check if the token URI already exists or not\n    require(!tokenURIExists[_tokenURI],\"Try to mint anoter NFT with the same URI\");\n    // check if the token name already exists or not\n    require(!tokenNameExists[_name], \"Try to mint NFT with the same name\");\n\n    // mint the token\n    _safeMint(msg.sender, nftStakingCounter);\n    // set token URI (bind token id with the passed in token URI)\n    _setTokenURI(nftStakingCounter, _tokenURI);\n\n   \n    // make passed token URI as exists\n    tokenURIExists[_tokenURI] = true;\n    // make token name passed as exists\n    tokenNameExists[_name] = true;\n\n    // creat a new crypto boy (struct) and pass in new values\n    address payable zero  = payable (address(0));\n    address payable sender  = payable (msg.sender);\n    Staking memory newStaking = Staking(\n    nftStakingCounter,\n    _name,\n    _tokenURI,\n    sender,\n    sender,\n    zero,\n    false,\n    _price,\n    0,\n    true);\n    // add the token id and it's crypto boy to all crypto boys mapping\n    allNFTStaking[nftStakingCounter] = newStaking;\n  }\n\n  // get owner of the token\n  function getTokenOwner(uint256 _tokenId) public view returns(address) {\n    address _tokenOwner = ownerOf(_tokenId);\n    return _tokenOwner;\n  }\n\n  // get metadata of the token\n  function getTokenMetaData(uint _tokenId) public view returns(string memory) {\n    string memory tokenMetaData = tokenURI(_tokenId);\n    //Staking memory staking = allNFTStaking[_tokenId];\n    return (tokenMetaData);\n  }\n  // get name of the token\n  function getTokenName(uint _tokenId) public view returns(string memory) {\n    //string memory tokenMetaData = tokenURI(_tokenId);\n    Staking memory staking = allNFTStaking[_tokenId];\n    return (staking.tokenName);\n  }\n  // get price of the token\n  function getTokenPrice(uint _tokenId) public view returns(uint256) {\n    //string memory tokenMetaData = tokenURI(_tokenId);\n    Staking memory staking = allNFTStaking[_tokenId];\n    return (staking.price);\n  }\n\n  // get total number of tokens minted so far\n  function getNumberOfTokensMinted() public view returns(uint256) {\n    uint256 totalNumberOfTokensMinted = nftStakingCounter;\n    return totalNumberOfTokensMinted;\n  }\n\n  // get total number of tokens owned by an address\n  function getTotalNumberOfTokensOwnedByAnAddress(address _owner) public view returns(uint256) {\n    uint256 totalNumberOfTokensOwned = balanceOf(_owner);\n    return totalNumberOfTokensOwned;\n  }\n\n  // check if the token already exists\n  function getTokenExists(uint256 _tokenId) public view returns(bool) {\n    bool tokenExists = _exists(_tokenId);\n    return tokenExists;\n  }\n\n\n  // by a token by passing in the token's id\n  function buyToken(uint256 _tokenId) public payable {\n    // check if the function caller is not an zero account address\n    require(msg.sender != address(0),\"Buy nft with user 0x00\");\n    // check if the token id of the token being bought exists or not\n    require(_exists(_tokenId));\n    // get the token's owner\n    address tokenOwner = ownerOf(_tokenId);\n    // token's owner should not be an zero address account\n    require(tokenOwner != address(0));\n    // the one who wants to buy the token should not be the token's owner\n    require(tokenOwner != msg.sender);\n    // get that token from all crypto NFT mapping and create a memory of it defined as (struct => Staking)\n    Staking memory staking = allNFTStaking[_tokenId];\n    // price sent in to buy should be equal to or more than the token's price\n    require(msg.value >= staking.price);\n    // token should be for sale\n    require(staking.forSale);\n    // transfer the token from owner to the caller of the function (buyer)\n    _transfer(tokenOwner, msg.sender, _tokenId);\n    // get owner of the token\n    address payable sendTo = staking.currentOwner;\n    // send token's worth of ethers to the owner\n    sendTo.transfer(msg.value);\n    // update the token's previous owner\n    staking.previousOwner = staking.currentOwner;\n    // update the token's current owner\n    staking.currentOwner = payable (msg.sender);\n    // update the how many times this token was transfered\n    staking.numberOfTransfers += 1;\n    // set and update that token in the mapping\n    allNFTStaking[_tokenId] = staking;\n  }\n\n  function changeTokenPrice(uint256 _tokenId, uint256 _newPrice) public {\n    // require caller of the function is not an empty address\n    require(msg.sender != address(0));\n    // require that token should exist\n    require(_exists(_tokenId), \"Token do not exist\");\n    // get the token's owner\n    address tokenOwner = ownerOf(_tokenId);\n    // check that token's owner should be equal to the caller of the function\n    require(tokenOwner == msg.sender, \"Try to change token price with a user that is not the owner\");\n    // get that token from all crypto nft mapping and create a memory of it defined as (struct => Staking)\n    Staking memory staking = allNFTStaking[_tokenId];\n    // update token's price with new price\n    staking.price = _newPrice;\n    // set and update that token in the mapping\n    allNFTStaking[_tokenId] = staking;\n  }\n\n  // switch between set for sale and set not for sale\n  function toggleForSale(uint256 _tokenId) public {\n    // require caller of the function is not an empty address\n    require(msg.sender != address(0));\n    // require that token should exist\n    require(_exists(_tokenId));\n    // get the token's owner\n    address tokenOwner = ownerOf(_tokenId);\n    // check that token's owner should be equal to the caller of the function\n    require(tokenOwner == msg.sender);\n    // get that token from all crypto nft mapping and create a memory of it defined as (struct => Staking)\n    Staking memory staking = allNFTStaking[_tokenId];\n    // if token's forSale is false make it true and vice versa\n    // check that the token is not staked\n    require(staking.staked==false);\n    if(staking.forSale) {\n      staking.forSale = false;\n    } else {\n      staking.forSale = true;\n    }\n    // set and update that token in the mapping\n    allNFTStaking[_tokenId] = staking;\n  }\n\n  \n    // ---------- STAKES ----------\n\n    /* \n     * @notice A method for a stakeholder to create a NFT stake. The ideia of stake a NFT should be different \n     * stake a ERC20 token. The idea here is a transfer the onwership to the contract adn not  burn the NFT\n     * @param _stake The size of the stake to be created.\n     */\n     function createStake(uint256 _tokenId) external\n      {\n      \n      // require caller of the function is not an empty address\n      require(msg.sender != address(0));\n      // require that token should exist\n      require(_exists(_tokenId));\n      // get the token's owner\n      address tokenOwner = ownerOf(_tokenId);\n      // check that token's owner should be equal to the caller of the function\n      require(tokenOwner == msg.sender);\n      \n\n      // get that token from all crypto NFT mapping and create a memory of it defined as (struct => Staking)\n      Staking memory staking = allNFTStaking[_tokenId];\n      // check that the token is not staked\n      require(staking.staked==false);\n\n      \n      //_burn(_tokenId); // burn the NFT\n      // transfer the token from owner to the contract\n      _transfer(tokenOwner, address(this), _tokenId);\n      // change the status of staked == true\n      staking.staked = true;\n\n\n    \n\n      // set and update that token in the mapping\n      allNFTStaking[_tokenId] = staking;\n      \n     \n    }\n\n    /*\n     * @notice A method for a stakeholder to remove a stake. Transfer the owership to the owner of the contract\n     * @param _stake The size of the stake to be removed.\n     */\n     function removeStake(uint256 _tokenId)  public\n     {\n        // require caller of the function is not an empty address\n        require(msg.sender != address(0));\n        // require that token should exist\n        require(_exists(_tokenId));\n        // get the token's owner\n        address tokenOwner = ownerOf(_tokenId);\n        // check that token's owner should be equal to the caller of the function\n        require(tokenOwner == address(this));\n        // get that token from all crypto NFT mapping and create a memory of it defined as (struct => Staking)\n        Staking memory staking = allNFTStaking[_tokenId];\n        // check that the token is not staked\n        require(staking.staked==true);\n        require(staking.currentOwner==msg.sender,\"Try to remove the stake with a different users\");\n        \n        // transfer the token from contract to the owner\n        _transfer(address(this), msg.sender, _tokenId);\n        // change the status of staked == true\n        staking.staked = false;\n        \n        // set and update that token in the mapping\n        allNFTStaking[_tokenId] = staking;\n      }\n\n    function addStakeholder(address _stakeholder)\n        public\n    {\n        (bool _isStakeholder, ) = isStakeholder(_stakeholder);\n        if(!_isStakeholder) stakeholders.push(_stakeholder);\n    }\n\n\n    // ---------- STAKEHOLDERS ----------\n\n    /**\n     * @notice A method to check if an address is a stakeholder.\n     * @param _address The address to verify.\n     * @return bool, uint256 Whether the address is a stakeholder, \n     * and if so its position in the stakeholders array.\n     */\n     function isStakeholder(address _address) public view returns(bool, uint256)\n     {\n       for (uint256 s = 0; s < stakeholders.length; s += 1){\n          if (_address == stakeholders[s]) return (true, s);\n       }\n       return (false, 0);\n     }\n     function removeStakeholder(address _stakeholder) public {\n        (bool _isStakeholder, uint256 s) = isStakeholder(_stakeholder);\n        if(_isStakeholder){\n            stakeholders[s] = stakeholders[stakeholders.length - 1];\n            stakeholders.pop();\n        } \n    }\n}\n",
  "sourcePath": "/home/ubuntu/Consensys/blockchain-developer-bootcamp-final-project/contracts/NFTStaking.sol",
  "compiler": {
    "name": "solc",
    "version": "0.8.10+commit.fc410830.Linux.g++"
  },
  "schemaVersion": "3.4.3",
  "updatedAt": "2022-01-06T20:03:18.554Z",
  "devdoc": {
    "kind": "dev",
    "methods": {
      "approve(address,uint256)": {
        "details": "See {IERC721-approve}."
      },
      "balanceOf(address)": {
        "details": "See {IERC721-balanceOf}."
      },
      "getApproved(uint256)": {
        "details": "See {IERC721-getApproved}."
      },
      "isApprovedForAll(address,address)": {
        "details": "See {IERC721-isApprovedForAll}."
      },
      "isStakeholder(address)": {
        "params": {
          "_address": "The address to verify."
        },
        "returns": {
          "_0": "bool, uint256 Whether the address is a stakeholder,  and if so its position in the stakeholders array."
        }
      },
      "name()": {
        "details": "See {IERC721Metadata-name}."
      },
      "ownerOf(uint256)": {
        "details": "See {IERC721-ownerOf}."
      },
      "safeTransferFrom(address,address,uint256)": {
        "details": "See {IERC721-safeTransferFrom}."
      },
      "safeTransferFrom(address,address,uint256,bytes)": {
        "details": "See {IERC721-safeTransferFrom}."
      },
      "setApprovalForAll(address,bool)": {
        "details": "See {IERC721-setApprovalForAll}."
      },
      "supportsInterface(bytes4)": {
        "details": "See {IERC165-supportsInterface}."
      },
      "symbol()": {
        "details": "See {IERC721Metadata-symbol}."
      },
      "tokenURI(uint256)": {
        "details": "See {IERC721Metadata-tokenURI}."
      },
      "transferFrom(address,address,uint256)": {
        "details": "See {IERC721-transferFrom}."
      }
    },
    "version": 1
  },
  "userdoc": {
    "kind": "user",
    "methods": {
      "isStakeholder(address)": {
        "notice": "A method to check if an address is a stakeholder."
      }
    },
    "version": 1
  }
}